{"abi":[{"type":"function","name":"withdraw","inputs":[{"name":"token","type":"address","internalType":"contract ERC20"},{"name":"receiver","type":"address","internalType":"address"}],"outputs":[],"stateMutability":"nonpayable"}],"bytecode":{"object":"0x608060405234801561001057600080fd5b506101f3806100206000396000f3fe608060405234801561001057600080fd5b506004361061002b5760003560e01c8063f940e38514610030575b600080fd5b61004361003e36600461016b565b610045565b005b6040516370a0823160e01b81523060048201526100c49082906001600160a01b038516906370a0823190602401602060405180830381865afa15801561008f573d6000803e3d6000fd5b505050506040513d601f19601f820116820180604052508101906100b391906101a4565b6001600160a01b03851691906100c8565b5050565b600060405163a9059cbb60e01b81526001600160a01b0384166004820152826024820152602060006044836000895af13d15601f3d116001600051141617169150508061014d5760405162461bcd60e51b815260206004820152600f60248201526e1514905394d1915497d19052531151608a1b604482015260640160405180910390fd5b50505050565b6001600160a01b038116811461016857600080fd5b50565b6000806040838503121561017e57600080fd5b823561018981610153565b9150602083013561019981610153565b809150509250929050565b6000602082840312156101b657600080fd5b505191905056fea2646970667358221220b0e65a24ed177b74a5872897df7b265206779c4b6dd00f4fbbed0c52df8d59bb64736f6c63430008140033","linkReferences":{}},"methodIdentifiers":{"withdraw(address,address)":"f940e385"},"id":82}