{"abi":[{"type":"constructor","inputs":[],"stateMutability":"nonpayable"},{"type":"receive","stateMutability":"payable"},{"type":"function","name":"areChecksDeferred","inputs":[],"outputs":[{"name":"","type":"bool","internalType":"bool"}],"stateMutability":"view"},{"type":"function","name":"areChecksInProgress","inputs":[],"outputs":[{"name":"","type":"bool","internalType":"bool"}],"stateMutability":"view"},{"type":"function","name":"batch","inputs":[{"name":"items","type":"tuple[]","internalType":"struct IEVC.BatchItem[]","components":[{"name":"targetContract","type":"address","internalType":"address"},{"name":"onBehalfOfAccount","type":"address","internalType":"address"},{"name":"value","type":"uint256","internalType":"uint256"},{"name":"data","type":"bytes","internalType":"bytes"}]}],"outputs":[],"stateMutability":"payable"},{"type":"function","name":"batchRevert","inputs":[{"name":"items","type":"tuple[]","internalType":"struct IEVC.BatchItem[]","components":[{"name":"targetContract","type":"address","internalType":"address"},{"name":"onBehalfOfAccount","type":"address","internalType":"address"},{"name":"value","type":"uint256","internalType":"uint256"},{"name":"data","type":"bytes","internalType":"bytes"}]}],"outputs":[],"stateMutability":"payable"},{"type":"function","name":"batchSimulation","inputs":[{"name":"items","type":"tuple[]","internalType":"struct IEVC.BatchItem[]","components":[{"name":"targetContract","type":"address","internalType":"address"},{"name":"onBehalfOfAccount","type":"address","internalType":"address"},{"name":"value","type":"uint256","internalType":"uint256"},{"name":"data","type":"bytes","internalType":"bytes"}]}],"outputs":[{"name":"batchItemsResult","type":"tuple[]","internalType":"struct IEVC.BatchItemResult[]","components":[{"name":"success","type":"bool","internalType":"bool"},{"name":"result","type":"bytes","internalType":"bytes"}]},{"name":"accountsStatusCheckResult","type":"tuple[]","internalType":"struct IEVC.StatusCheckResult[]","components":[{"name":"checkedAddress","type":"address","internalType":"address"},{"name":"isValid","type":"bool","internalType":"bool"},{"name":"result","type":"bytes","internalType":"bytes"}]},{"name":"vaultsStatusCheckResult","type":"tuple[]","internalType":"struct IEVC.StatusCheckResult[]","components":[{"name":"checkedAddress","type":"address","internalType":"address"},{"name":"isValid","type":"bool","internalType":"bool"},{"name":"result","type":"bytes","internalType":"bytes"}]}],"stateMutability":"payable"},{"type":"function","name":"call","inputs":[{"name":"targetContract","type":"address","internalType":"address"},{"name":"onBehalfOfAccount","type":"address","internalType":"address"},{"name":"value","type":"uint256","internalType":"uint256"},{"name":"data","type":"bytes","internalType":"bytes"}],"outputs":[{"name":"result","type":"bytes","internalType":"bytes"}],"stateMutability":"payable"},{"type":"function","name":"controlCollateral","inputs":[{"name":"targetCollateral","type":"address","internalType":"address"},{"name":"onBehalfOfAccount","type":"address","internalType":"address"},{"name":"value","type":"uint256","internalType":"uint256"},{"name":"data","type":"bytes","internalType":"bytes"}],"outputs":[{"name":"result","type":"bytes","internalType":"bytes"}],"stateMutability":"payable"},{"type":"function","name":"disableCollateral","inputs":[{"name":"account","type":"address","internalType":"address"},{"name":"vault","type":"address","internalType":"address"}],"outputs":[],"stateMutability":"payable"},{"type":"function","name":"disableController","inputs":[{"name":"account","type":"address","internalType":"address"}],"outputs":[],"stateMutability":"payable"},{"type":"function","name":"enableCollateral","inputs":[{"name":"account","type":"address","internalType":"address"},{"name":"vault","type":"address","internalType":"address"}],"outputs":[],"stateMutability":"payable"},{"type":"function","name":"enableController","inputs":[{"name":"account","type":"address","internalType":"address"},{"name":"vault","type":"address","internalType":"address"}],"outputs":[],"stateMutability":"payable"},{"type":"function","name":"forgiveAccountStatusCheck","inputs":[{"name":"account","type":"address","internalType":"address"}],"outputs":[],"stateMutability":"payable"},{"type":"function","name":"forgiveVaultStatusCheck","inputs":[],"outputs":[],"stateMutability":"payable"},{"type":"function","name":"getAccountOwner","inputs":[{"name":"account","type":"address","internalType":"address"}],"outputs":[{"name":"owner","type":"address","internalType":"address"}],"stateMutability":"view"},{"type":"function","name":"getAddressPrefix","inputs":[{"name":"account","type":"address","internalType":"address"}],"outputs":[{"name":"","type":"bytes19","internalType":"bytes19"}],"stateMutability":"pure"},{"type":"function","name":"getCollaterals","inputs":[{"name":"account","type":"address","internalType":"address"}],"outputs":[{"name":"","type":"address[]","internalType":"address[]"}],"stateMutability":"view"},{"type":"function","name":"getControllers","inputs":[{"name":"account","type":"address","internalType":"address"}],"outputs":[{"name":"","type":"address[]","internalType":"address[]"}],"stateMutability":"view"},{"type":"function","name":"getCurrentOnBehalfOfAccount","inputs":[{"name":"controllerToCheck","type":"address","internalType":"address"}],"outputs":[{"name":"onBehalfOfAccount","type":"address","internalType":"address"},{"name":"controllerEnabled","type":"bool","internalType":"bool"}],"stateMutability":"view"},{"type":"function","name":"getNonce","inputs":[{"name":"addressPrefix","type":"bytes19","internalType":"bytes19"},{"name":"nonceNamespace","type":"uint256","internalType":"uint256"}],"outputs":[{"name":"","type":"uint256","internalType":"uint256"}],"stateMutability":"view"},{"type":"function","name":"getOperator","inputs":[{"name":"addressPrefix","type":"bytes19","internalType":"bytes19"},{"name":"operator","type":"address","internalType":"address"}],"outputs":[{"name":"","type":"uint256","internalType":"uint256"}],"stateMutability":"view"},{"type":"function","name":"getRawExecutionContext","inputs":[],"outputs":[{"name":"context","type":"uint256","internalType":"uint256"}],"stateMutability":"view"},{"type":"function","name":"haveCommonOwner","inputs":[{"name":"account","type":"address","internalType":"address"},{"name":"otherAccount","type":"address","internalType":"address"}],"outputs":[{"name":"","type":"bool","internalType":"bool"}],"stateMutability":"pure"},{"type":"function","name":"isAccountOperatorAuthorized","inputs":[{"name":"account","type":"address","internalType":"address"},{"name":"operator","type":"address","internalType":"address"}],"outputs":[{"name":"","type":"bool","internalType":"bool"}],"stateMutability":"view"},{"type":"function","name":"isAccountStatusCheckDeferred","inputs":[{"name":"account","type":"address","internalType":"address"}],"outputs":[{"name":"","type":"bool","internalType":"bool"}],"stateMutability":"view"},{"type":"function","name":"isCollateralEnabled","inputs":[{"name":"account","type":"address","internalType":"address"},{"name":"vault","type":"address","internalType":"address"}],"outputs":[{"name":"","type":"bool","internalType":"bool"}],"stateMutability":"view"},{"type":"function","name":"isControlCollateralInProgress","inputs":[],"outputs":[{"name":"","type":"bool","internalType":"bool"}],"stateMutability":"view"},{"type":"function","name":"isControllerEnabled","inputs":[{"name":"account","type":"address","internalType":"address"},{"name":"vault","type":"address","internalType":"address"}],"outputs":[{"name":"","type":"bool","internalType":"bool"}],"stateMutability":"view"},{"type":"function","name":"isOperatorAuthenticated","inputs":[],"outputs":[{"name":"","type":"bool","internalType":"bool"}],"stateMutability":"view"},{"type":"function","name":"isSimulationInProgress","inputs":[],"outputs":[{"name":"","type":"bool","internalType":"bool"}],"stateMutability":"view"},{"type":"function","name":"isVaultStatusCheckDeferred","inputs":[{"name":"vault","type":"address","internalType":"address"}],"outputs":[{"name":"","type":"bool","internalType":"bool"}],"stateMutability":"view"},{"type":"function","name":"name","inputs":[],"outputs":[{"name":"","type":"string","internalType":"string"}],"stateMutability":"view"},{"type":"function","name":"permit","inputs":[{"name":"signer","type":"address","internalType":"address"},{"name":"nonceNamespace","type":"uint256","internalType":"uint256"},{"name":"nonce","type":"uint256","internalType":"uint256"},{"name":"deadline","type":"uint256","internalType":"uint256"},{"name":"value","type":"uint256","internalType":"uint256"},{"name":"data","type":"bytes","internalType":"bytes"},{"name":"signature","type":"bytes","internalType":"bytes"}],"outputs":[],"stateMutability":"payable"},{"type":"function","name":"reorderCollaterals","inputs":[{"name":"account","type":"address","internalType":"address"},{"name":"index1","type":"uint8","internalType":"uint8"},{"name":"index2","type":"uint8","internalType":"uint8"}],"outputs":[],"stateMutability":"payable"},{"type":"function","name":"requireAccountAndVaultStatusCheck","inputs":[{"name":"account","type":"address","internalType":"address"}],"outputs":[],"stateMutability":"payable"},{"type":"function","name":"requireAccountStatusCheck","inputs":[{"name":"account","type":"address","internalType":"address"}],"outputs":[],"stateMutability":"payable"},{"type":"function","name":"requireVaultStatusCheck","inputs":[],"outputs":[],"stateMutability":"payable"},{"type":"function","name":"setAccountOperator","inputs":[{"name":"account","type":"address","internalType":"address"},{"name":"operator","type":"address","internalType":"address"},{"name":"authorized","type":"bool","internalType":"bool"}],"outputs":[],"stateMutability":"payable"},{"type":"function","name":"setNonce","inputs":[{"name":"addressPrefix","type":"bytes19","internalType":"bytes19"},{"name":"nonceNamespace","type":"uint256","internalType":"uint256"},{"name":"nonce","type":"uint256","internalType":"uint256"}],"outputs":[],"stateMutability":"payable"},{"type":"function","name":"setOperator","inputs":[{"name":"addressPrefix","type":"bytes19","internalType":"bytes19"},{"name":"operator","type":"address","internalType":"address"},{"name":"operatorBitField","type":"uint256","internalType":"uint256"}],"outputs":[],"stateMutability":"payable"},{"type":"function","name":"version","inputs":[],"outputs":[{"name":"","type":"string","internalType":"string"}],"stateMutability":"view"},{"type":"event","name":"AccountStatusCheck","inputs":[{"name":"account","type":"address","indexed":true,"internalType":"address"},{"name":"controller","type":"address","indexed":true,"internalType":"address"}],"anonymous":false},{"type":"event","name":"CallWithContext","inputs":[{"name":"caller","type":"address","indexed":true,"internalType":"address"},{"name":"onBehalfOfAddressPrefix","type":"bytes19","indexed":true,"internalType":"bytes19"},{"name":"onBehalfOfAccount","type":"address","indexed":false,"internalType":"address"},{"name":"targetContract","type":"address","indexed":true,"internalType":"address"},{"name":"selector","type":"bytes4","indexed":false,"internalType":"bytes4"}],"anonymous":false},{"type":"event","name":"CollateralStatus","inputs":[{"name":"account","type":"address","indexed":true,"internalType":"address"},{"name":"collateral","type":"address","indexed":true,"internalType":"address"},{"name":"enabled","type":"bool","indexed":false,"internalType":"bool"}],"anonymous":false},{"type":"event","name":"ControllerStatus","inputs":[{"name":"account","type":"address","indexed":true,"internalType":"address"},{"name":"controller","type":"address","indexed":true,"internalType":"address"},{"name":"enabled","type":"bool","indexed":false,"internalType":"bool"}],"anonymous":false},{"type":"event","name":"NonceUsed","inputs":[{"name":"addressPrefix","type":"bytes19","indexed":true,"internalType":"bytes19"},{"name":"nonceNamespace","type":"uint256","indexed":true,"internalType":"uint256"},{"name":"nonce","type":"uint256","indexed":false,"internalType":"uint256"}],"anonymous":false},{"type":"event","name":"OperatorStatus","inputs":[{"name":"addressPrefix","type":"bytes19","indexed":true,"internalType":"bytes19"},{"name":"operator","type":"address","indexed":true,"internalType":"address"},{"name":"accountOperatorAuthorized","type":"uint256","indexed":false,"internalType":"uint256"}],"anonymous":false},{"type":"event","name":"OwnerRegistered","inputs":[{"name":"addressPrefix","type":"bytes19","indexed":true,"internalType":"bytes19"},{"name":"owner","type":"address","indexed":true,"internalType":"address"}],"anonymous":false},{"type":"event","name":"VaultStatusCheck","inputs":[{"name":"vault","type":"address","indexed":true,"internalType":"address"}],"anonymous":false},{"type":"error","name":"EVC_AccountOwnerNotRegistered","inputs":[]},{"type":"error","name":"EVC_BatchPanic","inputs":[]},{"type":"error","name":"EVC_ChecksReentrancy","inputs":[]},{"type":"error","name":"EVC_ControlCollateralReentrancy","inputs":[]},{"type":"error","name":"EVC_ControllerViolation","inputs":[]},{"type":"error","name":"EVC_EmptyError","inputs":[]},{"type":"error","name":"EVC_InvalidAddress","inputs":[]},{"type":"error","name":"EVC_InvalidData","inputs":[]},{"type":"error","name":"EVC_InvalidNonce","inputs":[]},{"type":"error","name":"EVC_InvalidOperatorStatus","inputs":[]},{"type":"error","name":"EVC_InvalidTimestamp","inputs":[]},{"type":"error","name":"EVC_InvalidValue","inputs":[]},{"type":"error","name":"EVC_NotAuthorized","inputs":[]},{"type":"error","name":"EVC_OnBehalfOfAccountNotAuthenticated","inputs":[]},{"type":"error","name":"EVC_RevertedBatchResult","inputs":[{"name":"batchItemsResult","type":"tuple[]","internalType":"struct IEVC.BatchItemResult[]","components":[{"name":"success","type":"bool","internalType":"bool"},{"name":"result","type":"bytes","internalType":"bytes"}]},{"name":"accountsStatusResult","type":"tuple[]","internalType":"struct IEVC.StatusCheckResult[]","components":[{"name":"checkedAddress","type":"address","internalType":"address"},{"name":"isValid","type":"bool","internalType":"bool"},{"name":"result","type":"bytes","internalType":"bytes"}]},{"name":"vaultsStatusResult","type":"tuple[]","internalType":"struct IEVC.StatusCheckResult[]","components":[{"name":"checkedAddress","type":"address","internalType":"address"},{"name":"isValid","type":"bool","internalType":"bool"},{"name":"result","type":"bytes","internalType":"bytes"}]}]},{"type":"error","name":"EVC_SimulationBatchNested","inputs":[]},{"type":"error","name":"InvalidIndex","inputs":[]},{"type":"error","name":"TooManyElements","inputs":[]}],"bytecode":{"object":"0x60c06040523480156200001157600080fd5b50600160c81b60005562000026600162000128565b6200003361010262000128565b466080526200011f604080518082018252601881527f457468657265756d205661756c7420436f6e6e6563746f7200000000000000006020918201528151808301835260018152603160f81b9082015281517f8b73c3c69bb8fe3d512ecc4cf759cc79239f7b179b0ffacaa9a75d522b39400f818301527f040f0adc9d57e8bea9a4602b7065ad7261f63d709e7be772afe0ceb20a92d473818401527fc89efdaa54c0f20c7adf612882df0950f5a951637e0307cdcb4c672f298b8bc660608201524660808201523060a0808301919091528351808303909101815260c0909101909252815191012090565b60a052620001ab565b80546001600160a81b0316600160a81b17815560015b60148110156200019157600182810182610100811062000162576200016262000195565b0180546001600160601b0392909216600160a01b026001600160a01b039092169190911790556001016200013e565b5050565b634e487b7160e01b600052603260045260246000fd5b60805160a051613d7b620001d160003960006124f1015260006123e90152613d7b6000f3fe60806040526004361061023f5760003560e01c8063863789d71161012e578063c16ae7a4116100ab578063e21e537c1161006f578063e21e537c146106bc578063e920e8e0146106d9578063ebf1ea86146106ec578063f4fc3570146106f4578063fd6046d71461070757600080fd5b8063c16ae7a414610643578063c368516c14610656578063c760d92114610669578063cdd8ea7814610689578063d44fee5a146106a957600080fd5b8063a4d25d1e116100f2578063a4d25d1e1461058d578063a829aaf5146105ba578063b03c130d146105cd578063b9b70ff51461061d578063c14c11bf1461063057600080fd5b8063863789d71461051857806392d2fc01146105355780639e716d58146105525780639f5c462a14610572578063a37d54af1461058557600080fd5b8063430292b3116101bc57806354fd4d501161018057806354fd4d5014610490578063642ea23f146104bd5780636a7bc3ea146104d05780637f17c377146104e35780637f5c92f31461050557600080fd5b8063430292b3146103cf578063442b172c146103ec578063465910321461042457806347cfdac414610437578063506d8c921461045757600080fd5b80631f8b5215116102035780631f8b52151461035757806330f316671461036a5780633a1a3a1d1461037d5780633b2416be1461039257806342e53499146103af57600080fd5b806306fdde031461024b57806310a75198146102a557806312d6c936146102ba5780631647292a146102e857806318503a1e1461031857600080fd5b3661024657005b600080fd5b34801561025757600080fd5b5061028f6040518060400160405280601881526020017722ba3432b932bab6902b30bab63a1021b7b73732b1ba37b960411b81525081565b60405161029c91906131b2565b60405180910390f35b6102b86102b33660046131da565b610727565b005b3480156102c657600080fd5b506102da6102d536600461320f565b6107ed565b60405190815260200161029c565b3480156102f457600080fd5b50610308610303366004613239565b61081a565b604051901515815260200161029c565b34801561032457600080fd5b506103386103333660046131da565b61082d565b604080516001600160a01b03909316835290151560208301520161029c565b61028f6103653660046132ba565b6108ac565b6102b86103783660046131da565b61093f565b34801561038957600080fd5b506000546102da565b34801561039e57600080fd5b5060005460ff60b81b161515610308565b3480156103bb57600080fd5b506103086103ca3660046131da565b6109be565b3480156103db57600080fd5b5060005460ff60a01b161515610308565b3480156103f857600080fd5b5061040c6104073660046131da565b6109f1565b6040516001600160a01b03909116815260200161029c565b6102b86104323660046131da565b610a2a565b34801561044357600080fd5b50610308610452366004613239565b610a87565b34801561046357600080fd5b506104776104723660046131da565b610aaa565b6040516001600160681b0319909116815260200161029c565b34801561049c57600080fd5b5061028f604051806040016040528060018152602001603160f81b81525081565b6102b86104cb36600461333d565b610ab5565b6102b86104de366004613382565b610b43565b6104f66104f136600461342c565b610df3565b60405161029c93929190613513565b6102b861051336600461342c565b610f16565b34801561052457600080fd5b5060005460ff60b01b161515610308565b34801561054157600080fd5b5060005460ff60c01b161515610308565b34801561055e57600080fd5b5061030861056d366004613239565b61110c565b6102b86105803660046135b8565b61112f565b6102b86112d4565b34801561059957600080fd5b506105ad6105a83660046131da565b61133d565b60405161029c9190613647565b6102b86105c836600461365a565b611362565b3480156105d957600080fd5b506102da6105e836600461368d565b6001600160681b031982166000908152610204602090815260408083206001600160a01b038516845290915290205492915050565b61028f61062b3660046132ba565b61142e565b6102b861063e3660046136a9565b611578565b6102b861065136600461342c565b611686565b6102b8610664366004613239565b611774565b34801561067557600080fd5b50610308610684366004613239565b61187f565b34801561069557600080fd5b506103086106a43660046131da565b61188d565b6102b86106b7366004613239565b6118c1565b3480156106c857600080fd5b5060005460ff60a81b161515610308565b6102b86106e7366004613239565b6119b5565b6102b8611a80565b6102b86107023660046131da565b611ac8565b34801561071357600080fd5b506105ad6107223660046131da565b611b8c565b60005460ff60a81b81161561074f57604051630f83652160e31b815260040160405180910390fd5b610762600060ff60a81b83175b90611bb1565b60009081556001600160a01b038084168252610207602052604090912054839160ff821691610100900416600182146107ae5760405163f1be451960e01b815260040160405180910390fd5b6001600160a01b03811633146107d75760405163e07f2e6b60e01b815260040160405180910390fd5b506107e59050600184611bcb565b505060005550565b6001600160681b031982166000908152610205602090815260408083208484529091529020545b92915050565b60006108268383611d96565b9392505050565b6000806108426000546001600160a01b031690565b91506001600160a01b03821661086b5760405163290bdc5760e11b815260040160405180910390fd5b6001600160a01b038316156108a2576001600160a01b03821660009081526102076020526040902061089d9084611e0b565b6108a5565b60005b9050915091565b60005460609060ff60a81b8116156108d757604051630f83652160e31b815260040160405180910390fd5b60ff60b01b8116156108fc576040516306efec6d60e11b815260040160405180910390fd5b5060005460ff60a01b811760009081556109198888888888611eb3565b935090508061092b5761092b83611fa5565b61093482611fcd565b505095945050505050565b60005460ff60a81b81161561096757604051630f83652160e31b815260040160405180910390fd5b610978600060ff60a81b831761075c565b600081905560ff60a01b16156109a657610993600183612001565b506109a061010233612001565b506109b8565b6109af82612140565b6109b83361215e565b60005550565b6000805460ff60a81b16156109e657604051630f83652160e31b815260040160405180910390fd5b610814600183611e0b565b60006109fc8261216a565b90506001600160a01b038116610a25576040516372637cd360e01b815260040160405180910390fd5b919050565b60005460ff60a81b811615610a5257604051630f83652160e31b815260040160405180910390fd5b610a63600060ff60a81b831761075c565b600081905560ff60a01b1615610a7e576109a0600183612001565b6109b882612140565b6001600160a01b0382166000908152610207602052604081206108269083611e0b565b6000610814826121a0565b60005460ff60a81b811615610add57604051630f83652160e31b815260040160405180910390fd5b60ff60b01b811615610b02576040516306efec6d60e11b815260040160405180910390fd5b5082610b0f8160016121b0565b506001600160a01b038416600090815261020660205260409020610b3490848461225b565b610b3d84610a2a565b50505050565b60005460ff60a81b811615610b6b57604051630f83652160e31b815260040160405180910390fd5b60ff60b01b811615610b90576040516306efec6d60e11b815260040160405180910390fd5b50333003610bb15760405163e07f2e6b60e01b815260040160405180910390fd5b6000610bbc8a6121a0565b90506001600160a01b038a161580610bdd5750610bdb8a610100111590565b155b15610bfb57604051638133abd160e01b815260040160405180910390fd5b6001600160681b031981166000908152610205602090815260408083208c8452909152902054600019811480610c315750888114155b15610c4f5760405163a82b84bb60e01b815260040160405180910390fd5b42881015610c7057604051637c9bb1cb60e01b815260040160405180910390fd5b6000859003610c925760405163742e310760e11b815260040160405180910390fd5b6000610ca38c8c8c8c8c8c8c6123e4565b9050610ce58186868080601f0160208091040260200160405190810160405280939291908181526020018383808284376000920191909152506125dc92505050565b6001600160a01b03168c6001600160a01b031614158015610d445750610d428c8287878080601f01602080910402602001604051908101604052809392919081815260200183838082843760009201919091525061269d92505050565b155b15610d625760405163e07f2e6b60e01b815260040160405180910390fd5b6001600160681b031983166000818152610205602090815260408083208f845282529182902060018601905590518c81528d92917fb0dcec731e48090736be6db10ad9f9581d0ec5fc0f1925a8e267b64b614b08d6910160405180910390a3600080610dd1308f8c8c8c612792565b9150915081610de357610de381611fa5565b5050505050505050505050505050565b6060806060600080306001600160a01b0316306001600160a01b0316637f5c92f38989604051602401610e27929190613711565b60408051601f198184030181529181526020820180516001600160e01b031660e09490941b939093179092529051610e5f9250613808565b600060405180830381855af49150503d8060008114610e9a576040519150601f19603f3d011682016040523d82523d6000602084013e610e9f565b606091505b50915091508115610ec357604051634cd2d4f360e01b815260040160405180910390fd5b63d4b0e4d360e01b610ed482613824565b6001600160e01b03191614610eec57610eec81611fa5565b60048101905080806020019051810190610f069190613a5a565b9199909850909650945050505050565b60005460ff60a81b811615610f3e57604051630f83652160e31b815260040160405180910390fd5b60ff60b01b811615610f63576040516306efec6d60e11b815260040160405180910390fd5b506000546060908190819060ff60a01b811615610f935760405163b83566c560e01b815260040160405180910390fd5b64ff000000ff60a01b811760005584806001600160401b03811115610fba57610fba613857565b60405190808252806020026020018201604052801561100057816020015b604080518082019091526000815260606020820152815260200190600190039081610fd85790505b50945060005b818110156110ba573688888381811061102157611021613b99565b90506020028101906110339190613baf565b905061106c61104560208301836131da565b61105560408401602085016131da565b60408401356110676060860186613bc5565b611eb3565b88848151811061107e5761107e613b99565b602002602001015160000189858151811061109b5761109b613b99565b6020908102919091018101510191909152901515905250600101611006565b5060ff60a81b821760009081556110d090612943565b93506110dc6001612943565b600083905560405163d4b0e4d360e01b815290935061110390869086908690600401613513565b60405180910390fd5b6001600160a01b0382166000908152610206602052604081206108269083611e0b565b600061113c8460016121b0565b9050600061010085831810611159576111548561216a565b61115b565b815b9050816001600160a01b0316816001600160a01b0316141580156111915750816001600160a01b0316846001600160a01b031614155b156111af5760405163e07f2e6b60e01b815260040160405180910390fd5b6001600160a01b0384163014806111c95750610100848218105b156111e757604051638133abd160e01b815260040160405180910390fd5b60006111f2866121a0565b6001600160681b031981166000908152610204602090815260408083206001600160a01b038a81168552925282205492935060018986189091161b91908661123d5782198216611241565b8282175b90508082036112635760405163655156bd60e01b815260040160405180910390fd5b6001600160681b031984166000818152610204602090815260408083206001600160a01b038d1680855290835292819020859055518481529192917f7ba31654d8467e98b6bd4fc56ddde246de9ade831cf860c7ac695579aecb9564910160405180910390a3505050505050505050565b60005460ff60a81b8116156112fc57604051630f83652160e31b815260040160405180910390fd5b61130d600060ff60a81b831761075c565b600081905560ff60a01b161561132f5761132961010233612001565b50600055565b6113383361215e565b600055565b6001600160a01b03811660009081526102066020526040902060609061081490612a88565b82610100600160a01b03606082901c1661137d8160006121b0565b506001600160681b0319851660009081526102056020908152604080832087845290915290205483116113c35760405163a82b84bb60e01b815260040160405180910390fd5b6001600160681b031985166000818152610205602090815260408083208884528252918290208690559051600019909501808652948692917fb0dcec731e48090736be6db10ad9f9581d0ec5fc0f1925a8e267b64b614b08d691015b60405180910390a35050505050565b60005460609060ff60a81b81161561145957604051630f83652160e31b815260040160405180910390fd5b60ff60b01b81161561147e576040516306efec6d60e11b815260040160405180910390fd5b506001600160a01b0380861660009081526102076020526040902054869160ff821691610100900416600182146114c85760405163f1be451960e01b815260040160405180910390fd5b6001600160a01b03811633146114f15760405163e07f2e6b60e01b815260040160405180910390fd5b50506001600160a01b0386166000908152610206602052604090206115169088611e0b565b6115335760405163e07f2e6b60e01b815260040160405180910390fd5b60005462ff00ff60a01b811760009081556115518989898989612792565b94509050806115635761156384611fa5565b61156c82611fcd565b50505095945050505050565b610100600160a01b03606084901c16600061159382826121b0565b90506001600160a01b0384163014806115af5750610100848218105b156115cd57604051638133abd160e01b815260040160405180910390fd5b6001600160681b031985166000908152610204602090815260408083206001600160a01b038816845290915290205483900361161c5760405163655156bd60e01b815260040160405180910390fd5b6001600160681b031985166000818152610204602090815260408083206001600160a01b03891680855290835292819020879055518681529192917f7ba31654d8467e98b6bd4fc56ddde246de9ade831cf860c7ac695579aecb9564910161141f565b5050505050565b60005460ff60a81b8116156116ae57604051630f83652160e31b815260040160405180910390fd5b60ff60b01b8116156116d3576040516306efec6d60e11b815260040160405180910390fd5b5060005460ff60a01b8117600090815582905b8181101561176a573685858381811061170157611701613b99565b90506020028101906117139190613baf565b905060008061174a61172860208501856131da565b61173860408601602087016131da565b60408601356110676060880188613bc5565b915091508161175c5761175c81611fa5565b8360010193505050506116e6565b50610b3d82611fcd565b60005460ff60a81b81161561179c57604051630f83652160e31b815260040160405180910390fd5b60ff60b01b8116156117c1576040516306efec6d60e11b815260040160405180910390fd5b50816117ce8160016121b0565b50306001600160a01b038316036117f857604051638133abd160e01b815260040160405180910390fd5b6001600160a01b03831660009081526102076020526040902061181b9083612001565b1561187157816001600160a01b0316836001600160a01b03167f9919d437ee612d4ec7bba88a7d9bc4fc36a0a23608ad6259252711a46b708af96001604051611868911515815260200190565b60405180910390a35b61187a83610a2a565b505050565b600061010082841810610826565b6000805460ff60a81b16156118b557604051630f83652160e31b815260040160405180910390fd5b61081461010283611e0b565b60005460ff60a81b8116156118e957604051630f83652160e31b815260040160405180910390fd5b60ff60b01b81161561190e576040516306efec6d60e11b815260040160405180910390fd5b508161191b8160016121b0565b50306001600160a01b0383160361194557604051638133abd160e01b815260040160405180910390fd5b6001600160a01b0383166000908152610206602052604090206119689083612001565b1561187157816001600160a01b0316836001600160a01b03167ff022705c827017c972043d1984cfddc7958c9f4685b4d9ce8bd68696f4381cd26001604051611868911515815260200190565b60005460ff60a81b8116156119dd57604051630f83652160e31b815260040160405180910390fd5b60ff60b01b811615611a02576040516306efec6d60e11b815260040160405180910390fd5b5081611a0f8160016121b0565b506001600160a01b038316600090815261020660205260409020611a339083611bcb565b1561187157816001600160a01b0316836001600160a01b03167ff022705c827017c972043d1984cfddc7958c9f4685b4d9ce8bd68696f4381cd26000604051611868911515815260200190565b60005460ff60a81b811615611aa857604051630f83652160e31b815260040160405180910390fd5b611ab9600060ff60a81b831761075c565b60005561132961010233611bcb565b60005460ff60a81b811615611af057604051630f83652160e31b815260040160405180910390fd5b60ff60b01b811615611b15576040516306efec6d60e11b815260040160405180910390fd5b506001600160a01b038116600090815261020760205260409020611b399033611bcb565b15611b80576040516000815233906001600160a01b038316907f9919d437ee612d4ec7bba88a7d9bc4fc36a0a23608ad6259252711a46b708af99060200160405180910390a35b611b8981610a2a565b50565b6001600160a01b03811660009081526102076020526040902060609061081490612a88565b6001600160a01b03166001600160a01b0319919091161790565b81546000906001600160a01b036101008204169060ff16808303611bf457600092505050610814565b6000846001600160a01b0316836001600160a01b031614611c66575060015b81811015611c5357846001600160a01b031686600101826101008110611c3b57611c3b613b99565b01546001600160a01b031614611c5357600101611c13565b818103611c665760009350505050610814565b81600103611c81575050600160a81b84555060019050610814565b6000198201818114611d445781600003611cdc5786600101816101008110611cab57611cab613b99565b015487546001600160a81b0319166101006001600160a01b039092169190910260ff19161760ff8216178755611d52565b86600101816101008110611cf257611cf2613b99565b01546001600160a01b031660018801836101008110611d1357611d13613b99565b0180546001600160a01b0319166001600160a01b0392909216919091179055865460ff191660ff8216178755611d52565b865460ff191660ff82161787555b600087600101826101008110611d6a57611d6a613b99565b0180546001600160a01b0319166001600160a01b03929092169190911790555060019695505050505050565b600080611da28461216a565b90506001600160a01b038116611dbc576000915050610814565b6000611dc7856121a0565b6001600160681b0319166000908152610204602090815260408083206001600160a01b0397881684529091529020546001929095189093161b909216151592915050565b81546000906001600160a01b036101008204169060ff16808303611e3457600092505050610814565b836001600160a01b0316826001600160a01b031603611e5857600192505050610814565b60015b81811015611ea757846001600160a01b031686600101826101008110611e8357611e83613b99565b01546001600160a01b031603611e9f5760019350505050610814565b600101611e5b565b50600095945050505050565b60006060306001600160a01b03881603611f6b576001600160a01b03861615611eef57604051638133abd160e01b815260040160405180910390fd5b8415611f0e5760405163bb6de1c760e01b815260040160405180910390fd5b6040513090611f209086908690613c0b565b600060405180830381855af49150503d8060008114611f5b576040519150601f19603f3d011682016040523d82523d6000602084013e611f60565b606091505b509092509050611f9b565b6001600160a01b0387163314611f8857611f868660016121b0565b505b611f958787878787612792565b90925090505b9550959350505050565b805115611fb457805181602001fd5b604051630e2b9d1f60e21b815260040160405180910390fd5b60ff60a01b811661133857611fe9600060ff60a81b831761075c565b6000908155611ff790612b8d565b6113386001612b8d565b81546000906001600160a01b036101008204169060ff1680830361205a5750508254600160a81b60016001600160a81b03199092166101006001600160a01b038616021782176001600160a81b03161784559050610814565b836001600160a01b0316826001600160a01b03160361207e57600092505050610814565b60015b818110156120cd57846001600160a01b0316866001018261010081106120a9576120a9613b99565b01546001600160a01b0316036120c55760009350505050610814565b600101612081565b5060131981016120f057604051630d5cb3e360e21b815260040160405180910390fd5b838560010182610100811061210757612107613b99565b0180546001600160a01b0319166001600160a01b0392909216919091179055845460ff1916600191820160ff1617909455509192915050565b60008061214c83612bc1565b915091508161187a5761187a81611fa5565b60008061214c83612d69565b600080612176836121a0565b6001600160681b031916600090815261020360205260409020546001600160a01b03169392505050565b60601b6001600160681b03191690565b600080806121bc612e69565b905061010085821810156122185760006121d58661216a565b90506001600160a01b0381166121f8576121ef8683612e87565b60019250612216565b816001600160a01b0316816001600160a01b03160361221657600192505b505b811580156122235750835b15612235576122328582611d96565b91505b816122535760405163e07f2e6b60e01b815260040160405180910390fd5b949350505050565b82546001600160a01b036101008204169060ff908116908381169085161015806122885750808360ff1610155b156122a6576040516363df817160e01b815260040160405180910390fd5b8360ff1660000361232b57846001018360ff1661010081106122ca576122ca613b99565b01546001600160a01b03168286600181810160ff881661010081106122f1576122f1613b99565b0180546001600160a01b039485166001600160a01b031990911617905581549383166101009190910a90810292021990921617905561167f565b846001018360ff16610100811061234457612344613b99565b01546001600160a01b03166001860160ff8616610100811061236857612368613b99565b01546001600160a01b03166001870160ff8716610100811061238c5761238c613b99565b0160006001890160ff881661010081106123a8576123a8613b99565b0180546001600160a01b039485166001600160a01b031990911617905581549383166101009190910a9081029202199092161790555050505050565b6000807f000000000000000000000000000000000000000000000000000000000000000046146124ef57604080518082018252601881527722ba3432b932bab6902b30bab63a1021b7b73732b1ba37b960411b6020918201528151808301835260018152603160f81b9082015281517f8b73c3c69bb8fe3d512ecc4cf759cc79239f7b179b0ffacaa9a75d522b39400f818301527f040f0adc9d57e8bea9a4602b7065ad7261f63d709e7be772afe0ceb20a92d473818401527fc89efdaa54c0f20c7adf612882df0950f5a951637e0307cdcb4c672f298b8bc660608201524660808201523060a0808301919091528351808303909101815260c09091019092528151910120612511565b7f00000000000000000000000000000000000000000000000000000000000000005b905060007ff58787301a7ad6ecf87baeb94385368da41dbbde24f93a09cbee9c89b27dc05a8a8a8a8a8a8a8a60405161254b929190613c0b565b60405190819003812061259a979695949392916020019687526001600160a01b0395909516602087015260408601939093526060850191909152608084015260a083015260c082015260e00190565b60405160208183030381529060405280519060200120905061190160f01b60005281600252806022526042600020925060006022525050979650505050505050565b600081516041146125ef57506000610814565b60208201516040830151606084015160001a7f7fffffffffffffffffffffffffffffff5d576e7357a4501ddfe92f46681b20a08211156126355760009350505050610814565b60408051600081526020810180835288905260ff831691810191909152606081018490526080810183905260019060a0016020604051602081039080840390855afa158015612688573d6000803e3d6000fd5b5050604051601f190151979650505050505050565b6000836001600160a01b03163b6000036126b957506000610826565b600080856001600160a01b031685856040516024016126d9929190613c1b565b60408051601f198184030181529181526020820180516001600160e01b0316630b135d3f60e11b1790525161270e9190613808565b600060405180830381855afa9150503d8060008114612749576040519150601f19603f3d011682016040523d82523d6000602084013e61274e565b606091505b5091509150818015612761575080516020145b801561278857508051630b135d3f60e11b906127869083016020908101908401613c34565b145b9695505050505050565b6000606060001985036127a7574794506127c8565b478511156127c85760405163bb6de1c760e01b815260040160405180910390fd5b60008054906127d5612e69565b905061010088821810806127f157506001600160a01b03891633145b8061280457506001600160a01b03891630145b80612814575060ff60b01b821615155b1561283857612830612826838a611bb1565b60ff60b81b191690565b600055612852565b61284e612845838a611bb1565b60ff60b81b1790565b6000555b886001600160a01b0316612865896121a0565b6001600160681b0319166001600160a01b0383167f6e9738e5aa38fe1517adbb480351ec386ece82947737b18badbcad1e911133ec8b6128a58a8c613c4d565b604080516001600160a01b0390931683526001600160e01b031990911660208301520160405180910390a4886001600160a01b03168787876040516128eb929190613c0b565b60006040518083038185875af1925050503d8060008114612928576040519150601f19603f3d011682016040523d82523d6000602084013e61292d565b606091505b5060009390935599919850909650505050505050565b606060008083600181111561295a5761295a613c7d565b146129725761296d610102612d69612ef8565b61297f565b61297f6001612bc1612ef8565b8051909150806001600160401b0381111561299c5761299c613857565b6040519080825280602002602001820160405280156129e957816020015b604080516060808201835260008083526020830152918101919091528152602001906001900390816129ba5790505b50925060005b81811015612a80576000806000858481518110612a0e57612a0e613b99565b6020026020010151806020019051810190612a299190613c93565b9250925092506040518060600160405280846001600160a01b03168152602001831515815260200182815250878581518110612a6757612a67613b99565b60200260200101819052508360010193505050506129ef565b505050919050565b80546060906001600160a01b036101008204169060ff166000816001600160401b03811115612ab957612ab9613857565b604051908082528060200260200182016040528015612ae2578160200160208202803683370190505b50905081600003612af557949350505050565b8281600081518110612b0957612b09613b99565b6001600160a01b039092166020928302919091019091015260015b82811015612b845785600101816101008110612b4257612b42613b99565b015482516001600160a01b0390911690839083908110612b6457612b64613b99565b6001600160a01b0390921660209283029190910190910152600101612b24565b50949350505050565b6000816001811115612ba157612ba1613c7d565b14612bb457611b8961010261215e6130a6565b611b8960016121406130a6565b6001600160a01b0380821660009081526102076020526040812054909160609160ff81169161010090910416818403612c1157600160405180602001604052806000815250935093505050915091565b6001821115612c335760405163f1be451960e01b815260040160405180910390fd5b6001600160a01b0385811660009081526102066020526040812090918316908790612c5d90612a88565b604051602401612c6e929190613cec565b60408051601f198184030181529181526020820180516001600160e01b031663b168c58f60e01b17905251612ca39190613808565b6000604051808303816000865af19150503d8060008114612ce0576040519150601f19603f3d011682016040523d82523d6000602084013e612ce5565b606091505b5094509050808015612cf8575083516020145b8015612d1f5750835163b168c58f60e01b90612d1d9086016020908101908701613c34565b145b9450816001600160a01b0316866001600160a01b03167f889a4d4628b31342e420737e2aeb45387087570710d26239aa8a5f13d3e829d460405160405180910390a3505050915091565b60408051600481526024810182526020810180516001600160e01b0316634b3d122360e01b179052905160009160609183916001600160a01b03861691612db09190613808565b6000604051808303816000865af19150503d8060008114612ded576040519150601f19603f3d011682016040523d82523d6000602084013e612df2565b606091505b5092509050808015612e05575081516020145b8015612e2c57508151634b3d122360e01b90612e2a9084016020908101908501613c34565b145b6040519093506001600160a01b038516907faea973cfb51ea8ca328767d72f105b5b9d2360c65f5ac4110a2c4470434471c990600090a250915091565b6000303314612e7757503390565b506000546001600160a01b031690565b6000612e92836121a0565b6001600160681b031981166000818152610203602052604080822080546001600160a01b0319166001600160a01b0388169081179091559051939450927f67cb2734834e775d6db886bf16ac03d7273b290223ee5363354b385ec5b643b09190a3505050565b815460609060ff81169061010090046001600160a01b03166000826001600160401b03811115612f2a57612f2a613857565b604051908082528060200260200182016040528015612f5d57816020015b6060815260200190600190039081612f485790505b50905082600003612f72579250610814915050565b85546001600160a81b0319168655600080612f908463ffffffff8916565b91509150838282604051602001612fa993929190613d10565b60405160208183030381529060405283600081518110612fcb57612fcb613b99565b602090810291909101015260015b8581101561309957600089600101826101008110612ff957612ff9613b99565b01546001600160a01b03169050600060018b0183610100811061301e5761301e613b99565b0180546001600160a01b0319166001600160a01b039290921691909117905561304a8163ffffffff8b16565b604051919550935061306490829086908690602001613d10565b60405160208183030381529060405285838151811061308557613085613b99565b602090810291909101015250600101612fd9565b5091979650505050505050565b815460ff81169061010090046001600160a01b031660008290036130ca5750505050565b83546001600160a81b03191684556130e58163ffffffff8516565b60015b8281101561167f5760008560010182610100811061310857613108613b99565b01546001600160a01b0316905060006001870183610100811061312d5761312d613b99565b0180546001600160a01b0319166001600160a01b03929092169190911790556131598163ffffffff8716565b506001016130e8565b60005b8381101561317d578181015183820152602001613165565b50506000910152565b6000815180845261319e816020860160208601613162565b601f01601f19169290920160200192915050565b6020815260006108266020830184613186565b6001600160a01b0381168114611b8957600080fd5b6000602082840312156131ec57600080fd5b8135610826816131c5565b80356001600160681b031981168114610a2557600080fd5b6000806040838503121561322257600080fd5b61322b836131f7565b946020939093013593505050565b6000806040838503121561324c57600080fd5b8235613257816131c5565b91506020830135613267816131c5565b809150509250929050565b60008083601f84011261328457600080fd5b5081356001600160401b0381111561329b57600080fd5b6020830191508360208285010111156132b357600080fd5b9250929050565b6000806000806000608086880312156132d257600080fd5b85356132dd816131c5565b945060208601356132ed816131c5565b93506040860135925060608601356001600160401b0381111561330f57600080fd5b61331b88828901613272565b969995985093965092949392505050565b803560ff81168114610a2557600080fd5b60008060006060848603121561335257600080fd5b833561335d816131c5565b925061336b6020850161332c565b91506133796040850161332c565b90509250925092565b600080600080600080600080600060e08a8c0312156133a057600080fd5b89356133ab816131c5565b985060208a0135975060408a0135965060608a0135955060808a0135945060a08a01356001600160401b03808211156133e357600080fd5b6133ef8d838e01613272565b909650945060c08c013591508082111561340857600080fd5b506134158c828d01613272565b915080935050809150509295985092959850929598565b6000806020838503121561343f57600080fd5b82356001600160401b038082111561345657600080fd5b818501915085601f83011261346a57600080fd5b81358181111561347957600080fd5b8660208260051b850101111561348e57600080fd5b60209290920196919550909350505050565b600081518084526020808501808196508360051b8101915082860160005b85811015613099578284038952815180516001600160a01b03168552858101511515868601526040908101516060918601829052906134ff81870183613186565b9a87019a95505050908401906001016134be565b6000606082016060835280865180835260808501915060808160051b8601019250602080890160005b8381101561358057878603607f190185528151805115158752830151604084880181905261356c81890183613186565b97505050938201939082019060010161353c565b50508584038187015250505061359681866134a0565b9050828103604084015261278881856134a0565b8015158114611b8957600080fd5b6000806000606084860312156135cd57600080fd5b83356135d8816131c5565b925060208401356135e8816131c5565b915060408401356135f8816135aa565b809150509250925092565b600081518084526020808501945080840160005b8381101561363c5781516001600160a01b031687529582019590820190600101613617565b509495945050505050565b6020815260006108266020830184613603565b60008060006060848603121561366f57600080fd5b613678846131f7565b95602085013595506040909401359392505050565b600080604083850312156136a057600080fd5b613257836131f7565b6000806000606084860312156136be57600080fd5b6136c7846131f7565b925060208401356136d7816131c5565b929592945050506040919091013590565b81835281816020850137506000828201602090810191909152601f909101601f19169091010190565b60208082528181018390526000906040808401600586901b8501820187855b888110156137fa57878303603f190184528135368b9003607e1901811261375657600080fd5b8a0160808135613765816131c5565b6001600160a01b0390811686528289013590613780826131c5565b1685890152818701358786015260608083013536849003601e190181126137a657600080fd5b9092018881019290356001600160401b038111156137c357600080fd5b8036038413156137d257600080fd5b82828801526137e483880182866136e8565b978a019796505050928701925050600101613730565b509098975050505050505050565b6000825161381a818460208701613162565b9190910192915050565b805160208201516001600160e01b03198082169291906004831015612a805760049290920360031b82901b161692915050565b634e487b7160e01b600052604160045260246000fd5b604051606081016001600160401b038111828210171561388f5761388f613857565b60405290565b604080519081016001600160401b038111828210171561388f5761388f613857565b604051601f8201601f191681016001600160401b03811182821017156138df576138df613857565b604052919050565b60006001600160401b0382111561390057613900613857565b5060051b60200190565b600082601f83011261391b57600080fd5b81516001600160401b0381111561393457613934613857565b613947601f8201601f19166020016138b7565b81815284602083860101111561395c57600080fd5b612253826020830160208701613162565b600082601f83011261397e57600080fd5b8151602061399361398e836138e7565b6138b7565b82815260059290921b840181019181810190868411156139b257600080fd5b8286015b84811015613a4f5780516001600160401b03808211156139d65760008081fd5b908801906060828b03601f19018113156139f05760008081fd5b6139f861386d565b87840151613a05816131c5565b8152604084810151613a16816135aa565b828a0152918401519183831115613a2d5760008081fd5b613a3b8d8a8588010161390a565b9082015286525050509183019183016139b6565b509695505050505050565b600080600060608486031215613a6f57600080fd5b83516001600160401b0380821115613a8657600080fd5b818601915086601f830112613a9a57600080fd5b81516020613aaa61398e836138e7565b82815260059290921b8401810191818101908a841115613ac957600080fd5b8286015b84811015613b4657805186811115613ae457600080fd5b87016040818e03601f19011215613afb5760008081fd5b613b03613895565b85820151613b10816135aa565b8152604082015188811115613b255760008081fd5b613b338f888386010161390a565b8288015250845250918301918301613acd565b5091890151919750909350505080821115613b6057600080fd5b613b6c8783880161396d565b93506040860151915080821115613b8257600080fd5b50613b8f8682870161396d565b9150509250925092565b634e487b7160e01b600052603260045260246000fd5b60008235607e1983360301811261381a57600080fd5b6000808335601e19843603018112613bdc57600080fd5b8301803591506001600160401b03821115613bf657600080fd5b6020019150368190038213156132b357600080fd5b8183823760009101908152919050565b8281526040602082015260006122536040830184613186565b600060208284031215613c4657600080fd5b5051919050565b6001600160e01b03198135818116916004851015613c755780818660040360031b1b83161692505b505092915050565b634e487b7160e01b600052602160045260246000fd5b600080600060608486031215613ca857600080fd5b8351613cb3816131c5565b6020850151909350613cc4816135aa565b60408501519092506001600160401b03811115613ce057600080fd5b613b8f8682870161390a565b6001600160a01b038316815260406020820181905260009061225390830184613603565b6001600160a01b03841681528215156020820152606060408201819052600090613d3c90830184613186565b9594505050505056fea2646970667358221220a3d4ca835e5f6e91091814d7a2f5eae0f3ea711bf0274758a03591c21f7f94e964736f6c63430008140033","linkReferences":{}},"methodIdentifiers":{"areChecksDeferred()":"430292b3","areChecksInProgress()":"e21e537c","batch((address,address,uint256,bytes)[])":"c16ae7a4","batchRevert((address,address,uint256,bytes)[])":"7f5c92f3","batchSimulation((address,address,uint256,bytes)[])":"7f17c377","call(address,address,uint256,bytes)":"1f8b5215","controlCollateral(address,address,uint256,bytes)":"b9b70ff5","disableCollateral(address,address)":"e920e8e0","disableController(address)":"f4fc3570","enableCollateral(address,address)":"d44fee5a","enableController(address,address)":"c368516c","forgiveAccountStatusCheck(address)":"10a75198","forgiveVaultStatusCheck()":"ebf1ea86","getAccountOwner(address)":"442b172c","getAddressPrefix(address)":"506d8c92","getCollaterals(address)":"a4d25d1e","getControllers(address)":"fd6046d7","getCurrentOnBehalfOfAccount(address)":"18503a1e","getNonce(bytes19,uint256)":"12d6c936","getOperator(bytes19,address)":"b03c130d","getRawExecutionContext()":"3a1a3a1d","haveCommonOwner(address,address)":"c760d921","isAccountOperatorAuthorized(address,address)":"1647292a","isAccountStatusCheckDeferred(address)":"42e53499","isCollateralEnabled(address,address)":"9e716d58","isControlCollateralInProgress()":"863789d7","isControllerEnabled(address,address)":"47cfdac4","isOperatorAuthenticated()":"3b2416be","isSimulationInProgress()":"92d2fc01","isVaultStatusCheckDeferred(address)":"cdd8ea78","name()":"06fdde03","permit(address,uint256,uint256,uint256,uint256,bytes,bytes)":"6a7bc3ea","reorderCollaterals(address,uint8,uint8)":"642ea23f","requireAccountAndVaultStatusCheck(address)":"30f31667","requireAccountStatusCheck(address)":"46591032","requireVaultStatusCheck()":"a37d54af","setAccountOperator(address,address,bool)":"9f5c462a","setNonce(bytes19,uint256,uint256)":"a829aaf5","setOperator(bytes19,address,uint256)":"c14c11bf","version()":"54fd4d50"},"id":3}