{"abi":[{"type":"constructor","inputs":[{"name":"_evc_","type":"address","internalType":"contract IEVC"},{"name":"_underlying_","type":"address","internalType":"contract IERC20"},{"name":"_name_","type":"string","internalType":"string"},{"name":"_symbol_","type":"string","internalType":"string"}],"stateMutability":"nonpayable"},{"type":"function","name":"allowance","inputs":[{"name":"owner","type":"address","internalType":"address"},{"name":"spender","type":"address","internalType":"address"}],"outputs":[{"name":"","type":"uint256","internalType":"uint256"}],"stateMutability":"view"},{"type":"function","name":"approve","inputs":[{"name":"spender","type":"address","internalType":"address"},{"name":"value","type":"uint256","internalType":"uint256"}],"outputs":[{"name":"","type":"bool","internalType":"bool"}],"stateMutability":"nonpayable"},{"type":"function","name":"balanceOf","inputs":[{"name":"account","type":"address","internalType":"address"}],"outputs":[{"name":"","type":"uint256","internalType":"uint256"}],"stateMutability":"view"},{"type":"function","name":"decimals","inputs":[],"outputs":[{"name":"","type":"uint8","internalType":"uint8"}],"stateMutability":"view"},{"type":"function","name":"name","inputs":[],"outputs":[{"name":"","type":"string","internalType":"string"}],"stateMutability":"view"},{"type":"function","name":"symbol","inputs":[],"outputs":[{"name":"","type":"string","internalType":"string"}],"stateMutability":"view"},{"type":"function","name":"totalSupply","inputs":[],"outputs":[{"name":"","type":"uint256","internalType":"uint256"}],"stateMutability":"view"},{"type":"function","name":"transfer","inputs":[{"name":"to","type":"address","internalType":"address"},{"name":"amount","type":"uint256","internalType":"uint256"}],"outputs":[{"name":"","type":"bool","internalType":"bool"}],"stateMutability":"nonpayable"},{"type":"function","name":"transferFrom","inputs":[{"name":"from","type":"address","internalType":"address"},{"name":"to","type":"address","internalType":"address"},{"name":"amount","type":"uint256","internalType":"uint256"}],"outputs":[{"name":"","type":"bool","internalType":"bool"}],"stateMutability":"nonpayable"},{"type":"function","name":"underlying","inputs":[],"outputs":[{"name":"","type":"address","internalType":"address"}],"stateMutability":"view"},{"type":"function","name":"unwrap","inputs":[{"name":"amount","type":"uint256","internalType":"uint256"},{"name":"receiver","type":"address","internalType":"address"}],"outputs":[{"name":"","type":"bool","internalType":"bool"}],"stateMutability":"nonpayable"},{"type":"function","name":"wrap","inputs":[{"name":"amount","type":"uint256","internalType":"uint256"},{"name":"receiver","type":"address","internalType":"address"}],"outputs":[{"name":"","type":"bool","internalType":"bool"}],"stateMutability":"nonpayable"},{"type":"event","name":"Approval","inputs":[{"name":"owner","type":"address","indexed":true,"internalType":"address"},{"name":"spender","type":"address","indexed":true,"internalType":"address"},{"name":"value","type":"uint256","indexed":false,"internalType":"uint256"}],"anonymous":false},{"type":"event","name":"Transfer","inputs":[{"name":"from","type":"address","indexed":true,"internalType":"address"},{"name":"to","type":"address","indexed":true,"internalType":"address"},{"name":"value","type":"uint256","indexed":false,"internalType":"uint256"}],"anonymous":false},{"type":"error","name":"AddressEmptyCode","inputs":[{"name":"target","type":"address","internalType":"address"}]},{"type":"error","name":"AddressInsufficientBalance","inputs":[{"name":"account","type":"address","internalType":"address"}]},{"type":"error","name":"ControllerDisabled","inputs":[]},{"type":"error","name":"ERC20CollateralWrapper_InvalidAddress","inputs":[]},{"type":"error","name":"ERC20InsufficientAllowance","inputs":[{"name":"spender","type":"address","internalType":"address"},{"name":"allowance","type":"uint256","internalType":"uint256"},{"name":"needed","type":"uint256","internalType":"uint256"}]},{"type":"error","name":"ERC20InsufficientBalance","inputs":[{"name":"sender","type":"address","internalType":"address"},{"name":"balance","type":"uint256","internalType":"uint256"},{"name":"needed","type":"uint256","internalType":"uint256"}]},{"type":"error","name":"ERC20InvalidApprover","inputs":[{"name":"approver","type":"address","internalType":"address"}]},{"type":"error","name":"ERC20InvalidReceiver","inputs":[{"name":"receiver","type":"address","internalType":"address"}]},{"type":"error","name":"ERC20InvalidSender","inputs":[{"name":"sender","type":"address","internalType":"address"}]},{"type":"error","name":"ERC20InvalidSpender","inputs":[{"name":"spender","type":"address","internalType":"address"}]},{"type":"error","name":"FailedInnerCall","inputs":[]},{"type":"error","name":"NotAuthorized","inputs":[]},{"type":"error","name":"ReentrancyGuardReentrantCall","inputs":[]},{"type":"error","name":"SafeERC20FailedOperation","inputs":[{"name":"token","type":"address","internalType":"address"}]}],"bytecode":{"object":"0x60e06040523480156200001157600080fd5b50604051620013ab380380620013ab8339810160408190526200003491620001fa565b6001600160a01b038416608052838282818160036200005483826200031e565b5060046200006382826200031e565b505060016005555050306001600160a01b0386160391506200009a90505760405163133aab4f60e01b815260040160405180910390fd5b6001600160a01b03831660a08190526040805163313ce56760e01b8152905163313ce567916004808201926020929091908290030181865afa158015620000e5573d6000803e3d6000fd5b505050506040513d601f19601f820116820180604052508101906200010b9190620003ea565b60ff1660c052506200041692505050565b6001600160a01b03811681146200013257600080fd5b50565b634e487b7160e01b600052604160045260246000fd5b600082601f8301126200015d57600080fd5b81516001600160401b03808211156200017a576200017a62000135565b604051601f8301601f19908116603f01168101908282118183101715620001a557620001a562000135565b81604052838152602092508683858801011115620001c257600080fd5b600091505b83821015620001e65785820183015181830184015290820190620001c7565b600093810190920192909252949350505050565b600080600080608085870312156200021157600080fd5b84516200021e816200011c565b602086015190945062000231816200011c565b60408601519093506001600160401b03808211156200024f57600080fd5b6200025d888389016200014b565b935060608701519150808211156200027457600080fd5b5062000283878288016200014b565b91505092959194509250565b600181811c90821680620002a457607f821691505b602082108103620002c557634e487b7160e01b600052602260045260246000fd5b50919050565b601f8211156200031957600081815260208120601f850160051c81016020861015620002f45750805b601f850160051c820191505b81811015620003155782815560010162000300565b5050505b505050565b81516001600160401b038111156200033a576200033a62000135565b62000352816200034b84546200028f565b84620002cb565b602080601f8311600181146200038a5760008415620003715750858301515b600019600386901b1c1916600185901b17855562000315565b600085815260208120601f198616915b82811015620003bb578886015182559484019460019091019084016200039a565b5085821015620003da5787850151600019600388901b60f8161c191681555b5050505050600190811b01905550565b600060208284031215620003fd57600080fd5b815160ff811681146200040f57600080fd5b9392505050565b60805160a05160c051610f3b6200047060003960006101390152600081816101700152818161031801526103d301526000818161042001528181610637015281816107020152818161073e01526109280152610f3b6000f3fe608060405234801561001057600080fd5b50600436106100b45760003560e01c80636f307dc3116100715780636f307dc31461016357806370a082311461019a5780637647691d146101c357806395d89b41146101d6578063a9059cbb146101de578063dd62ed3e146101f157600080fd5b806306fdde03146100b9578063095ea7b3146100d757806313bac820146100fa57806318160ddd1461010d57806323b872dd1461011f578063313ce56714610132575b600080fd5b6100c161022a565b6040516100ce9190610ce1565b60405180910390f35b6100ea6100e5366004610d29565b6102bc565b60405190151581526020016100ce565b6100ea610108366004610d55565b6102e0565b6002545b6040519081526020016100ce565b6100ea61012d366004610d85565b61035d565b60405160ff7f00000000000000000000000000000000000000000000000000000000000000001681526020016100ce565b6040516001600160a01b037f00000000000000000000000000000000000000000000000000000000000000001681526020016100ce565b6101116101a8366004610dc6565b6001600160a01b031660009081526020819052604090205490565b6100ea6101d1366004610d55565b610385565b6100c161048b565b6100ea6101ec366004610d29565b61049a565b6101116101ff366004610de3565b6001600160a01b03918216600090815260016020908152604080832093909416825291909152205490565b60606003805461023990610e11565b80601f016020809104026020016040519081016040528092919081815260200182805461026590610e11565b80156102b25780601f10610287576101008083540402835291602001916102b2565b820191906000526020600020905b81548152906001019060200180831161029557829003601f168201915b5050505050905090565b6000806102c76104ba565b90506102d48185856104c9565b60019150505b92915050565b60006102ea6104db565b306001600160a01b038316036103135760405163133aab4f60e01b815260040160405180910390fd5b6103467f000000000000000000000000000000000000000000000000000000000000000061033f6104ba565b3086610505565b6103508284610572565b5060016102da6001600555565b60006103676104db565b6103728484846105b1565b905061037e6001600555565b9392505050565b600061038f6104db565b306001600160a01b038316036103b85760405163133aab4f60e01b815260040160405180910390fd5b60006103c26104ba565b90506103ce81856105df565b6104017f00000000000000000000000000000000000000000000000000000000000000006103fb85610615565b866106ac565b60405163232c881960e11b81526001600160a01b0382811660048301527f00000000000000000000000000000000000000000000000000000000000000001690634659103290602401600060405180830381600087803b15801561046457600080fd5b505af1158015610478573d6000803e3d6000fd5b5050505060019150506102da6001600555565b60606004805461023990610e11565b60006104a46104db565b6104ae83836106dd565b90506102da6001600555565b60006104c46106f5565b905090565b6104d683838360016107b7565b505050565b6002600554036104fe57604051633ee5aeb560e01b815260040160405180910390fd5b6002600555565b6040516001600160a01b03848116602483015283811660448301526064820183905261056c9186918216906323b872dd906084015b604051602081830303815290604052915060e01b6020820180516001600160e01b03838183161783525050505061088c565b50505050565b6001600160a01b0382166105a15760405163ec442f0560e01b8152600060048201526024015b60405180910390fd5b6105ad600083836108ef565b5050565b6000806105bc6104ba565b90506105c9858285610989565b6105d4858585610a01565b506001949350505050565b6001600160a01b03821661060957604051634b637e8f60e11b815260006004820152602401610598565b6105ad826000836108ef565b60405163110ac5cb60e21b81526001600160a01b0382811660048301526000917f00000000000000000000000000000000000000000000000000000000000000009091169063442b172c90602401602060405180830381865afa92505050801561069c575060408051601f3d908101601f1916820190925261069991810190610e4b565b60015b6106a4575090565b90505b919050565b6040516001600160a01b038381166024830152604482018390526104d691859182169063a9059cbb9060640161053a565b6000806106e86104ba565b90506102d4818585610a01565b6000336001600160a01b037f00000000000000000000000000000000000000000000000000000000000000001681036106a757604051630c281d0f60e11b8152600060048201527f00000000000000000000000000000000000000000000000000000000000000006001600160a01b0316906318503a1e906024016040805180830381865afa15801561078c573d6000803e3d6000fd5b505050506040513d601f19601f820116820180604052508101906107b09190610e78565b5092915050565b6001600160a01b0384166107e15760405163e602df0560e01b815260006004820152602401610598565b6001600160a01b03831661080b57604051634a1406b160e11b815260006004820152602401610598565b6001600160a01b038085166000908152600160209081526040808320938716835292905220829055801561056c57826001600160a01b0316846001600160a01b03167f8c5be1e5ebec7d5bd14f71427d1e84f3dd0314c0f7b2291e5b200ac8c7c3b9258460405161087e91815260200190565b60405180910390a350505050565b60006108a16001600160a01b03841683610a60565b905080516000141580156108c65750808060200190518101906108c49190610ead565b155b156104d657604051635274afe760e01b81526001600160a01b0384166004820152602401610598565b6108fa838383610a6e565b6001600160a01b038316156104d65760405163232c881960e11b81526001600160a01b0384811660048301527f00000000000000000000000000000000000000000000000000000000000000001690634659103290602401600060405180830381600087803b15801561096c57600080fd5b505af1158015610980573d6000803e3d6000fd5b50505050505050565b6001600160a01b03838116600090815260016020908152604080832093861683529290522054600019811461056c57818110156109f257604051637dc7a0d960e11b81526001600160a01b03841660048201526024810182905260448101839052606401610598565b61056c848484840360006107b7565b6001600160a01b038316610a2b57604051634b637e8f60e11b815260006004820152602401610598565b6001600160a01b038216610a555760405163ec442f0560e01b815260006004820152602401610598565b6104d68383836108ef565b606061037e83836000610b98565b6001600160a01b038316610a99578060026000828254610a8e9190610ec8565b90915550610b0b9050565b6001600160a01b03831660009081526020819052604090205481811015610aec5760405163391434e360e21b81526001600160a01b03851660048201526024810182905260448101839052606401610598565b6001600160a01b03841660009081526020819052604090209082900390555b6001600160a01b038216610b2757600280548290039055610b46565b6001600160a01b03821660009081526020819052604090208054820190555b816001600160a01b0316836001600160a01b03167fddf252ad1be2c89b69c2b068fc378daa952ba7f163c4a11628f55a4df523b3ef83604051610b8b91815260200190565b60405180910390a3505050565b606081471015610bbd5760405163cd78605960e01b8152306004820152602401610598565b600080856001600160a01b03168486604051610bd99190610ee9565b60006040518083038185875af1925050503d8060008114610c16576040519150601f19603f3d011682016040523d82523d6000602084013e610c1b565b606091505b5091509150610c2b868383610c35565b9695505050505050565b606082610c4a57610c4582610c91565b61037e565b8151158015610c6157506001600160a01b0384163b155b15610c8a57604051639996b31560e01b81526001600160a01b0385166004820152602401610598565b508061037e565b805115610ca15780518082602001fd5b604051630a12f52160e11b815260040160405180910390fd5b50565b60005b83811015610cd8578181015183820152602001610cc0565b50506000910152565b6020815260008251806020840152610d00816040850160208701610cbd565b601f01601f19169190910160400192915050565b6001600160a01b0381168114610cba57600080fd5b60008060408385031215610d3c57600080fd5b8235610d4781610d14565b946020939093013593505050565b60008060408385031215610d6857600080fd5b823591506020830135610d7a81610d14565b809150509250929050565b600080600060608486031215610d9a57600080fd5b8335610da581610d14565b92506020840135610db581610d14565b929592945050506040919091013590565b600060208284031215610dd857600080fd5b813561037e81610d14565b60008060408385031215610df657600080fd5b8235610e0181610d14565b91506020830135610d7a81610d14565b600181811c90821680610e2557607f821691505b602082108103610e4557634e487b7160e01b600052602260045260246000fd5b50919050565b600060208284031215610e5d57600080fd5b815161037e81610d14565b805180151581146106a757600080fd5b60008060408385031215610e8b57600080fd5b8251610e9681610d14565b9150610ea460208401610e68565b90509250929050565b600060208284031215610ebf57600080fd5b61037e82610e68565b808201808211156102da57634e487b7160e01b600052601160045260246000fd5b60008251610efb818460208701610cbd565b919091019291505056fea2646970667358221220fea657972eb338f79a0c1e08c6d7a6f78f5125105f5044dc6bfb339281dc8ed564736f6c63430008140033","linkReferences":{}},"methodIdentifiers":{"allowance(address,address)":"dd62ed3e","approve(address,uint256)":"095ea7b3","balanceOf(address)":"70a08231","decimals()":"313ce567","name()":"06fdde03","symbol()":"95d89b41","totalSupply()":"18160ddd","transfer(address,uint256)":"a9059cbb","transferFrom(address,address,uint256)":"23b872dd","underlying()":"6f307dc3","unwrap(uint256,address)":"7647691d","wrap(uint256,address)":"13bac820"},"id":70}