{"abi":[{"type":"constructor","inputs":[{"name":"_evc","type":"address","internalType":"contract IEVC"},{"name":"_asset","type":"address","internalType":"contract IERC20"},{"name":"_name","type":"string","internalType":"string"},{"name":"_symbol","type":"string","internalType":"string"}],"stateMutability":"nonpayable"},{"type":"function","name":"allowance","inputs":[{"name":"owner","type":"address","internalType":"address"},{"name":"spender","type":"address","internalType":"address"}],"outputs":[{"name":"","type":"uint256","internalType":"uint256"}],"stateMutability":"view"},{"type":"function","name":"approve","inputs":[{"name":"spender","type":"address","internalType":"address"},{"name":"value","type":"uint256","internalType":"uint256"}],"outputs":[{"name":"","type":"bool","internalType":"bool"}],"stateMutability":"nonpayable"},{"type":"function","name":"asset","inputs":[],"outputs":[{"name":"","type":"address","internalType":"address"}],"stateMutability":"view"},{"type":"function","name":"balanceOf","inputs":[{"name":"account","type":"address","internalType":"address"}],"outputs":[{"name":"","type":"uint256","internalType":"uint256"}],"stateMutability":"view"},{"type":"function","name":"checkAccountStatus","inputs":[{"name":"account","type":"address","internalType":"address"},{"name":"collaterals","type":"address[]","internalType":"address[]"}],"outputs":[{"name":"magicValue","type":"bytes4","internalType":"bytes4"}],"stateMutability":"view"},{"type":"function","name":"checkVaultStatus","inputs":[],"outputs":[{"name":"magicValue","type":"bytes4","internalType":"bytes4"}],"stateMutability":"nonpayable"},{"type":"function","name":"convertToAssets","inputs":[{"name":"shares","type":"uint256","internalType":"uint256"}],"outputs":[{"name":"","type":"uint256","internalType":"uint256"}],"stateMutability":"view"},{"type":"function","name":"convertToShares","inputs":[{"name":"assets","type":"uint256","internalType":"uint256"}],"outputs":[{"name":"","type":"uint256","internalType":"uint256"}],"stateMutability":"view"},{"type":"function","name":"decimals","inputs":[],"outputs":[{"name":"","type":"uint8","internalType":"uint8"}],"stateMutability":"view"},{"type":"function","name":"deposit","inputs":[{"name":"assets","type":"uint256","internalType":"uint256"},{"name":"receiver","type":"address","internalType":"address"}],"outputs":[{"name":"shares","type":"uint256","internalType":"uint256"}],"stateMutability":"nonpayable"},{"type":"function","name":"disableController","inputs":[],"outputs":[],"stateMutability":"nonpayable"},{"type":"function","name":"maxDeposit","inputs":[{"name":"","type":"address","internalType":"address"}],"outputs":[{"name":"","type":"uint256","internalType":"uint256"}],"stateMutability":"view"},{"type":"function","name":"maxMint","inputs":[{"name":"","type":"address","internalType":"address"}],"outputs":[{"name":"","type":"uint256","internalType":"uint256"}],"stateMutability":"view"},{"type":"function","name":"maxRedeem","inputs":[{"name":"owner","type":"address","internalType":"address"}],"outputs":[{"name":"","type":"uint256","internalType":"uint256"}],"stateMutability":"view"},{"type":"function","name":"maxWithdraw","inputs":[{"name":"owner","type":"address","internalType":"address"}],"outputs":[{"name":"","type":"uint256","internalType":"uint256"}],"stateMutability":"view"},{"type":"function","name":"mint","inputs":[{"name":"shares","type":"uint256","internalType":"uint256"},{"name":"receiver","type":"address","internalType":"address"}],"outputs":[{"name":"assets","type":"uint256","internalType":"uint256"}],"stateMutability":"nonpayable"},{"type":"function","name":"name","inputs":[],"outputs":[{"name":"","type":"string","internalType":"string"}],"stateMutability":"view"},{"type":"function","name":"owner","inputs":[],"outputs":[{"name":"","type":"address","internalType":"address"}],"stateMutability":"view"},{"type":"function","name":"previewDeposit","inputs":[{"name":"assets","type":"uint256","internalType":"uint256"}],"outputs":[{"name":"","type":"uint256","internalType":"uint256"}],"stateMutability":"view"},{"type":"function","name":"previewMint","inputs":[{"name":"shares","type":"uint256","internalType":"uint256"}],"outputs":[{"name":"","type":"uint256","internalType":"uint256"}],"stateMutability":"view"},{"type":"function","name":"previewRedeem","inputs":[{"name":"shares","type":"uint256","internalType":"uint256"}],"outputs":[{"name":"","type":"uint256","internalType":"uint256"}],"stateMutability":"view"},{"type":"function","name":"previewWithdraw","inputs":[{"name":"assets","type":"uint256","internalType":"uint256"}],"outputs":[{"name":"","type":"uint256","internalType":"uint256"}],"stateMutability":"view"},{"type":"function","name":"redeem","inputs":[{"name":"shares","type":"uint256","internalType":"uint256"},{"name":"receiver","type":"address","internalType":"address"},{"name":"owner","type":"address","internalType":"address"}],"outputs":[{"name":"assets","type":"uint256","internalType":"uint256"}],"stateMutability":"nonpayable"},{"type":"function","name":"renounceOwnership","inputs":[],"outputs":[],"stateMutability":"nonpayable"},{"type":"function","name":"setSupplyCap","inputs":[{"name":"newSupplyCap","type":"uint256","internalType":"uint256"}],"outputs":[],"stateMutability":"nonpayable"},{"type":"function","name":"supplyCap","inputs":[],"outputs":[{"name":"","type":"uint256","internalType":"uint256"}],"stateMutability":"view"},{"type":"function","name":"symbol","inputs":[],"outputs":[{"name":"","type":"string","internalType":"string"}],"stateMutability":"view"},{"type":"function","name":"totalAssets","inputs":[],"outputs":[{"name":"","type":"uint256","internalType":"uint256"}],"stateMutability":"view"},{"type":"function","name":"totalSupply","inputs":[],"outputs":[{"name":"","type":"uint256","internalType":"uint256"}],"stateMutability":"view"},{"type":"function","name":"transfer","inputs":[{"name":"to","type":"address","internalType":"address"},{"name":"amount","type":"uint256","internalType":"uint256"}],"outputs":[{"name":"","type":"bool","internalType":"bool"}],"stateMutability":"nonpayable"},{"type":"function","name":"transferFrom","inputs":[{"name":"from","type":"address","internalType":"address"},{"name":"to","type":"address","internalType":"address"},{"name":"amount","type":"uint256","internalType":"uint256"}],"outputs":[{"name":"","type":"bool","internalType":"bool"}],"stateMutability":"nonpayable"},{"type":"function","name":"transferOwnership","inputs":[{"name":"newOwner","type":"address","internalType":"address"}],"outputs":[],"stateMutability":"nonpayable"},{"type":"function","name":"withdraw","inputs":[{"name":"assets","type":"uint256","internalType":"uint256"},{"name":"receiver","type":"address","internalType":"address"},{"name":"owner","type":"address","internalType":"address"}],"outputs":[{"name":"shares","type":"uint256","internalType":"uint256"}],"stateMutability":"nonpayable"},{"type":"event","name":"Approval","inputs":[{"name":"owner","type":"address","indexed":true,"internalType":"address"},{"name":"spender","type":"address","indexed":true,"internalType":"address"},{"name":"value","type":"uint256","indexed":false,"internalType":"uint256"}],"anonymous":false},{"type":"event","name":"Deposit","inputs":[{"name":"sender","type":"address","indexed":true,"internalType":"address"},{"name":"owner","type":"address","indexed":true,"internalType":"address"},{"name":"assets","type":"uint256","indexed":false,"internalType":"uint256"},{"name":"shares","type":"uint256","indexed":false,"internalType":"uint256"}],"anonymous":false},{"type":"event","name":"OwnershipTransferred","inputs":[{"name":"previousOwner","type":"address","indexed":true,"internalType":"address"},{"name":"newOwner","type":"address","indexed":true,"internalType":"address"}],"anonymous":false},{"type":"event","name":"SupplyCapSet","inputs":[{"name":"newSupplyCap","type":"uint256","indexed":false,"internalType":"uint256"}],"anonymous":false},{"type":"event","name":"Transfer","inputs":[{"name":"from","type":"address","indexed":true,"internalType":"address"},{"name":"to","type":"address","indexed":true,"internalType":"address"},{"name":"value","type":"uint256","indexed":false,"internalType":"uint256"}],"anonymous":false},{"type":"event","name":"Withdraw","inputs":[{"name":"sender","type":"address","indexed":true,"internalType":"address"},{"name":"receiver","type":"address","indexed":true,"internalType":"address"},{"name":"owner","type":"address","indexed":true,"internalType":"address"},{"name":"assets","type":"uint256","indexed":false,"internalType":"uint256"},{"name":"shares","type":"uint256","indexed":false,"internalType":"uint256"}],"anonymous":false},{"type":"error","name":"AddressEmptyCode","inputs":[{"name":"target","type":"address","internalType":"address"}]},{"type":"error","name":"AddressInsufficientBalance","inputs":[{"name":"account","type":"address","internalType":"address"}]},{"type":"error","name":"ControllerDisabled","inputs":[]},{"type":"error","name":"ERC20InsufficientAllowance","inputs":[{"name":"spender","type":"address","internalType":"address"},{"name":"allowance","type":"uint256","internalType":"uint256"},{"name":"needed","type":"uint256","internalType":"uint256"}]},{"type":"error","name":"ERC20InsufficientBalance","inputs":[{"name":"sender","type":"address","internalType":"address"},{"name":"balance","type":"uint256","internalType":"uint256"},{"name":"needed","type":"uint256","internalType":"uint256"}]},{"type":"error","name":"ERC20InvalidApprover","inputs":[{"name":"approver","type":"address","internalType":"address"}]},{"type":"error","name":"ERC20InvalidReceiver","inputs":[{"name":"receiver","type":"address","internalType":"address"}]},{"type":"error","name":"ERC20InvalidSender","inputs":[{"name":"sender","type":"address","internalType":"address"}]},{"type":"error","name":"ERC20InvalidSpender","inputs":[{"name":"spender","type":"address","internalType":"address"}]},{"type":"error","name":"ERC4626ExceededMaxDeposit","inputs":[{"name":"receiver","type":"address","internalType":"address"},{"name":"assets","type":"uint256","internalType":"uint256"},{"name":"max","type":"uint256","internalType":"uint256"}]},{"type":"error","name":"ERC4626ExceededMaxMint","inputs":[{"name":"receiver","type":"address","internalType":"address"},{"name":"shares","type":"uint256","internalType":"uint256"},{"name":"max","type":"uint256","internalType":"uint256"}]},{"type":"error","name":"ERC4626ExceededMaxRedeem","inputs":[{"name":"owner","type":"address","internalType":"address"},{"name":"shares","type":"uint256","internalType":"uint256"},{"name":"max","type":"uint256","internalType":"uint256"}]},{"type":"error","name":"ERC4626ExceededMaxWithdraw","inputs":[{"name":"owner","type":"address","internalType":"address"},{"name":"assets","type":"uint256","internalType":"uint256"},{"name":"max","type":"uint256","internalType":"uint256"}]},{"type":"error","name":"FailedInnerCall","inputs":[]},{"type":"error","name":"NotAuthorized","inputs":[]},{"type":"error","name":"OwnableInvalidOwner","inputs":[{"name":"owner","type":"address","internalType":"address"}]},{"type":"error","name":"OwnableUnauthorizedAccount","inputs":[{"name":"account","type":"address","internalType":"address"}]},{"type":"error","name":"Reentrancy","inputs":[]},{"type":"error","name":"SafeERC20FailedOperation","inputs":[{"name":"token","type":"address","internalType":"address"}]},{"type":"error","name":"SharesSeizureFailed","inputs":[]},{"type":"error","name":"SnapshotNotTaken","inputs":[]},{"type":"error","name":"SupplyCapExceeded","inputs":[]}],"bytecode":{"object":"0x60e06040523480156200001157600080fd5b506040516200287938038062002879833981016040819052620000349162000300565b6001600160a01b038416608052600160005582828233806200007057604051631e4fbdf760e01b81526000600482015260240160405180910390fd5b6200007b81620000e3565b5060066200008a838262000424565b50600762000099828262000424565b505050600080620000b0836200013560201b60201c565b9150915081620000c2576012620000c4565b805b60ff1660c05250506001600160a01b031660a052506200052892505050565b600280546001600160a01b038381166001600160a01b0319831681179093556040519116919082907f8be0079c531659141344cd1fd0a4f28419497f9722a3daafe3b4186f6b6457e090600090a35050565b60408051600481526024810182526020810180516001600160e01b031663313ce56760e01b17905290516000918291829182916001600160a01b038716916200017e91620004f0565b600060405180830381855afa9150503d8060008114620001bb576040519150601f19603f3d011682016040523d82523d6000602084013e620001c0565b606091505b5091509150818015620001d557506020815110155b156200020d57600081806020019051810190620001f391906200050e565b905060ff81116200020b576001969095509350505050565b505b5060009485945092505050565b6001600160a01b03811681146200023057600080fd5b50565b634e487b7160e01b600052604160045260246000fd5b60005b83811015620002665781810151838201526020016200024c565b50506000910152565b600082601f8301126200028157600080fd5b81516001600160401b03808211156200029e576200029e62000233565b604051601f8301601f19908116603f01168101908282118183101715620002c957620002c962000233565b81604052838152866020858801011115620002e357600080fd5b620002f684602083016020890162000249565b9695505050505050565b600080600080608085870312156200031757600080fd5b845162000324816200021a565b602086015190945062000337816200021a565b60408601519093506001600160401b03808211156200035557600080fd5b62000363888389016200026f565b935060608701519150808211156200037a57600080fd5b5062000389878288016200026f565b91505092959194509250565b600181811c90821680620003aa57607f821691505b602082108103620003cb57634e487b7160e01b600052602260045260246000fd5b50919050565b601f8211156200041f57600081815260208120601f850160051c81016020861015620003fa5750805b601f850160051c820191505b818110156200041b5782815560010162000406565b5050505b505050565b81516001600160401b0381111562000440576200044062000233565b620004588162000451845462000395565b84620003d1565b602080601f831160018114620004905760008415620004775750858301515b600019600386901b1c1916600185901b1785556200041b565b600085815260208120601f198616915b82811015620004c157888601518255948401946001909101908401620004a0565b5085821015620004e05787850151600019600388901b60f8161c191681555b5050505050600190811b01905550565b600082516200050481846020870162000249565b9190910192915050565b6000602082840312156200052157600080fd5b5051919050565b60805160a05160c0516122a3620005d660003960006106f10152600081816102ac0152818161156301526116150152600081816105bf015281816106540152818161072701528181610751015281816108b5015281816109a001528181610a2f01528181610abc01528181610ae601528181610baf01528181610c8201528181610e7101528181610f040152818161103101528181611173015281816112a101526112dd01526122a36000f3fe608060405234801561001057600080fd5b50600436106101fb5760003560e01c80638da5cb5b1161011a578063b6a3f59a116100ad578063ce96cb771161007c578063ce96cb7714610435578063d905777e14610448578063dd62ed3e1461045b578063ef8b30f714610494578063f2fde38b146104a757600080fd5b8063b6a3f59a146103fc578063ba0876521461040f578063c63d75b6146102e4578063c6e6f5921461042257600080fd5b8063a9059cbb116100e9578063a9059cbb146103b0578063b168c58f146103c3578063b3d7f6b9146103d6578063b460af94146103e957600080fd5b80638da5cb5b1461037b5780638f770ad01461038c57806394bf804d1461039557806395d89b41146103a857600080fd5b806338d52e0f116101925780636e553f65116101615780636e553f651461032d57806370a0823114610340578063715018a614610369578063869e50c71461037357600080fd5b806338d52e0f146102aa578063402d267d146102e45780634b3d1223146102f95780634cdad5061461031a57600080fd5b80630a28a477116101ce5780630a28a4771461026257806318160ddd1461027557806323b872dd1461027d578063313ce5671461029057600080fd5b806301e1d1141461020057806306fdde031461021757806307a2d13a1461022c578063095ea7b31461023f575b600080fd5b6008545b6040519081526020015b60405180910390f35b61021f6104ba565b60405161020e9190611ba1565b61020461023a366004611bd4565b61054c565b61025261024d366004611c02565b610582565b604051901515815260200161020e565b610204610270366004611bd4565b6105a6565b600554610204565b61025261028b366004611c2e565b6105b3565b6102986106e9565b60405160ff909116815260200161020e565b7f00000000000000000000000000000000000000000000000000000000000000005b6040516001600160a01b03909116815260200161020e565b6102046102f2366004611c6f565b5060001990565b61030161071a565b6040516001600160e01b0319909116815260200161020e565b610204610328366004611bd4565b61089c565b61020461033b366004611c8c565b6108a9565b61020461034e366004611c6f565b6001600160a01b031660009081526003602052604090205490565b610371610941565b005b610371610955565b6002546001600160a01b03166102cc565b61020460095481565b6102046103a3366004611c8c565b610994565b61021f610a14565b6102526103be366004611c02565b610a23565b6103016103d1366004611cbc565b610aaf565b6102046103e4366004611bd4565b610b96565b6102046103f7366004611d44565b610ba3565b61037161040a366004611bd4565b610c33565b61020461041d366004611d44565b610c76565b610204610430366004611bd4565b610cf7565b610204610443366004611c6f565b610d25565b610204610456366004611c6f565b610d4a565b610204610469366004611d86565b6001600160a01b03918216600090815260046020908152604080832093909416825291909152205490565b6102046104a2366004611bd4565b610d68565b6103716104b5366004611c6f565b610d75565b6060600680546104c990611db4565b80601f01602080910402602001604051908101604052809291908181526020018280546104f590611db4565b80156105425780601f1061051757610100808354040283529160200191610542565b820191906000526020600020905b81548152906001019060200180831161052557829003601f168201915b5050505050905090565b60006001600054146105715760405163558a1e0360e11b815260040160405180910390fd5b61057a8261089c565b90505b919050565b60008061058d610db8565b905061059a818585610dc2565b60019150505b92915050565b600061057a826001610dd4565b60006001600160a01b037f000000000000000000000000000000000000000000000000000000000000000016330361063a576001600054146106085760405163558a1e0360e11b815260040160405180910390fd5b6002600055610615610e08565b6000610622858585610e33565b905061062d85610e61565b90505b60016000556106e2565b604051631f8b521560e01b81526000906001600160a01b037f00000000000000000000000000000000000000000000000000000000000000001690631f8b5215906106919030903390869081903690600401611dee565b6000604051808303816000875af11580156106b0573d6000803e3d6000fd5b505050506040513d6000823e601f3d908101601f191682016040526106d89190810190611e58565b9050805181602001f35b9392505050565b6000610715817f0000000000000000000000000000000000000000000000000000000000000000611f1b565b905090565b6000336001600160a01b037f0000000000000000000000000000000000000000000000000000000000000000161415806107d357507f00000000000000000000000000000000000000000000000000000000000000006001600160a01b031663e21e537c6040518163ffffffff1660e01b8152600401602060405180830381865afa1580156107ad573d6000803e3d6000fd5b505050506040513d601f19601f820116820180604052508101906107d19190611f44565b155b156107f15760405163ea8e4eb560e01b815260040160405180910390fd5b6108846001805461080190611db4565b80601f016020809104026020016040519081016040528092919081815260200182805461082d90611db4565b801561087a5780601f1061084f5761010080835404028352916020019161087a565b820191906000526020600020905b81548152906001019060200180831161085d57829003601f168201915b5050505050610f49565b61089060016000611b2f565b50634b3d122360e01b90565b600061057a826000610fd0565b60006001600160a01b037f000000000000000000000000000000000000000000000000000000000000000016330361063a576001600054146108fe5760405163558a1e0360e11b815260040160405180910390fd5b600260005561090b610e08565b6109158383611002565b905082600860008282546109299190611f5f565b90915550610937905061102f565b60016000556105a0565b6109496110a4565b6109536000611102565b565b6001600054146109785760405163558a1e0360e11b815260040160405180910390fd5b600260005561098d610988610db8565b611154565b6001600055565b60006001600160a01b037f000000000000000000000000000000000000000000000000000000000000000016330361063a576001600054146109e95760405163558a1e0360e11b815260040160405180910390fd5b60026000556109f6610e08565b610a0083836111a2565b905080600860008282546109299190611f5f565b6060600780546104c990611db4565b60006001600160a01b037f000000000000000000000000000000000000000000000000000000000000000016330361063a57600160005414610a785760405163558a1e0360e11b815260040160405180910390fd5b6002600055610a85610e08565b6000610a9184846111c7565b9050610aa3610a9e610db8565b610e61565b905060016000556105a0565b6000336001600160a01b037f000000000000000000000000000000000000000000000000000000000000000016141580610b6857507f00000000000000000000000000000000000000000000000000000000000000006001600160a01b031663e21e537c6040518163ffffffff1660e01b8152600401602060405180830381865afa158015610b42573d6000803e3d6000fd5b505050506040513d601f19601f82011682018060405250810190610b669190611f44565b155b15610b865760405163ea8e4eb560e01b815260040160405180910390fd5b5063b168c58f60e01b9392505050565b600061057a826001610fd0565b60006001600160a01b037f000000000000000000000000000000000000000000000000000000000000000016330361063a57600160005414610bf85760405163558a1e0360e11b815260040160405180910390fd5b6002600055610c05610e08565b610c108484846111df565b90508360086000828254610c249190611f72565b90915550610630905082610e61565b610c3b6110a4565b60098190556040518181527fbc585eed6f54aa16ec292be93276937803d5a047ba4eded0c87779270bbfdfe69060200160405180910390a150565b60006001600160a01b037f000000000000000000000000000000000000000000000000000000000000000016330361063a57600160005414610ccb5760405163558a1e0360e11b815260040160405180910390fd5b6002600055610cd8610e08565b610ce384848461123e565b90508060086000828254610c249190611f72565b6000600160005414610d1c5760405163558a1e0360e11b815260040160405180910390fd5b61057a82610d68565b6001600160a01b03811660009081526003602052604081205461057a905b6000610fd0565b6001600160a01b03811660009081526003602052604081205461057a565b600061057a826000610dd4565b610d7d6110a4565b6001600160a01b038116610dac57604051631e4fbdf760e01b8152600060048201526024015b60405180910390fd5b610db581611102565b50565b6000610715611294565b610dcf8383836001611356565b505050565b60006106e2610de482600a612069565b600554610df19190611f5f565b600854610dff906001611f5f565b8591908561142b565b60018054610e1590611db4565b905060000361095357610e2661146f565b600190610db590826120c6565b600080610e3e610db8565b9050610e4b85828561149a565b610e568585856114ff565b506001949350505050565b6001600160a01b038116610ee5577f00000000000000000000000000000000000000000000000000000000000000006001600160a01b031663a37d54af6040518163ffffffff1660e01b8152600401600060405180830381600087803b158015610eca57600080fd5b505af1158015610ede573d6000803e3d6000fd5b5050505050565b6040516330f3166760e01b81526001600160a01b0382811660048301527f000000000000000000000000000000000000000000000000000000000000000016906330f31667906024015b600060405180830381600087803b158015610eca57600080fd5b8051600003610f6b576040516332e17beb60e21b815260040160405180910390fd5b600081806020019051810190610f819190612186565b90506000610f91610d4360055490565b9050600954600014158015610fa7575060095481115b8015610fb257508181115b15610dcf57604051637ac7b99d60e11b815260040160405180910390fd5b60006106e2610fde60085490565b610fe9906001611f5f565b610ff56000600a612069565b600554610dff9190611f5f565b6000600019600061101285610d68565b905061102761101f610db8565b85878461155e565b949350505050565b7f00000000000000000000000000000000000000000000000000000000000000006001600160a01b031663a37d54af6040518163ffffffff1660e01b8152600401600060405180830381600087803b15801561108a57600080fd5b505af115801561109e573d6000803e3d6000fd5b50505050565b6110ac610db8565b6001600160a01b03166110c76002546001600160a01b031690565b6001600160a01b031614610953576110dd610db8565b60405163118cdaa760e01b81526001600160a01b039091166004820152602401610da3565b600280546001600160a01b038381166001600160a01b0319831681179093556040519116919082907f8be0079c531659141344cd1fd0a4f28419497f9722a3daafe3b4186f6b6457e090600090a35050565b604051630f4fc35760e41b81526001600160a01b0382811660048301527f0000000000000000000000000000000000000000000000000000000000000000169063f4fc357090602401610f2f565b600060001960006111b285610b96565b90506110276111bf610db8565b85838861155e565b6000806111d2610db8565b905061059a8185856114ff565b6000806111eb83610d25565b90508085111561121457828582604051633fa733bb60e21b8152600401610da39392919061219f565b600061121f866105a6565b905061123561122c610db8565b868689856115e2565b95945050505050565b60008061124a83610d4a565b90508085111561127357828582604051632e52afbb60e21b8152600401610da39392919061219f565b600061127e8661089c565b905061123561128b610db8565b8686848a6115e2565b6000336001600160a01b037f000000000000000000000000000000000000000000000000000000000000000016810361057d57604051630c281d0f60e11b8152600060048201527f00000000000000000000000000000000000000000000000000000000000000006001600160a01b0316906318503a1e906024016040805180830381865afa15801561132b573d6000803e3d6000fd5b505050506040513d601f19601f8201168201806040525081019061134f91906121c0565b5092915050565b6001600160a01b0384166113805760405163e602df0560e01b815260006004820152602401610da3565b6001600160a01b0383166113aa57604051634a1406b160e11b815260006004820152602401610da3565b6001600160a01b038085166000908152600460209081526040808320938716835292905220829055801561109e57826001600160a01b0316846001600160a01b03167f8c5be1e5ebec7d5bd14f71427d1e84f3dd0314c0f7b2291e5b200ac8c7c3b9258460405161141d91815260200190565b60405180910390a350505050565b600061145a611439836116a2565b8015611455575060008480611450576114506121f5565b868809115b151590565b6114658686866116cf565b6112359190611f5f565b606060085460405160200161148691815260200190565b604051602081830303815290604052905090565b6001600160a01b03838116600090815260046020908152604080832093861683529290522054600019811461109e57818110156114f057828183604051637dc7a0d960e11b8152600401610da39392919061219f565b61109e84848484036000611356565b6001600160a01b03831661152957604051634b637e8f60e11b815260006004820152602401610da3565b6001600160a01b0382166115535760405163ec442f0560e01b815260006004820152602401610da3565b610dcf838383611791565b61158a7f00000000000000000000000000000000000000000000000000000000000000008530856118a8565b611594838261190f565b826001600160a01b0316846001600160a01b03167fdcbc1c05240f31ff3ad067ef1ee35ce4997762752e3a095284754544f4c709d7848460405161141d929190918252602082015260400190565b826001600160a01b0316856001600160a01b0316146116065761160683868361149a565b6116108382611949565b61163b7f0000000000000000000000000000000000000000000000000000000000000000858461197f565b826001600160a01b0316846001600160a01b0316866001600160a01b03167ffbde797d201c681b91056529119e0b02407c7bb96a4a2c75c01fc9667232c8db8585604051611693929190918252602082015260400190565b60405180910390a45050505050565b600060028260038111156116b8576116b861220b565b6116c29190612221565b60ff166001149050919050565b6000838302816000198587098281108382030391505080600003611706578382816116fc576116fc6121f5565b04925050506106e2565b80841161172457611724841561171d5760116119b0565b60126119b0565b6000848688096000868103871696879004966002600389028118808a02820302808a02820302808a02820302808a02820302808a02820302808a02909103029181900381900460010186841190950394909402919094039290920491909117919091029150509392505050565b6001600160a01b0383166117bc5780600560008282546117b19190611f5f565b9091555061181b9050565b6001600160a01b038316600090815260036020526040902054818110156117fc5783818360405163391434e360e21b8152600401610da39392919061219f565b6001600160a01b03841660009081526003602052604090209082900390555b6001600160a01b03821661183757600580548290039055611856565b6001600160a01b03821660009081526003602052604090208054820190555b816001600160a01b0316836001600160a01b03167fddf252ad1be2c89b69c2b068fc378daa952ba7f163c4a11628f55a4df523b3ef8360405161189b91815260200190565b60405180910390a3505050565b6040516001600160a01b03848116602483015283811660448301526064820183905261109e9186918216906323b872dd906084015b604051602081830303815290604052915060e01b6020820180516001600160e01b0383818316178352505050506119c5565b6001600160a01b0382166119395760405163ec442f0560e01b815260006004820152602401610da3565b61194560008383611791565b5050565b6001600160a01b03821661197357604051634b637e8f60e11b815260006004820152602401610da3565b61194582600083611791565b6040516001600160a01b03838116602483015260448201839052610dcf91859182169063a9059cbb906064016118dd565b634e487b7160e01b6000528060045260246000fd5b60006119da6001600160a01b03841683611a28565b905080516000141580156119ff5750808060200190518101906119fd9190611f44565b155b15610dcf57604051635274afe760e01b81526001600160a01b0384166004820152602401610da3565b60606106e28383600084600080856001600160a01b03168486604051611a4e9190612251565b60006040518083038185875af1925050503d8060008114611a8b576040519150601f19603f3d011682016040523d82523d6000602084013e611a90565b606091505b5091509150611aa0868383611aaa565b9695505050505050565b606082611abf57611aba82611b06565b6106e2565b8151158015611ad657506001600160a01b0384163b155b15611aff57604051639996b31560e01b81526001600160a01b0385166004820152602401610da3565b50806106e2565b805115611b165780518082602001fd5b604051630a12f52160e11b815260040160405180910390fd5b508054611b3b90611db4565b6000825580601f10611b4b575050565b601f016020900490600052602060002090810190610db591905b80821115611b795760008155600101611b65565b5090565b60005b83811015611b98578181015183820152602001611b80565b50506000910152565b6020815260008251806020840152611bc0816040850160208701611b7d565b601f01601f19169190910160400192915050565b600060208284031215611be657600080fd5b5035919050565b6001600160a01b0381168114610db557600080fd5b60008060408385031215611c1557600080fd5b8235611c2081611bed565b946020939093013593505050565b600080600060608486031215611c4357600080fd5b8335611c4e81611bed565b92506020840135611c5e81611bed565b929592945050506040919091013590565b600060208284031215611c8157600080fd5b81356106e281611bed565b60008060408385031215611c9f57600080fd5b823591506020830135611cb181611bed565b809150509250929050565b600080600060408486031215611cd157600080fd5b8335611cdc81611bed565b9250602084013567ffffffffffffffff80821115611cf957600080fd5b818601915086601f830112611d0d57600080fd5b813581811115611d1c57600080fd5b8760208260051b8501011115611d3157600080fd5b6020830194508093505050509250925092565b600080600060608486031215611d5957600080fd5b833592506020840135611d6b81611bed565b91506040840135611d7b81611bed565b809150509250925092565b60008060408385031215611d9957600080fd5b8235611da481611bed565b91506020830135611cb181611bed565b600181811c90821680611dc857607f821691505b602082108103611de857634e487b7160e01b600052602260045260246000fd5b50919050565b6001600160a01b038681168252851660208201526040810184905260806060820181905281018290526000828460a0840137600060a0848401015260a0601f19601f85011683010190509695505050505050565b634e487b7160e01b600052604160045260246000fd5b600060208284031215611e6a57600080fd5b815167ffffffffffffffff80821115611e8257600080fd5b818401915084601f830112611e9657600080fd5b815181811115611ea857611ea8611e42565b604051601f8201601f19908116603f01168101908382118183101715611ed057611ed0611e42565b81604052828152876020848701011115611ee957600080fd5b611efa836020830160208801611b7d565b979650505050505050565b634e487b7160e01b600052601160045260246000fd5b60ff81811683821601908111156105a0576105a0611f05565b8051801515811461057d57600080fd5b600060208284031215611f5657600080fd5b6106e282611f34565b808201808211156105a0576105a0611f05565b818103818111156105a0576105a0611f05565b600181815b80851115611fc0578160001904821115611fa657611fa6611f05565b80851615611fb357918102915b93841c9390800290611f8a565b509250929050565b600082611fd7575060016105a0565b81611fe4575060006105a0565b8160018114611ffa576002811461200457612020565b60019150506105a0565b60ff84111561201557612015611f05565b50506001821b6105a0565b5060208310610133831016604e8410600b8410161715612043575081810a6105a0565b61204d8383611f85565b806000190482111561206157612061611f05565b029392505050565b60006106e260ff841683611fc8565b601f821115610dcf57600081815260208120601f850160051c8101602086101561209f5750805b601f850160051c820191505b818110156120be578281556001016120ab565b505050505050565b815167ffffffffffffffff8111156120e0576120e0611e42565b6120f4816120ee8454611db4565b84612078565b602080601f83116001811461212957600084156121115750858301515b600019600386901b1c1916600185901b1785556120be565b600085815260208120601f198616915b8281101561215857888601518255948401946001909101908401612139565b50858210156121765787850151600019600388901b60f8161c191681555b5050505050600190811b01905550565b60006020828403121561219857600080fd5b5051919050565b6001600160a01b039390931683526020830191909152604082015260600190565b600080604083850312156121d357600080fd5b82516121de81611bed565b91506121ec60208401611f34565b90509250929050565b634e487b7160e01b600052601260045260246000fd5b634e487b7160e01b600052602160045260246000fd5b600060ff83168061224257634e487b7160e01b600052601260045260246000fd5b8060ff84160691505092915050565b60008251612263818460208701611b7d565b919091019291505056fea26469706673582212203415db29c4ef7bf0f633bf07d67bab649fc0c60a0d1ac22c28be3a9b1ae9bad864736f6c63430008140033","linkReferences":{}},"methodIdentifiers":{"allowance(address,address)":"dd62ed3e","approve(address,uint256)":"095ea7b3","asset()":"38d52e0f","balanceOf(address)":"70a08231","checkAccountStatus(address,address[])":"b168c58f","checkVaultStatus()":"4b3d1223","convertToAssets(uint256)":"07a2d13a","convertToShares(uint256)":"c6e6f592","decimals()":"313ce567","deposit(uint256,address)":"6e553f65","disableController()":"869e50c7","maxDeposit(address)":"402d267d","maxMint(address)":"c63d75b6","maxRedeem(address)":"d905777e","maxWithdraw(address)":"ce96cb77","mint(uint256,address)":"94bf804d","name()":"06fdde03","owner()":"8da5cb5b","previewDeposit(uint256)":"ef8b30f7","previewMint(uint256)":"b3d7f6b9","previewRedeem(uint256)":"4cdad506","previewWithdraw(uint256)":"0a28a477","redeem(uint256,address,address)":"ba087652","renounceOwnership()":"715018a6","setSupplyCap(uint256)":"b6a3f59a","supplyCap()":"8f770ad0","symbol()":"95d89b41","totalAssets()":"01e1d114","totalSupply()":"18160ddd","transfer(address,uint256)":"a9059cbb","transferFrom(address,address,uint256)":"23b872dd","transferOwnership(address)":"f2fde38b","withdraw(uint256,address,address)":"b460af94"},"id":85}