{"abi":[{"type":"function","name":"MAX_ELEMENTS","inputs":[],"outputs":[{"name":"","type":"uint8","internalType":"uint8"}],"stateMutability":"view"},{"type":"error","name":"InvalidIndex","inputs":[]},{"type":"error","name":"TooManyElements","inputs":[]}],"bytecode":{"object":"0x608b610038600b82828239805160001a607314602b57634e487b7160e01b600052600060045260246000fd5b30600052607381538281f3fe730000000000000000000000000000000000000000301460806040526004361060335760003560e01c80633502a716146038575b600080fd5b603f601481565b60405160ff909116815260200160405180910390f3fea26469706673582212205f91a2f9d22c4ab32d342c9d4a9d5ea014e5f4b7dd4c87e21dec06a34fe5fd9e64736f6c63430008140033","linkReferences":{}},"methodIdentifiers":{"MAX_ELEMENTS()":"3502a716"},"id":6}