{"abi":[{"type":"function","name":"getQuote","inputs":[{"name":"amount","type":"uint256","internalType":"uint256"},{"name":"base","type":"address","internalType":"address"},{"name":"quote","type":"address","internalType":"address"}],"outputs":[{"name":"out","type":"uint256","internalType":"uint256"}],"stateMutability":"view"},{"type":"function","name":"getQuotes","inputs":[{"name":"amount","type":"uint256","internalType":"uint256"},{"name":"base","type":"address","internalType":"address"},{"name":"quote","type":"address","internalType":"address"}],"outputs":[{"name":"bidOut","type":"uint256","internalType":"uint256"},{"name":"askOut","type":"uint256","internalType":"uint256"}],"stateMutability":"view"},{"type":"function","name":"name","inputs":[],"outputs":[{"name":"","type":"string","internalType":"string"}],"stateMutability":"pure"},{"type":"function","name":"resolvedAssets","inputs":[{"name":"asset","type":"address","internalType":"address"}],"outputs":[{"name":"","type":"uint256","internalType":"PriceOracleMock.AssetInfo"}],"stateMutability":"view"},{"type":"function","name":"setPrice","inputs":[{"name":"base","type":"address","internalType":"address"},{"name":"quote","type":"address","internalType":"address"},{"name":"priceValue","type":"uint256","internalType":"uint256"}],"outputs":[],"stateMutability":"nonpayable"},{"type":"function","name":"setResolvedAsset","inputs":[{"name":"asset","type":"address","internalType":"address"}],"outputs":[],"stateMutability":"nonpayable"},{"type":"error","name":"PO_BaseUnsupported","inputs":[]},{"type":"error","name":"PO_NoPath","inputs":[]},{"type":"error","name":"PO_Overflow","inputs":[]},{"type":"error","name":"PO_QuoteUnsupported","inputs":[]}],"bytecode":{"object":"0x608060405234801561001057600080fd5b506108e5806100206000396000f3fe608060405234801561001057600080fd5b50600436106100625760003560e01c80630579e61f1461006757806306fdde031461009457806352001638146100c5578063792eb791146100da578063ae68676c14610114578063d622113214610135575b600080fd5b61007a61007536600461061f565b610155565b604080519283526020830191909152015b60405180910390f35b604080518082018252600f81526e50726963654f7261636c654d6f636b60881b6020820152905161008b9190610661565b6100d86100d33660046106af565b61021a565b005b6100d86100e83660046106d3565b6001600160a01b0392831660009081526001602090815260408083209490951682529290925291902055565b61012761012236600461061f565b610329565b60405190815260200161008b565b6101276101433660046106af565b60006020819052908152604090205481565b60008060006101658686866103e8565b929850909650945090506001600160a01b038085169086160361018a5785925061020e565b846001600160a01b031663313ce5676040518163ffffffff1660e01b8152600401602060405180830381865afa1580156101c8573d6000803e3d6000fd5b505050506040513d601f19601f820116820180604052508101906101ec9190610714565b6101f790600a610831565b6102018783610840565b61020b9190610857565b92505b82915050935093915050565b806001600160a01b03166338d52e0f6040518163ffffffff1660e01b8152600401602060405180830381865afa925050508015610274575060408051601f3d908101601f1916820190925261027191810190610879565b60015b610300576102e4816001600160a01b0316636f307dc36040518163ffffffff1660e01b8152600401602060405180830381865afa1580156102b9573d6000803e3d6000fd5b505050506040513d601f19601f820116820180604052508101906102dd9190610879565b60006105e2565b6001600160a01b03821660009081526020819052604090205550565b61030b8160016105e2565b6001600160a01b038316600090815260208190526040902055505b50565b6000806103378585856103e8565b929750909550935090506001600160a01b038084169085160361035c578491506103e0565b836001600160a01b031663313ce5676040518163ffffffff1660e01b8152600401602060405180830381865afa15801561039a573d6000803e3d6000fd5b505050506040513d601f19601f820116820180604052508101906103be9190610714565b6103c990600a610831565b6103d38683610840565b6103dd9190610857565b91505b509392505050565b600080600080846001600160a01b0316866001600160a01b031603610418575085925084915083905060006105d9565b6001600160a01b0380871660009081526001602090815260408083209389168352929052205480156104545787945086935085925090506105d9565b6001600160a01b0387811660009081526020819052604090205490811690600160a01b1615158115610511578061048b57896104f4565b6040516303d1689d60e11b8152600481018b90526001600160a01b038a16906307a2d13a90602401602060405180830381865afa1580156104d0573d6000803e3d6000fd5b505050506040513d601f19601f820116820180604052508101906104f49190610896565b99506105018a838a6103e8565b96509650965096505050506105d9565b50506001600160a01b0386811660009081526020819052604090205490811690600160a01b16151581156105c0578061054a57896105b3565b6040516363737ac960e11b8152600481018b90526001600160a01b0389169063c6e6f59290602401602060405180830381865afa15801561058f573d6000803e3d6000fd5b505050506040513d601f19601f820116820180604052508101906105b39190610896565b99506105018a8a846103e8565b6040516308332a2960e21b815260040160405180910390fd5b93509350935093565b6000816105f05760006105f6565b600160a01b5b836001600160a01b03161790505b92915050565b6001600160a01b038116811461032657600080fd5b60008060006060848603121561063457600080fd5b8335925060208401356106468161060a565b915060408401356106568161060a565b809150509250925092565b600060208083528351808285015260005b8181101561068e57858101830151858201604001528201610672565b506000604082860101526040601f19601f8301168501019250505092915050565b6000602082840312156106c157600080fd5b81356106cc8161060a565b9392505050565b6000806000606084860312156106e857600080fd5b83356106f38161060a565b925060208401356107038161060a565b929592945050506040919091013590565b60006020828403121561072657600080fd5b815160ff811681146106cc57600080fd5b634e487b7160e01b600052601160045260246000fd5b600181815b8085111561078857816000190482111561076e5761076e610737565b8085161561077b57918102915b93841c9390800290610752565b509250929050565b60008261079f57506001610604565b816107ac57506000610604565b81600181146107c257600281146107cc576107e8565b6001915050610604565b60ff8411156107dd576107dd610737565b50506001821b610604565b5060208310610133831016604e8410600b841016171561080b575081810a610604565b610815838361074d565b806000190482111561082957610829610737565b029392505050565b60006106cc60ff841683610790565b808202811582820484141761060457610604610737565b60008261087457634e487b7160e01b600052601260045260246000fd5b500490565b60006020828403121561088b57600080fd5b81516106cc8161060a565b6000602082840312156108a857600080fd5b505191905056fea2646970667358221220f3d1222d854b3001e5d6bb45ef682e6c37148794bbb9c5b90c8118f178e9463664736f6c63430008140033","linkReferences":{}},"methodIdentifiers":{"getQuote(uint256,address,address)":"ae68676c","getQuotes(uint256,address,address)":"0579e61f","name()":"06fdde03","resolvedAssets(address)":"d6221132","setPrice(address,address,uint256)":"792eb791","setResolvedAsset(address)":"52001638"},"id":95}