{"abi":[{"type":"function","name":"currentBlockNumber","inputs":[{"name":"ct","type":"uint8","internalType":"enum SimpleConditionsEnforcer.ComparisonType"},{"name":"number","type":"uint256","internalType":"uint256"}],"outputs":[],"stateMutability":"view"},{"type":"function","name":"currentBlockTimestamp","inputs":[{"name":"ct","type":"uint8","internalType":"enum SimpleConditionsEnforcer.ComparisonType"},{"name":"timestamp","type":"uint256","internalType":"uint256"}],"outputs":[],"stateMutability":"view"},{"type":"error","name":"ConditionNotMet","inputs":[]}],"bytecode":{"object":"0x608060405234801561001057600080fd5b50610219806100206000396000f3fe608060405234801561001057600080fd5b50600436106100365760003560e01c80633d12d10e1461003b57806368740cc614610050575b600080fd5b61004e61004936600461019d565b610063565b005b61004e61005e36600461019d565b610072565b61006e438383610079565b5050565b61006e4283835b600082600481111561008d5761008d6101cd565b036100b7578083146100b25760405163741926a160e01b815260040160405180910390fd5b505050565b60018260048111156100cb576100cb6101cd565b036100f0578083116100b25760405163741926a160e01b815260040160405180910390fd5b6002826004811115610104576101046101cd565b03610129578083106100b25760405163741926a160e01b815260040160405180910390fd5b600382600481111561013d5761013d6101cd565b0361016357808310156100b25760405163741926a160e01b815260040160405180910390fd5b6004826004811115610177576101776101cd565b036100b257808311156100b25760405163741926a160e01b815260040160405180910390fd5b600080604083850312156101b057600080fd5b8235600581106101bf57600080fd5b946020939093013593505050565b634e487b7160e01b600052602160045260246000fdfea26469706673582212208d94af5729df1eb5766eb7246c886ace2e259fbfe5c40130b57affe50842486964736f6c63430008140033","linkReferences":{}},"methodIdentifiers":{"currentBlockNumber(uint8,uint256)":"3d12d10e","currentBlockTimestamp(uint8,uint256)":"68740cc6"},"id":81}