{"abi":[{"type":"constructor","inputs":[{"name":"_evc","type":"address","internalType":"contract IEVC"},{"name":"_asset","type":"address","internalType":"contract ERC20"},{"name":"_irm","type":"address","internalType":"contract IIRM"},{"name":"_oracle","type":"address","internalType":"contract IPriceOracle"},{"name":"_referenceAsset","type":"address","internalType":"contract ERC20"},{"name":"_name","type":"string","internalType":"string"},{"name":"_symbol","type":"string","internalType":"string"}],"stateMutability":"nonpayable"},{"type":"receive","stateMutability":"payable"},{"type":"function","name":"DOMAIN_SEPARATOR","inputs":[],"outputs":[{"name":"","type":"bytes32","internalType":"bytes32"}],"stateMutability":"view"},{"type":"function","name":"allowance","inputs":[{"name":"","type":"address","internalType":"address"},{"name":"","type":"address","internalType":"address"}],"outputs":[{"name":"","type":"uint256","internalType":"uint256"}],"stateMutability":"view"},{"type":"function","name":"approve","inputs":[{"name":"spender","type":"address","internalType":"address"},{"name":"amount","type":"uint256","internalType":"uint256"}],"outputs":[{"name":"","type":"bool","internalType":"bool"}],"stateMutability":"nonpayable"},{"type":"function","name":"asset","inputs":[],"outputs":[{"name":"","type":"address","internalType":"contract ERC20"}],"stateMutability":"view"},{"type":"function","name":"balanceOf","inputs":[{"name":"","type":"address","internalType":"address"}],"outputs":[{"name":"","type":"uint256","internalType":"uint256"}],"stateMutability":"view"},{"type":"function","name":"borrow","inputs":[{"name":"assets","type":"uint256","internalType":"uint256"},{"name":"receiver","type":"address","internalType":"address"}],"outputs":[],"stateMutability":"nonpayable"},{"type":"function","name":"borrowCap","inputs":[],"outputs":[{"name":"","type":"uint256","internalType":"uint256"}],"stateMutability":"view"},{"type":"function","name":"checkAccountStatus","inputs":[{"name":"account","type":"address","internalType":"address"},{"name":"collaterals","type":"address[]","internalType":"address[]"}],"outputs":[{"name":"magicValue","type":"bytes4","internalType":"bytes4"}],"stateMutability":"view"},{"type":"function","name":"checkVaultStatus","inputs":[],"outputs":[{"name":"magicValue","type":"bytes4","internalType":"bytes4"}],"stateMutability":"nonpayable"},{"type":"function","name":"convertToAssets","inputs":[{"name":"shares","type":"uint256","internalType":"uint256"}],"outputs":[{"name":"","type":"uint256","internalType":"uint256"}],"stateMutability":"view"},{"type":"function","name":"convertToShares","inputs":[{"name":"assets","type":"uint256","internalType":"uint256"}],"outputs":[{"name":"","type":"uint256","internalType":"uint256"}],"stateMutability":"view"},{"type":"function","name":"debtOf","inputs":[{"name":"account","type":"address","internalType":"address"}],"outputs":[{"name":"","type":"uint256","internalType":"uint256"}],"stateMutability":"view"},{"type":"function","name":"decimals","inputs":[],"outputs":[{"name":"","type":"uint8","internalType":"uint8"}],"stateMutability":"view"},{"type":"function","name":"deposit","inputs":[{"name":"assets","type":"uint256","internalType":"uint256"},{"name":"receiver","type":"address","internalType":"address"}],"outputs":[{"name":"shares","type":"uint256","internalType":"uint256"}],"stateMutability":"nonpayable"},{"type":"function","name":"depositETH","inputs":[{"name":"receiver","type":"address","internalType":"address"}],"outputs":[{"name":"shares","type":"uint256","internalType":"uint256"}],"stateMutability":"payable"},{"type":"function","name":"disableController","inputs":[],"outputs":[],"stateMutability":"nonpayable"},{"type":"function","name":"getAccountLiabilityStatus","inputs":[{"name":"account","type":"address","internalType":"address"}],"outputs":[{"name":"liabilityValue","type":"uint256","internalType":"uint256"},{"name":"collateralValue","type":"uint256","internalType":"uint256"}],"stateMutability":"view"},{"type":"function","name":"getCollateralFactor","inputs":[{"name":"_asset","type":"address","internalType":"address"}],"outputs":[{"name":"","type":"uint256","internalType":"uint256"}],"stateMutability":"view"},{"type":"function","name":"getInterestRate","inputs":[],"outputs":[{"name":"","type":"uint256","internalType":"uint256"}],"stateMutability":"view"},{"type":"function","name":"irm","inputs":[],"outputs":[{"name":"","type":"address","internalType":"contract IIRM"}],"stateMutability":"view"},{"type":"function","name":"liquidate","inputs":[{"name":"violator","type":"address","internalType":"address"},{"name":"collateral","type":"address","internalType":"address"},{"name":"repayAssets","type":"uint256","internalType":"uint256"}],"outputs":[],"stateMutability":"nonpayable"},{"type":"function","name":"maxDeposit","inputs":[{"name":"","type":"address","internalType":"address"}],"outputs":[{"name":"","type":"uint256","internalType":"uint256"}],"stateMutability":"view"},{"type":"function","name":"maxMint","inputs":[{"name":"","type":"address","internalType":"address"}],"outputs":[{"name":"","type":"uint256","internalType":"uint256"}],"stateMutability":"view"},{"type":"function","name":"maxRedeem","inputs":[{"name":"owner","type":"address","internalType":"address"}],"outputs":[{"name":"","type":"uint256","internalType":"uint256"}],"stateMutability":"view"},{"type":"function","name":"maxWithdraw","inputs":[{"name":"owner","type":"address","internalType":"address"}],"outputs":[{"name":"","type":"uint256","internalType":"uint256"}],"stateMutability":"view"},{"type":"function","name":"mint","inputs":[{"name":"shares","type":"uint256","internalType":"uint256"},{"name":"receiver","type":"address","internalType":"address"}],"outputs":[{"name":"assets","type":"uint256","internalType":"uint256"}],"stateMutability":"nonpayable"},{"type":"function","name":"name","inputs":[],"outputs":[{"name":"","type":"string","internalType":"string"}],"stateMutability":"view"},{"type":"function","name":"nonces","inputs":[{"name":"","type":"address","internalType":"address"}],"outputs":[{"name":"","type":"uint256","internalType":"uint256"}],"stateMutability":"view"},{"type":"function","name":"oracle","inputs":[],"outputs":[{"name":"","type":"address","internalType":"contract IPriceOracle"}],"stateMutability":"view"},{"type":"function","name":"owner","inputs":[],"outputs":[{"name":"","type":"address","internalType":"address"}],"stateMutability":"view"},{"type":"function","name":"permit","inputs":[{"name":"owner","type":"address","internalType":"address"},{"name":"spender","type":"address","internalType":"address"},{"name":"value","type":"uint256","internalType":"uint256"},{"name":"deadline","type":"uint256","internalType":"uint256"},{"name":"v","type":"uint8","internalType":"uint8"},{"name":"r","type":"bytes32","internalType":"bytes32"},{"name":"s","type":"bytes32","internalType":"bytes32"}],"outputs":[],"stateMutability":"nonpayable"},{"type":"function","name":"previewDeposit","inputs":[{"name":"assets","type":"uint256","internalType":"uint256"}],"outputs":[{"name":"","type":"uint256","internalType":"uint256"}],"stateMutability":"view"},{"type":"function","name":"previewMint","inputs":[{"name":"shares","type":"uint256","internalType":"uint256"}],"outputs":[{"name":"","type":"uint256","internalType":"uint256"}],"stateMutability":"view"},{"type":"function","name":"previewRedeem","inputs":[{"name":"shares","type":"uint256","internalType":"uint256"}],"outputs":[{"name":"","type":"uint256","internalType":"uint256"}],"stateMutability":"view"},{"type":"function","name":"previewWithdraw","inputs":[{"name":"assets","type":"uint256","internalType":"uint256"}],"outputs":[{"name":"","type":"uint256","internalType":"uint256"}],"stateMutability":"view"},{"type":"function","name":"pullDebt","inputs":[{"name":"from","type":"address","internalType":"address"},{"name":"assets","type":"uint256","internalType":"uint256"}],"outputs":[{"name":"","type":"bool","internalType":"bool"}],"stateMutability":"nonpayable"},{"type":"function","name":"redeem","inputs":[{"name":"shares","type":"uint256","internalType":"uint256"},{"name":"receiver","type":"address","internalType":"address"},{"name":"owner","type":"address","internalType":"address"}],"outputs":[{"name":"assets","type":"uint256","internalType":"uint256"}],"stateMutability":"nonpayable"},{"type":"function","name":"redeemToETH","inputs":[{"name":"shares","type":"uint256","internalType":"uint256"},{"name":"receiver","type":"address","internalType":"address"},{"name":"owner","type":"address","internalType":"address"}],"outputs":[{"name":"assets","type":"uint256","internalType":"uint256"}],"stateMutability":"nonpayable"},{"type":"function","name":"referenceAsset","inputs":[],"outputs":[{"name":"","type":"address","internalType":"contract ERC20"}],"stateMutability":"view"},{"type":"function","name":"repay","inputs":[{"name":"assets","type":"uint256","internalType":"uint256"},{"name":"receiver","type":"address","internalType":"address"}],"outputs":[],"stateMutability":"nonpayable"},{"type":"function","name":"setBorrowCap","inputs":[{"name":"newBorrowCap","type":"uint256","internalType":"uint256"}],"outputs":[],"stateMutability":"nonpayable"},{"type":"function","name":"setCollateralFactor","inputs":[{"name":"_asset","type":"address","internalType":"address"},{"name":"_collateralFactor","type":"uint256","internalType":"uint256"}],"outputs":[],"stateMutability":"nonpayable"},{"type":"function","name":"setIRM","inputs":[{"name":"_irm","type":"address","internalType":"contract IIRM"}],"outputs":[],"stateMutability":"nonpayable"},{"type":"function","name":"setOracle","inputs":[{"name":"_oracle","type":"address","internalType":"contract IPriceOracle"}],"outputs":[],"stateMutability":"nonpayable"},{"type":"function","name":"setReferenceAsset","inputs":[{"name":"_referenceAsset","type":"address","internalType":"contract ERC20"}],"outputs":[],"stateMutability":"nonpayable"},{"type":"function","name":"setSupplyCap","inputs":[{"name":"newSupplyCap","type":"uint256","internalType":"uint256"}],"outputs":[],"stateMutability":"nonpayable"},{"type":"function","name":"supplyCap","inputs":[],"outputs":[{"name":"","type":"uint256","internalType":"uint256"}],"stateMutability":"view"},{"type":"function","name":"symbol","inputs":[],"outputs":[{"name":"","type":"string","internalType":"string"}],"stateMutability":"view"},{"type":"function","name":"totalAssets","inputs":[],"outputs":[{"name":"","type":"uint256","internalType":"uint256"}],"stateMutability":"view"},{"type":"function","name":"totalBorrowed","inputs":[],"outputs":[{"name":"","type":"uint256","internalType":"uint256"}],"stateMutability":"view"},{"type":"function","name":"totalSupply","inputs":[],"outputs":[{"name":"","type":"uint256","internalType":"uint256"}],"stateMutability":"view"},{"type":"function","name":"transfer","inputs":[{"name":"to","type":"address","internalType":"address"},{"name":"amount","type":"uint256","internalType":"uint256"}],"outputs":[{"name":"","type":"bool","internalType":"bool"}],"stateMutability":"nonpayable"},{"type":"function","name":"transferFrom","inputs":[{"name":"from","type":"address","internalType":"address"},{"name":"to","type":"address","internalType":"address"},{"name":"amount","type":"uint256","internalType":"uint256"}],"outputs":[{"name":"","type":"bool","internalType":"bool"}],"stateMutability":"nonpayable"},{"type":"function","name":"transferOwnership","inputs":[{"name":"newOwner","type":"address","internalType":"address"}],"outputs":[],"stateMutability":"nonpayable"},{"type":"function","name":"withdraw","inputs":[{"name":"assets","type":"uint256","internalType":"uint256"},{"name":"receiver","type":"address","internalType":"address"},{"name":"owner","type":"address","internalType":"address"}],"outputs":[{"name":"shares","type":"uint256","internalType":"uint256"}],"stateMutability":"nonpayable"},{"type":"event","name":"Approval","inputs":[{"name":"owner","type":"address","indexed":true,"internalType":"address"},{"name":"spender","type":"address","indexed":true,"internalType":"address"},{"name":"amount","type":"uint256","indexed":false,"internalType":"uint256"}],"anonymous":false},{"type":"event","name":"Borrow","inputs":[{"name":"caller","type":"address","indexed":true,"internalType":"address"},{"name":"owner","type":"address","indexed":true,"internalType":"address"},{"name":"assets","type":"uint256","indexed":false,"internalType":"uint256"}],"anonymous":false},{"type":"event","name":"BorrowCapSet","inputs":[{"name":"newBorrowCap","type":"uint256","indexed":false,"internalType":"uint256"}],"anonymous":false},{"type":"event","name":"Deposit","inputs":[{"name":"caller","type":"address","indexed":true,"internalType":"address"},{"name":"owner","type":"address","indexed":true,"internalType":"address"},{"name":"assets","type":"uint256","indexed":false,"internalType":"uint256"},{"name":"shares","type":"uint256","indexed":false,"internalType":"uint256"}],"anonymous":false},{"type":"event","name":"OwnershipTransferred","inputs":[{"name":"user","type":"address","indexed":true,"internalType":"address"},{"name":"newOwner","type":"address","indexed":true,"internalType":"address"}],"anonymous":false},{"type":"event","name":"Repay","inputs":[{"name":"caller","type":"address","indexed":true,"internalType":"address"},{"name":"receiver","type":"address","indexed":true,"internalType":"address"},{"name":"assets","type":"uint256","indexed":false,"internalType":"uint256"}],"anonymous":false},{"type":"event","name":"SupplyCapSet","inputs":[{"name":"newSupplyCap","type":"uint256","indexed":false,"internalType":"uint256"}],"anonymous":false},{"type":"event","name":"Transfer","inputs":[{"name":"from","type":"address","indexed":true,"internalType":"address"},{"name":"to","type":"address","indexed":true,"internalType":"address"},{"name":"amount","type":"uint256","indexed":false,"internalType":"uint256"}],"anonymous":false},{"type":"event","name":"Withdraw","inputs":[{"name":"caller","type":"address","indexed":true,"internalType":"address"},{"name":"receiver","type":"address","indexed":true,"internalType":"address"},{"name":"owner","type":"address","indexed":true,"internalType":"address"},{"name":"assets","type":"uint256","indexed":false,"internalType":"uint256"},{"name":"shares","type":"uint256","indexed":false,"internalType":"uint256"}],"anonymous":false},{"type":"error","name":"AccountUnhealthy","inputs":[]},{"type":"error","name":"BorrowCapExceeded","inputs":[]},{"type":"error","name":"CollateralDisabled","inputs":[]},{"type":"error","name":"ControllerDisabled","inputs":[]},{"type":"error","name":"InvalidCollateralFactor","inputs":[]},{"type":"error","name":"NoLiquidationOpportunity","inputs":[]},{"type":"error","name":"NotAuthorized","inputs":[]},{"type":"error","name":"OutstandingDebt","inputs":[]},{"type":"error","name":"Reentrancy","inputs":[]},{"type":"error","name":"RepayAssetsExceeded","inputs":[]},{"type":"error","name":"RepayAssetsInsufficient","inputs":[]},{"type":"error","name":"SelfLiquidation","inputs":[]},{"type":"error","name":"SharesSeizureFailed","inputs":[]},{"type":"error","name":"SnapshotNotTaken","inputs":[]},{"type":"error","name":"SupplyCapExceeded","inputs":[]},{"type":"error","name":"VaultStatusCheckDeferred","inputs":[]},{"type":"error","name":"ViolatorStatusCheckDeferred","inputs":[]}],"bytecode":{"object":"0x6101406040523480156200001257600080fd5b50604051620054aa380380620054aa83398101604081905262000035916200039f565b8686868686868686868383838383838282828181846001600160a01b031663313ce5676040518163ffffffff1660e01b8152600401602060405180830381865afa15801562000088573d6000803e3d6000fd5b505050506040513d601f19601f82011682018060405250810190620000ae919062000475565b6001600160a01b038a1660805260016000908155600280546001600160a01b03191633908117909155604051909182917f8be0079c531659141344cd1fd0a4f28419497f9722a3daafe3b4186f6b6457e0908290a350600362000112848262000530565b50600462000121838262000530565b5060ff811660a0524660c0526200013762000225565b60e08181525050505050826001600160a01b0316610100816001600160a01b031681525050505050505050505050505084601360006101000a8154816001600160a01b0302191690836001600160a01b0316021790555083601560006101000a8154816001600160a01b0302191690836001600160a01b0316021790555082601460006101000a8154816001600160a01b0302191690836001600160a01b0316021790555042600f819055506b033b2e3c9fd0803ce800000060108190555050505050505050856001600160a01b0316610120816001600160a01b031681525050505050505050506200067a565b60007f8b73c3c69bb8fe3d512ecc4cf759cc79239f7b179b0ffacaa9a75d522b39400f6003604051620002599190620005fc565b6040805191829003822060208301939093528101919091527fc89efdaa54c0f20c7adf612882df0950f5a951637e0307cdcb4c672f298b8bc660608201524660808201523060a082015260c00160405160208183030381529060405280519060200120905090565b6001600160a01b0381168114620002d757600080fd5b50565b634e487b7160e01b600052604160045260246000fd5b600082601f8301126200030257600080fd5b81516001600160401b03808211156200031f576200031f620002da565b604051601f8301601f19908116603f011681019082821181831017156200034a576200034a620002da565b816040528381526020925086838588010111156200036757600080fd5b600091505b838210156200038b57858201830151818301840152908201906200036c565b600093810190920192909252949350505050565b600080600080600080600060e0888a031215620003bb57600080fd5b8751620003c881620002c1565b6020890151909750620003db81620002c1565b6040890151909650620003ee81620002c1565b60608901519095506200040181620002c1565b60808901519094506200041481620002c1565b60a08901519093506001600160401b03808211156200043257600080fd5b620004408b838c01620002f0565b935060c08a01519150808211156200045757600080fd5b50620004668a828b01620002f0565b91505092959891949750929550565b6000602082840312156200048857600080fd5b815160ff811681146200049a57600080fd5b9392505050565b600181811c90821680620004b657607f821691505b602082108103620004d757634e487b7160e01b600052602260045260246000fd5b50919050565b601f8211156200052b57600081815260208120601f850160051c81016020861015620005065750805b601f850160051c820191505b81811015620005275782815560010162000512565b5050505b505050565b81516001600160401b038111156200054c576200054c620002da565b62000564816200055d8454620004a1565b84620004dd565b602080601f8311600181146200059c5760008415620005835750858301515b600019600386901b1c1916600185901b17855562000527565b600085815260208120601f198616915b82811015620005cd57888601518255948401946001909101908401620005ac565b5085821015620005ec5787850151600019600388901b60f8161c191681555b5050505050600190811b01905550565b60008083546200060c81620004a1565b600182811680156200062757600181146200063d576200066e565b60ff19841687528215158302870194506200066e565b8760005260208060002060005b85811015620006655781548a8201529084019082016200064a565b50505082870194505b50929695505050505050565b60805160a05160c05160e0516101005161012051614cac620007fe60003960008181611192015261152c015260008181610591015281816118d401528181611a4601528181611ca601528181611f0a015281816122220152818161246c01528181612d82015281816134a601526140da015260006113690152600061133401526000610536015260008181610c1001528181610d7e01528181610e1d015281816110de0152818161129501528181611397015281816116640152818161168e015281816117e30152818161198c01528181611c2a01528181611d5701528181611e5401528181611fb801528181611fe2015281816120b6015281816122e00152818161293701528181612b7801528181612bb401528181612cb901528181612fc70152818161305c015281816130ca01528181613105015281816131a60152818161325a015281816132f20152818161375101528181613786015281816138ce01528181613a1301528181613d1401528181613ddc0152613ec60152614cac6000f3fe6080604052600436106103545760003560e01c80637dc0d1d0116101c6578063c04f31ff116100f7578063d5c0583311610095578063dd62ed3e1161006f578063dd62ed3e146109fd578063ef8b30f714610a35578063f2fde38b14610a55578063f6145f2014610a7557600080fd5b8063d5c058331461099d578063d905777e146109bd578063d9fd31e6146109dd57600080fd5b8063ce96cb77116100d1578063ce96cb771461091d578063d283e75f1461093d578063d4bb0c731461095d578063d505accf1461097d57600080fd5b8063c04f31ff146108dd578063c63d75b6146105b3578063c6e6f592146108fd57600080fd5b8063a9059cbb11610164578063b3d7f6b91161013e578063b3d7f6b91461085d578063b460af941461087d578063b6a3f59a1461089d578063ba087652146108bd57600080fd5b8063a9059cbb146107fd578063acb708151461081d578063b168c58f1461083d57600080fd5b80638da5cb5b116101a05780638da5cb5b146107925780638f770ad0146107b257806394bf804d146107c857806395d89b41146107e857600080fd5b80637dc0d1d0146107305780637ecebe0014610750578063869e50c71461077d57600080fd5b80633644e515116102a05780634c19386c1161023e5780636e553f65116102185780636e553f65146106a357806370a08231146106c3578063717186d1146106f05780637adbf9731461071057600080fd5b80634c19386c146106595780634cdad5061461066e5780635257b5661461068e57600080fd5b806344d9dca61161027a57806344d9dca6146105d55780634a686514146105eb5780634b3d12231461060b5780634b3fd1481461063957600080fd5b80633644e5151461056a57806338d52e0f1461057f578063402d267d146105b357600080fd5b80631e610d681161030d57806326c01303116102e757806326c01303146104b757806328e8fe7d146104d95780632d2da80614610511578063313ce5671461052457600080fd5b80631e610d681461042c578063236175851461046157806323b872dd1461049757600080fd5b806301e1d1141461036057806306fdde031461038457806307a2d13a146103a6578063095ea7b3146103c65780630a28a477146103f657806318160ddd1461041657600080fd5b3661035b57005b600080fd5b34801561036c57600080fd5b506009545b6040519081526020015b60405180910390f35b34801561039057600080fd5b50610399610a95565b60405161037b9190614317565b3480156103b257600080fd5b506103716103c136600461432a565b610b23565b3480156103d257600080fd5b506103e66103e1366004614358565b610b5b565b604051901515815260200161037b565b34801561040257600080fd5b5061037161041136600461432a565b610bd5565b34801561042257600080fd5b5061037160055481565b34801561043857600080fd5b5061044c610447366004614384565b610be2565b6040805192835260208301919091520161037b565b34801561046d57600080fd5b5061037161047c366004614384565b6001600160a01b031660009081526012602052604090205490565b3480156104a357600080fd5b506103e66104b23660046143a1565b610c04565b3480156104c357600080fd5b506104d76104d23660046143a1565b610e13565b005b3480156104e557600080fd5b506013546104f9906001600160a01b031681565b6040516001600160a01b03909116815260200161037b565b61037161051f366004614384565b6110d2565b34801561053057600080fd5b506105587f000000000000000000000000000000000000000000000000000000000000000081565b60405160ff909116815260200161037b565b34801561057657600080fd5b50610371611330565b34801561058b57600080fd5b506104f97f000000000000000000000000000000000000000000000000000000000000000081565b3480156105bf57600080fd5b506103716105ce366004614384565b5060001990565b3480156105e157600080fd5b50610371600b5481565b3480156105f757600080fd5b506103716106063660046143e2565b61138b565b34801561061757600080fd5b50610620611657565b6040516001600160e01b0319909116815260200161037b565b34801561064557600080fd5b506104d7610654366004614424565b6117d9565b34801561066557600080fd5b50610371611926565b34801561067a57600080fd5b5061037161068936600461432a565b61193a565b34801561069a57600080fd5b50610371611947565b3480156106af57600080fd5b506103716106be366004614424565b611980565b3480156106cf57600080fd5b506103716106de366004614384565b60066020526000908152604090205481565b3480156106fc57600080fd5b506104d761070b36600461432a565b611af9565b34801561071c57600080fd5b506104d761072b366004614384565b611b5f565b34801561073c57600080fd5b506015546104f9906001600160a01b031681565b34801561075c57600080fd5b5061037161076b366004614384565b60086020526000908152604090205481565b34801561078957600080fd5b506104d7611bab565b34801561079e57600080fd5b506002546104f9906001600160a01b031681565b3480156107be57600080fd5b50610371600a5481565b3480156107d457600080fd5b506103716107e3366004614424565b611c1e565b3480156107f457600080fd5b50610399611d3e565b34801561080957600080fd5b506103e6610818366004614358565b611d4b565b34801561082957600080fd5b506104d7610838366004614424565b611e4a565b34801561084957600080fd5b50610620610858366004614454565b611fab565b34801561086957600080fd5b5061037161087836600461432a565b61209d565b34801561088957600080fd5b506103716108983660046143e2565b6120aa565b3480156108a957600080fd5b506104d76108b836600461432a565b612275565b3480156108c957600080fd5b506103716108d83660046143e2565b6122d4565b3480156108e957600080fd5b506104d76108f8366004614358565b6124a5565b34801561090957600080fd5b5061037161091836600461432a565b61250d565b34801561092957600080fd5b50610371610938366004614384565b61253d565b34801561094957600080fd5b50610371610958366004614384565b612581565b34801561096957600080fd5b506104d7610978366004614384565b61258c565b34801561098957600080fd5b506104d76109983660046144eb565b6125d8565b3480156109a957600080fd5b506014546104f9906001600160a01b031681565b3480156109c957600080fd5b506103716109d8366004614384565b61281c565b3480156109e957600080fd5b506104d76109f8366004614384565b61285c565b348015610a0957600080fd5b50610371610a1836600461455c565b600760209081526000928352604080842090915290825290205481565b348015610a4157600080fd5b50610371610a5036600461432a565b6128a8565b348015610a6157600080fd5b506104d7610a70366004614384565b6128b5565b348015610a8157600080fd5b506103e6610a90366004614358565b61292b565b60038054610aa29061458a565b80601f0160208091040260200160405190810160405280929190818152602001828054610ace9061458a565b8015610b1b5780601f10610af057610100808354040283529160200191610b1b565b820191906000526020600020905b815481529060010190602001808311610afe57829003601f168201915b505050505081565b6000600160005414610b485760405163558a1e0360e11b815260040160405180910390fd5b610b53826000612aee565b90505b919050565b600080610b66612b6b565b6001600160a01b038181166000818152600760209081526040808320948a16808452948252918290208890559051878152939450919290917f8c5be1e5ebec7d5bd14f71427d1e84f3dd0314c0f7b2291e5b200ac8c7c3b925910160405180910390a360019150505b92915050565b6000610b53826001612c2d565b600080610bf983610bf285612c97565b6000612d2a565b909590945092505050565b60006001600160a01b037f0000000000000000000000000000000000000000000000000000000000000000163303610d6457600160005414610c595760405163558a1e0360e11b815260040160405180910390fd5b60026000908155610c68612b6b565b9050610c72612f88565b6001600160a01b038086166000908152600760209081526040808320938516835292905220546000198114610cd257610cab84826145d4565b6001600160a01b038088166000908152600760209081526040808320938716835292905220555b6001600160a01b03861660009081526006602052604081208054869290610cfa9084906145d4565b90915550506001600160a01b0380861660008181526006602052604090819020805488019055519091881690600080516020614c5783398151915290610d439088815260200190565b60405180910390a3610d5486612fb7565b6001925050506001600055610e0c565b604051631f8b521560e01b81526000906001600160a01b037f00000000000000000000000000000000000000000000000000000000000000001690631f8b521590610dbb9030903390869081903690600401614610565b6000604051808303816000875af1158015610dda573d6000803e3d6000fd5b505050506040513d6000823e601f3d908101601f19168201604052610e029190810190614696565b9050805181602001f35b9392505050565b6001600160a01b037f0000000000000000000000000000000000000000000000000000000000000000163303610d6457600160005414610e665760405163558a1e0360e11b815260040160405180910390fd5b60026000908155610e756130bc565b9050836001600160a01b0316816001600160a01b031603610ea9576040516344511af160e01b815260040160405180910390fd5b81600003610eca5760405163270bbe6f60e11b815260040160405180910390fd5b610ed384613238565b15610ef15760405163c9286d5760e01b815260040160405180910390fd5b610efb84306132c8565b610f18576040516359cf0f3760e11b815260040160405180910390fd5b610f20612f88565b6000610f2d858585613360565b9050610f3985846136f3565b610f43828461371d565b846001600160a01b0316826001600160a01b03167f05f2eeda0e08e4b437f487c8d7d29b14537d15e3488170dc3de5dbdf8dac468485604051610f8891815260200190565b60405180910390a36040518381526001600160a01b0383169081907f312a5e5e1079f5dda4e95dbbd0b908b291fd5b992ef22073643ab691572c5b529060200160405180910390a3306001600160a01b038516036110a357610fea8585613727565b611007576040516301716b7360e11b815260040160405180910390fd5b6001600160a01b0385166000908152600660205260408120805483929061102f9084906145d4565b90915550506001600160a01b0382166000908152600660205260408120805483929061105c90849061472a565b92505081905550816001600160a01b0316856001600160a01b0316600080516020614c578339815191528360405161109691815260200190565b60405180910390a36110b8565b6110af84868484613782565b6110b8856138af565b6110c182612fb7565b50506001600055505050565b505050565b60006001600160a01b037f0000000000000000000000000000000000000000000000000000000000000000163303611291576001600054146111275760405163558a1e0360e11b815260040160405180910390fd5b60026000908155611136612b6b565b9050611140612f88565b61114b346000612c2d565b9150816000036111905760405162461bcd60e51b815260206004820152600b60248201526a5a45524f5f53484152455360a81b60448201526064015b60405180910390fd5b7f00000000000000000000000000000000000000000000000000000000000000006001600160a01b031663d0e30db0346040518263ffffffff1660e01b81526004016000604051808303818588803b1580156111eb57600080fd5b505af11580156111ff573d6000803e3d6000fd5b50505050503460096000828254611216919061472a565b90915550611226905083836138fd565b826001600160a01b0316816001600160a01b03167fdcbc1c05240f31ff3ad067ef1ee35ce4997762752e3a095284754544f4c709d73485604051611274929190918252602082015260400190565b60405180910390a36112866000612fb7565b506001600055919050565b60007f00000000000000000000000000000000000000000000000000000000000000006001600160a01b0316631f8b5215343033346000366040518763ffffffff1660e01b81526004016112e9959493929190614610565b60006040518083038185885af1158015611307573d6000803e3d6000fd5b50505050506040513d6000823e601f3d908101601f19168201604052610e029190810190614696565b60007f0000000000000000000000000000000000000000000000000000000000000000461461136657611361613957565b905090565b507f000000000000000000000000000000000000000000000000000000000000000090565b60006001600160a01b037f0000000000000000000000000000000000000000000000000000000000000000163303610d64576001600054146113e05760405163558a1e0360e11b815260040160405180910390fd5b600260009081556113ef612b6b565b90506113f9612f88565b826001600160a01b0316816001600160a01b031614611474576001600160a01b0380841660009081526007602090815260408083209385168352929052205460001981146114725761144b86826145d4565b6001600160a01b038086166000908152600760209081526040808320938716835292905220555b505b61147f856000612aee565b9150816000036114a15760405162461bcd60e51b81526004016111879061473d565b6114aa846139f1565b93506114b68386613a80565b826001600160a01b0316846001600160a01b0316826001600160a01b03167ffbde797d201c681b91056529119e0b02407c7bb96a4a2c75c01fc9667232c8db858960405161150e929190918252602082015260400190565b60405180910390a4604051632e1a7d4d60e01b8152600481018390527f00000000000000000000000000000000000000000000000000000000000000006001600160a01b031690632e1a7d4d90602401600060405180830381600087803b15801561157857600080fd5b505af115801561158c573d6000803e3d6000fd5b505050506000846001600160a01b03168360405160006040518083038185875af1925050503d80600081146115dd576040519150601f19603f3d011682016040523d82523d6000602084013e6115e2565b606091505b505090508061162a5760405162461bcd60e51b81526020600482015260146024820152732330b4b632b2103a379039b2b7321022ba3432b960611b6044820152606401611187565b826009600082825461163c91906145d4565b9091555061164b905084612fb7565b50506001600055610e0c565b6000336001600160a01b037f00000000000000000000000000000000000000000000000000000000000000001614158061171057507f00000000000000000000000000000000000000000000000000000000000000006001600160a01b031663e21e537c6040518163ffffffff1660e01b8152600401602060405180830381865afa1580156116ea573d6000803e3d6000fd5b505050506040513d601f19601f8201168201806040525081019061170e9190614772565b155b1561172e5760405163ea8e4eb560e01b815260040160405180910390fd5b6117c16001805461173e9061458a565b80601f016020809104026020016040519081016040528092919081815260200182805461176a9061458a565b80156117b75780601f1061178c576101008083540402835291602001916117b7565b820191906000526020600020905b81548152906001019060200180831161179a57829003601f168201915b5050505050613ae2565b6117cd60016000614279565b50634b3d122360e01b90565b6001600160a01b037f0000000000000000000000000000000000000000000000000000000000000000163303610d645760016000541461182c5760405163558a1e0360e11b815260040160405180910390fd5b6002600090815561183b6130bc565b9050611845612f88565b826000036118655760405162461bcd60e51b81526004016111879061473d565b61186e826139f1565b915061187a818461371d565b816001600160a01b0316816001600160a01b03167f312a5e5e1079f5dda4e95dbbd0b908b291fd5b992ef22073643ab691572c5b52856040516118bf91815260200190565b60405180910390a36118fb6001600160a01b037f0000000000000000000000000000000000000000000000000000000000000000168385613bc1565b826009600082825461190d91906145d4565b9091555061191c905081612fb7565b5060016000555050565b600080611931613c48565b50909392505050565b6000610b53826000612aee565b600061195230613cf2565b1561197057604051634c3c2ae160e01b815260040160405180910390fd5b50600e546001600160601b031690565b60006001600160a01b037f0000000000000000000000000000000000000000000000000000000000000000163303610d64576001600054146119d55760405163558a1e0360e11b815260040160405180910390fd5b600260009081556119e4612b6b565b90506119ee612f88565b6119f9846000612c2d565b915081600003611a395760405162461bcd60e51b815260206004820152600b60248201526a5a45524f5f53484152455360a81b6044820152606401611187565b611a6e6001600160a01b037f000000000000000000000000000000000000000000000000000000000000000016823087613d45565b8360096000828254611a80919061472a565b90915550611a90905083836138fd565b826001600160a01b0316816001600160a01b03167fdcbc1c05240f31ff3ad067ef1ee35ce4997762752e3a095284754544f4c709d78685604051611ade929190918252602082015260400190565b60405180910390a3611aee613dda565b506001600055610bcf565b6002546001600160a01b03163314611b235760405162461bcd60e51b81526004016111879061478d565b600b8190556040518181527fb250c0149b70b55fb6f80e2b07b256904f2efb28f4bbd4e226049db128ec8a63906020015b60405180910390a150565b6002546001600160a01b03163314611b895760405162461bcd60e51b81526004016111879061478d565b601580546001600160a01b0319166001600160a01b0392909216919091179055565b600160005414611bce5760405163558a1e0360e11b815260040160405180910390fd5b60026000908155611bdd612b6b565b9050611be881613e49565b600003611bfd57611bf881613ea7565b611c16565b604051631d2197fd60e31b815260040160405180910390fd5b506001600055565b60006001600160a01b037f0000000000000000000000000000000000000000000000000000000000000000163303610d6457600160005414611c735760405163558a1e0360e11b815260040160405180910390fd5b60026000908155611c82612b6b565b9050611c8c612f88565b611c97846001612aee565b9150611cce6001600160a01b037f000000000000000000000000000000000000000000000000000000000000000016823085613d45565b8160096000828254611ce0919061472a565b90915550611cf0905083856138fd565b826001600160a01b0316816001600160a01b03167fdcbc1c05240f31ff3ad067ef1ee35ce4997762752e3a095284754544f4c709d78487604051611ade929190918252602082015260400190565b60048054610aa29061458a565b60006001600160a01b037f0000000000000000000000000000000000000000000000000000000000000000163303610d6457600160005414611da05760405163558a1e0360e11b815260040160405180910390fd5b60026000908155611daf612b6b565b9050611db9612f88565b6001600160a01b03811660009081526006602052604081208054859290611de19084906145d4565b90915550506001600160a01b0380851660008181526006602052604090819020805487019055519091831690600080516020614c5783398151915290611e2a9087815260200190565b60405180910390a3611e3b81612fb7565b60019150506001600055610bcf565b6001600160a01b037f0000000000000000000000000000000000000000000000000000000000000000163303610d6457600160005414611e9d5760405163558a1e0360e11b815260040160405180910390fd5b60026000908155611eac612b6b565b9050611eb882306132c8565b611ed5576040516359cf0f3760e11b815260040160405180910390fd5b611edd612f88565b82600003611efd5760405162461bcd60e51b81526004016111879061473d565b611f326001600160a01b037f000000000000000000000000000000000000000000000000000000000000000016823086613d45565b8260096000828254611f44919061472a565b90915550611f54905082846136f3565b816001600160a01b0316816001600160a01b03167f05f2eeda0e08e4b437f487c8d7d29b14537d15e3488170dc3de5dbdf8dac468485604051611f9991815260200190565b60405180910390a361191c6000612fb7565b6000336001600160a01b037f00000000000000000000000000000000000000000000000000000000000000001614158061206457507f00000000000000000000000000000000000000000000000000000000000000006001600160a01b031663e21e537c6040518163ffffffff1660e01b8152600401602060405180830381865afa15801561203e573d6000803e3d6000fd5b505050506040513d601f19601f820116820180604052508101906120629190614772565b155b156120825760405163ea8e4eb560e01b815260040160405180910390fd5b61208d848484613ef5565b5063b168c58f60e01b9392505050565b6000610b53826001612aee565b60006001600160a01b037f0000000000000000000000000000000000000000000000000000000000000000163303610d64576001600054146120ff5760405163558a1e0360e11b815260040160405180910390fd5b6002600090815561210e612b6b565b9050612118612f88565b612123856001612c2d565b9150826001600160a01b0316816001600160a01b0316146121a0576001600160a01b03808416600090815260076020908152604080832093851683529290522054600019811461219e5761217783826145d4565b6001600160a01b038086166000908152600760209081526040808320938716835292905220555b505b6121a9846139f1565b93506121b58383613a80565b826001600160a01b0316846001600160a01b0316826001600160a01b03167ffbde797d201c681b91056529119e0b02407c7bb96a4a2c75c01fc9667232c8db888660405161220d929190918252602082015260400190565b60405180910390a46122496001600160a01b037f0000000000000000000000000000000000000000000000000000000000000000168587613bc1565b846009600082825461225b91906145d4565b9091555061226a905083612fb7565b506001600055610e0c565b6002546001600160a01b0316331461229f5760405162461bcd60e51b81526004016111879061478d565b600a8190556040518181527fbc585eed6f54aa16ec292be93276937803d5a047ba4eded0c87779270bbfdfe690602001611b54565b60006001600160a01b037f0000000000000000000000000000000000000000000000000000000000000000163303610d64576001600054146123295760405163558a1e0360e11b815260040160405180910390fd5b60026000908155612338612b6b565b9050612342612f88565b826001600160a01b0316816001600160a01b0316146123bd576001600160a01b0380841660009081526007602090815260408083209385168352929052205460001981146123bb5761239486826145d4565b6001600160a01b038086166000908152600760209081526040808320938716835292905220555b505b6123c8856000612aee565b9150816000036123ea5760405162461bcd60e51b81526004016111879061473d565b6123f3846139f1565b93506123ff8386613a80565b826001600160a01b0316846001600160a01b0316826001600160a01b03167ffbde797d201c681b91056529119e0b02407c7bb96a4a2c75c01fc9667232c8db8589604051612457929190918252602082015260400190565b60405180910390a46124936001600160a01b037f0000000000000000000000000000000000000000000000000000000000000000168584613bc1565b816009600082825461225b91906145d4565b6002546001600160a01b031633146124cf5760405162461bcd60e51b81526004016111879061478d565b60648111156124f1576040516302f22cad60e61b815260040160405180910390fd5b6001600160a01b03909116600090815260126020526040902055565b60006001600054146125325760405163558a1e0360e11b815260040160405180910390fd5b610b53826000612c2d565b6009546001600160a01b03821660009081526006602052604081205490919082906125689082612aee565b90508181116125775780612579565b815b949350505050565b6000610b5382613e49565b6002546001600160a01b031633146125b65760405162461bcd60e51b81526004016111879061478d565b601380546001600160a01b0319166001600160a01b0392909216919091179055565b428410156126285760405162461bcd60e51b815260206004820152601760248201527f5045524d49545f444541444c494e455f455850495245440000000000000000006044820152606401611187565b60006001612634611330565b6001600160a01b038a811660008181526008602090815260409182902080546001810190915582517f6e71edae12b1b97f4d1f60370fef10105fa2faae0126114a169c64845d6126c98184015280840194909452938d166060840152608083018c905260a083019390935260c08083018b90528151808403909101815260e08301909152805192019190912061190160f01b6101008301526101028201929092526101228101919091526101420160408051601f198184030181528282528051602091820120600084529083018083525260ff871690820152606081018590526080810184905260a0016020604051602081039080840390855afa158015612740573d6000803e3d6000fd5b5050604051601f1901519150506001600160a01b038116158015906127765750876001600160a01b0316816001600160a01b0316145b6127b35760405162461bcd60e51b815260206004820152600e60248201526d24a72b20a624a22fa9a4a3a722a960911b6044820152606401611187565b6001600160a01b0390811660009081526007602090815260408083208a8516808552908352928190208990555188815291928a16917f8c5be1e5ebec7d5bd14f71427d1e84f3dd0314c0f7b2291e5b200ac8c7c3b925910160405180910390a350505050505050565b6009546001600160a01b038216600090815260066020526040812054909190816128468285612aee565b116128515780612579565b612579826000612c2d565b6002546001600160a01b031633146128865760405162461bcd60e51b81526004016111879061478d565b601480546001600160a01b0319166001600160a01b0392909216919091179055565b6000610b53826000612c2d565b6002546001600160a01b031633146128df5760405162461bcd60e51b81526004016111879061478d565b600280546001600160a01b0319166001600160a01b03831690811790915560405133907f8be0079c531659141344cd1fd0a4f28419497f9722a3daafe3b4186f6b6457e090600090a350565b60006001600160a01b037f0000000000000000000000000000000000000000000000000000000000000000163303610d64576001600054146129805760405163558a1e0360e11b815260040160405180910390fd5b6002600090815561298f6130bc565b905061299b84306132c8565b6129b8576040516359cf0f3760e11b815260040160405180910390fd5b6129c0612f88565b826000036129fe5760405162461bcd60e51b815260206004820152600b60248201526a16915493d7d05353d5539560aa1b6044820152606401611187565b836001600160a01b0316816001600160a01b031603612a505760405162461bcd60e51b815260206004820152600e60248201526d14d1531197d111509517d415531360921b6044820152606401611187565b612a5a84846136f3565b612a64818461371d565b836001600160a01b0316816001600160a01b03167f05f2eeda0e08e4b437f487c8d7d29b14537d15e3488170dc3de5dbdf8dac468485604051612aa991815260200190565b60405180910390a36040518381526001600160a01b0382169081907f312a5e5e1079f5dda4e95dbbd0b908b291fd5b992ef22073643ab691572c5b5290602001611e2a565b600080612af9613c48565b5050905082612b3957612b3481600954612b13919061472a565b612b1e90600161472a565b600554612b2c90600161472a565b869190613f5e565b612579565b61257981600954612b4a919061472a565b612b5590600161472a565b600554612b6390600161472a565b869190613f7c565b6000336001600160a01b037f0000000000000000000000000000000000000000000000000000000000000000168103610b5657604051630c281d0f60e11b8152600060048201527f00000000000000000000000000000000000000000000000000000000000000006001600160a01b0316906318503a1e906024016040805180830381865afa158015612c02573d6000803e3d6000fd5b505050506040513d601f19601f82011682018060405250810190612c2691906147b3565b5092915050565b600080612c38613c48565b5050905082612c6c57612b346005546001612c53919061472a565b82600954612c61919061472a565b612b2c90600161472a565b6125796005546001612c7e919061472a565b82600954612c8c919061472a565b612b6390600161472a565b6040516352692e8f60e11b81526001600160a01b0382811660048301526060917f00000000000000000000000000000000000000000000000000000000000000009091169063a4d25d1e90602401600060405180830381865afa158015612d02573d6000803e3d6000fd5b505050506040513d6000823e601f3d908101601f19168201604052610b5391908101906147e8565b6000806000612d3886613e49565b925082158015612d455750835b15612d5857506000915081905080612f7f565b8215612e0057601554601454604051632b9a19db60e21b8152600481018690526001600160a01b037f000000000000000000000000000000000000000000000000000000000000000081166024830152918216604482015291169063ae68676c90606401602060405180830381865afa158015612dd9573d6000803e3d6000fd5b505050506040513d601f19601f82011682018060405250810190612dfd919061489a565b91505b60005b8551811015612f7d576000868281518110612e2057612e206148b3565b6020908102919091018101516001600160a01b038116600090815260129092526040909120549091508015612f6a576040516370a0823160e01b81526001600160a01b038a81166004830152600091908416906370a0823190602401602060405180830381865afa158015612e99573d6000803e3d6000fd5b505050506040513d601f19601f82011682018060405250810190612ebd919061489a565b90508015612f6857601554601454604051632b9a19db60e21b8152600481018490526001600160a01b03868116602483015291821660448201526064928592169063ae68676c908401602060405180830381865afa158015612f23573d6000803e3d6000fd5b505050506040513d601f19601f82011682018060405250810190612f47919061489a565b612f5191906148c9565b612f5b91906148e0565b612f65908661472a565b94505b505b505080612f7690614902565b9050612e03565b505b93509350939050565b60018054612f959061458a565b9050600003612fb557612fa6613fa2565b600190612fb39082614969565b505b565b6001600160a01b03811661303d577f00000000000000000000000000000000000000000000000000000000000000006001600160a01b031663a37d54af6040518163ffffffff1660e01b8152600401600060405180830381600087803b15801561302057600080fd5b505af1158015613034573d6000803e3d6000fd5b50505050612fb3565b6040516330f3166760e01b81526001600160a01b0382811660048301527f000000000000000000000000000000000000000000000000000000000000000016906330f31667906024015b600060405180830381600087803b1580156130a157600080fd5b505af11580156130b5573d6000803e3d6000fd5b5050505050565b600033816001600160a01b037f000000000000000000000000000000000000000000000000000000000000000016820361318157604051630c281d0f60e11b81523060048201527f00000000000000000000000000000000000000000000000000000000000000006001600160a01b0316906318503a1e906024016040805180830381865afa158015613153573d6000803e3d6000fd5b505050506040513d601f19601f8201168201806040525081019061317791906147b3565b9092509050613214565b6040516311f3f6b160e21b81526001600160a01b0383811660048301523060248301527f000000000000000000000000000000000000000000000000000000000000000016906347cfdac490604401602060405180830381865afa1580156131ed573d6000803e3d6000fd5b505050506040513d601f19601f820116820180604052508101906132119190614772565b90505b80613232576040516359cf0f3760e11b815260040160405180910390fd5b50919050565b6040516342e5349960e01b81526001600160a01b0382811660048301526000917f0000000000000000000000000000000000000000000000000000000000000000909116906342e53499906024015b602060405180830381865afa1580156132a4573d6000803e3d6000fd5b505050506040513d601f19601f82011682018060405250810190610b539190614772565b6040516311f3f6b160e21b81526001600160a01b03838116600483015282811660248301526000917f0000000000000000000000000000000000000000000000000000000000000000909116906347cfdac4906044015b602060405180830381865afa15801561333c573d6000803e3d6000fd5b505050506040513d601f19601f82011682018060405250810190610e0c9190614772565b6001600160a01b038216600090815260126020526040812054808203613399576040516301716b7360e11b815260040160405180910390fd5b60008060006133b2886133ab8a612c97565b6001612d2a565b925092509250828611156133d957604051636c5b519160e01b815260040160405180910390fd5b8181106133f95760405163689b2cf360e11b815260040160405180910390fd5b6000826134078360646148c9565b61341191906148e0565b61341c9060646145d4565b9050601481111561342b575060145b60006064613439838261472a565b61344390886148c9565b61344d91906148e0565b61345890607d6145d4565b6134638460646148c9565b61346e86607d6148c9565b61347891906145d4565b61348291906148e0565b601554601454604051632b9a19db60e21b8152600481018c90526001600160a01b037f000000000000000000000000000000000000000000000000000000000000000081166024830152918216604482015292935060009291169063ae68676c90606401602060405180830381865afa158015613503573d6000803e3d6000fd5b505050506040513d601f19601f82011682018060405250810190613527919061489a565b90508181118015613541575061353e6002866148e0565b82105b1561355f57604051636c5b519160e01b815260040160405180910390fd5b6000606461356d858261472a565b61357790846148c9565b61358191906148e0565b905060008b6001600160a01b031663313ce5676040518163ffffffff1660e01b8152600401602060405180830381865afa1580156135c3573d6000803e3d6000fd5b505050506040513d601f19601f820116820180604052508101906135e79190614a29565b6135f290600a614b2a565b90506000601560009054906101000a90046001600160a01b03166001600160a01b031663ae68676c838f601460009054906101000a90046001600160a01b03166040518463ffffffff1660e01b815260040161366a939291909283526001600160a01b03918216602084015216604082015260600190565b602060405180830381865afa158015613687573d6000803e3d6000fd5b505050506040513d601f19601f820116820180604052508101906136ab919061489a565b6136b583856148c9565b6136bf91906148e0565b9050806000036136e25760405163270bbe6f60e11b815260040160405180910390fd5b9d9c50505050505050505050505050565b6136fd8282613fe4565b506010546001600160a01b03909116600090815260116020526040902055565b6136fd8282614035565b6040516313ce2dab60e31b81526001600160a01b03838116600483015282811660248301526000917f000000000000000000000000000000000000000000000000000000000000000090911690639e716d589060440161331f565b60007f00000000000000000000000000000000000000000000000000000000000000006001600160a01b031663b9b70ff58686600087876040516024016137de9291906001600160a01b03929092168252602082015260400190565b60408051601f198184030181529181526020820180516001600160e01b031663a9059cbb60e01b1790525160e086901b6001600160e01b031916815261382a9493929190600401614b39565b6000604051808303816000875af1158015613849573d6000803e3d6000fd5b505050506040513d6000823e601f3d908101601f191682016040526138719190810190614696565b90508051600014806138925750808060200190518101906138929190614772565b6130b557604051631aa7c25160e21b815260040160405180910390fd5b604051630214ea3360e31b81526001600160a01b0382811660048301527f000000000000000000000000000000000000000000000000000000000000000016906310a7519890602401613087565b806005600082825461390f919061472a565b90915550506001600160a01b038216600081815260066020908152604080832080548601905551848152600080516020614c5783398151915291015b60405180910390a35050565b60007f8b73c3c69bb8fe3d512ecc4cf759cc79239f7b179b0ffacaa9a75d522b39400f60036040516139899190614b76565b6040805191829003822060208301939093528101919091527fc89efdaa54c0f20c7adf612882df0950f5a951637e0307cdcb4c672f298b8bc660608201524660808201523060a082015260c00160405160208183030381529060405280519060200120905090565b60405163110ac5cb60e21b81526001600160a01b0382811660048301526000917f00000000000000000000000000000000000000000000000000000000000000009091169063442b172c90602401602060405180830381865afa925050508015613a78575060408051601f3d908101601f19168201909252613a7591810190614bec565b60015b610b53575090565b6001600160a01b03821660009081526006602052604081208054839290613aa89084906145d4565b90915550506005805482900390556040518181526000906001600160a01b03841690600080516020614c578339815191529060200161394b565b8051600003613b04576040516332e17beb60e21b815260040160405180910390fd5b613b0c614080565b60008082806020019051810190613b239190614c09565b600954600c54600a549395509193509115801590613b4b5750600a54613b49828461472a565b115b8015613b685750613b5c838561472a565b613b66828461472a565b115b15613b8657604051637ac7b99d60e11b815260040160405180910390fd5b600b5415801590613b985750600b5481115b8015613ba357508281115b156130b557604051633bd3544b60e11b815260040160405180910390fd5b600060405163a9059cbb60e01b81526001600160a01b0384166004820152826024820152602060006044836000895af13d15601f3d1160016000511416171691505080613c425760405162461bcd60e51b815260206004820152600f60248201526e1514905394d1915497d19052531151608a1b6044820152606401611187565b50505050565b600080600080600f5442613c5c91906145d4565b600c54601054919250906000839003613c7d57909590945060009350915050565b600e546000906b033b2e3c9fd0803ce8000000908390613cbe90613cab9084906001600160601b031661472a565b876b033b2e3c9fd0803ce8000000614186565b613cc891906148c9565b613cd291906148e0565b90506000613ce1848385613f7c565b989197506001965090945050505050565b6040516319bb1d4f60e31b81526001600160a01b0382811660048301526000917f00000000000000000000000000000000000000000000000000000000000000009091169063cdd8ea7890602401613287565b60006040516323b872dd60e01b81526001600160a01b03851660048201526001600160a01b03841660248201528260448201526020600060648360008a5af13d15601f3d11600160005114161716915050806130b55760405162461bcd60e51b81526020600482015260146024820152731514905394d1915497d19493d357d1905253115160621b6044820152606401611187565b7f00000000000000000000000000000000000000000000000000000000000000006001600160a01b031663a37d54af6040518163ffffffff1660e01b8152600401600060405180830381600087803b158015613e3557600080fd5b505af1158015613c42573d6000803e3d6000fd5b6001600160a01b0381166000908152600d6020526040812054808203613e725750600092915050565b6000613e7c613c48565b506001600160a01b038616600090815260116020526040902054909250612579915083908390613f7c565b604051630f4fc35760e41b81526001600160a01b0382811660048301527f0000000000000000000000000000000000000000000000000000000000000000169063f4fc357090602401613087565b600080613f388585858080602002602001604051908101604052809392919081815260200183836020028082843760009201919091525060019250612d2a915050565b9250925050808211156130b5576040516302fb7a9160e31b815260040160405180910390fd5b6000826000190484118302158202613f7557600080fd5b5091020490565b6000826000190484118302158202613f9357600080fd5b50910281810615159190040190565b60606000613fae614244565b50905060095481604051602001613fcf929190918252602082015260400190565b60405160208183030381529060405291505090565b80613fee83613e49565b613ff891906145d4565b6001600160a01b0383166000908152600d6020526040902055600c548181101561402357600061402d565b61402d82826145d4565b600c55505050565b8061403f83613e49565b614049919061472a565b6001600160a01b0383166000908152600d6020526040812091909155600c805483929061407790849061472a565b90915550505050565b600c5460095460009061409490839061472a565b9050600081156140ba57816140ad63ffffffff856148c9565b6140b791906148e0565b90505b60135460405163279690b360e11b81523060048201526001600160a01b037f00000000000000000000000000000000000000000000000000000000000000008116602483015263ffffffff8416604483015290911690634f2d2166906064016020604051808303816000875af1158015614138573d6000803e3d6000fd5b505050506040513d601f19601f8201168201806040525081019061415c9190614c2d565b600e80546bffffffffffffffffffffffff19166001600160601b0392909216919091179055505050565b6000838015614226576001841680156141a1578592506141a5565b8392505b508260011c8460011c94505b8415614220578560801c156141c557600080fd5b858602818101818110156141d857600080fd5b85900496505060018516156142155785830283878204146141fe5786156141fe57600080fd5b8181018181101561420e57600080fd5b8590049350505b8460011c94506141b1565b5061423c565b838015614236576000925061423a565b8392505b505b509392505050565b6000806000806000614254613c48565b925092509250801561426f57600c839055601082905542600f555b5090939092509050565b5080546142859061458a565b6000825580601f10614295575050565b601f016020900490600052602060002090810190612fb391905b808211156142c357600081556001016142af565b5090565b60005b838110156142e25781810151838201526020016142ca565b50506000910152565b600081518084526143038160208601602086016142c7565b601f01601f19169290920160200192915050565b602081526000610e0c60208301846142eb565b60006020828403121561433c57600080fd5b5035919050565b6001600160a01b0381168114612fb357600080fd5b6000806040838503121561436b57600080fd5b823561437681614343565b946020939093013593505050565b60006020828403121561439657600080fd5b8135610e0c81614343565b6000806000606084860312156143b657600080fd5b83356143c181614343565b925060208401356143d181614343565b929592945050506040919091013590565b6000806000606084860312156143f757600080fd5b83359250602084013561440981614343565b9150604084013561441981614343565b809150509250925092565b6000806040838503121561443757600080fd5b82359150602083013561444981614343565b809150509250929050565b60008060006040848603121561446957600080fd5b833561447481614343565b9250602084013567ffffffffffffffff8082111561449157600080fd5b818601915086601f8301126144a557600080fd5b8135818111156144b457600080fd5b8760208260051b85010111156144c957600080fd5b6020830194508093505050509250925092565b60ff81168114612fb357600080fd5b600080600080600080600060e0888a03121561450657600080fd5b873561451181614343565b9650602088013561452181614343565b95506040880135945060608801359350608088013561453f816144dc565b9699959850939692959460a0840135945060c09093013592915050565b6000806040838503121561456f57600080fd5b823561457a81614343565b9150602083013561444981614343565b600181811c9082168061459e57607f821691505b60208210810361323257634e487b7160e01b600052602260045260246000fd5b634e487b7160e01b600052601160045260246000fd5b81810381811115610bcf57610bcf6145be565b81835281816020850137506000828201602090810191909152601f909101601f19169091010190565b6001600160a01b038681168252851660208201526040810184905260806060820181905260009061464490830184866145e7565b979650505050505050565b634e487b7160e01b600052604160045260246000fd5b604051601f8201601f1916810167ffffffffffffffff8111828210171561468e5761468e61464f565b604052919050565b6000602082840312156146a857600080fd5b815167ffffffffffffffff808211156146c057600080fd5b818401915084601f8301126146d457600080fd5b8151818111156146e6576146e661464f565b6146f9601f8201601f1916602001614665565b915080825285602082850101111561471057600080fd5b6147218160208401602086016142c7565b50949350505050565b80820180821115610bcf57610bcf6145be565b6020808252600b908201526a5a45524f5f41535345545360a81b604082015260600190565b80518015158114610b5657600080fd5b60006020828403121561478457600080fd5b610e0c82614762565b6020808252600c908201526b15539055551213d49256915160a21b604082015260600190565b600080604083850312156147c657600080fd5b82516147d181614343565b91506147df60208401614762565b90509250929050565b600060208083850312156147fb57600080fd5b825167ffffffffffffffff8082111561481357600080fd5b818501915085601f83011261482757600080fd5b8151818111156148395761483961464f565b8060051b915061484a848301614665565b818152918301840191848101908884111561486457600080fd5b938501935b8385101561488e578451925061487e83614343565b8282529385019390850190614869565b98975050505050505050565b6000602082840312156148ac57600080fd5b5051919050565b634e487b7160e01b600052603260045260246000fd5b8082028115828204841417610bcf57610bcf6145be565b6000826148fd57634e487b7160e01b600052601260045260246000fd5b500490565b600060018201614914576149146145be565b5060010190565b601f8211156110cd57600081815260208120601f850160051c810160208610156149425750805b601f850160051c820191505b818110156149615782815560010161494e565b505050505050565b815167ffffffffffffffff8111156149835761498361464f565b61499781614991845461458a565b8461491b565b602080601f8311600181146149cc57600084156149b45750858301515b600019600386901b1c1916600185901b178555614961565b600085815260208120601f198616915b828110156149fb578886015182559484019460019091019084016149dc565b5085821015614a195787850151600019600388901b60f8161c191681555b5050505050600190811b01905550565b600060208284031215614a3b57600080fd5b8151610e0c816144dc565b600181815b80851115614a81578160001904821115614a6757614a676145be565b80851615614a7457918102915b93841c9390800290614a4b565b509250929050565b600082614a9857506001610bcf565b81614aa557506000610bcf565b8160018114614abb5760028114614ac557614ae1565b6001915050610bcf565b60ff841115614ad657614ad66145be565b50506001821b610bcf565b5060208310610133831016604e8410600b8410161715614b04575081810a610bcf565b614b0e8383614a46565b8060001904821115614b2257614b226145be565b029392505050565b6000610e0c60ff841683614a89565b6001600160a01b0385811682528416602082015260408101839052608060608201819052600090614b6c908301846142eb565b9695505050505050565b6000808354614b848161458a565b60018281168015614b9c5760018114614bb157614be0565b60ff1984168752821515830287019450614be0565b8760005260208060002060005b85811015614bd75781548a820152908401908201614bbe565b50505082870194505b50929695505050505050565b600060208284031215614bfe57600080fd5b8151610e0c81614343565b60008060408385031215614c1c57600080fd5b505080516020909101519092909150565b600060208284031215614c3f57600080fd5b81516001600160601b0381168114610e0c57600080fdfeddf252ad1be2c89b69c2b068fc378daa952ba7f163c4a11628f55a4df523b3efa26469706673582212200b7b18b0f30e1dbeda0a2569bba4f42fc51f9541dd0e59d883ec4f615138ecdc64736f6c63430008140033","linkReferences":{}},"methodIdentifiers":{"DOMAIN_SEPARATOR()":"3644e515","allowance(address,address)":"dd62ed3e","approve(address,uint256)":"095ea7b3","asset()":"38d52e0f","balanceOf(address)":"70a08231","borrow(uint256,address)":"4b3fd148","borrowCap()":"44d9dca6","checkAccountStatus(address,address[])":"b168c58f","checkVaultStatus()":"4b3d1223","convertToAssets(uint256)":"07a2d13a","convertToShares(uint256)":"c6e6f592","debtOf(address)":"d283e75f","decimals()":"313ce567","deposit(uint256,address)":"6e553f65","depositETH(address)":"2d2da806","disableController()":"869e50c7","getAccountLiabilityStatus(address)":"1e610d68","getCollateralFactor(address)":"23617585","getInterestRate()":"5257b566","irm()":"28e8fe7d","liquidate(address,address,uint256)":"26c01303","maxDeposit(address)":"402d267d","maxMint(address)":"c63d75b6","maxRedeem(address)":"d905777e","maxWithdraw(address)":"ce96cb77","mint(uint256,address)":"94bf804d","name()":"06fdde03","nonces(address)":"7ecebe00","oracle()":"7dc0d1d0","owner()":"8da5cb5b","permit(address,address,uint256,uint256,uint8,bytes32,bytes32)":"d505accf","previewDeposit(uint256)":"ef8b30f7","previewMint(uint256)":"b3d7f6b9","previewRedeem(uint256)":"4cdad506","previewWithdraw(uint256)":"0a28a477","pullDebt(address,uint256)":"f6145f20","redeem(uint256,address,address)":"ba087652","redeemToETH(uint256,address,address)":"4a686514","referenceAsset()":"d5c05833","repay(uint256,address)":"acb70815","setBorrowCap(uint256)":"717186d1","setCollateralFactor(address,uint256)":"c04f31ff","setIRM(address)":"d4bb0c73","setOracle(address)":"7adbf973","setReferenceAsset(address)":"d9fd31e6","setSupplyCap(uint256)":"b6a3f59a","supplyCap()":"8f770ad0","symbol()":"95d89b41","totalAssets()":"01e1d114","totalBorrowed()":"4c19386c","totalSupply()":"18160ddd","transfer(address,uint256)":"a9059cbb","transferFrom(address,address,uint256)":"23b872dd","transferOwnership(address)":"f2fde38b","withdraw(uint256,address,address)":"b460af94"},"id":86}