{"abi":[{"type":"constructor","inputs":[{"name":"_evc","type":"address","internalType":"contract IEVC"},{"name":"_asset","type":"address","internalType":"contract ERC20"},{"name":"_name","type":"string","internalType":"string"},{"name":"_symbol","type":"string","internalType":"string"}],"stateMutability":"nonpayable"},{"type":"function","name":"DOMAIN_SEPARATOR","inputs":[],"outputs":[{"name":"","type":"bytes32","internalType":"bytes32"}],"stateMutability":"view"},{"type":"function","name":"allowance","inputs":[{"name":"","type":"address","internalType":"address"},{"name":"","type":"address","internalType":"address"}],"outputs":[{"name":"","type":"uint256","internalType":"uint256"}],"stateMutability":"view"},{"type":"function","name":"approve","inputs":[{"name":"spender","type":"address","internalType":"address"},{"name":"amount","type":"uint256","internalType":"uint256"}],"outputs":[{"name":"","type":"bool","internalType":"bool"}],"stateMutability":"nonpayable"},{"type":"function","name":"asset","inputs":[],"outputs":[{"name":"","type":"address","internalType":"contract ERC20"}],"stateMutability":"view"},{"type":"function","name":"balanceOf","inputs":[{"name":"","type":"address","internalType":"address"}],"outputs":[{"name":"","type":"uint256","internalType":"uint256"}],"stateMutability":"view"},{"type":"function","name":"borrow","inputs":[{"name":"assets","type":"uint256","internalType":"uint256"},{"name":"receiver","type":"address","internalType":"address"}],"outputs":[],"stateMutability":"nonpayable"},{"type":"function","name":"borrowCap","inputs":[],"outputs":[{"name":"","type":"uint256","internalType":"uint256"}],"stateMutability":"view"},{"type":"function","name":"checkAccountStatus","inputs":[{"name":"account","type":"address","internalType":"address"},{"name":"collaterals","type":"address[]","internalType":"address[]"}],"outputs":[{"name":"magicValue","type":"bytes4","internalType":"bytes4"}],"stateMutability":"view"},{"type":"function","name":"checkVaultStatus","inputs":[],"outputs":[{"name":"magicValue","type":"bytes4","internalType":"bytes4"}],"stateMutability":"nonpayable"},{"type":"function","name":"convertToAssets","inputs":[{"name":"shares","type":"uint256","internalType":"uint256"}],"outputs":[{"name":"","type":"uint256","internalType":"uint256"}],"stateMutability":"view"},{"type":"function","name":"convertToShares","inputs":[{"name":"assets","type":"uint256","internalType":"uint256"}],"outputs":[{"name":"","type":"uint256","internalType":"uint256"}],"stateMutability":"view"},{"type":"function","name":"debtOf","inputs":[{"name":"account","type":"address","internalType":"address"}],"outputs":[{"name":"","type":"uint256","internalType":"uint256"}],"stateMutability":"view"},{"type":"function","name":"decimals","inputs":[],"outputs":[{"name":"","type":"uint8","internalType":"uint8"}],"stateMutability":"view"},{"type":"function","name":"deposit","inputs":[{"name":"assets","type":"uint256","internalType":"uint256"},{"name":"receiver","type":"address","internalType":"address"}],"outputs":[{"name":"shares","type":"uint256","internalType":"uint256"}],"stateMutability":"nonpayable"},{"type":"function","name":"disableController","inputs":[],"outputs":[],"stateMutability":"nonpayable"},{"type":"function","name":"getAccountLiabilityStatus","inputs":[{"name":"account","type":"address","internalType":"address"}],"outputs":[{"name":"liabilityValue","type":"uint256","internalType":"uint256"},{"name":"collateralValue","type":"uint256","internalType":"uint256"}],"stateMutability":"view"},{"type":"function","name":"maxDeposit","inputs":[{"name":"","type":"address","internalType":"address"}],"outputs":[{"name":"","type":"uint256","internalType":"uint256"}],"stateMutability":"view"},{"type":"function","name":"maxMint","inputs":[{"name":"","type":"address","internalType":"address"}],"outputs":[{"name":"","type":"uint256","internalType":"uint256"}],"stateMutability":"view"},{"type":"function","name":"maxRedeem","inputs":[{"name":"owner","type":"address","internalType":"address"}],"outputs":[{"name":"","type":"uint256","internalType":"uint256"}],"stateMutability":"view"},{"type":"function","name":"maxWithdraw","inputs":[{"name":"owner","type":"address","internalType":"address"}],"outputs":[{"name":"","type":"uint256","internalType":"uint256"}],"stateMutability":"view"},{"type":"function","name":"mint","inputs":[{"name":"shares","type":"uint256","internalType":"uint256"},{"name":"receiver","type":"address","internalType":"address"}],"outputs":[{"name":"assets","type":"uint256","internalType":"uint256"}],"stateMutability":"nonpayable"},{"type":"function","name":"name","inputs":[],"outputs":[{"name":"","type":"string","internalType":"string"}],"stateMutability":"view"},{"type":"function","name":"nonces","inputs":[{"name":"","type":"address","internalType":"address"}],"outputs":[{"name":"","type":"uint256","internalType":"uint256"}],"stateMutability":"view"},{"type":"function","name":"owner","inputs":[],"outputs":[{"name":"","type":"address","internalType":"address"}],"stateMutability":"view"},{"type":"function","name":"permit","inputs":[{"name":"owner","type":"address","internalType":"address"},{"name":"spender","type":"address","internalType":"address"},{"name":"value","type":"uint256","internalType":"uint256"},{"name":"deadline","type":"uint256","internalType":"uint256"},{"name":"v","type":"uint8","internalType":"uint8"},{"name":"r","type":"bytes32","internalType":"bytes32"},{"name":"s","type":"bytes32","internalType":"bytes32"}],"outputs":[],"stateMutability":"nonpayable"},{"type":"function","name":"previewDeposit","inputs":[{"name":"assets","type":"uint256","internalType":"uint256"}],"outputs":[{"name":"","type":"uint256","internalType":"uint256"}],"stateMutability":"view"},{"type":"function","name":"previewMint","inputs":[{"name":"shares","type":"uint256","internalType":"uint256"}],"outputs":[{"name":"","type":"uint256","internalType":"uint256"}],"stateMutability":"view"},{"type":"function","name":"previewRedeem","inputs":[{"name":"shares","type":"uint256","internalType":"uint256"}],"outputs":[{"name":"","type":"uint256","internalType":"uint256"}],"stateMutability":"view"},{"type":"function","name":"previewWithdraw","inputs":[{"name":"assets","type":"uint256","internalType":"uint256"}],"outputs":[{"name":"","type":"uint256","internalType":"uint256"}],"stateMutability":"view"},{"type":"function","name":"pullDebt","inputs":[{"name":"from","type":"address","internalType":"address"},{"name":"assets","type":"uint256","internalType":"uint256"}],"outputs":[{"name":"","type":"bool","internalType":"bool"}],"stateMutability":"nonpayable"},{"type":"function","name":"redeem","inputs":[{"name":"shares","type":"uint256","internalType":"uint256"},{"name":"receiver","type":"address","internalType":"address"},{"name":"owner","type":"address","internalType":"address"}],"outputs":[{"name":"assets","type":"uint256","internalType":"uint256"}],"stateMutability":"nonpayable"},{"type":"function","name":"repay","inputs":[{"name":"assets","type":"uint256","internalType":"uint256"},{"name":"receiver","type":"address","internalType":"address"}],"outputs":[],"stateMutability":"nonpayable"},{"type":"function","name":"setBorrowCap","inputs":[{"name":"newBorrowCap","type":"uint256","internalType":"uint256"}],"outputs":[],"stateMutability":"nonpayable"},{"type":"function","name":"setSupplyCap","inputs":[{"name":"newSupplyCap","type":"uint256","internalType":"uint256"}],"outputs":[],"stateMutability":"nonpayable"},{"type":"function","name":"supplyCap","inputs":[],"outputs":[{"name":"","type":"uint256","internalType":"uint256"}],"stateMutability":"view"},{"type":"function","name":"symbol","inputs":[],"outputs":[{"name":"","type":"string","internalType":"string"}],"stateMutability":"view"},{"type":"function","name":"totalAssets","inputs":[],"outputs":[{"name":"","type":"uint256","internalType":"uint256"}],"stateMutability":"view"},{"type":"function","name":"totalBorrowed","inputs":[],"outputs":[{"name":"","type":"uint256","internalType":"uint256"}],"stateMutability":"view"},{"type":"function","name":"totalSupply","inputs":[],"outputs":[{"name":"","type":"uint256","internalType":"uint256"}],"stateMutability":"view"},{"type":"function","name":"transfer","inputs":[{"name":"to","type":"address","internalType":"address"},{"name":"amount","type":"uint256","internalType":"uint256"}],"outputs":[{"name":"","type":"bool","internalType":"bool"}],"stateMutability":"nonpayable"},{"type":"function","name":"transferFrom","inputs":[{"name":"from","type":"address","internalType":"address"},{"name":"to","type":"address","internalType":"address"},{"name":"amount","type":"uint256","internalType":"uint256"}],"outputs":[{"name":"","type":"bool","internalType":"bool"}],"stateMutability":"nonpayable"},{"type":"function","name":"transferOwnership","inputs":[{"name":"newOwner","type":"address","internalType":"address"}],"outputs":[],"stateMutability":"nonpayable"},{"type":"function","name":"withdraw","inputs":[{"name":"assets","type":"uint256","internalType":"uint256"},{"name":"receiver","type":"address","internalType":"address"},{"name":"owner","type":"address","internalType":"address"}],"outputs":[{"name":"shares","type":"uint256","internalType":"uint256"}],"stateMutability":"nonpayable"},{"type":"event","name":"Approval","inputs":[{"name":"owner","type":"address","indexed":true,"internalType":"address"},{"name":"spender","type":"address","indexed":true,"internalType":"address"},{"name":"amount","type":"uint256","indexed":false,"internalType":"uint256"}],"anonymous":false},{"type":"event","name":"Borrow","inputs":[{"name":"caller","type":"address","indexed":true,"internalType":"address"},{"name":"owner","type":"address","indexed":true,"internalType":"address"},{"name":"assets","type":"uint256","indexed":false,"internalType":"uint256"}],"anonymous":false},{"type":"event","name":"BorrowCapSet","inputs":[{"name":"newBorrowCap","type":"uint256","indexed":false,"internalType":"uint256"}],"anonymous":false},{"type":"event","name":"Deposit","inputs":[{"name":"caller","type":"address","indexed":true,"internalType":"address"},{"name":"owner","type":"address","indexed":true,"internalType":"address"},{"name":"assets","type":"uint256","indexed":false,"internalType":"uint256"},{"name":"shares","type":"uint256","indexed":false,"internalType":"uint256"}],"anonymous":false},{"type":"event","name":"OwnershipTransferred","inputs":[{"name":"user","type":"address","indexed":true,"internalType":"address"},{"name":"newOwner","type":"address","indexed":true,"internalType":"address"}],"anonymous":false},{"type":"event","name":"Repay","inputs":[{"name":"caller","type":"address","indexed":true,"internalType":"address"},{"name":"receiver","type":"address","indexed":true,"internalType":"address"},{"name":"assets","type":"uint256","indexed":false,"internalType":"uint256"}],"anonymous":false},{"type":"event","name":"SupplyCapSet","inputs":[{"name":"newSupplyCap","type":"uint256","indexed":false,"internalType":"uint256"}],"anonymous":false},{"type":"event","name":"Transfer","inputs":[{"name":"from","type":"address","indexed":true,"internalType":"address"},{"name":"to","type":"address","indexed":true,"internalType":"address"},{"name":"amount","type":"uint256","indexed":false,"internalType":"uint256"}],"anonymous":false},{"type":"event","name":"Withdraw","inputs":[{"name":"caller","type":"address","indexed":true,"internalType":"address"},{"name":"receiver","type":"address","indexed":true,"internalType":"address"},{"name":"owner","type":"address","indexed":true,"internalType":"address"},{"name":"assets","type":"uint256","indexed":false,"internalType":"uint256"},{"name":"shares","type":"uint256","indexed":false,"internalType":"uint256"}],"anonymous":false},{"type":"error","name":"AccountUnhealthy","inputs":[]},{"type":"error","name":"BorrowCapExceeded","inputs":[]},{"type":"error","name":"ControllerDisabled","inputs":[]},{"type":"error","name":"NotAuthorized","inputs":[]},{"type":"error","name":"OutstandingDebt","inputs":[]},{"type":"error","name":"Reentrancy","inputs":[]},{"type":"error","name":"SharesSeizureFailed","inputs":[]},{"type":"error","name":"SnapshotNotTaken","inputs":[]},{"type":"error","name":"SupplyCapExceeded","inputs":[]}],"bytecode":{"object":"0x6101206040523480156200001257600080fd5b50604051620038b6380380620038b68339810160408190526200003591620002cc565b838383838282828181846001600160a01b031663313ce5676040518163ffffffff1660e01b8152600401602060405180830381865afa1580156200007d573d6000803e3d6000fd5b505050506040513d601f19601f82011682018060405250810190620000a3919062000361565b6001600160a01b038a1660805260016000908155600280546001600160a01b03191633908117909155604051909182917f8be0079c531659141344cd1fd0a4f28419497f9722a3daafe3b4186f6b6457e0908290a35060036200010784826200041c565b5060046200011683826200041c565b5060ff811660a0524660c0526200012c62000152565b60e0525050506001600160a01b0390921661010052506200056698505050505050505050565b60007f8b73c3c69bb8fe3d512ecc4cf759cc79239f7b179b0ffacaa9a75d522b39400f6003604051620001869190620004e8565b6040805191829003822060208301939093528101919091527fc89efdaa54c0f20c7adf612882df0950f5a951637e0307cdcb4c672f298b8bc660608201524660808201523060a082015260c00160405160208183030381529060405280519060200120905090565b6001600160a01b03811681146200020457600080fd5b50565b634e487b7160e01b600052604160045260246000fd5b600082601f8301126200022f57600080fd5b81516001600160401b03808211156200024c576200024c62000207565b604051601f8301601f19908116603f0116810190828211818310171562000277576200027762000207565b816040528381526020925086838588010111156200029457600080fd5b600091505b83821015620002b8578582018301518183018401529082019062000299565b600093810190920192909252949350505050565b60008060008060808587031215620002e357600080fd5b8451620002f081620001ee565b60208601519094506200030381620001ee565b60408601519093506001600160401b03808211156200032157600080fd5b6200032f888389016200021d565b935060608701519150808211156200034657600080fd5b5062000355878288016200021d565b91505092959194509250565b6000602082840312156200037457600080fd5b815160ff811681146200038657600080fd5b9392505050565b600181811c90821680620003a257607f821691505b602082108103620003c357634e487b7160e01b600052602260045260246000fd5b50919050565b601f8211156200041757600081815260208120601f850160051c81016020861015620003f25750805b601f850160051c820191505b818110156200041357828155600101620003fe565b5050505b505050565b81516001600160401b0381111562000438576200043862000207565b62000450816200044984546200038d565b84620003c9565b602080601f8311600181146200048857600084156200046f5750858301515b600019600386901b1c1916600185901b17855562000413565b600085815260208120601f198616915b82811015620004b95788860151825594840194600190910190840162000498565b5085821015620004d85787850151600019600388901b60f8161c191681555b5050505050600190811b01905550565b6000808354620004f8816200038d565b6001828116801562000513576001811462000529576200055a565b60ff19841687528215158302870194506200055a565b8760005260208060002060005b85811015620005515781548a82015290840190820162000536565b50505082870194505b50929695505050505050565b60805160a05160c05160e05161010051613232620006846000396000818161036d01528181610c6201528181610d8701528181610fb1015281816112150152818161152d0152611777015260006109ba015260006109850152600061032c01526000818161077e015281816108ec015281816109e901528181610a1301528181610b6801528181610ccd01528181610f35015281816110620152818161115f015281816112c3015281816112ed015281816113c1015281816115eb01528181611b5501528181611d8d01528181611dc901528181611ec50152818161205e015281816120f3015281816122d20152818161230d015281816123ae01528181612462015281816126a801528181612734015261278d01526132326000f3fe608060405234801561001057600080fd5b50600436106102695760003560e01c8063869e50c711610151578063ba087652116100c3578063d505accf11610087578063d505accf14610579578063d905777e1461058c578063dd62ed3e1461059f578063ef8b30f7146105ca578063f2fde38b146105dd578063f6145f20146105f057600080fd5b8063ba0876521461052d578063c63d75b6146103a7578063c6e6f59214610540578063ce96cb7714610553578063d283e75f1461056657600080fd5b8063a9059cbb11610115578063a9059cbb146104bb578063acb70815146104ce578063b168c58f146104e1578063b3d7f6b9146104f4578063b460af9414610507578063b6a3f59a1461051a57600080fd5b8063869e50c71461047c5780638da5cb5b146104845780638f770ad01461049757806394bf804d146104a057806395d89b41146104b357600080fd5b806338d52e0f116101ea5780634c19386c116101ae5780634c19386c146103fb5780634cdad506146104035780636e553f651461041657806370a0823114610429578063717186d1146104495780637ecebe001461045c57600080fd5b806338d52e0f14610368578063402d267d146103a757806344d9dca6146103bc5780634b3d1223146103c55780634b3fd148146103e657600080fd5b806318160ddd1161023157806318160ddd146102e35780631e610d68146102ec57806323b872dd14610314578063313ce567146103275780633644e5151461036057600080fd5b806301e1d1141461026e57806306fdde031461028557806307a2d13a1461029a578063095ea7b3146102ad5780630a28a477146102d0575b600080fd5b6009545b6040519081526020015b60405180910390f35b61028d610603565b60405161027c9190612a28565b6102726102a8366004612a5b565b610691565b6102c06102bb366004612a89565b6106c9565b604051901515815260200161027c565b6102726102de366004612a5b565b610743565b61027260055481565b6102ff6102fa366004612ab5565b610750565b6040805192835260208301919091520161027c565b6102c0610322366004612ad2565b610772565b61034e7f000000000000000000000000000000000000000000000000000000000000000081565b60405160ff909116815260200161027c565b610272610981565b61038f7f000000000000000000000000000000000000000000000000000000000000000081565b6040516001600160a01b03909116815260200161027c565b6102726103b5366004612ab5565b5060001990565b610272600b5481565b6103cd6109dc565b6040516001600160e01b0319909116815260200161027c565b6103f96103f4366004612b13565b610b5e565b005b600c54610272565b610272610411366004612a5b565b610cb4565b610272610424366004612b13565b610cc1565b610272610437366004612ab5565b60066020526000908152604090205481565b6103f9610457366004612a5b565b610e3a565b61027261046a366004612ab5565b60086020526000908152604090205481565b6103f9610ea0565b60025461038f906001600160a01b031681565b610272600a5481565b6102726104ae366004612b13565b610f29565b61028d611049565b6102c06104c9366004612a89565b611056565b6103f96104dc366004612b13565b611155565b6103cd6104ef366004612b43565b6112b6565b610272610502366004612a5b565b6113a8565b610272610515366004612bcb565b6113b5565b6103f9610528366004612a5b565b611580565b61027261053b366004612bcb565b6115df565b61027261054e366004612a5b565b6117b0565b610272610561366004612ab5565b6117e0565b610272610574366004612ab5565b611824565b6103f9610587366004612c0d565b611842565b61027261059a366004612ab5565b611a86565b6102726105ad366004612c84565b600760209081526000928352604080842090915290825290205481565b6102726105d8366004612a5b565b611ac6565b6103f96105eb366004612ab5565b611ad3565b6102c06105fe366004612a89565b611b49565b6003805461061090612cb2565b80601f016020809104026020016040519081016040528092919081815260200182805461063c90612cb2565b80156106895780601f1061065e57610100808354040283529160200191610689565b820191906000526020600020905b81548152906001019060200180831161066c57829003601f168201915b505050505081565b60006001600054146106b65760405163558a1e0360e11b815260040160405180910390fd5b6106c1826000611d0c565b90505b919050565b6000806106d4611d80565b6001600160a01b038181166000818152600760209081526040808320948a16808452948252918290208890559051878152939450919290917f8c5be1e5ebec7d5bd14f71427d1e84f3dd0314c0f7b2291e5b200ac8c7c3b925910160405180910390a360019150505b92915050565b60006106c1826001611e42565b6000806107678361076085611ea3565b6000611f36565b909590945092505050565b60006001600160a01b037f00000000000000000000000000000000000000000000000000000000000000001633036108d2576001600054146107c75760405163558a1e0360e11b815260040160405180910390fd5b600260009081556107d6611d80565b90506107e061201f565b6001600160a01b038086166000908152600760209081526040808320938516835292905220546000198114610840576108198482612cfc565b6001600160a01b038088166000908152600760209081526040808320938716835292905220555b6001600160a01b03861660009081526006602052604081208054869290610868908490612cfc565b90915550506001600160a01b03808616600081815260066020526040908190208054880190555190918816906000805160206131dd833981519152906108b19088815260200190565b60405180910390a36108c28661204e565b600192505050600160005561097a565b604051631f8b521560e01b81526000906001600160a01b037f00000000000000000000000000000000000000000000000000000000000000001690631f8b5215906109299030903390869081903690600401612d0f565b6000604051808303816000875af1158015610948573d6000803e3d6000fd5b505050506040513d6000823e601f3d908101601f191682016040526109709190810190612daa565b9050805181602001f35b9392505050565b60007f000000000000000000000000000000000000000000000000000000000000000046146109b7576109b2612153565b905090565b507f000000000000000000000000000000000000000000000000000000000000000090565b6000336001600160a01b037f000000000000000000000000000000000000000000000000000000000000000016141580610a9557507f00000000000000000000000000000000000000000000000000000000000000006001600160a01b031663e21e537c6040518163ffffffff1660e01b8152600401602060405180830381865afa158015610a6f573d6000803e3d6000fd5b505050506040513d601f19601f82011682018060405250810190610a939190612e4e565b155b15610ab35760405163ea8e4eb560e01b815260040160405180910390fd5b610b4660018054610ac390612cb2565b80601f0160208091040260200160405190810160405280929190818152602001828054610aef90612cb2565b8015610b3c5780601f10610b1157610100808354040283529160200191610b3c565b820191906000526020600020905b815481529060010190602001808311610b1f57829003601f168201915b50505050506121ed565b610b52600160006129b6565b50634b3d122360e01b90565b6001600160a01b037f00000000000000000000000000000000000000000000000000000000000000001633036108d257600160005414610bb15760405163558a1e0360e11b815260040160405180910390fd5b60026000908155610bc06122c4565b9050610bca61201f565b82600003610bf35760405162461bcd60e51b8152600401610bea90612e69565b60405180910390fd5b610bfc82612440565b9150610c0881846124cf565b816001600160a01b0316816001600160a01b03167f312a5e5e1079f5dda4e95dbbd0b908b291fd5b992ef22073643ab691572c5b5285604051610c4d91815260200190565b60405180910390a3610c896001600160a01b037f0000000000000000000000000000000000000000000000000000000000000000168385612530565b8260096000828254610c9b9190612cfc565b90915550610caa90508161204e565b5060016000555050565b60006106c1826000611d0c565b60006001600160a01b037f00000000000000000000000000000000000000000000000000000000000000001633036108d257600160005414610d165760405163558a1e0360e11b815260040160405180910390fd5b60026000908155610d25611d80565b9050610d2f61201f565b610d3a846000611e42565b915081600003610d7a5760405162461bcd60e51b815260206004820152600b60248201526a5a45524f5f53484152455360a81b6044820152606401610bea565b610daf6001600160a01b037f0000000000000000000000000000000000000000000000000000000000000000168230876125b7565b8360096000828254610dc19190612e8e565b90915550610dd19050838361264c565b826001600160a01b0316816001600160a01b03167fdcbc1c05240f31ff3ad067ef1ee35ce4997762752e3a095284754544f4c709d78685604051610e1f929190918252602082015260400190565b60405180910390a3610e2f6126a6565b50600160005561073d565b6002546001600160a01b03163314610e645760405162461bcd60e51b8152600401610bea90612ea1565b600b8190556040518181527fb250c0149b70b55fb6f80e2b07b256904f2efb28f4bbd4e226049db128ec8a63906020015b60405180910390a150565b600160005414610ec35760405163558a1e0360e11b815260040160405180910390fd5b60026000908155610ed2611d80565b9050610ef3816001600160a01b03166000908152600d602052604090205490565b600003610f0857610f0381612715565b610f21565b604051631d2197fd60e31b815260040160405180910390fd5b506001600055565b60006001600160a01b037f00000000000000000000000000000000000000000000000000000000000000001633036108d257600160005414610f7e5760405163558a1e0360e11b815260040160405180910390fd5b60026000908155610f8d611d80565b9050610f9761201f565b610fa2846001611d0c565b9150610fd96001600160a01b037f0000000000000000000000000000000000000000000000000000000000000000168230856125b7565b8160096000828254610feb9190612e8e565b90915550610ffb9050838561264c565b826001600160a01b0316816001600160a01b03167fdcbc1c05240f31ff3ad067ef1ee35ce4997762752e3a095284754544f4c709d78487604051610e1f929190918252602082015260400190565b6004805461061090612cb2565b60006001600160a01b037f00000000000000000000000000000000000000000000000000000000000000001633036108d2576001600054146110ab5760405163558a1e0360e11b815260040160405180910390fd5b600260009081556110ba611d80565b90506110c461201f565b6001600160a01b038116600090815260066020526040812080548592906110ec908490612cfc565b90915550506001600160a01b03808516600081815260066020526040908190208054870190555190918316906000805160206131dd833981519152906111359087815260200190565b60405180910390a36111468161204e565b6001915050600160005561073d565b6001600160a01b037f00000000000000000000000000000000000000000000000000000000000000001633036108d2576001600054146111a85760405163558a1e0360e11b815260040160405180910390fd5b600260009081556111b7611d80565b90506111c38230612763565b6111e0576040516359cf0f3760e11b815260040160405180910390fd5b6111e861201f565b826000036112085760405162461bcd60e51b8152600401610bea90612e69565b61123d6001600160a01b037f0000000000000000000000000000000000000000000000000000000000000000168230866125b7565b826009600082825461124f9190612e8e565b9091555061125f905082846127fa565b816001600160a01b0316816001600160a01b03167f05f2eeda0e08e4b437f487c8d7d29b14537d15e3488170dc3de5dbdf8dac4684856040516112a491815260200190565b60405180910390a3610caa600061204e565b6000336001600160a01b037f00000000000000000000000000000000000000000000000000000000000000001614158061136f57507f00000000000000000000000000000000000000000000000000000000000000006001600160a01b031663e21e537c6040518163ffffffff1660e01b8152600401602060405180830381865afa158015611349573d6000803e3d6000fd5b505050506040513d601f19601f8201168201806040525081019061136d9190612e4e565b155b1561138d5760405163ea8e4eb560e01b815260040160405180910390fd5b611398848484612861565b5063b168c58f60e01b9392505050565b60006106c1826001611d0c565b60006001600160a01b037f00000000000000000000000000000000000000000000000000000000000000001633036108d25760016000541461140a5760405163558a1e0360e11b815260040160405180910390fd5b60026000908155611419611d80565b905061142361201f565b61142e856001611e42565b9150826001600160a01b0316816001600160a01b0316146114ab576001600160a01b0380841660009081526007602090815260408083209385168352929052205460001981146114a9576114828382612cfc565b6001600160a01b038086166000908152600760209081526040808320938716835292905220555b505b6114b484612440565b93506114c083836128ca565b826001600160a01b0316846001600160a01b0316826001600160a01b03167ffbde797d201c681b91056529119e0b02407c7bb96a4a2c75c01fc9667232c8db8886604051611518929190918252602082015260400190565b60405180910390a46115546001600160a01b037f0000000000000000000000000000000000000000000000000000000000000000168587612530565b84600960008282546115669190612cfc565b9091555061157590508361204e565b50600160005561097a565b6002546001600160a01b031633146115aa5760405162461bcd60e51b8152600401610bea90612ea1565b600a8190556040518181527fbc585eed6f54aa16ec292be93276937803d5a047ba4eded0c87779270bbfdfe690602001610e95565b60006001600160a01b037f00000000000000000000000000000000000000000000000000000000000000001633036108d2576001600054146116345760405163558a1e0360e11b815260040160405180910390fd5b60026000908155611643611d80565b905061164d61201f565b826001600160a01b0316816001600160a01b0316146116c8576001600160a01b0380841660009081526007602090815260408083209385168352929052205460001981146116c65761169f8682612cfc565b6001600160a01b038086166000908152600760209081526040808320938716835292905220555b505b6116d3856000611d0c565b9150816000036116f55760405162461bcd60e51b8152600401610bea90612e69565b6116fe84612440565b935061170a83866128ca565b826001600160a01b0316846001600160a01b0316826001600160a01b03167ffbde797d201c681b91056529119e0b02407c7bb96a4a2c75c01fc9667232c8db8589604051611762929190918252602082015260400190565b60405180910390a461179e6001600160a01b037f0000000000000000000000000000000000000000000000000000000000000000168584612530565b81600960008282546115669190612cfc565b60006001600054146117d55760405163558a1e0360e11b815260040160405180910390fd5b6106c1826000611e42565b6009546001600160a01b038216600090815260066020526040812054909190829061180b9082611d0c565b905081811161181a578061181c565b815b949350505050565b6001600160a01b0381166000908152600d60205260408120546106c1565b428410156118925760405162461bcd60e51b815260206004820152601760248201527f5045524d49545f444541444c494e455f455850495245440000000000000000006044820152606401610bea565b6000600161189e610981565b6001600160a01b038a811660008181526008602090815260409182902080546001810190915582517f6e71edae12b1b97f4d1f60370fef10105fa2faae0126114a169c64845d6126c98184015280840194909452938d166060840152608083018c905260a083019390935260c08083018b90528151808403909101815260e08301909152805192019190912061190160f01b6101008301526101028201929092526101228101919091526101420160408051601f198184030181528282528051602091820120600084529083018083525260ff871690820152606081018590526080810184905260a0016020604051602081039080840390855afa1580156119aa573d6000803e3d6000fd5b5050604051601f1901519150506001600160a01b038116158015906119e05750876001600160a01b0316816001600160a01b0316145b611a1d5760405162461bcd60e51b815260206004820152600e60248201526d24a72b20a624a22fa9a4a3a722a960911b6044820152606401610bea565b6001600160a01b0390811660009081526007602090815260408083208a8516808552908352928190208990555188815291928a16917f8c5be1e5ebec7d5bd14f71427d1e84f3dd0314c0f7b2291e5b200ac8c7c3b925910160405180910390a350505050505050565b6009546001600160a01b03821660009081526006602052604081205490919081611ab08285611d0c565b11611abb578061181c565b61181c826000611e42565b60006106c1826000611e42565b6002546001600160a01b03163314611afd5760405162461bcd60e51b8152600401610bea90612ea1565b600280546001600160a01b0319166001600160a01b03831690811790915560405133907f8be0079c531659141344cd1fd0a4f28419497f9722a3daafe3b4186f6b6457e090600090a350565b60006001600160a01b037f00000000000000000000000000000000000000000000000000000000000000001633036108d257600160005414611b9e5760405163558a1e0360e11b815260040160405180910390fd5b60026000908155611bad6122c4565b9050611bb98430612763565b611bd6576040516359cf0f3760e11b815260040160405180910390fd5b611bde61201f565b82600003611c1c5760405162461bcd60e51b815260206004820152600b60248201526a16915493d7d05353d5539560aa1b6044820152606401610bea565b836001600160a01b0316816001600160a01b031603611c6e5760405162461bcd60e51b815260206004820152600e60248201526d14d1531197d111509517d415531360921b6044820152606401610bea565b611c7884846127fa565b611c8281846124cf565b836001600160a01b0316816001600160a01b03167f05f2eeda0e08e4b437f487c8d7d29b14537d15e3488170dc3de5dbdf8dac468485604051611cc791815260200190565b60405180910390a36040518381526001600160a01b0382169081907f312a5e5e1079f5dda4e95dbbd0b908b291fd5b992ef22073643ab691572c5b5290602001611135565b600c5460009082611d4e57611d4981600954611d289190612e8e565b611d33906001612e8e565b600554611d41906001612e8e565b86919061292c565b61181c565b61181c81600954611d5f9190612e8e565b611d6a906001612e8e565b600554611d78906001612e8e565b86919061294a565b6000336001600160a01b037f00000000000000000000000000000000000000000000000000000000000000001681036106c457604051630c281d0f60e11b8152600060048201527f00000000000000000000000000000000000000000000000000000000000000006001600160a01b0316906318503a1e906024016040805180830381865afa158015611e17573d6000803e3d6000fd5b505050506040513d601f19601f82011682018060405250810190611e3b9190612ec7565b5092915050565b600c5460009082611e7857611d496005546001611e5f9190612e8e565b82600954611e6d9190612e8e565b611d41906001612e8e565b61181c6005546001611e8a9190612e8e565b82600954611e989190612e8e565b611d78906001612e8e565b6040516352692e8f60e11b81526001600160a01b0382811660048301526060917f00000000000000000000000000000000000000000000000000000000000000009091169063a4d25d1e90602401600060405180830381865afa158015611f0e573d6000803e3d6000fd5b505050506040513d6000823e601f3d908101601f191682016040526106c19190810190612efc565b6000806000611f5a866001600160a01b03166000908152600d602052604090205490565b925082158015611f675750835b15611f7a57506000915081905080612016565b8215611f84578291505b60005b855181101561201457306001600160a01b0316868281518110611fac57611fac612fae565b60200260200101516001600160a01b031603612004576001600160a01b038716600090815260066020526040812054600a91611fe89190611d0c565b611ff3906009612fc4565b611ffd9190612fdb565b9150612014565b61200d81612ffd565b9050611f87565b505b93509350939050565b6001805461202c90612cb2565b905060000361204c5761203d612970565b60019061204a9082613065565b505b565b6001600160a01b0381166120d4577f00000000000000000000000000000000000000000000000000000000000000006001600160a01b031663a37d54af6040518163ffffffff1660e01b8152600401600060405180830381600087803b1580156120b757600080fd5b505af11580156120cb573d6000803e3d6000fd5b5050505061204a565b6040516330f3166760e01b81526001600160a01b0382811660048301527f000000000000000000000000000000000000000000000000000000000000000016906330f31667906024015b600060405180830381600087803b15801561213857600080fd5b505af115801561214c573d6000803e3d6000fd5b5050505050565b60007f8b73c3c69bb8fe3d512ecc4cf759cc79239f7b179b0ffacaa9a75d522b39400f60036040516121859190613125565b6040805191829003822060208301939093528101919091527fc89efdaa54c0f20c7adf612882df0950f5a951637e0307cdcb4c672f298b8bc660608201524660808201523060a082015260c00160405160208183030381529060405280519060200120905090565b805160000361220f576040516332e17beb60e21b815260040160405180910390fd5b60008082806020019051810190612226919061319b565b600954600c54600a54939550919350911580159061224e5750600a5461224c8284612e8e565b115b801561226b575061225f8385612e8e565b6122698284612e8e565b115b1561228957604051637ac7b99d60e11b815260040160405180910390fd5b600b541580159061229b5750600b5481115b80156122a657508281115b1561214c57604051633bd3544b60e11b815260040160405180910390fd5b600033816001600160a01b037f000000000000000000000000000000000000000000000000000000000000000016820361238957604051630c281d0f60e11b81523060048201527f00000000000000000000000000000000000000000000000000000000000000006001600160a01b0316906318503a1e906024016040805180830381865afa15801561235b573d6000803e3d6000fd5b505050506040513d601f19601f8201168201806040525081019061237f9190612ec7565b909250905061241c565b6040516311f3f6b160e21b81526001600160a01b0383811660048301523060248301527f000000000000000000000000000000000000000000000000000000000000000016906347cfdac490604401602060405180830381865afa1580156123f5573d6000803e3d6000fd5b505050506040513d601f19601f820116820180604052508101906124199190612e4e565b90505b8061243a576040516359cf0f3760e11b815260040160405180910390fd5b50919050565b60405163110ac5cb60e21b81526001600160a01b0382811660048301526000917f00000000000000000000000000000000000000000000000000000000000000009091169063442b172c90602401602060405180830381865afa9250505080156124c7575060408051601f3d908101601f191682019092526124c4918101906131bf565b60015b6106c1575090565b806124ef836001600160a01b03166000908152600d602052604090205490565b6124f99190612e8e565b6001600160a01b0383166000908152600d6020526040812091909155600c8054839290612527908490612e8e565b90915550505050565b600060405163a9059cbb60e01b81526001600160a01b0384166004820152826024820152602060006044836000895af13d15601f3d11600160005114161716915050806125b15760405162461bcd60e51b815260206004820152600f60248201526e1514905394d1915497d19052531151608a1b6044820152606401610bea565b50505050565b60006040516323b872dd60e01b81526001600160a01b03851660048201526001600160a01b03841660248201528260448201526020600060648360008a5af13d15601f3d116001600051141617169150508061214c5760405162461bcd60e51b81526020600482015260146024820152731514905394d1915497d19493d357d1905253115160621b6044820152606401610bea565b806005600082825461265e9190612e8e565b90915550506001600160a01b0382166000818152600660209081526040808320805486019055518481526000805160206131dd83398151915291015b60405180910390a35050565b7f00000000000000000000000000000000000000000000000000000000000000006001600160a01b031663a37d54af6040518163ffffffff1660e01b8152600401600060405180830381600087803b15801561270157600080fd5b505af11580156125b1573d6000803e3d6000fd5b604051630f4fc35760e41b81526001600160a01b0382811660048301527f0000000000000000000000000000000000000000000000000000000000000000169063f4fc35709060240161211e565b6040516311f3f6b160e21b81526001600160a01b03838116600483015282811660248301526000917f0000000000000000000000000000000000000000000000000000000000000000909116906347cfdac490604401602060405180830381865afa1580156127d6573d6000803e3d6000fd5b505050506040513d601f19601f8201168201806040525081019061097a9190612e4e565b8061281a836001600160a01b03166000908152600d602052604090205490565b6128249190612cfc565b6001600160a01b0383166000908152600d6020526040902055600c548181101561284f576000612859565b6128598282612cfc565b600c55505050565b6000806128a48585858080602002602001604051908101604052809392919081815260200183836020028082843760009201919091525060019250611f36915050565b92509250508082111561214c576040516302fb7a9160e31b815260040160405180910390fd5b6001600160a01b038216600090815260066020526040812080548392906128f2908490612cfc565b90915550506005805482900390556040518181526000906001600160a01b038416906000805160206131dd8339815191529060200161269a565b600082600019048411830215820261294357600080fd5b5091020490565b600082600019048411830215820261296157600080fd5b50910281810615159190040190565b60606000612980600c5490600090565b509050600954816040516020016129a1929190918252602082015260400190565b60405160208183030381529060405291505090565b5080546129c290612cb2565b6000825580601f106129d2575050565b601f01602090049060005260206000209081019061204a91905b80821115612a0057600081556001016129ec565b5090565b60005b83811015612a1f578181015183820152602001612a07565b50506000910152565b6020815260008251806020840152612a47816040850160208701612a04565b601f01601f19169190910160400192915050565b600060208284031215612a6d57600080fd5b5035919050565b6001600160a01b038116811461204a57600080fd5b60008060408385031215612a9c57600080fd5b8235612aa781612a74565b946020939093013593505050565b600060208284031215612ac757600080fd5b813561097a81612a74565b600080600060608486031215612ae757600080fd5b8335612af281612a74565b92506020840135612b0281612a74565b929592945050506040919091013590565b60008060408385031215612b2657600080fd5b823591506020830135612b3881612a74565b809150509250929050565b600080600060408486031215612b5857600080fd5b8335612b6381612a74565b9250602084013567ffffffffffffffff80821115612b8057600080fd5b818601915086601f830112612b9457600080fd5b813581811115612ba357600080fd5b8760208260051b8501011115612bb857600080fd5b6020830194508093505050509250925092565b600080600060608486031215612be057600080fd5b833592506020840135612bf281612a74565b91506040840135612c0281612a74565b809150509250925092565b600080600080600080600060e0888a031215612c2857600080fd5b8735612c3381612a74565b96506020880135612c4381612a74565b95506040880135945060608801359350608088013560ff81168114612c6757600080fd5b9699959850939692959460a0840135945060c09093013592915050565b60008060408385031215612c9757600080fd5b8235612ca281612a74565b91506020830135612b3881612a74565b600181811c90821680612cc657607f821691505b60208210810361243a57634e487b7160e01b600052602260045260246000fd5b634e487b7160e01b600052601160045260246000fd5b8181038181111561073d5761073d612ce6565b6001600160a01b038681168252851660208201526040810184905260806060820181905281018290526000828460a0840137600060a0848401015260a0601f19601f85011683010190509695505050505050565b634e487b7160e01b600052604160045260246000fd5b604051601f8201601f1916810167ffffffffffffffff81118282101715612da257612da2612d63565b604052919050565b600060208284031215612dbc57600080fd5b815167ffffffffffffffff80821115612dd457600080fd5b818401915084601f830112612de857600080fd5b815181811115612dfa57612dfa612d63565b612e0d601f8201601f1916602001612d79565b9150808252856020828501011115612e2457600080fd5b612e35816020840160208601612a04565b50949350505050565b805180151581146106c457600080fd5b600060208284031215612e6057600080fd5b61097a82612e3e565b6020808252600b908201526a5a45524f5f41535345545360a81b604082015260600190565b8082018082111561073d5761073d612ce6565b6020808252600c908201526b15539055551213d49256915160a21b604082015260600190565b60008060408385031215612eda57600080fd5b8251612ee581612a74565b9150612ef360208401612e3e565b90509250929050565b60006020808385031215612f0f57600080fd5b825167ffffffffffffffff80821115612f2757600080fd5b818501915085601f830112612f3b57600080fd5b815181811115612f4d57612f4d612d63565b8060051b9150612f5e848301612d79565b8181529183018401918481019088841115612f7857600080fd5b938501935b83851015612fa25784519250612f9283612a74565b8282529385019390850190612f7d565b98975050505050505050565b634e487b7160e01b600052603260045260246000fd5b808202811582820484141761073d5761073d612ce6565b600082612ff857634e487b7160e01b600052601260045260246000fd5b500490565b60006001820161300f5761300f612ce6565b5060010190565b601f82111561306057600081815260208120601f850160051c8101602086101561303d5750805b601f850160051c820191505b8181101561305c57828155600101613049565b5050505b505050565b815167ffffffffffffffff81111561307f5761307f612d63565b6130938161308d8454612cb2565b84613016565b602080601f8311600181146130c857600084156130b05750858301515b600019600386901b1c1916600185901b17855561305c565b600085815260208120601f198616915b828110156130f7578886015182559484019460019091019084016130d8565b50858210156131155787850151600019600388901b60f8161c191681555b5050505050600190811b01905550565b600080835461313381612cb2565b6001828116801561314b57600181146131605761318f565b60ff198416875282151583028701945061318f565b8760005260208060002060005b858110156131865781548a82015290840190820161316d565b50505082870194505b50929695505050505050565b600080604083850312156131ae57600080fd5b505080516020909101519092909150565b6000602082840312156131d157600080fd5b815161097a81612a7456feddf252ad1be2c89b69c2b068fc378daa952ba7f163c4a11628f55a4df523b3efa2646970667358221220080f55baca2c715133391b4ef905fc24a7da3bc6e491d64ad7aa6ad1269646f864736f6c63430008140033","linkReferences":{}},"methodIdentifiers":{"DOMAIN_SEPARATOR()":"3644e515","allowance(address,address)":"dd62ed3e","approve(address,uint256)":"095ea7b3","asset()":"38d52e0f","balanceOf(address)":"70a08231","borrow(uint256,address)":"4b3fd148","borrowCap()":"44d9dca6","checkAccountStatus(address,address[])":"b168c58f","checkVaultStatus()":"4b3d1223","convertToAssets(uint256)":"07a2d13a","convertToShares(uint256)":"c6e6f592","debtOf(address)":"d283e75f","decimals()":"313ce567","deposit(uint256,address)":"6e553f65","disableController()":"869e50c7","getAccountLiabilityStatus(address)":"1e610d68","maxDeposit(address)":"402d267d","maxMint(address)":"c63d75b6","maxRedeem(address)":"d905777e","maxWithdraw(address)":"ce96cb77","mint(uint256,address)":"94bf804d","name()":"06fdde03","nonces(address)":"7ecebe00","owner()":"8da5cb5b","permit(address,address,uint256,uint256,uint8,bytes32,bytes32)":"d505accf","previewDeposit(uint256)":"ef8b30f7","previewMint(uint256)":"b3d7f6b9","previewRedeem(uint256)":"4cdad506","previewWithdraw(uint256)":"0a28a477","pullDebt(address,uint256)":"f6145f20","redeem(uint256,address,address)":"ba087652","repay(uint256,address)":"acb70815","setBorrowCap(uint256)":"717186d1","setSupplyCap(uint256)":"b6a3f59a","supplyCap()":"8f770ad0","symbol()":"95d89b41","totalAssets()":"01e1d114","totalBorrowed()":"4c19386c","totalSupply()":"18160ddd","transfer(address,uint256)":"a9059cbb","transferFrom(address,address,uint256)":"23b872dd","transferOwnership(address)":"f2fde38b","withdraw(uint256,address,address)":"b460af94"},"id":85}