{"abi":[{"type":"constructor","inputs":[{"name":"_evc_","type":"address","internalType":"contract IEVC"},{"name":"_underlying_","type":"address","internalType":"contract IERC20"},{"name":"_name_","type":"string","internalType":"string"},{"name":"_symbol_","type":"string","internalType":"string"},{"name":"_supplyCap_","type":"uint256","internalType":"uint256"}],"stateMutability":"nonpayable"},{"type":"function","name":"allowance","inputs":[{"name":"owner","type":"address","internalType":"address"},{"name":"spender","type":"address","internalType":"address"}],"outputs":[{"name":"","type":"uint256","internalType":"uint256"}],"stateMutability":"view"},{"type":"function","name":"approve","inputs":[{"name":"spender","type":"address","internalType":"address"},{"name":"value","type":"uint256","internalType":"uint256"}],"outputs":[{"name":"","type":"bool","internalType":"bool"}],"stateMutability":"nonpayable"},{"type":"function","name":"balanceOf","inputs":[{"name":"account","type":"address","internalType":"address"}],"outputs":[{"name":"","type":"uint256","internalType":"uint256"}],"stateMutability":"view"},{"type":"function","name":"checkVaultStatus","inputs":[],"outputs":[{"name":"","type":"bytes4","internalType":"bytes4"}],"stateMutability":"nonpayable"},{"type":"function","name":"decimals","inputs":[],"outputs":[{"name":"","type":"uint8","internalType":"uint8"}],"stateMutability":"view"},{"type":"function","name":"getSupplyCap","inputs":[],"outputs":[{"name":"","type":"uint256","internalType":"uint256"}],"stateMutability":"view"},{"type":"function","name":"name","inputs":[],"outputs":[{"name":"","type":"string","internalType":"string"}],"stateMutability":"view"},{"type":"function","name":"symbol","inputs":[],"outputs":[{"name":"","type":"string","internalType":"string"}],"stateMutability":"view"},{"type":"function","name":"totalSupply","inputs":[],"outputs":[{"name":"","type":"uint256","internalType":"uint256"}],"stateMutability":"view"},{"type":"function","name":"transfer","inputs":[{"name":"to","type":"address","internalType":"address"},{"name":"amount","type":"uint256","internalType":"uint256"}],"outputs":[{"name":"","type":"bool","internalType":"bool"}],"stateMutability":"nonpayable"},{"type":"function","name":"transferFrom","inputs":[{"name":"from","type":"address","internalType":"address"},{"name":"to","type":"address","internalType":"address"},{"name":"amount","type":"uint256","internalType":"uint256"}],"outputs":[{"name":"","type":"bool","internalType":"bool"}],"stateMutability":"nonpayable"},{"type":"function","name":"underlying","inputs":[],"outputs":[{"name":"","type":"address","internalType":"address"}],"stateMutability":"view"},{"type":"function","name":"unwrap","inputs":[{"name":"amount","type":"uint256","internalType":"uint256"},{"name":"receiver","type":"address","internalType":"address"}],"outputs":[{"name":"","type":"bool","internalType":"bool"}],"stateMutability":"nonpayable"},{"type":"function","name":"wrap","inputs":[{"name":"amount","type":"uint256","internalType":"uint256"},{"name":"receiver","type":"address","internalType":"address"}],"outputs":[{"name":"","type":"bool","internalType":"bool"}],"stateMutability":"nonpayable"},{"type":"event","name":"Approval","inputs":[{"name":"owner","type":"address","indexed":true,"internalType":"address"},{"name":"spender","type":"address","indexed":true,"internalType":"address"},{"name":"value","type":"uint256","indexed":false,"internalType":"uint256"}],"anonymous":false},{"type":"event","name":"Transfer","inputs":[{"name":"from","type":"address","indexed":true,"internalType":"address"},{"name":"to","type":"address","indexed":true,"internalType":"address"},{"name":"value","type":"uint256","indexed":false,"internalType":"uint256"}],"anonymous":false},{"type":"error","name":"AddressEmptyCode","inputs":[{"name":"target","type":"address","internalType":"address"}]},{"type":"error","name":"AddressInsufficientBalance","inputs":[{"name":"account","type":"address","internalType":"address"}]},{"type":"error","name":"ControllerDisabled","inputs":[]},{"type":"error","name":"ERC20CollateralWrapperCapped_SupplyCapExceeded","inputs":[]},{"type":"error","name":"ERC20CollateralWrapper_InvalidAddress","inputs":[]},{"type":"error","name":"ERC20InsufficientAllowance","inputs":[{"name":"spender","type":"address","internalType":"address"},{"name":"allowance","type":"uint256","internalType":"uint256"},{"name":"needed","type":"uint256","internalType":"uint256"}]},{"type":"error","name":"ERC20InsufficientBalance","inputs":[{"name":"sender","type":"address","internalType":"address"},{"name":"balance","type":"uint256","internalType":"uint256"},{"name":"needed","type":"uint256","internalType":"uint256"}]},{"type":"error","name":"ERC20InvalidApprover","inputs":[{"name":"approver","type":"address","internalType":"address"}]},{"type":"error","name":"ERC20InvalidReceiver","inputs":[{"name":"receiver","type":"address","internalType":"address"}]},{"type":"error","name":"ERC20InvalidSender","inputs":[{"name":"sender","type":"address","internalType":"address"}]},{"type":"error","name":"ERC20InvalidSpender","inputs":[{"name":"spender","type":"address","internalType":"address"}]},{"type":"error","name":"FailedInnerCall","inputs":[]},{"type":"error","name":"NotAuthorized","inputs":[]},{"type":"error","name":"ReentrancyGuardReentrantCall","inputs":[]},{"type":"error","name":"SafeERC20FailedOperation","inputs":[{"name":"token","type":"address","internalType":"address"}]}],"bytecode":{"object":"0x6101006040523480156200001257600080fd5b506040516200198a3803806200198a833981016040819052620000359162000209565b6001600160a01b038516608052848484848382828181600362000059838262000337565b50600462000068828262000337565b505060016005555050306001600160a01b0386160391506200009f90505760405163133aab4f60e01b815260040160405180910390fd5b6001600160a01b03831660a08190526040805163313ce56760e01b8152905163313ce567916004808201926020929091908290030181865afa158015620000ea573d6000803e3d6000fd5b505050506040513d601f19601f8201168201806040525081019062000110919062000403565b60ff1660c05250505060e091909152506200042f9350505050565b6001600160a01b03811681146200014157600080fd5b50565b634e487b7160e01b600052604160045260246000fd5b600082601f8301126200016c57600080fd5b81516001600160401b038082111562000189576200018962000144565b604051601f8301601f19908116603f01168101908282118183101715620001b457620001b462000144565b81604052838152602092508683858801011115620001d157600080fd5b600091505b83821015620001f55785820183015181830184015290820190620001d6565b600093810190920192909252949350505050565b600080600080600060a086880312156200022257600080fd5b85516200022f816200012b565b602087015190955062000242816200012b565b60408701519094506001600160401b03808211156200026057600080fd5b6200026e89838a016200015a565b945060608801519150808211156200028557600080fd5b5062000294888289016200015a565b925050608086015190509295509295909350565b600181811c90821680620002bd57607f821691505b602082108103620002de57634e487b7160e01b600052602260045260246000fd5b50919050565b601f8211156200033257600081815260208120601f850160051c810160208610156200030d5750805b601f850160051c820191505b818110156200032e5782815560010162000319565b5050505b505050565b81516001600160401b0381111562000353576200035362000144565b6200036b81620003648454620002a8565b84620002e4565b602080601f831160018114620003a357600084156200038a5750858301515b600019600386901b1c1916600185901b1785556200032e565b600085815260208120601f198616915b82811015620003d457888601518255948401946001909101908401620003b3565b5085821015620003f35787850151600019600388901b60f8161c191681555b5050505050600190811b01905550565b6000602082840312156200041657600080fd5b815160ff811681146200042857600080fd5b9392505050565b60805160a05160c05160e0516114c6620004c46000396000818161015701528181610362015281816103e10152818161062e0152610698015260006101950152600081816101ed0152818161079b0152610886015260008181610407015281816104b3015281816104dd015281816108d3015281816109630152818161099f01528181610cc50152610dff01526114c66000f3fe608060405234801561001057600080fd5b50600436106100ea5760003560e01c80634b3d12231161008c5780637647691d116100665780637647691d1461024057806395d89b4114610253578063a9059cbb1461025b578063dd62ed3e1461026e57600080fd5b80634b3d1223146101bf5780636f307dc3146101e057806370a082311461021757600080fd5b806318160ddd116100c857806318160ddd14610143578063203618141461015557806323b872dd1461017b578063313ce5671461018e57600080fd5b806306fdde03146100ef578063095ea7b31461010d57806313bac82014610130575b600080fd5b6100f76102a7565b604051610104919061112f565b60405180910390f35b61012061011b366004611177565b610339565b6040519015158152602001610104565b61012061013e3660046111a3565b61035d565b6002545b604051908152602001610104565b7f0000000000000000000000000000000000000000000000000000000000000000610147565b6101206101893660046111d3565b61047e565b60405160ff7f0000000000000000000000000000000000000000000000000000000000000000168152602001610104565b6101c76104a6565b6040516001600160e01b03199091168152602001610104565b6040516001600160a01b037f0000000000000000000000000000000000000000000000000000000000000000168152602001610104565b610147610225366004611214565b6001600160a01b031660009081526020819052604090205490565b61012061024e3660046111a3565b610693565b6100f7610713565b610120610269366004611177565b610722565b61014761027c366004611231565b6001600160a01b03918216600090815260016020908152604080832093909416825291909152205490565b6060600380546102b69061125f565b80601f01602080910402602001604051908101604052809291908181526020018280546102e29061125f565b801561032f5780601f106103045761010080835404028352916020019161032f565b820191906000526020600020905b81548152906001019060200180831161031257829003601f168201915b5050505050905090565b600080610344610742565b9050610351818585610751565b60019150505b92915050565b6000807f000000000000000000000000000000000000000000000000000000000000000011801561039a5750600680546103969061125f565b1590505b156103d3576002546040516020016103b491815260200190565b604051602081830303815290604052600690816103d191906112fd565b505b6103dd8383610763565b90507f000000000000000000000000000000000000000000000000000000000000000015610357577f00000000000000000000000000000000000000000000000000000000000000006001600160a01b031663a37d54af6040518163ffffffff1660e01b8152600401600060405180830381600087803b15801561046057600080fd5b505af1158015610474573d6000803e3d6000fd5b5050505092915050565b60006104886107e0565b61049384848461080a565b905061049f6001600555565b9392505050565b6000336001600160a01b037f00000000000000000000000000000000000000000000000000000000000000001614158061055f57507f00000000000000000000000000000000000000000000000000000000000000006001600160a01b031663e21e537c6040518163ffffffff1660e01b8152600401602060405180830381865afa158015610539573d6000803e3d6000fd5b505050506040513d601f19601f8201168201806040525081019061055d91906113cd565b155b1561057d5760405163ea8e4eb560e01b815260040160405180910390fd5b60006006805461058c9061125f565b80601f01602080910402602001604051908101604052809291908181526020018280546105b89061125f565b80156106055780601f106105da57610100808354040283529160200191610605565b820191906000526020600020905b8154815290600101906020018083116105e857829003601f168201915b505050505080602001905181019061061d91906113e8565b9050600061062a60025490565b90507f00000000000000000000000000000000000000000000000000000000000000008111801561065a57508181115b156106785760405163163f37a960e21b815260040160405180910390fd5b610684600660006110bd565b50634b3d122360e01b91505090565b6000807f00000000000000000000000000000000000000000000000000000000000000001180156106d05750600680546106cc9061125f565b1590505b15610709576002546040516020016106ea91815260200190565b6040516020818303038152906040526006908161070791906112fd565b505b6103dd8383610838565b6060600480546102b69061125f565b600061072c6107e0565b610736838361093e565b90506103576001600555565b600061074c610956565b905090565b61075e8383836001610a1a565b505050565b600061076d6107e0565b306001600160a01b038316036107965760405163133aab4f60e01b815260040160405180910390fd5b6107c97f00000000000000000000000000000000000000000000000000000000000000006107c2610742565b3086610af5565b6107d38284610b5c565b5060016103576001600555565b60026005540361080357604051633ee5aeb560e01b815260040160405180910390fd5b6002600555565b600080610815610742565b9050610822858285610b96565b61082d858585610c0e565b506001949350505050565b60006108426107e0565b306001600160a01b0383160361086b5760405163133aab4f60e01b815260040160405180910390fd5b6000610875610742565b90506108818185610c6d565b6108b47f00000000000000000000000000000000000000000000000000000000000000006108ae85610ca3565b86610d32565b60405163232c881960e11b81526001600160a01b0382811660048301527f00000000000000000000000000000000000000000000000000000000000000001690634659103290602401600060405180830381600087803b15801561091757600080fd5b505af115801561092b573d6000803e3d6000fd5b5050505060019150506103576001600555565b600080610949610742565b9050610351818585610c0e565b6000336001600160a01b037f0000000000000000000000000000000000000000000000000000000000000000168103610a1557604051630c281d0f60e11b8152600060048201527f00000000000000000000000000000000000000000000000000000000000000006001600160a01b0316906318503a1e906024016040805180830381865afa1580156109ed573d6000803e3d6000fd5b505050506040513d601f19601f82011682018060405250810190610a119190611401565b5090505b919050565b6001600160a01b038416610a495760405163e602df0560e01b8152600060048201526024015b60405180910390fd5b6001600160a01b038316610a7357604051634a1406b160e11b815260006004820152602401610a40565b6001600160a01b0380851660009081526001602090815260408083209387168352929052208290558015610aef57826001600160a01b0316846001600160a01b03167f8c5be1e5ebec7d5bd14f71427d1e84f3dd0314c0f7b2291e5b200ac8c7c3b92584604051610ae691815260200190565b60405180910390a35b50505050565b6040516001600160a01b038481166024830152838116604483015260648201839052610aef9186918216906323b872dd906084015b604051602081830303815290604052915060e01b6020820180516001600160e01b038381831617835250505050610d63565b6001600160a01b038216610b865760405163ec442f0560e01b815260006004820152602401610a40565b610b9260008383610dc6565b5050565b6001600160a01b038381166000908152600160209081526040808320938616835292905220546000198114610aef5781811015610bff57604051637dc7a0d960e11b81526001600160a01b03841660048201526024810182905260448101839052606401610a40565b610aef84848484036000610a1a565b6001600160a01b038316610c3857604051634b637e8f60e11b815260006004820152602401610a40565b6001600160a01b038216610c625760405163ec442f0560e01b815260006004820152602401610a40565b61075e838383610dc6565b6001600160a01b038216610c9757604051634b637e8f60e11b815260006004820152602401610a40565b610b9282600083610dc6565b60405163110ac5cb60e21b81526001600160a01b0382811660048301526000917f00000000000000000000000000000000000000000000000000000000000000009091169063442b172c90602401602060405180830381865afa925050508015610d2a575060408051601f3d908101601f19168201909252610d2791810190611436565b60015b610357575090565b6040516001600160a01b0383811660248301526044820183905261075e91859182169063a9059cbb90606401610b2a565b6000610d786001600160a01b03841683610e60565b90508051600014158015610d9d575080806020019051810190610d9b91906113cd565b155b1561075e57604051635274afe760e01b81526001600160a01b0384166004820152602401610a40565b610dd1838383610e6e565b6001600160a01b0383161561075e5760405163232c881960e11b81526001600160a01b0384811660048301527f00000000000000000000000000000000000000000000000000000000000000001690634659103290602401600060405180830381600087803b158015610e4357600080fd5b505af1158015610e57573d6000803e3d6000fd5b50505050505050565b606061049f83836000610f98565b6001600160a01b038316610e99578060026000828254610e8e9190611453565b90915550610f0b9050565b6001600160a01b03831660009081526020819052604090205481811015610eec5760405163391434e360e21b81526001600160a01b03851660048201526024810182905260448101839052606401610a40565b6001600160a01b03841660009081526020819052604090209082900390555b6001600160a01b038216610f2757600280548290039055610f46565b6001600160a01b03821660009081526020819052604090208054820190555b816001600160a01b0316836001600160a01b03167fddf252ad1be2c89b69c2b068fc378daa952ba7f163c4a11628f55a4df523b3ef83604051610f8b91815260200190565b60405180910390a3505050565b606081471015610fbd5760405163cd78605960e01b8152306004820152602401610a40565b600080856001600160a01b03168486604051610fd99190611474565b60006040518083038185875af1925050503d8060008114611016576040519150601f19603f3d011682016040523d82523d6000602084013e61101b565b606091505b509150915061102b868383611035565b9695505050505050565b60608261104a5761104582611091565b61049f565b815115801561106157506001600160a01b0384163b155b1561108a57604051639996b31560e01b81526001600160a01b0385166004820152602401610a40565b508061049f565b8051156110a15780518082602001fd5b604051630a12f52160e11b815260040160405180910390fd5b50565b5080546110c99061125f565b6000825580601f106110d9575050565b601f0160209004906000526020600020908101906110ba91905b8082111561110757600081556001016110f3565b5090565b60005b8381101561112657818101518382015260200161110e565b50506000910152565b602081526000825180602084015261114e81604085016020870161110b565b601f01601f19169190910160400192915050565b6001600160a01b03811681146110ba57600080fd5b6000806040838503121561118a57600080fd5b823561119581611162565b946020939093013593505050565b600080604083850312156111b657600080fd5b8235915060208301356111c881611162565b809150509250929050565b6000806000606084860312156111e857600080fd5b83356111f381611162565b9250602084013561120381611162565b929592945050506040919091013590565b60006020828403121561122657600080fd5b813561049f81611162565b6000806040838503121561124457600080fd5b823561124f81611162565b915060208301356111c881611162565b600181811c9082168061127357607f821691505b60208210810361129357634e487b7160e01b600052602260045260246000fd5b50919050565b634e487b7160e01b600052604160045260246000fd5b601f82111561075e57600081815260208120601f850160051c810160208610156112d65750805b601f850160051c820191505b818110156112f5578281556001016112e2565b505050505050565b815167ffffffffffffffff81111561131757611317611299565b61132b81611325845461125f565b846112af565b602080601f83116001811461136057600084156113485750858301515b600019600386901b1c1916600185901b1785556112f5565b600085815260208120601f198616915b8281101561138f57888601518255948401946001909101908401611370565b50858210156113ad5787850151600019600388901b60f8161c191681555b5050505050600190811b01905550565b80518015158114610a1557600080fd5b6000602082840312156113df57600080fd5b61049f826113bd565b6000602082840312156113fa57600080fd5b5051919050565b6000806040838503121561141457600080fd5b825161141f81611162565b915061142d602084016113bd565b90509250929050565b60006020828403121561144857600080fd5b815161049f81611162565b8082018082111561035757634e487b7160e01b600052601160045260246000fd5b6000825161148681846020870161110b565b919091019291505056fea26469706673582212203db7f75f28b13dc67b034b0aaa293d18445a938d1a56e4b11f0a754bfa240c2a64736f6c63430008140033","linkReferences":{}},"methodIdentifiers":{"allowance(address,address)":"dd62ed3e","approve(address,uint256)":"095ea7b3","balanceOf(address)":"70a08231","checkVaultStatus()":"4b3d1223","decimals()":"313ce567","getSupplyCap()":"20361814","name()":"06fdde03","symbol()":"95d89b41","totalSupply()":"18160ddd","transfer(address,uint256)":"a9059cbb","transferFrom(address,address,uint256)":"23b872dd","underlying()":"6f307dc3","unwrap(uint256,address)":"7647691d","wrap(uint256,address)":"13bac820"},"id":71}