{"abi":[{"type":"function","name":"computeInterestRate","inputs":[{"name":"market","type":"address","internalType":"address"},{"name":"asset","type":"address","internalType":"address"},{"name":"utilisation","type":"uint32","internalType":"uint32"}],"outputs":[{"name":"","type":"uint96","internalType":"uint96"}],"stateMutability":"nonpayable"},{"type":"function","name":"reset","inputs":[{"name":"market","type":"address","internalType":"address"},{"name":"resetParams","type":"bytes","internalType":"bytes"}],"outputs":[],"stateMutability":"nonpayable"},{"type":"function","name":"setInterestRate","inputs":[{"name":"_interestRate","type":"uint256","internalType":"uint256"}],"outputs":[],"stateMutability":"nonpayable"}],"bytecode":{"object":"0x608060405234801561001057600080fd5b506102c7806100206000396000f3fe608060405234801561001057600080fd5b50600436106100415760003560e01c80634f2d2166146100465780635f84f30214610075578063c9741a7f1461008a575b600080fd5b610059610054366004610158565b61009d565b6040516001600160601b03909116815260200160405180910390f35b6100886100833660046101a8565b600055565b005b6100886100983660046101c1565b505050565b6000806100ab858585610105565b90506100c76301e185586b1027e72f1f12813088000000610244565b6001600160601b0316816001600160601b031611156100fd576100fa6301e185586b1027e72f1f12813088000000610244565b90505b949350505050565b60006301e1338060646000546b033b2e3c9fd0803ce80000006101289190610266565b6101329190610244565b6100fd9190610244565b80356001600160a01b038116811461015357600080fd5b919050565b60008060006060848603121561016d57600080fd5b6101768461013c565b92506101846020850161013c565b9150604084013563ffffffff8116811461019d57600080fd5b809150509250925092565b6000602082840312156101ba57600080fd5b5035919050565b6000806000604084860312156101d657600080fd5b6101df8461013c565b9250602084013567ffffffffffffffff808211156101fc57600080fd5b818601915086601f83011261021057600080fd5b81358181111561021f57600080fd5b87602082850101111561023157600080fd5b6020830194508093505050509250925092565b60008261026157634e487b7160e01b600052601260045260246000fd5b500490565b808202811582820484141761028b57634e487b7160e01b600052601160045260246000fd5b9291505056fea2646970667358221220a9a13d251960a67a1909b6c320266feb8281d4f86850163dd6526a77c889a18064736f6c63430008140033","linkReferences":{}},"methodIdentifiers":{"computeInterestRate(address,address,uint32)":"4f2d2166","reset(address,bytes)":"c9741a7f","setInterestRate(uint256)":"5f84f302"},"id":94}