{"abi":[{"type":"constructor","inputs":[{"name":"_evc","type":"address","internalType":"contract IEVC"}],"stateMutability":"nonpayable"},{"type":"function","name":"cancel","inputs":[{"name":"order","type":"tuple","internalType":"struct LightweightOrderOperator.Order","components":[{"name":"nonEVCOperations","type":"tuple[]","internalType":"struct LightweightOrderOperator.NonEVCBatchItem[]","components":[{"name":"targetContract","type":"address","internalType":"address"},{"name":"data","type":"bytes","internalType":"bytes"}]},{"name":"EVCOperations","type":"tuple[]","internalType":"struct IEVC.BatchItem[]","components":[{"name":"targetContract","type":"address","internalType":"address"},{"name":"onBehalfOfAccount","type":"address","internalType":"address"},{"name":"value","type":"uint256","internalType":"uint256"},{"name":"data","type":"bytes","internalType":"bytes"}]},{"name":"submissionTipToken","type":"address","internalType":"contract ERC20"},{"name":"executionTipToken","type":"address","internalType":"contract ERC20"},{"name":"salt","type":"uint256","internalType":"uint256"}]}],"outputs":[],"stateMutability":"nonpayable"},{"type":"function","name":"evc","inputs":[],"outputs":[{"name":"","type":"address","internalType":"contract IEVC"}],"stateMutability":"view"},{"type":"function","name":"execute","inputs":[{"name":"order","type":"tuple","internalType":"struct LightweightOrderOperator.Order","components":[{"name":"nonEVCOperations","type":"tuple[]","internalType":"struct LightweightOrderOperator.NonEVCBatchItem[]","components":[{"name":"targetContract","type":"address","internalType":"address"},{"name":"data","type":"bytes","internalType":"bytes"}]},{"name":"EVCOperations","type":"tuple[]","internalType":"struct IEVC.BatchItem[]","components":[{"name":"targetContract","type":"address","internalType":"address"},{"name":"onBehalfOfAccount","type":"address","internalType":"address"},{"name":"value","type":"uint256","internalType":"uint256"},{"name":"data","type":"bytes","internalType":"bytes"}]},{"name":"submissionTipToken","type":"address","internalType":"contract ERC20"},{"name":"executionTipToken","type":"address","internalType":"contract ERC20"},{"name":"salt","type":"uint256","internalType":"uint256"}]}],"outputs":[],"stateMutability":"nonpayable"},{"type":"function","name":"orderLookup","inputs":[{"name":"orderHash","type":"bytes32","internalType":"bytes32"}],"outputs":[{"name":"state","type":"uint8","internalType":"enum LightweightOrderOperator.OrderState"}],"stateMutability":"view"},{"type":"function","name":"setTipReceiver","inputs":[{"name":"_tipReceiver","type":"address","internalType":"address"}],"outputs":[],"stateMutability":"nonpayable"},{"type":"function","name":"submit","inputs":[{"name":"order","type":"tuple","internalType":"struct LightweightOrderOperator.Order","components":[{"name":"nonEVCOperations","type":"tuple[]","internalType":"struct LightweightOrderOperator.NonEVCBatchItem[]","components":[{"name":"targetContract","type":"address","internalType":"address"},{"name":"data","type":"bytes","internalType":"bytes"}]},{"name":"EVCOperations","type":"tuple[]","internalType":"struct IEVC.BatchItem[]","components":[{"name":"targetContract","type":"address","internalType":"address"},{"name":"onBehalfOfAccount","type":"address","internalType":"address"},{"name":"value","type":"uint256","internalType":"uint256"},{"name":"data","type":"bytes","internalType":"bytes"}]},{"name":"submissionTipToken","type":"address","internalType":"contract ERC20"},{"name":"executionTipToken","type":"address","internalType":"contract ERC20"},{"name":"salt","type":"uint256","internalType":"uint256"}]}],"outputs":[],"stateMutability":"nonpayable"},{"type":"event","name":"OrderCancelled","inputs":[{"name":"orderHash","type":"bytes32","indexed":true,"internalType":"bytes32"}],"anonymous":false},{"type":"event","name":"OrderExecuted","inputs":[{"name":"orderHash","type":"bytes32","indexed":true,"internalType":"bytes32"},{"name":"caller","type":"address","indexed":true,"internalType":"address"}],"anonymous":false},{"type":"event","name":"OrderPending","inputs":[{"name":"order","type":"tuple","indexed":false,"internalType":"struct LightweightOrderOperator.Order","components":[{"name":"nonEVCOperations","type":"tuple[]","internalType":"struct LightweightOrderOperator.NonEVCBatchItem[]","components":[{"name":"targetContract","type":"address","internalType":"address"},{"name":"data","type":"bytes","internalType":"bytes"}]},{"name":"EVCOperations","type":"tuple[]","internalType":"struct IEVC.BatchItem[]","components":[{"name":"targetContract","type":"address","internalType":"address"},{"name":"onBehalfOfAccount","type":"address","internalType":"address"},{"name":"value","type":"uint256","internalType":"uint256"},{"name":"data","type":"bytes","internalType":"bytes"}]},{"name":"submissionTipToken","type":"address","internalType":"contract ERC20"},{"name":"executionTipToken","type":"address","internalType":"contract ERC20"},{"name":"salt","type":"uint256","internalType":"uint256"}]}],"anonymous":false},{"type":"error","name":"EmptyError","inputs":[]},{"type":"error","name":"InvalidEVCOperations","inputs":[]},{"type":"error","name":"InvalidNonEVCOperations","inputs":[]},{"type":"error","name":"InvalidOrderState","inputs":[]},{"type":"error","name":"InvalidTip","inputs":[]},{"type":"error","name":"NotAuthorized","inputs":[]}],"bytecode":{"object":"0x60a060405234801561001057600080fd5b5060405161143038038061143083398101604081905261002f91610040565b6001600160a01b0316608052610070565b60006020828403121561005257600080fd5b81516001600160a01b038116811461006957600080fd5b9392505050565b6080516113526100de60003960008181606c015281816101510152818161026b0152818161031f015281816103db01528181610503015281816105e7015281816106600152818161074e01528181610836015281816108ce015281816109590152610a1c01526113526000f3fe608060405234801561001057600080fd5b50600436106100625760003560e01c80630fb411e814610067578063243a3ff4146100ab57806335b8ec61146100c057806353012963146100d3578063bb1154cc14610103578063db67d5e314610133575b600080fd5b61008e7f000000000000000000000000000000000000000000000000000000000000000081565b6040516001600160a01b0390911681526020015b60405180910390f35b6100be6100b9366004610dcc565b610146565b005b6100be6100ce366004610dcc565b6103d0565b6100f66100e1366004610e0e565b60006020819052908152604090205460ff1681565b6040516100a29190610e3d565b6100be610111366004610e7a565b600180546001600160a01b0319166001600160a01b0392909216919091179055565b6100be610141366004610dcc565b6104f8565b336001600160a01b037f0000000000000000000000000000000000000000000000000000000000000000161461018f5760405163ea8e4eb560e01b815260040160405180910390fd5b6000816040516020016101a29190611032565b60408051601f19818403018152919052805160209091012090506000808281526020819052604090205460ff1660038111156101e0576101e0610e27565b036101f3576101ee8261081d565b610236565b600160008281526020819052604090205460ff16600381111561021857610218610e27565b1461023657604051632b12537f60e21b815260040160405180910390fd5b6000818152602081905260409020805460ff1916600317905561026161025c8380611156565b610b79565b6001600160a01b037f00000000000000000000000000000000000000000000000000000000000000001663c16ae7a461029d6020850185611156565b6040518363ffffffff1660e01b81526004016102ba9291906111a0565b600060405180830381600087803b1580156102d457600080fd5b505af11580156102e8573d6000803e3d6000fd5b5061030692506103019150506080840160608501610e7a565b610c71565b604051630c281d0f60e11b8152600060048201819052907f00000000000000000000000000000000000000000000000000000000000000006001600160a01b0316906318503a1e906024016040805180830381865afa15801561036d573d6000803e3d6000fd5b505050506040513d601f19601f8201168201806040525081019061039191906111cc565b509050806001600160a01b0316827fa3e1e0a12948725033ff92d3054368bf212e19e40bd2ec4819f77515b683046c60405160405180910390a3505050565b336001600160a01b037f000000000000000000000000000000000000000000000000000000000000000016146104195760405163ea8e4eb560e01b815260040160405180910390fd5b60008160405160200161042c9190611032565b60408051601f19818403018152919052805160209091012090506000808281526020819052604090205460ff16600381111561046a5761046a610e27565b1461048857604051632b12537f60e21b815260040160405180910390fd5b6000818152602081905260409020805460ff191660011790556104aa8261081d565b6104bd6103016060840160408501610e7a565b7f3b9daee69d3b8e3d0d571e471a023f72620d51e9fa5166c71666f57fdb9d7f42826040516104ec9190611032565b60405180910390a15050565b336001600160a01b037f000000000000000000000000000000000000000000000000000000000000000016146105415760405163ea8e4eb560e01b815260040160405180910390fd5b6000816040516020016105549190611032565b60408051601f1981840301815291905280516020909101209050600160008281526020819052604090205460ff16600381111561059357610593610e27565b146105b157604051632b12537f60e21b815260040160405180910390fd5b600081815260208190526040808220805460ff1916600217905551630c281d0f60e11b8152600481018290526001600160a01b037f000000000000000000000000000000000000000000000000000000000000000016906318503a1e906024016040805180830381865afa15801561062d573d6000803e3d6000fd5b505050506040513d601f19601f8201168201806040525081019061065191906111cc565b50905060006001600160a01b037f00000000000000000000000000000000000000000000000000000000000000001663442b172c6106926020870187611156565b60008181106106a3576106a3611201565b90506020028101906106b59190611217565b6106c6906040810190602001610e7a565b6040516001600160e01b031960e084901b1681526001600160a01b039091166004820152602401602060405180830381865afa15801561070a573d6000803e3d6000fd5b505050506040513d601f19601f8201168201806040525081019061072e9190611237565b9050816001600160a01b0316816001600160a01b03161415806107ce57507f00000000000000000000000000000000000000000000000000000000000000006001600160a01b0316633b2416be6040518163ffffffff1660e01b8152600401602060405180830381865afa1580156107aa573d6000803e3d6000fd5b505050506040513d601f19601f820116820180604052508101906107ce9190611254565b156107ec5760405163ea8e4eb560e01b815260040160405180910390fd5b60405183907f5152abf959f6564662358c2e52b702259b78bac5ee7842a0f01937e670efcc7d90600090a250505050565b604051630c281d0f60e11b8152600060048201819052907f00000000000000000000000000000000000000000000000000000000000000006001600160a01b0316906318503a1e906024016040805180830381865afa158015610884573d6000803e3d6000fd5b505050506040513d601f19601f820116820180604052508101906108a891906111cc565b5060405163110ac5cb60e21b81526001600160a01b0380831660048301529192506000917f0000000000000000000000000000000000000000000000000000000000000000169063442b172c90602401602060405180830381865afa158015610915573d6000803e3d6000fd5b505050506040513d601f19601f820116820180604052508101906109399190611237565b9050816001600160a01b0316816001600160a01b03161415806109d957507f00000000000000000000000000000000000000000000000000000000000000006001600160a01b0316633b2416be6040518163ffffffff1660e01b8152600401602060405180830381865afa1580156109b5573d6000803e3d6000fd5b505050506040513d601f19601f820116820180604052508101906109d99190611254565b156109f75760405163ea8e4eb560e01b815260040160405180910390fd5b6000610a038480611156565b9050905060005b81811015610aad576001600160a01b037f000000000000000000000000000000000000000000000000000000000000000016610a468680611156565b83818110610a5657610a56611201565b9050602002810190610a68919061126f565b610a76906020810190610e7a565b6001600160a01b031603610a9d5760405163b462745560e01b815260040160405180910390fd5b610aa681611285565b9050610a0a565b50610abb6020850185611156565b9050905080600003610ae05760405163d46c42a960e01b815260040160405180910390fd5b60005b81811015610b72576001600160a01b0360ff851716610b056020870187611156565b83818110610b1557610b15611201565b9050602002810190610b279190611217565b610b38906040810190602001610e7a565b60ff176001600160a01b031614610b625760405163d46c42a960e01b815260040160405180910390fd5b610b6b81611285565b9050610ae3565b5050505050565b8060005b81811015610c6b57600080858584818110610b9a57610b9a611201565b9050602002810190610bac919061126f565b610bba906020810190610e7a565b6001600160a01b0316868685818110610bd557610bd5611201565b9050602002810190610be7919061126f565b610bf59060208101906112ac565b604051610c039291906112f3565b6000604051808303816000865af19150503d8060008114610c40576040519150601f19603f3d011682016040523d82523d6000602084013e610c45565b606091505b509150915081610c5857610c5881610da4565b505080610c6490611285565b9050610b7d565b50505050565b6001600160a01b03811615610da1576040516370a0823160e01b81523060048201526000906001600160a01b038316906370a0823190602401602060405180830381865afa158015610cc7573d6000803e3d6000fd5b505050506040513d601f19601f82011682018060405250810190610ceb9190611303565b6001549091506001600160a01b03168115801590610d1057506001600160a01b038116155b15610d2e576040516360dbb49f60e11b815260040160405180910390fd5b60405163a9059cbb60e01b81526001600160a01b0382811660048301526024820184905284169063a9059cbb906044016020604051808303816000875af1158015610d7d573d6000803e3d6000fd5b505050506040513d601f19601f82011682018060405250810190610c6b9190611254565b50565b805115610db357805181602001fd5b604051634f3d7def60e01b815260040160405180910390fd5b600060208284031215610dde57600080fd5b813567ffffffffffffffff811115610df557600080fd5b820160a08185031215610e0757600080fd5b9392505050565b600060208284031215610e2057600080fd5b5035919050565b634e487b7160e01b600052602160045260246000fd5b6020810160048310610e5f57634e487b7160e01b600052602160045260246000fd5b91905290565b6001600160a01b0381168114610da157600080fd5b600060208284031215610e8c57600080fd5b8135610e0781610e65565b6000808335601e19843603018112610eae57600080fd5b830160208101925035905067ffffffffffffffff811115610ece57600080fd5b8060051b3603821315610ee057600080fd5b9250929050565b6000808335601e19843603018112610efe57600080fd5b830160208101925035905067ffffffffffffffff811115610f1e57600080fd5b803603821315610ee057600080fd5b81835281816020850137506000828201602090810191909152601f909101601f19169091010190565b60008235607e19833603018112610f6c57600080fd5b90910192915050565b81835260006020808501808196508560051b810191508460005b87811015611015578284038952610fa68288610f56565b60808135610fb381610e65565b6001600160a01b0390811687528288013590610fce82610e65565b1686880152604082810135908701526060610feb81840184610ee7565b93508282890152610fff8389018583610f2d565b9c89019c97505050928601925050600101610f8f565b5091979650505050505050565b803561102d81610e65565b919050565b6000602080835260c083016110478586610e97565b60a0848701528281845260e08701905060e08260051b8801019350826000805b848110156110db5789870360df19018452823536879003603e1901811261108c578283fd5b86016040813561109b81610e65565b6001600160a01b031689526110b2828b0183610ee7565b9250818b8b01526110c6828b018483610f2d565b99505050938801935091870191600101611067565b5050505050506110ed82860186610e97565b858303601f190160408701529250611106828483610f75565b9250505061111660408501611022565b6001600160a01b03811660608501525061113260608501611022565b6001600160a01b038116608085015250608084013560a08401528091505092915050565b6000808335601e1984360301811261116d57600080fd5b83018035915067ffffffffffffffff82111561118857600080fd5b6020019150600581901b3603821315610ee057600080fd5b6020815260006111b4602083018486610f75565b949350505050565b8051801515811461102d57600080fd5b600080604083850312156111df57600080fd5b82516111ea81610e65565b91506111f8602084016111bc565b90509250929050565b634e487b7160e01b600052603260045260246000fd5b60008235607e1983360301811261122d57600080fd5b9190910192915050565b60006020828403121561124957600080fd5b8151610e0781610e65565b60006020828403121561126657600080fd5b610e07826111bc565b60008235603e1983360301811261122d57600080fd5b6000600182016112a557634e487b7160e01b600052601160045260246000fd5b5060010190565b6000808335601e198436030181126112c357600080fd5b83018035915067ffffffffffffffff8211156112de57600080fd5b602001915036819003821315610ee057600080fd5b8183823760009101908152919050565b60006020828403121561131557600080fd5b505191905056fea264697066735822122072e593e08079ac3c074d56663cf7575e7fa6dbce59882df5fb773cb70f5db23764736f6c63430008140033","linkReferences":{}},"methodIdentifiers":{"cancel(((address,bytes)[],(address,address,uint256,bytes)[],address,address,uint256))":"db67d5e3","evc()":"0fb411e8","execute(((address,bytes)[],(address,address,uint256,bytes)[],address,address,uint256))":"243a3ff4","orderLookup(bytes32)":"53012963","setTipReceiver(address)":"bb1154cc","submit(((address,bytes)[],(address,address,uint256,bytes)[],address,address,uint256))":"35b8ec61"},"id":74}