{"abi":[{"type":"constructor","inputs":[{"name":"_evc","type":"address","internalType":"contract IEVC"},{"name":"_asset","type":"address","internalType":"contract ERC20"},{"name":"_name","type":"string","internalType":"string"},{"name":"_symbol","type":"string","internalType":"string"}],"stateMutability":"nonpayable"},{"type":"function","name":"DOMAIN_SEPARATOR","inputs":[],"outputs":[{"name":"","type":"bytes32","internalType":"bytes32"}],"stateMutability":"view"},{"type":"function","name":"allowance","inputs":[{"name":"","type":"address","internalType":"address"},{"name":"","type":"address","internalType":"address"}],"outputs":[{"name":"","type":"uint256","internalType":"uint256"}],"stateMutability":"view"},{"type":"function","name":"approve","inputs":[{"name":"spender","type":"address","internalType":"address"},{"name":"amount","type":"uint256","internalType":"uint256"}],"outputs":[{"name":"","type":"bool","internalType":"bool"}],"stateMutability":"nonpayable"},{"type":"function","name":"asset","inputs":[],"outputs":[{"name":"","type":"address","internalType":"contract ERC20"}],"stateMutability":"view"},{"type":"function","name":"balanceOf","inputs":[{"name":"","type":"address","internalType":"address"}],"outputs":[{"name":"","type":"uint256","internalType":"uint256"}],"stateMutability":"view"},{"type":"function","name":"checkAccountStatus","inputs":[{"name":"account","type":"address","internalType":"address"},{"name":"collaterals","type":"address[]","internalType":"address[]"}],"outputs":[{"name":"magicValue","type":"bytes4","internalType":"bytes4"}],"stateMutability":"view"},{"type":"function","name":"checkVaultStatus","inputs":[],"outputs":[{"name":"magicValue","type":"bytes4","internalType":"bytes4"}],"stateMutability":"nonpayable"},{"type":"function","name":"convertToAssets","inputs":[{"name":"shares","type":"uint256","internalType":"uint256"}],"outputs":[{"name":"","type":"uint256","internalType":"uint256"}],"stateMutability":"view"},{"type":"function","name":"convertToShares","inputs":[{"name":"assets","type":"uint256","internalType":"uint256"}],"outputs":[{"name":"","type":"uint256","internalType":"uint256"}],"stateMutability":"view"},{"type":"function","name":"decimals","inputs":[],"outputs":[{"name":"","type":"uint8","internalType":"uint8"}],"stateMutability":"view"},{"type":"function","name":"deposit","inputs":[{"name":"assets","type":"uint256","internalType":"uint256"},{"name":"receiver","type":"address","internalType":"address"}],"outputs":[{"name":"shares","type":"uint256","internalType":"uint256"}],"stateMutability":"nonpayable"},{"type":"function","name":"disableController","inputs":[],"outputs":[],"stateMutability":"nonpayable"},{"type":"function","name":"maxDeposit","inputs":[{"name":"","type":"address","internalType":"address"}],"outputs":[{"name":"","type":"uint256","internalType":"uint256"}],"stateMutability":"view"},{"type":"function","name":"maxMint","inputs":[{"name":"","type":"address","internalType":"address"}],"outputs":[{"name":"","type":"uint256","internalType":"uint256"}],"stateMutability":"view"},{"type":"function","name":"maxRedeem","inputs":[{"name":"owner","type":"address","internalType":"address"}],"outputs":[{"name":"","type":"uint256","internalType":"uint256"}],"stateMutability":"view"},{"type":"function","name":"maxWithdraw","inputs":[{"name":"owner","type":"address","internalType":"address"}],"outputs":[{"name":"","type":"uint256","internalType":"uint256"}],"stateMutability":"view"},{"type":"function","name":"mint","inputs":[{"name":"shares","type":"uint256","internalType":"uint256"},{"name":"receiver","type":"address","internalType":"address"}],"outputs":[{"name":"assets","type":"uint256","internalType":"uint256"}],"stateMutability":"nonpayable"},{"type":"function","name":"name","inputs":[],"outputs":[{"name":"","type":"string","internalType":"string"}],"stateMutability":"view"},{"type":"function","name":"nonces","inputs":[{"name":"","type":"address","internalType":"address"}],"outputs":[{"name":"","type":"uint256","internalType":"uint256"}],"stateMutability":"view"},{"type":"function","name":"owner","inputs":[],"outputs":[{"name":"","type":"address","internalType":"address"}],"stateMutability":"view"},{"type":"function","name":"permit","inputs":[{"name":"owner","type":"address","internalType":"address"},{"name":"spender","type":"address","internalType":"address"},{"name":"value","type":"uint256","internalType":"uint256"},{"name":"deadline","type":"uint256","internalType":"uint256"},{"name":"v","type":"uint8","internalType":"uint8"},{"name":"r","type":"bytes32","internalType":"bytes32"},{"name":"s","type":"bytes32","internalType":"bytes32"}],"outputs":[],"stateMutability":"nonpayable"},{"type":"function","name":"previewDeposit","inputs":[{"name":"assets","type":"uint256","internalType":"uint256"}],"outputs":[{"name":"","type":"uint256","internalType":"uint256"}],"stateMutability":"view"},{"type":"function","name":"previewMint","inputs":[{"name":"shares","type":"uint256","internalType":"uint256"}],"outputs":[{"name":"","type":"uint256","internalType":"uint256"}],"stateMutability":"view"},{"type":"function","name":"previewRedeem","inputs":[{"name":"shares","type":"uint256","internalType":"uint256"}],"outputs":[{"name":"","type":"uint256","internalType":"uint256"}],"stateMutability":"view"},{"type":"function","name":"previewWithdraw","inputs":[{"name":"assets","type":"uint256","internalType":"uint256"}],"outputs":[{"name":"","type":"uint256","internalType":"uint256"}],"stateMutability":"view"},{"type":"function","name":"redeem","inputs":[{"name":"shares","type":"uint256","internalType":"uint256"},{"name":"receiver","type":"address","internalType":"address"},{"name":"owner","type":"address","internalType":"address"}],"outputs":[{"name":"assets","type":"uint256","internalType":"uint256"}],"stateMutability":"nonpayable"},{"type":"function","name":"setSupplyCap","inputs":[{"name":"newSupplyCap","type":"uint256","internalType":"uint256"}],"outputs":[],"stateMutability":"nonpayable"},{"type":"function","name":"supplyCap","inputs":[],"outputs":[{"name":"","type":"uint256","internalType":"uint256"}],"stateMutability":"view"},{"type":"function","name":"symbol","inputs":[],"outputs":[{"name":"","type":"string","internalType":"string"}],"stateMutability":"view"},{"type":"function","name":"totalAssets","inputs":[],"outputs":[{"name":"","type":"uint256","internalType":"uint256"}],"stateMutability":"view"},{"type":"function","name":"totalSupply","inputs":[],"outputs":[{"name":"","type":"uint256","internalType":"uint256"}],"stateMutability":"view"},{"type":"function","name":"transfer","inputs":[{"name":"to","type":"address","internalType":"address"},{"name":"amount","type":"uint256","internalType":"uint256"}],"outputs":[{"name":"","type":"bool","internalType":"bool"}],"stateMutability":"nonpayable"},{"type":"function","name":"transferFrom","inputs":[{"name":"from","type":"address","internalType":"address"},{"name":"to","type":"address","internalType":"address"},{"name":"amount","type":"uint256","internalType":"uint256"}],"outputs":[{"name":"","type":"bool","internalType":"bool"}],"stateMutability":"nonpayable"},{"type":"function","name":"transferOwnership","inputs":[{"name":"newOwner","type":"address","internalType":"address"}],"outputs":[],"stateMutability":"nonpayable"},{"type":"function","name":"withdraw","inputs":[{"name":"assets","type":"uint256","internalType":"uint256"},{"name":"receiver","type":"address","internalType":"address"},{"name":"owner","type":"address","internalType":"address"}],"outputs":[{"name":"shares","type":"uint256","internalType":"uint256"}],"stateMutability":"nonpayable"},{"type":"event","name":"Approval","inputs":[{"name":"owner","type":"address","indexed":true,"internalType":"address"},{"name":"spender","type":"address","indexed":true,"internalType":"address"},{"name":"amount","type":"uint256","indexed":false,"internalType":"uint256"}],"anonymous":false},{"type":"event","name":"Deposit","inputs":[{"name":"caller","type":"address","indexed":true,"internalType":"address"},{"name":"owner","type":"address","indexed":true,"internalType":"address"},{"name":"assets","type":"uint256","indexed":false,"internalType":"uint256"},{"name":"shares","type":"uint256","indexed":false,"internalType":"uint256"}],"anonymous":false},{"type":"event","name":"OwnershipTransferred","inputs":[{"name":"user","type":"address","indexed":true,"internalType":"address"},{"name":"newOwner","type":"address","indexed":true,"internalType":"address"}],"anonymous":false},{"type":"event","name":"SupplyCapSet","inputs":[{"name":"newSupplyCap","type":"uint256","indexed":false,"internalType":"uint256"}],"anonymous":false},{"type":"event","name":"Transfer","inputs":[{"name":"from","type":"address","indexed":true,"internalType":"address"},{"name":"to","type":"address","indexed":true,"internalType":"address"},{"name":"amount","type":"uint256","indexed":false,"internalType":"uint256"}],"anonymous":false},{"type":"event","name":"Withdraw","inputs":[{"name":"caller","type":"address","indexed":true,"internalType":"address"},{"name":"receiver","type":"address","indexed":true,"internalType":"address"},{"name":"owner","type":"address","indexed":true,"internalType":"address"},{"name":"assets","type":"uint256","indexed":false,"internalType":"uint256"},{"name":"shares","type":"uint256","indexed":false,"internalType":"uint256"}],"anonymous":false},{"type":"error","name":"ControllerDisabled","inputs":[]},{"type":"error","name":"NotAuthorized","inputs":[]},{"type":"error","name":"Reentrancy","inputs":[]},{"type":"error","name":"SharesSeizureFailed","inputs":[]},{"type":"error","name":"SnapshotNotTaken","inputs":[]},{"type":"error","name":"SupplyCapExceeded","inputs":[]}],"bytecode":{"object":"0x6101206040523480156200001257600080fd5b5060405162002b4438038062002b448339810160408190526200003591620002c4565b8282828181846001600160a01b031663313ce5676040518163ffffffff1660e01b8152600401602060405180830381865afa15801562000079573d6000803e3d6000fd5b505050506040513d601f19601f820116820180604052508101906200009f919062000359565b6001600160a01b038a1660805260016000908155600280546001600160a01b03191633908117909155604051909182917f8be0079c531659141344cd1fd0a4f28419497f9722a3daafe3b4186f6b6457e0908290a350600362000103848262000414565b50600462000112838262000414565b5060ff811660a0524660c052620001286200014a565b60e0525050506001600160a01b0390921661010052506200055e945050505050565b60007f8b73c3c69bb8fe3d512ecc4cf759cc79239f7b179b0ffacaa9a75d522b39400f60036040516200017e9190620004e0565b6040805191829003822060208301939093528101919091527fc89efdaa54c0f20c7adf612882df0950f5a951637e0307cdcb4c672f298b8bc660608201524660808201523060a082015260c00160405160208183030381529060405280519060200120905090565b6001600160a01b0381168114620001fc57600080fd5b50565b634e487b7160e01b600052604160045260246000fd5b600082601f8301126200022757600080fd5b81516001600160401b0380821115620002445762000244620001ff565b604051601f8301601f19908116603f011681019082821181831017156200026f576200026f620001ff565b816040528381526020925086838588010111156200028c57600080fd5b600091505b83821015620002b0578582018301518183018401529082019062000291565b600093810190920192909252949350505050565b60008060008060808587031215620002db57600080fd5b8451620002e881620001e6565b6020860151909450620002fb81620001e6565b60408601519093506001600160401b03808211156200031957600080fd5b620003278883890162000215565b935060608701519150808211156200033e57600080fd5b506200034d8782880162000215565b91505092959194509250565b6000602082840312156200036c57600080fd5b815160ff811681146200037e57600080fd5b9392505050565b600181811c908216806200039a57607f821691505b602082108103620003bb57634e487b7160e01b600052602260045260246000fd5b50919050565b601f8211156200040f57600081815260208120601f850160051c81016020861015620003ea5750805b601f850160051c820191505b818110156200040b57828155600101620003f6565b5050505b505050565b81516001600160401b03811115620004305762000430620001ff565b620004488162000441845462000385565b84620003c1565b602080601f831160018114620004805760008415620004675750858301515b600019600386901b1c1916600185901b1785556200040b565b600085815260208120601f198616915b82811015620004b15788860151825594840194600190910190840162000490565b5085821015620004d05787850151600019600388901b60f8161c191681555b5050505050600190811b01905550565b6000808354620004f08162000385565b600182811680156200050b5760018114620005215762000552565b60ff198416875282151583028701945062000552565b8760005260208060002060005b85811015620005495781548a8201529084019082016200052e565b50505082870194505b50929695505050505050565b60805160a05160c05160e0516101005161250e62000636600039600081816102ed01528181610b3a01528181610cb4015281816110c40152611351015260006108be01526000610889015260006102ac015260008181610682015281816107f0015281816108ed0152818161091701528181610a7b01528181610c3801528181610d6501528181610e6501528181610e8f01528181610f58015281816111a70152818161172b0152818161176701528181611866015281816118fb01528181611b7301528181611c050152611c56015261250e6000f3fe608060405234801561001057600080fd5b50600436106102115760003560e01c80638da5cb5b11610125578063ba087652116100ad578063d505accf1161007c578063d505accf1461049c578063d905777e146104af578063dd62ed3e146104d8578063ef8b30f714610503578063f2fde38b1461051657600080fd5b8063ba08765214610463578063c63d75b614610327578063c6e6f59214610476578063ce96cb771461048957600080fd5b8063a9059cbb116100f4578063a9059cbb14610404578063b168c58f14610417578063b3d7f6b91461042a578063b460af941461043d578063b6a3f59a1461045057600080fd5b80638da5cb5b146103cd5780638f770ad0146103e057806394bf804d146103e957806395d89b41146103fc57600080fd5b80633644e515116101a85780634cdad506116101775780634cdad5061461035d5780636e553f651461037057806370a08231146103835780637ecebe00146103a3578063869e50c7146103c357600080fd5b80633644e515146102e057806338d52e0f146102e8578063402d267d146103275780634b3d12231461033c57600080fd5b80630a28a477116101e45780630a28a4771461027857806318160ddd1461028b57806323b872dd14610294578063313ce567146102a757600080fd5b806301e1d1141461021657806306fdde031461022d57806307a2d13a14610242578063095ea7b314610255575b600080fd5b6009545b6040519081526020015b60405180910390f35b610235610529565b6040516102249190611e87565b61021a610250366004611eba565b6105b7565b610268610263366004611ee8565b6105ef565b6040519015158152602001610224565b61021a610286366004611eba565b610669565b61021a60055481565b6102686102a2366004611f14565b610676565b6102ce7f000000000000000000000000000000000000000000000000000000000000000081565b60405160ff9091168152602001610224565b61021a610885565b61030f7f000000000000000000000000000000000000000000000000000000000000000081565b6040516001600160a01b039091168152602001610224565b61021a610335366004611f55565b5060001990565b6103446108e0565b6040516001600160e01b03199091168152602001610224565b61021a61036b366004611eba565b610a62565b61021a61037e366004611f72565b610a6f565b61021a610391366004611f55565b60066020526000908152604090205481565b61021a6103b1366004611f55565b60086020526000908152604090205481565b6103cb610bed565b005b60025461030f906001600160a01b031681565b61021a600a5481565b61021a6103f7366004611f72565b610c2c565b610235610d4c565b610268610412366004611ee8565b610d59565b610344610425366004611fa2565b610e58565b61021a610438366004611eba565b610f3f565b61021a61044b36600461202a565b610f4c565b6103cb61045e366004611eba565b611117565b61021a61047136600461202a565b61119b565b61021a610484366004611eba565b61138a565b61021a610497366004611f55565b6113ba565b6103cb6104aa36600461206c565b6113dc565b61021a6104bd366004611f55565b6001600160a01b031660009081526006602052604090205490565b61021a6104e63660046120e3565b600760209081526000928352604080842090915290825290205481565b61021a610511366004611eba565b611620565b6103cb610524366004611f55565b61162d565b6003805461053690612111565b80601f016020809104026020016040519081016040528092919081815260200182805461056290612111565b80156105af5780601f10610584576101008083540402835291602001916105af565b820191906000526020600020905b81548152906001019060200180831161059257829003601f168201915b505050505081565b60006001600054146105dc5760405163558a1e0360e11b815260040160405180910390fd5b6105e78260006116c2565b90505b919050565b6000806105fa61171e565b6001600160a01b038181166000818152600760209081526040808320948a16808452948252918290208890559051878152939450919290917f8c5be1e5ebec7d5bd14f71427d1e84f3dd0314c0f7b2291e5b200ac8c7c3b925910160405180910390a360019150505b92915050565b60006105e78260016117e0565b60006001600160a01b037f00000000000000000000000000000000000000000000000000000000000000001633036107d6576001600054146106cb5760405163558a1e0360e11b815260040160405180910390fd5b600260009081556106da61171e565b90506106e4611827565b6001600160a01b0380861660009081526007602090815260408083209385168352929052205460001981146107445761071d8482612161565b6001600160a01b038088166000908152600760209081526040808320938716835292905220555b6001600160a01b0386166000908152600660205260408120805486929061076c908490612161565b90915550506001600160a01b03808616600081815260066020526040908190208054880190555190918816906000805160206124b9833981519152906107b59088815260200190565b60405180910390a36107c686611856565b600192505050600160005561087e565b604051631f8b521560e01b81526000906001600160a01b037f00000000000000000000000000000000000000000000000000000000000000001690631f8b52159061082d9030903390869081903690600401612174565b6000604051808303816000875af115801561084c573d6000803e3d6000fd5b505050506040513d6000823e601f3d908101601f1916820160405261087491908101906121de565b9050805181602001f35b9392505050565b60007f000000000000000000000000000000000000000000000000000000000000000046146108bb576108b661195b565b905090565b507f000000000000000000000000000000000000000000000000000000000000000090565b6000336001600160a01b037f00000000000000000000000000000000000000000000000000000000000000001614158061099957507f00000000000000000000000000000000000000000000000000000000000000006001600160a01b031663e21e537c6040518163ffffffff1660e01b8152600401602060405180830381865afa158015610973573d6000803e3d6000fd5b505050506040513d601f19601f82011682018060405250810190610997919061229b565b155b156109b75760405163ea8e4eb560e01b815260040160405180910390fd5b610a4a600180546109c790612111565b80601f01602080910402602001604051908101604052809291908181526020018280546109f390612111565b8015610a405780601f10610a1557610100808354040283529160200191610a40565b820191906000526020600020905b815481529060010190602001808311610a2357829003601f168201915b50505050506119f5565b610a5660016000611e15565b50634b3d122360e01b90565b60006105e78260006116c2565b60006001600160a01b037f00000000000000000000000000000000000000000000000000000000000000001633036107d657600160005414610ac45760405163558a1e0360e11b815260040160405180910390fd5b60026000908155610ad361171e565b9050610add611827565b610ae88460006117e0565b915081600003610b2d5760405162461bcd60e51b815260206004820152600b60248201526a5a45524f5f53484152455360a81b60448201526064015b60405180910390fd5b610b626001600160a01b037f000000000000000000000000000000000000000000000000000000000000000016823087611a82565b8360096000828254610b7491906122b6565b90915550610b8490508383611b17565b826001600160a01b0316816001600160a01b03167fdcbc1c05240f31ff3ad067ef1ee35ce4997762752e3a095284754544f4c709d78685604051610bd2929190918252602082015260400190565b60405180910390a3610be2611b71565b506001600055610663565b600160005414610c105760405163558a1e0360e11b815260040160405180910390fd5b6002600055610c25610c2061171e565b611be6565b6001600055565b60006001600160a01b037f00000000000000000000000000000000000000000000000000000000000000001633036107d657600160005414610c815760405163558a1e0360e11b815260040160405180910390fd5b60026000908155610c9061171e565b9050610c9a611827565b610ca58460016116c2565b9150610cdc6001600160a01b037f000000000000000000000000000000000000000000000000000000000000000016823085611a82565b8160096000828254610cee91906122b6565b90915550610cfe90508385611b17565b826001600160a01b0316816001600160a01b03167fdcbc1c05240f31ff3ad067ef1ee35ce4997762752e3a095284754544f4c709d78487604051610bd2929190918252602082015260400190565b6004805461053690612111565b60006001600160a01b037f00000000000000000000000000000000000000000000000000000000000000001633036107d657600160005414610dae5760405163558a1e0360e11b815260040160405180910390fd5b60026000908155610dbd61171e565b9050610dc7611827565b6001600160a01b03811660009081526006602052604081208054859290610def908490612161565b90915550506001600160a01b03808516600081815260066020526040908190208054870190555190918316906000805160206124b983398151915290610e389087815260200190565b60405180910390a3610e4981611856565b60019150506001600055610663565b6000336001600160a01b037f000000000000000000000000000000000000000000000000000000000000000016141580610f1157507f00000000000000000000000000000000000000000000000000000000000000006001600160a01b031663e21e537c6040518163ffffffff1660e01b8152600401602060405180830381865afa158015610eeb573d6000803e3d6000fd5b505050506040513d601f19601f82011682018060405250810190610f0f919061229b565b155b15610f2f5760405163ea8e4eb560e01b815260040160405180910390fd5b5063b168c58f60e01b9392505050565b60006105e78260016116c2565b60006001600160a01b037f00000000000000000000000000000000000000000000000000000000000000001633036107d657600160005414610fa15760405163558a1e0360e11b815260040160405180910390fd5b60026000908155610fb061171e565b9050610fba611827565b610fc58560016117e0565b9150826001600160a01b0316816001600160a01b031614611042576001600160a01b038084166000908152600760209081526040808320938516835292905220546000198114611040576110198382612161565b6001600160a01b038086166000908152600760209081526040808320938716835292905220555b505b61104b84611c34565b93506110578383611cc3565b826001600160a01b0316846001600160a01b0316826001600160a01b03167ffbde797d201c681b91056529119e0b02407c7bb96a4a2c75c01fc9667232c8db88866040516110af929190918252602082015260400190565b60405180910390a46110eb6001600160a01b037f0000000000000000000000000000000000000000000000000000000000000000168587611d25565b84600960008282546110fd9190612161565b9091555061110c905083611856565b50600160005561087e565b6002546001600160a01b031633146111605760405162461bcd60e51b815260206004820152600c60248201526b15539055551213d49256915160a21b6044820152606401610b24565b600a8190556040518181527fbc585eed6f54aa16ec292be93276937803d5a047ba4eded0c87779270bbfdfe69060200160405180910390a150565b60006001600160a01b037f00000000000000000000000000000000000000000000000000000000000000001633036107d6576001600054146111f05760405163558a1e0360e11b815260040160405180910390fd5b600260009081556111ff61171e565b9050611209611827565b826001600160a01b0316816001600160a01b031614611284576001600160a01b0380841660009081526007602090815260408083209385168352929052205460001981146112825761125b8682612161565b6001600160a01b038086166000908152600760209081526040808320938716835292905220555b505b61128f8560006116c2565b9150816000036112cf5760405162461bcd60e51b815260206004820152600b60248201526a5a45524f5f41535345545360a81b6044820152606401610b24565b6112d884611c34565b93506112e48386611cc3565b826001600160a01b0316846001600160a01b0316826001600160a01b03167ffbde797d201c681b91056529119e0b02407c7bb96a4a2c75c01fc9667232c8db858960405161133c929190918252602082015260400190565b60405180910390a46113786001600160a01b037f0000000000000000000000000000000000000000000000000000000000000000168584611d25565b81600960008282546110fd9190612161565b60006001600054146113af5760405163558a1e0360e11b815260040160405180910390fd5b6105e78260006117e0565b6001600160a01b0381166000908152600660205260408120546105e7906105b7565b4284101561142c5760405162461bcd60e51b815260206004820152601760248201527f5045524d49545f444541444c494e455f455850495245440000000000000000006044820152606401610b24565b60006001611438610885565b6001600160a01b038a811660008181526008602090815260409182902080546001810190915582517f6e71edae12b1b97f4d1f60370fef10105fa2faae0126114a169c64845d6126c98184015280840194909452938d166060840152608083018c905260a083019390935260c08083018b90528151808403909101815260e08301909152805192019190912061190160f01b6101008301526101028201929092526101228101919091526101420160408051601f198184030181528282528051602091820120600084529083018083525260ff871690820152606081018590526080810184905260a0016020604051602081039080840390855afa158015611544573d6000803e3d6000fd5b5050604051601f1901519150506001600160a01b0381161580159061157a5750876001600160a01b0316816001600160a01b0316145b6115b75760405162461bcd60e51b815260206004820152600e60248201526d24a72b20a624a22fa9a4a3a722a960911b6044820152606401610b24565b6001600160a01b0390811660009081526007602090815260408083208a8516808552908352928190208990555188815291928a16917f8c5be1e5ebec7d5bd14f71427d1e84f3dd0314c0f7b2291e5b200ac8c7c3b925910160405180910390a350505050505050565b60006105e78260006117e0565b6002546001600160a01b031633146116765760405162461bcd60e51b815260206004820152600c60248201526b15539055551213d49256915160a21b6044820152606401610b24565b600280546001600160a01b0319166001600160a01b03831690811790915560405133907f8be0079c531659141344cd1fd0a4f28419497f9722a3daafe3b4186f6b6457e090600090a350565b6000816116f6576116f160095460016116db91906122b6565b6005546116e99060016122b6565b859190611da6565b61087e565b61087e600954600161170891906122b6565b6005546117169060016122b6565b859190611dc4565b6000336001600160a01b037f00000000000000000000000000000000000000000000000000000000000000001681036105ea57604051630c281d0f60e11b8152600060048201527f00000000000000000000000000000000000000000000000000000000000000006001600160a01b0316906318503a1e906024016040805180830381865afa1580156117b5573d6000803e3d6000fd5b505050506040513d601f19601f820116820180604052508101906117d991906122c9565b5092915050565b600081611807576116f160055460016117f991906122b6565b6009546116e99060016122b6565b61087e600554600161181991906122b6565b6009546117169060016122b6565b6001805461183490612111565b905060000361185457611845611dea565b600190611852908261234c565b505b565b6001600160a01b0381166118dc577f00000000000000000000000000000000000000000000000000000000000000006001600160a01b031663a37d54af6040518163ffffffff1660e01b8152600401600060405180830381600087803b1580156118bf57600080fd5b505af11580156118d3573d6000803e3d6000fd5b50505050611852565b6040516330f3166760e01b81526001600160a01b0382811660048301527f000000000000000000000000000000000000000000000000000000000000000016906330f31667906024015b600060405180830381600087803b15801561194057600080fd5b505af1158015611954573d6000803e3d6000fd5b5050505050565b60007f8b73c3c69bb8fe3d512ecc4cf759cc79239f7b179b0ffacaa9a75d522b39400f600360405161198d919061240c565b6040805191829003822060208301939093528101919091527fc89efdaa54c0f20c7adf612882df0950f5a951637e0307cdcb4c672f298b8bc660608201524660808201523060a082015260c00160405160208183030381529060405280519060200120905090565b8051600003611a17576040516332e17beb60e21b815260040160405180910390fd5b600081806020019051810190611a2d9190612482565b90506000611a3e60055460006116c2565b9050600a54600014158015611a545750600a5481115b8015611a5f57508181115b15611a7d57604051637ac7b99d60e11b815260040160405180910390fd5b505050565b60006040516323b872dd60e01b81526001600160a01b03851660048201526001600160a01b03841660248201528260448201526020600060648360008a5af13d15601f3d11600160005114161716915050806119545760405162461bcd60e51b81526020600482015260146024820152731514905394d1915497d19493d357d1905253115160621b6044820152606401610b24565b8060056000828254611b2991906122b6565b90915550506001600160a01b0382166000818152600660209081526040808320805486019055518481526000805160206124b983398151915291015b60405180910390a35050565b7f00000000000000000000000000000000000000000000000000000000000000006001600160a01b031663a37d54af6040518163ffffffff1660e01b8152600401600060405180830381600087803b158015611bcc57600080fd5b505af1158015611be0573d6000803e3d6000fd5b50505050565b604051630f4fc35760e41b81526001600160a01b0382811660048301527f0000000000000000000000000000000000000000000000000000000000000000169063f4fc357090602401611926565b60405163110ac5cb60e21b81526001600160a01b0382811660048301526000917f00000000000000000000000000000000000000000000000000000000000000009091169063442b172c90602401602060405180830381865afa925050508015611cbb575060408051601f3d908101601f19168201909252611cb89181019061249b565b60015b6105e7575090565b6001600160a01b03821660009081526006602052604081208054839290611ceb908490612161565b90915550506005805482900390556040518181526000906001600160a01b038416906000805160206124b983398151915290602001611b65565b600060405163a9059cbb60e01b81526001600160a01b0384166004820152826024820152602060006044836000895af13d15601f3d1160016000511416171691505080611be05760405162461bcd60e51b815260206004820152600f60248201526e1514905394d1915497d19052531151608a1b6044820152606401610b24565b6000826000190484118302158202611dbd57600080fd5b5091020490565b6000826000190484118302158202611ddb57600080fd5b50910281810615159190040190565b6060600954604051602001611e0191815260200190565b604051602081830303815290604052905090565b508054611e2190612111565b6000825580601f10611e31575050565b601f01602090049060005260206000209081019061185291905b80821115611e5f5760008155600101611e4b565b5090565b60005b83811015611e7e578181015183820152602001611e66565b50506000910152565b6020815260008251806020840152611ea6816040850160208701611e63565b601f01601f19169190910160400192915050565b600060208284031215611ecc57600080fd5b5035919050565b6001600160a01b038116811461185257600080fd5b60008060408385031215611efb57600080fd5b8235611f0681611ed3565b946020939093013593505050565b600080600060608486031215611f2957600080fd5b8335611f3481611ed3565b92506020840135611f4481611ed3565b929592945050506040919091013590565b600060208284031215611f6757600080fd5b813561087e81611ed3565b60008060408385031215611f8557600080fd5b823591506020830135611f9781611ed3565b809150509250929050565b600080600060408486031215611fb757600080fd5b8335611fc281611ed3565b9250602084013567ffffffffffffffff80821115611fdf57600080fd5b818601915086601f830112611ff357600080fd5b81358181111561200257600080fd5b8760208260051b850101111561201757600080fd5b6020830194508093505050509250925092565b60008060006060848603121561203f57600080fd5b83359250602084013561205181611ed3565b9150604084013561206181611ed3565b809150509250925092565b600080600080600080600060e0888a03121561208757600080fd5b873561209281611ed3565b965060208801356120a281611ed3565b95506040880135945060608801359350608088013560ff811681146120c657600080fd5b9699959850939692959460a0840135945060c09093013592915050565b600080604083850312156120f657600080fd5b823561210181611ed3565b91506020830135611f9781611ed3565b600181811c9082168061212557607f821691505b60208210810361214557634e487b7160e01b600052602260045260246000fd5b50919050565b634e487b7160e01b600052601160045260246000fd5b818103818111156106635761066361214b565b6001600160a01b038681168252851660208201526040810184905260806060820181905281018290526000828460a0840137600060a0848401015260a0601f19601f85011683010190509695505050505050565b634e487b7160e01b600052604160045260246000fd5b6000602082840312156121f057600080fd5b815167ffffffffffffffff8082111561220857600080fd5b818401915084601f83011261221c57600080fd5b81518181111561222e5761222e6121c8565b604051601f8201601f19908116603f01168101908382118183101715612256576122566121c8565b8160405282815287602084870101111561226f57600080fd5b612280836020830160208801611e63565b979650505050505050565b805180151581146105ea57600080fd5b6000602082840312156122ad57600080fd5b61087e8261228b565b808201808211156106635761066361214b565b600080604083850312156122dc57600080fd5b82516122e781611ed3565b91506122f56020840161228b565b90509250929050565b601f821115611a7d57600081815260208120601f850160051c810160208610156123255750805b601f850160051c820191505b8181101561234457828155600101612331565b505050505050565b815167ffffffffffffffff811115612366576123666121c8565b61237a816123748454612111565b846122fe565b602080601f8311600181146123af57600084156123975750858301515b600019600386901b1c1916600185901b178555612344565b600085815260208120601f198616915b828110156123de578886015182559484019460019091019084016123bf565b50858210156123fc5787850151600019600388901b60f8161c191681555b5050505050600190811b01905550565b600080835461241a81612111565b60018281168015612432576001811461244757612476565b60ff1984168752821515830287019450612476565b8760005260208060002060005b8581101561246d5781548a820152908401908201612454565b50505082870194505b50929695505050505050565b60006020828403121561249457600080fd5b5051919050565b6000602082840312156124ad57600080fd5b815161087e81611ed356feddf252ad1be2c89b69c2b068fc378daa952ba7f163c4a11628f55a4df523b3efa2646970667358221220619be0676c20b13e9618fbc889d4303a99ba67adec3d7a2fc80279e637900e5164736f6c63430008140033","linkReferences":{}},"methodIdentifiers":{"DOMAIN_SEPARATOR()":"3644e515","allowance(address,address)":"dd62ed3e","approve(address,uint256)":"095ea7b3","asset()":"38d52e0f","balanceOf(address)":"70a08231","checkAccountStatus(address,address[])":"b168c58f","checkVaultStatus()":"4b3d1223","convertToAssets(uint256)":"07a2d13a","convertToShares(uint256)":"c6e6f592","decimals()":"313ce567","deposit(uint256,address)":"6e553f65","disableController()":"869e50c7","maxDeposit(address)":"402d267d","maxMint(address)":"c63d75b6","maxRedeem(address)":"d905777e","maxWithdraw(address)":"ce96cb77","mint(uint256,address)":"94bf804d","name()":"06fdde03","nonces(address)":"7ecebe00","owner()":"8da5cb5b","permit(address,address,uint256,uint256,uint8,bytes32,bytes32)":"d505accf","previewDeposit(uint256)":"ef8b30f7","previewMint(uint256)":"b3d7f6b9","previewRedeem(uint256)":"4cdad506","previewWithdraw(uint256)":"0a28a477","redeem(uint256,address,address)":"ba087652","setSupplyCap(uint256)":"b6a3f59a","supplyCap()":"8f770ad0","symbol()":"95d89b41","totalAssets()":"01e1d114","totalSupply()":"18160ddd","transfer(address,uint256)":"a9059cbb","transferFrom(address,address,uint256)":"23b872dd","transferOwnership(address)":"f2fde38b","withdraw(uint256,address,address)":"b460af94"},"id":88}