{"abi":[{"type":"constructor","inputs":[{"name":"_evc","type":"address","internalType":"contract IEVC"},{"name":"_asset","type":"address","internalType":"contract ERC20"},{"name":"_irm","type":"address","internalType":"contract IIRM"},{"name":"_oracle","type":"address","internalType":"contract IPriceOracle"},{"name":"_referenceAsset","type":"address","internalType":"contract ERC20"},{"name":"_name","type":"string","internalType":"string"},{"name":"_symbol","type":"string","internalType":"string"}],"stateMutability":"nonpayable"},{"type":"function","name":"DOMAIN_SEPARATOR","inputs":[],"outputs":[{"name":"","type":"bytes32","internalType":"bytes32"}],"stateMutability":"view"},{"type":"function","name":"allowance","inputs":[{"name":"","type":"address","internalType":"address"},{"name":"","type":"address","internalType":"address"}],"outputs":[{"name":"","type":"uint256","internalType":"uint256"}],"stateMutability":"view"},{"type":"function","name":"approve","inputs":[{"name":"spender","type":"address","internalType":"address"},{"name":"amount","type":"uint256","internalType":"uint256"}],"outputs":[{"name":"","type":"bool","internalType":"bool"}],"stateMutability":"nonpayable"},{"type":"function","name":"asset","inputs":[],"outputs":[{"name":"","type":"address","internalType":"contract ERC20"}],"stateMutability":"view"},{"type":"function","name":"balanceOf","inputs":[{"name":"","type":"address","internalType":"address"}],"outputs":[{"name":"","type":"uint256","internalType":"uint256"}],"stateMutability":"view"},{"type":"function","name":"borrow","inputs":[{"name":"assets","type":"uint256","internalType":"uint256"},{"name":"receiver","type":"address","internalType":"address"}],"outputs":[],"stateMutability":"nonpayable"},{"type":"function","name":"borrowCap","inputs":[],"outputs":[{"name":"","type":"uint256","internalType":"uint256"}],"stateMutability":"view"},{"type":"function","name":"checkAccountStatus","inputs":[{"name":"account","type":"address","internalType":"address"},{"name":"collaterals","type":"address[]","internalType":"address[]"}],"outputs":[{"name":"magicValue","type":"bytes4","internalType":"bytes4"}],"stateMutability":"view"},{"type":"function","name":"checkVaultStatus","inputs":[],"outputs":[{"name":"magicValue","type":"bytes4","internalType":"bytes4"}],"stateMutability":"nonpayable"},{"type":"function","name":"convertToAssets","inputs":[{"name":"shares","type":"uint256","internalType":"uint256"}],"outputs":[{"name":"","type":"uint256","internalType":"uint256"}],"stateMutability":"view"},{"type":"function","name":"convertToShares","inputs":[{"name":"assets","type":"uint256","internalType":"uint256"}],"outputs":[{"name":"","type":"uint256","internalType":"uint256"}],"stateMutability":"view"},{"type":"function","name":"debtOf","inputs":[{"name":"account","type":"address","internalType":"address"}],"outputs":[{"name":"","type":"uint256","internalType":"uint256"}],"stateMutability":"view"},{"type":"function","name":"decimals","inputs":[],"outputs":[{"name":"","type":"uint8","internalType":"uint8"}],"stateMutability":"view"},{"type":"function","name":"deposit","inputs":[{"name":"assets","type":"uint256","internalType":"uint256"},{"name":"receiver","type":"address","internalType":"address"}],"outputs":[{"name":"shares","type":"uint256","internalType":"uint256"}],"stateMutability":"nonpayable"},{"type":"function","name":"disableController","inputs":[],"outputs":[],"stateMutability":"nonpayable"},{"type":"function","name":"getAccountLiabilityStatus","inputs":[{"name":"account","type":"address","internalType":"address"}],"outputs":[{"name":"liabilityValue","type":"uint256","internalType":"uint256"},{"name":"collateralValue","type":"uint256","internalType":"uint256"}],"stateMutability":"view"},{"type":"function","name":"getCollateralFactor","inputs":[{"name":"_asset","type":"address","internalType":"address"}],"outputs":[{"name":"","type":"uint256","internalType":"uint256"}],"stateMutability":"view"},{"type":"function","name":"getInterestRate","inputs":[],"outputs":[{"name":"","type":"uint256","internalType":"uint256"}],"stateMutability":"view"},{"type":"function","name":"irm","inputs":[],"outputs":[{"name":"","type":"address","internalType":"contract IIRM"}],"stateMutability":"view"},{"type":"function","name":"liquidate","inputs":[{"name":"violator","type":"address","internalType":"address"},{"name":"collateral","type":"address","internalType":"address"},{"name":"repayAssets","type":"uint256","internalType":"uint256"}],"outputs":[],"stateMutability":"nonpayable"},{"type":"function","name":"maxDeposit","inputs":[{"name":"","type":"address","internalType":"address"}],"outputs":[{"name":"","type":"uint256","internalType":"uint256"}],"stateMutability":"view"},{"type":"function","name":"maxMint","inputs":[{"name":"","type":"address","internalType":"address"}],"outputs":[{"name":"","type":"uint256","internalType":"uint256"}],"stateMutability":"view"},{"type":"function","name":"maxRedeem","inputs":[{"name":"owner","type":"address","internalType":"address"}],"outputs":[{"name":"","type":"uint256","internalType":"uint256"}],"stateMutability":"view"},{"type":"function","name":"maxWithdraw","inputs":[{"name":"owner","type":"address","internalType":"address"}],"outputs":[{"name":"","type":"uint256","internalType":"uint256"}],"stateMutability":"view"},{"type":"function","name":"mint","inputs":[{"name":"shares","type":"uint256","internalType":"uint256"},{"name":"receiver","type":"address","internalType":"address"}],"outputs":[{"name":"assets","type":"uint256","internalType":"uint256"}],"stateMutability":"nonpayable"},{"type":"function","name":"name","inputs":[],"outputs":[{"name":"","type":"string","internalType":"string"}],"stateMutability":"view"},{"type":"function","name":"nonces","inputs":[{"name":"","type":"address","internalType":"address"}],"outputs":[{"name":"","type":"uint256","internalType":"uint256"}],"stateMutability":"view"},{"type":"function","name":"oracle","inputs":[],"outputs":[{"name":"","type":"address","internalType":"contract IPriceOracle"}],"stateMutability":"view"},{"type":"function","name":"owner","inputs":[],"outputs":[{"name":"","type":"address","internalType":"address"}],"stateMutability":"view"},{"type":"function","name":"permit","inputs":[{"name":"owner","type":"address","internalType":"address"},{"name":"spender","type":"address","internalType":"address"},{"name":"value","type":"uint256","internalType":"uint256"},{"name":"deadline","type":"uint256","internalType":"uint256"},{"name":"v","type":"uint8","internalType":"uint8"},{"name":"r","type":"bytes32","internalType":"bytes32"},{"name":"s","type":"bytes32","internalType":"bytes32"}],"outputs":[],"stateMutability":"nonpayable"},{"type":"function","name":"previewDeposit","inputs":[{"name":"assets","type":"uint256","internalType":"uint256"}],"outputs":[{"name":"","type":"uint256","internalType":"uint256"}],"stateMutability":"view"},{"type":"function","name":"previewMint","inputs":[{"name":"shares","type":"uint256","internalType":"uint256"}],"outputs":[{"name":"","type":"uint256","internalType":"uint256"}],"stateMutability":"view"},{"type":"function","name":"previewRedeem","inputs":[{"name":"shares","type":"uint256","internalType":"uint256"}],"outputs":[{"name":"","type":"uint256","internalType":"uint256"}],"stateMutability":"view"},{"type":"function","name":"previewWithdraw","inputs":[{"name":"assets","type":"uint256","internalType":"uint256"}],"outputs":[{"name":"","type":"uint256","internalType":"uint256"}],"stateMutability":"view"},{"type":"function","name":"pullDebt","inputs":[{"name":"from","type":"address","internalType":"address"},{"name":"assets","type":"uint256","internalType":"uint256"}],"outputs":[{"name":"","type":"bool","internalType":"bool"}],"stateMutability":"nonpayable"},{"type":"function","name":"redeem","inputs":[{"name":"shares","type":"uint256","internalType":"uint256"},{"name":"receiver","type":"address","internalType":"address"},{"name":"owner","type":"address","internalType":"address"}],"outputs":[{"name":"assets","type":"uint256","internalType":"uint256"}],"stateMutability":"nonpayable"},{"type":"function","name":"referenceAsset","inputs":[],"outputs":[{"name":"","type":"address","internalType":"contract ERC20"}],"stateMutability":"view"},{"type":"function","name":"repay","inputs":[{"name":"assets","type":"uint256","internalType":"uint256"},{"name":"receiver","type":"address","internalType":"address"}],"outputs":[],"stateMutability":"nonpayable"},{"type":"function","name":"setBorrowCap","inputs":[{"name":"newBorrowCap","type":"uint256","internalType":"uint256"}],"outputs":[],"stateMutability":"nonpayable"},{"type":"function","name":"setCollateralFactor","inputs":[{"name":"_asset","type":"address","internalType":"address"},{"name":"_collateralFactor","type":"uint256","internalType":"uint256"}],"outputs":[],"stateMutability":"nonpayable"},{"type":"function","name":"setIRM","inputs":[{"name":"_irm","type":"address","internalType":"contract IIRM"}],"outputs":[],"stateMutability":"nonpayable"},{"type":"function","name":"setOracle","inputs":[{"name":"_oracle","type":"address","internalType":"contract IPriceOracle"}],"outputs":[],"stateMutability":"nonpayable"},{"type":"function","name":"setReferenceAsset","inputs":[{"name":"_referenceAsset","type":"address","internalType":"contract ERC20"}],"outputs":[],"stateMutability":"nonpayable"},{"type":"function","name":"setSupplyCap","inputs":[{"name":"newSupplyCap","type":"uint256","internalType":"uint256"}],"outputs":[],"stateMutability":"nonpayable"},{"type":"function","name":"supplyCap","inputs":[],"outputs":[{"name":"","type":"uint256","internalType":"uint256"}],"stateMutability":"view"},{"type":"function","name":"symbol","inputs":[],"outputs":[{"name":"","type":"string","internalType":"string"}],"stateMutability":"view"},{"type":"function","name":"totalAssets","inputs":[],"outputs":[{"name":"","type":"uint256","internalType":"uint256"}],"stateMutability":"view"},{"type":"function","name":"totalBorrowed","inputs":[],"outputs":[{"name":"","type":"uint256","internalType":"uint256"}],"stateMutability":"view"},{"type":"function","name":"totalSupply","inputs":[],"outputs":[{"name":"","type":"uint256","internalType":"uint256"}],"stateMutability":"view"},{"type":"function","name":"transfer","inputs":[{"name":"to","type":"address","internalType":"address"},{"name":"amount","type":"uint256","internalType":"uint256"}],"outputs":[{"name":"","type":"bool","internalType":"bool"}],"stateMutability":"nonpayable"},{"type":"function","name":"transferFrom","inputs":[{"name":"from","type":"address","internalType":"address"},{"name":"to","type":"address","internalType":"address"},{"name":"amount","type":"uint256","internalType":"uint256"}],"outputs":[{"name":"","type":"bool","internalType":"bool"}],"stateMutability":"nonpayable"},{"type":"function","name":"transferOwnership","inputs":[{"name":"newOwner","type":"address","internalType":"address"}],"outputs":[],"stateMutability":"nonpayable"},{"type":"function","name":"withdraw","inputs":[{"name":"assets","type":"uint256","internalType":"uint256"},{"name":"receiver","type":"address","internalType":"address"},{"name":"owner","type":"address","internalType":"address"}],"outputs":[{"name":"shares","type":"uint256","internalType":"uint256"}],"stateMutability":"nonpayable"},{"type":"event","name":"Approval","inputs":[{"name":"owner","type":"address","indexed":true,"internalType":"address"},{"name":"spender","type":"address","indexed":true,"internalType":"address"},{"name":"amount","type":"uint256","indexed":false,"internalType":"uint256"}],"anonymous":false},{"type":"event","name":"Borrow","inputs":[{"name":"caller","type":"address","indexed":true,"internalType":"address"},{"name":"owner","type":"address","indexed":true,"internalType":"address"},{"name":"assets","type":"uint256","indexed":false,"internalType":"uint256"}],"anonymous":false},{"type":"event","name":"BorrowCapSet","inputs":[{"name":"newBorrowCap","type":"uint256","indexed":false,"internalType":"uint256"}],"anonymous":false},{"type":"event","name":"Deposit","inputs":[{"name":"caller","type":"address","indexed":true,"internalType":"address"},{"name":"owner","type":"address","indexed":true,"internalType":"address"},{"name":"assets","type":"uint256","indexed":false,"internalType":"uint256"},{"name":"shares","type":"uint256","indexed":false,"internalType":"uint256"}],"anonymous":false},{"type":"event","name":"OwnershipTransferred","inputs":[{"name":"user","type":"address","indexed":true,"internalType":"address"},{"name":"newOwner","type":"address","indexed":true,"internalType":"address"}],"anonymous":false},{"type":"event","name":"Repay","inputs":[{"name":"caller","type":"address","indexed":true,"internalType":"address"},{"name":"receiver","type":"address","indexed":true,"internalType":"address"},{"name":"assets","type":"uint256","indexed":false,"internalType":"uint256"}],"anonymous":false},{"type":"event","name":"SupplyCapSet","inputs":[{"name":"newSupplyCap","type":"uint256","indexed":false,"internalType":"uint256"}],"anonymous":false},{"type":"event","name":"Transfer","inputs":[{"name":"from","type":"address","indexed":true,"internalType":"address"},{"name":"to","type":"address","indexed":true,"internalType":"address"},{"name":"amount","type":"uint256","indexed":false,"internalType":"uint256"}],"anonymous":false},{"type":"event","name":"Withdraw","inputs":[{"name":"caller","type":"address","indexed":true,"internalType":"address"},{"name":"receiver","type":"address","indexed":true,"internalType":"address"},{"name":"owner","type":"address","indexed":true,"internalType":"address"},{"name":"assets","type":"uint256","indexed":false,"internalType":"uint256"},{"name":"shares","type":"uint256","indexed":false,"internalType":"uint256"}],"anonymous":false},{"type":"error","name":"AccountUnhealthy","inputs":[]},{"type":"error","name":"BorrowCapExceeded","inputs":[]},{"type":"error","name":"CollateralDisabled","inputs":[]},{"type":"error","name":"ControllerDisabled","inputs":[]},{"type":"error","name":"InvalidCollateralFactor","inputs":[]},{"type":"error","name":"NoLiquidationOpportunity","inputs":[]},{"type":"error","name":"NotAuthorized","inputs":[]},{"type":"error","name":"OutstandingDebt","inputs":[]},{"type":"error","name":"Reentrancy","inputs":[]},{"type":"error","name":"RepayAssetsExceeded","inputs":[]},{"type":"error","name":"RepayAssetsInsufficient","inputs":[]},{"type":"error","name":"SelfLiquidation","inputs":[]},{"type":"error","name":"SharesSeizureFailed","inputs":[]},{"type":"error","name":"SnapshotNotTaken","inputs":[]},{"type":"error","name":"SupplyCapExceeded","inputs":[]},{"type":"error","name":"VaultStatusCheckDeferred","inputs":[]},{"type":"error","name":"ViolatorStatusCheckDeferred","inputs":[]}],"bytecode":{"object":"0x6101206040523480156200001257600080fd5b5060405162004c1a38038062004c1a833981016040819052620000359162000376565b86868383838383838282828181846001600160a01b031663313ce5676040518163ffffffff1660e01b8152600401602060405180830381865afa15801562000081573d6000803e3d6000fd5b505050506040513d601f19601f82011682018060405250810190620000a791906200044c565b6001600160a01b038a1660805260016000908155600280546001600160a01b03191633908117909155604051909182917f8be0079c531659141344cd1fd0a4f28419497f9722a3daafe3b4186f6b6457e0908290a35060036200010b848262000507565b5060046200011a838262000507565b5060ff811660a0524660c05262000130620001fc565b60e08181525050505050826001600160a01b0316610100816001600160a01b031681525050505050505050505050505084601360006101000a8154816001600160a01b0302191690836001600160a01b0316021790555083601560006101000a8154816001600160a01b0302191690836001600160a01b0316021790555082601460006101000a8154816001600160a01b0302191690836001600160a01b0316021790555042600f819055506b033b2e3c9fd0803ce80000006010819055505050505050505062000651565b60007f8b73c3c69bb8fe3d512ecc4cf759cc79239f7b179b0ffacaa9a75d522b39400f6003604051620002309190620005d3565b6040805191829003822060208301939093528101919091527fc89efdaa54c0f20c7adf612882df0950f5a951637e0307cdcb4c672f298b8bc660608201524660808201523060a082015260c00160405160208183030381529060405280519060200120905090565b6001600160a01b0381168114620002ae57600080fd5b50565b634e487b7160e01b600052604160045260246000fd5b600082601f830112620002d957600080fd5b81516001600160401b0380821115620002f657620002f6620002b1565b604051601f8301601f19908116603f01168101908282118183101715620003215762000321620002b1565b816040528381526020925086838588010111156200033e57600080fd5b600091505b8382101562000362578582018301518183018401529082019062000343565b600093810190920192909252949350505050565b600080600080600080600060e0888a0312156200039257600080fd5b87516200039f8162000298565b6020890151909750620003b28162000298565b6040890151909650620003c58162000298565b6060890151909550620003d88162000298565b6080890151909450620003eb8162000298565b60a08901519093506001600160401b03808211156200040957600080fd5b620004178b838c01620002c7565b935060c08a01519150808211156200042e57600080fd5b506200043d8a828b01620002c7565b91505092959891949750929550565b6000602082840312156200045f57600080fd5b815160ff811681146200047157600080fd5b9392505050565b600181811c908216806200048d57607f821691505b602082108103620004ae57634e487b7160e01b600052602260045260246000fd5b50919050565b601f8211156200050257600081815260208120601f850160051c81016020861015620004dd5750805b601f850160051c820191505b81811015620004fe57828155600101620004e9565b5050505b505050565b81516001600160401b03811115620005235762000523620002b1565b6200053b8162000534845462000478565b84620004b4565b602080601f8311600181146200057357600084156200055a5750858301515b600019600386901b1c1916600185901b178555620004fe565b600085815260208120601f198616915b82811015620005a45788860151825594840194600190910190840162000583565b5085821015620005c35787850151600019600388901b60f8161c191681555b5050505050600190811b01905550565b6000808354620005e38162000478565b60018281168015620005fe5760018114620006145762000645565b60ff198416875282151583028701945062000645565b8760005260208060002060005b858110156200063c5781548a82015290840190820162000621565b50505082870194505b50929695505050505050565b60805160a05160c05160e0516101005161446c620007ae60003960008181610494015281816110a80152818161121a0152818161147a015281816116de015281816119f601528181611c400152818161255601528181612c7a01526138ae01526000610e0001526000610dcb0152600061045301526000818161090501528181610a7301528181610b1201528181610e2f01528181610e5901528181610fae01528181611160015281816113fe0152818161152b015281816116280152818161178c015281816117b60152818161188a01528181611ab40152818161210b0152818161234c015281816123880152818161248d0152818161279b015281816128300152818161289e015281816128d90152818161297a01528181612a2e01528181612ac601528181612f2501528181612f5a015281816130a20152818161326c0152818161342c0152818161354e0152613638015261446c6000f3fe608060405234801561001057600080fd5b50600436106103275760003560e01c80637ecebe00116101b8578063c04f31ff11610104578063d5c05833116100a2578063dd62ed3e1161007c578063dd62ed3e14610726578063ef8b30f714610751578063f2fde38b14610764578063f6145f201461077757600080fd5b8063d5c05833146106ed578063d905777e14610700578063d9fd31e61461071357600080fd5b8063ce96cb77116100de578063ce96cb77146106a1578063d283e75f146106b4578063d4bb0c73146106c7578063d505accf146106da57600080fd5b8063c04f31ff1461067b578063c63d75b6146104b6578063c6e6f5921461068e57600080fd5b8063a9059cbb11610171578063b3d7f6b91161014b578063b3d7f6b91461062f578063b460af9414610642578063b6a3f59a14610655578063ba0876521461066857600080fd5b8063a9059cbb146105f6578063acb7081514610609578063b168c58f1461061c57600080fd5b80637ecebe0014610597578063869e50c7146105b75780638da5cb5b146105bf5780638f770ad0146105d257806394bf804d146105db57806395d89b41146105ee57600080fd5b806338d52e0f116102775780634cdad5061161023057806370a082311161020a57806370a082311461053e578063717186d11461055e5780637adbf973146105715780637dc0d1d01461058457600080fd5b80634cdad506146105105780635257b566146105235780636e553f651461052b57600080fd5b806338d52e0f1461048f578063402d267d146104b657806344d9dca6146104cb5780634b3d1223146104d45780634b3fd148146104f55780634c19386c1461050857600080fd5b80631e610d68116102e457806326c01303116102be57806326c013031461040e57806328e8fe7d14610423578063313ce5671461044e5780633644e5151461048757600080fd5b80631e610d68146103aa57806323617585146103d257806323b872dd146103fb57600080fd5b806301e1d1141461032c57806306fdde031461034357806307a2d13a14610358578063095ea7b31461036b5780630a28a4771461038e57806318160ddd146103a1575b600080fd5b6009545b6040519081526020015b60405180910390f35b61034b61078a565b60405161033a9190613aeb565b610330610366366004613afe565b610818565b61037e610379366004613b2c565b610850565b604051901515815260200161033a565b61033061039c366004613afe565b6108ca565b61033060055481565b6103bd6103b8366004613b58565b6108d7565b6040805192835260208301919091520161033a565b6103306103e0366004613b58565b6001600160a01b031660009081526012602052604090205490565b61037e610409366004613b75565b6108f9565b61042161041c366004613b75565b610b08565b005b601354610436906001600160a01b031681565b6040516001600160a01b03909116815260200161033a565b6104757f000000000000000000000000000000000000000000000000000000000000000081565b60405160ff909116815260200161033a565b610330610dc7565b6104367f000000000000000000000000000000000000000000000000000000000000000081565b6103306104c4366004613b58565b5060001990565b610330600b5481565b6104dc610e22565b6040516001600160e01b0319909116815260200161033a565b610421610503366004613bb6565b610fa4565b6103306110fa565b61033061051e366004613afe565b61110e565b61033061111b565b610330610539366004613bb6565b611154565b61033061054c366004613b58565b60066020526000908152604090205481565b61042161056c366004613afe565b6112cd565b61042161057f366004613b58565b611333565b601554610436906001600160a01b031681565b6103306105a5366004613b58565b60086020526000908152604090205481565b61042161137f565b600254610436906001600160a01b031681565b610330600a5481565b6103306105e9366004613bb6565b6113f2565b61034b611512565b61037e610604366004613b2c565b61151f565b610421610617366004613bb6565b61161e565b6104dc61062a366004613be6565b61177f565b61033061063d366004613afe565b611871565b610330610650366004613c6e565b61187e565b610421610663366004613afe565b611a49565b610330610676366004613c6e565b611aa8565b610421610689366004613b2c565b611c79565b61033061069c366004613afe565b611ce1565b6103306106af366004613b58565b611d11565b6103306106c2366004613b58565b611d55565b6104216106d5366004613b58565b611d60565b6104216106e8366004613cbf565b611dac565b601454610436906001600160a01b031681565b61033061070e366004613b58565b611ff0565b610421610721366004613b58565b612030565b610330610734366004613d30565b600760209081526000928352604080842090915290825290205481565b61033061075f366004613afe565b61207c565b610421610772366004613b58565b612089565b61037e610785366004613b2c565b6120ff565b6003805461079790613d5e565b80601f01602080910402602001604051908101604052809291908181526020018280546107c390613d5e565b80156108105780601f106107e557610100808354040283529160200191610810565b820191906000526020600020905b8154815290600101906020018083116107f357829003601f168201915b505050505081565b600060016000541461083d5760405163558a1e0360e11b815260040160405180910390fd5b6108488260006122c2565b90505b919050565b60008061085b61233f565b6001600160a01b038181166000818152600760209081526040808320948a16808452948252918290208890559051878152939450919290917f8c5be1e5ebec7d5bd14f71427d1e84f3dd0314c0f7b2291e5b200ac8c7c3b925910160405180910390a360019150505b92915050565b6000610848826001612401565b6000806108ee836108e78561246b565b60006124fe565b909590945092505050565b60006001600160a01b037f0000000000000000000000000000000000000000000000000000000000000000163303610a595760016000541461094e5760405163558a1e0360e11b815260040160405180910390fd5b6002600090815561095d61233f565b905061096761275c565b6001600160a01b0380861660009081526007602090815260408083209385168352929052205460001981146109c7576109a08482613da8565b6001600160a01b038088166000908152600760209081526040808320938716835292905220555b6001600160a01b038616600090815260066020526040812080548692906109ef908490613da8565b90915550506001600160a01b038086166000818152600660205260409081902080548801905551909188169060008051602061441783398151915290610a389088815260200190565b60405180910390a3610a498661278b565b6001925050506001600055610b01565b604051631f8b521560e01b81526000906001600160a01b037f00000000000000000000000000000000000000000000000000000000000000001690631f8b521590610ab09030903390869081903690600401613dbb565b6000604051808303816000875af1158015610acf573d6000803e3d6000fd5b505050506040513d6000823e601f3d908101601f19168201604052610af79190810190613e56565b9050805181602001f35b9392505050565b6001600160a01b037f0000000000000000000000000000000000000000000000000000000000000000163303610a5957600160005414610b5b5760405163558a1e0360e11b815260040160405180910390fd5b60026000908155610b6a612890565b9050836001600160a01b0316816001600160a01b031603610b9e576040516344511af160e01b815260040160405180910390fd5b81600003610bbf5760405163270bbe6f60e11b815260040160405180910390fd5b610bc884612a0c565b15610be65760405163c9286d5760e01b815260040160405180910390fd5b610bf08430612a9c565b610c0d576040516359cf0f3760e11b815260040160405180910390fd5b610c1561275c565b6000610c22858585612b34565b9050610c2e8584612ec7565b610c388284612ef1565b846001600160a01b0316826001600160a01b03167f05f2eeda0e08e4b437f487c8d7d29b14537d15e3488170dc3de5dbdf8dac468485604051610c7d91815260200190565b60405180910390a36040518381526001600160a01b0383169081907f312a5e5e1079f5dda4e95dbbd0b908b291fd5b992ef22073643ab691572c5b529060200160405180910390a3306001600160a01b03851603610d9857610cdf8585612efb565b610cfc576040516301716b7360e11b815260040160405180910390fd5b6001600160a01b03851660009081526006602052604081208054839290610d24908490613da8565b90915550506001600160a01b03821660009081526006602052604081208054839290610d51908490613eea565b92505081905550816001600160a01b0316856001600160a01b031660008051602061441783398151915283604051610d8b91815260200190565b60405180910390a3610dad565b610da484868484612f56565b610dad85613083565b610db68261278b565b50506001600055505050565b505050565b60007f00000000000000000000000000000000000000000000000000000000000000004614610dfd57610df86130d1565b905090565b507f000000000000000000000000000000000000000000000000000000000000000090565b6000336001600160a01b037f000000000000000000000000000000000000000000000000000000000000000016141580610edb57507f00000000000000000000000000000000000000000000000000000000000000006001600160a01b031663e21e537c6040518163ffffffff1660e01b8152600401602060405180830381865afa158015610eb5573d6000803e3d6000fd5b505050506040513d601f19601f82011682018060405250810190610ed99190613f0d565b155b15610ef95760405163ea8e4eb560e01b815260040160405180910390fd5b610f8c60018054610f0990613d5e565b80601f0160208091040260200160405190810160405280929190818152602001828054610f3590613d5e565b8015610f825780601f10610f5757610100808354040283529160200191610f82565b820191906000526020600020905b815481529060010190602001808311610f6557829003601f168201915b505050505061316b565b610f9860016000613a4d565b50634b3d122360e01b90565b6001600160a01b037f0000000000000000000000000000000000000000000000000000000000000000163303610a5957600160005414610ff75760405163558a1e0360e11b815260040160405180910390fd5b60026000908155611006612890565b905061101061275c565b826000036110395760405162461bcd60e51b815260040161103090613f28565b60405180910390fd5b6110428261324a565b915061104e8184612ef1565b816001600160a01b0316816001600160a01b03167f312a5e5e1079f5dda4e95dbbd0b908b291fd5b992ef22073643ab691572c5b528560405161109391815260200190565b60405180910390a36110cf6001600160a01b037f00000000000000000000000000000000000000000000000000000000000000001683856132d9565b82600960008282546110e19190613da8565b909155506110f090508161278b565b5060016000555050565b600080611105613360565b50909392505050565b60006108488260006122c2565b60006111263061340a565b1561114457604051634c3c2ae160e01b815260040160405180910390fd5b50600e546001600160601b031690565b60006001600160a01b037f0000000000000000000000000000000000000000000000000000000000000000163303610a59576001600054146111a95760405163558a1e0360e11b815260040160405180910390fd5b600260009081556111b861233f565b90506111c261275c565b6111cd846000612401565b91508160000361120d5760405162461bcd60e51b815260206004820152600b60248201526a5a45524f5f53484152455360a81b6044820152606401611030565b6112426001600160a01b037f00000000000000000000000000000000000000000000000000000000000000001682308761345d565b83600960008282546112549190613eea565b90915550611264905083836134f2565b826001600160a01b0316816001600160a01b03167fdcbc1c05240f31ff3ad067ef1ee35ce4997762752e3a095284754544f4c709d786856040516112b2929190918252602082015260400190565b60405180910390a36112c261354c565b5060016000556108c4565b6002546001600160a01b031633146112f75760405162461bcd60e51b815260040161103090613f4d565b600b8190556040518181527fb250c0149b70b55fb6f80e2b07b256904f2efb28f4bbd4e226049db128ec8a63906020015b60405180910390a150565b6002546001600160a01b0316331461135d5760405162461bcd60e51b815260040161103090613f4d565b601580546001600160a01b0319166001600160a01b0392909216919091179055565b6001600054146113a25760405163558a1e0360e11b815260040160405180910390fd5b600260009081556113b161233f565b90506113bc816135bb565b6000036113d1576113cc81613619565b6113ea565b604051631d2197fd60e31b815260040160405180910390fd5b506001600055565b60006001600160a01b037f0000000000000000000000000000000000000000000000000000000000000000163303610a59576001600054146114475760405163558a1e0360e11b815260040160405180910390fd5b6002600090815561145661233f565b905061146061275c565b61146b8460016122c2565b91506114a26001600160a01b037f00000000000000000000000000000000000000000000000000000000000000001682308561345d565b81600960008282546114b49190613eea565b909155506114c4905083856134f2565b826001600160a01b0316816001600160a01b03167fdcbc1c05240f31ff3ad067ef1ee35ce4997762752e3a095284754544f4c709d784876040516112b2929190918252602082015260400190565b6004805461079790613d5e565b60006001600160a01b037f0000000000000000000000000000000000000000000000000000000000000000163303610a59576001600054146115745760405163558a1e0360e11b815260040160405180910390fd5b6002600090815561158361233f565b905061158d61275c565b6001600160a01b038116600090815260066020526040812080548592906115b5908490613da8565b90915550506001600160a01b0380851660008181526006602052604090819020805487019055519091831690600080516020614417833981519152906115fe9087815260200190565b60405180910390a361160f8161278b565b600191505060016000556108c4565b6001600160a01b037f0000000000000000000000000000000000000000000000000000000000000000163303610a59576001600054146116715760405163558a1e0360e11b815260040160405180910390fd5b6002600090815561168061233f565b905061168c8230612a9c565b6116a9576040516359cf0f3760e11b815260040160405180910390fd5b6116b161275c565b826000036116d15760405162461bcd60e51b815260040161103090613f28565b6117066001600160a01b037f00000000000000000000000000000000000000000000000000000000000000001682308661345d565b82600960008282546117189190613eea565b9091555061172890508284612ec7565b816001600160a01b0316816001600160a01b03167f05f2eeda0e08e4b437f487c8d7d29b14537d15e3488170dc3de5dbdf8dac46848560405161176d91815260200190565b60405180910390a36110f0600061278b565b6000336001600160a01b037f00000000000000000000000000000000000000000000000000000000000000001614158061183857507f00000000000000000000000000000000000000000000000000000000000000006001600160a01b031663e21e537c6040518163ffffffff1660e01b8152600401602060405180830381865afa158015611812573d6000803e3d6000fd5b505050506040513d601f19601f820116820180604052508101906118369190613f0d565b155b156118565760405163ea8e4eb560e01b815260040160405180910390fd5b611861848484613667565b5063b168c58f60e01b9392505050565b60006108488260016122c2565b60006001600160a01b037f0000000000000000000000000000000000000000000000000000000000000000163303610a59576001600054146118d35760405163558a1e0360e11b815260040160405180910390fd5b600260009081556118e261233f565b90506118ec61275c565b6118f7856001612401565b9150826001600160a01b0316816001600160a01b031614611974576001600160a01b0380841660009081526007602090815260408083209385168352929052205460001981146119725761194b8382613da8565b6001600160a01b038086166000908152600760209081526040808320938716835292905220555b505b61197d8461324a565b935061198983836136d0565b826001600160a01b0316846001600160a01b0316826001600160a01b03167ffbde797d201c681b91056529119e0b02407c7bb96a4a2c75c01fc9667232c8db88866040516119e1929190918252602082015260400190565b60405180910390a4611a1d6001600160a01b037f00000000000000000000000000000000000000000000000000000000000000001685876132d9565b8460096000828254611a2f9190613da8565b90915550611a3e90508361278b565b506001600055610b01565b6002546001600160a01b03163314611a735760405162461bcd60e51b815260040161103090613f4d565b600a8190556040518181527fbc585eed6f54aa16ec292be93276937803d5a047ba4eded0c87779270bbfdfe690602001611328565b60006001600160a01b037f0000000000000000000000000000000000000000000000000000000000000000163303610a5957600160005414611afd5760405163558a1e0360e11b815260040160405180910390fd5b60026000908155611b0c61233f565b9050611b1661275c565b826001600160a01b0316816001600160a01b031614611b91576001600160a01b038084166000908152600760209081526040808320938516835292905220546000198114611b8f57611b688682613da8565b6001600160a01b038086166000908152600760209081526040808320938716835292905220555b505b611b9c8560006122c2565b915081600003611bbe5760405162461bcd60e51b815260040161103090613f28565b611bc78461324a565b9350611bd383866136d0565b826001600160a01b0316846001600160a01b0316826001600160a01b03167ffbde797d201c681b91056529119e0b02407c7bb96a4a2c75c01fc9667232c8db8589604051611c2b929190918252602082015260400190565b60405180910390a4611c676001600160a01b037f00000000000000000000000000000000000000000000000000000000000000001685846132d9565b8160096000828254611a2f9190613da8565b6002546001600160a01b03163314611ca35760405162461bcd60e51b815260040161103090613f4d565b6064811115611cc5576040516302f22cad60e61b815260040160405180910390fd5b6001600160a01b03909116600090815260126020526040902055565b6000600160005414611d065760405163558a1e0360e11b815260040160405180910390fd5b610848826000612401565b6009546001600160a01b0382166000908152600660205260408120549091908290611d3c90826122c2565b9050818111611d4b5780611d4d565b815b949350505050565b6000610848826135bb565b6002546001600160a01b03163314611d8a5760405162461bcd60e51b815260040161103090613f4d565b601380546001600160a01b0319166001600160a01b0392909216919091179055565b42841015611dfc5760405162461bcd60e51b815260206004820152601760248201527f5045524d49545f444541444c494e455f455850495245440000000000000000006044820152606401611030565b60006001611e08610dc7565b6001600160a01b038a811660008181526008602090815260409182902080546001810190915582517f6e71edae12b1b97f4d1f60370fef10105fa2faae0126114a169c64845d6126c98184015280840194909452938d166060840152608083018c905260a083019390935260c08083018b90528151808403909101815260e08301909152805192019190912061190160f01b6101008301526101028201929092526101228101919091526101420160408051601f198184030181528282528051602091820120600084529083018083525260ff871690820152606081018590526080810184905260a0016020604051602081039080840390855afa158015611f14573d6000803e3d6000fd5b5050604051601f1901519150506001600160a01b03811615801590611f4a5750876001600160a01b0316816001600160a01b0316145b611f875760405162461bcd60e51b815260206004820152600e60248201526d24a72b20a624a22fa9a4a3a722a960911b6044820152606401611030565b6001600160a01b0390811660009081526007602090815260408083208a8516808552908352928190208990555188815291928a16917f8c5be1e5ebec7d5bd14f71427d1e84f3dd0314c0f7b2291e5b200ac8c7c3b925910160405180910390a350505050505050565b6009546001600160a01b0382166000908152600660205260408120549091908161201a82856122c2565b116120255780611d4d565b611d4d826000612401565b6002546001600160a01b0316331461205a5760405162461bcd60e51b815260040161103090613f4d565b601480546001600160a01b0319166001600160a01b0392909216919091179055565b6000610848826000612401565b6002546001600160a01b031633146120b35760405162461bcd60e51b815260040161103090613f4d565b600280546001600160a01b0319166001600160a01b03831690811790915560405133907f8be0079c531659141344cd1fd0a4f28419497f9722a3daafe3b4186f6b6457e090600090a350565b60006001600160a01b037f0000000000000000000000000000000000000000000000000000000000000000163303610a59576001600054146121545760405163558a1e0360e11b815260040160405180910390fd5b60026000908155612163612890565b905061216f8430612a9c565b61218c576040516359cf0f3760e11b815260040160405180910390fd5b61219461275c565b826000036121d25760405162461bcd60e51b815260206004820152600b60248201526a16915493d7d05353d5539560aa1b6044820152606401611030565b836001600160a01b0316816001600160a01b0316036122245760405162461bcd60e51b815260206004820152600e60248201526d14d1531197d111509517d415531360921b6044820152606401611030565b61222e8484612ec7565b6122388184612ef1565b836001600160a01b0316816001600160a01b03167f05f2eeda0e08e4b437f487c8d7d29b14537d15e3488170dc3de5dbdf8dac46848560405161227d91815260200190565b60405180910390a36040518381526001600160a01b0382169081907f312a5e5e1079f5dda4e95dbbd0b908b291fd5b992ef22073643ab691572c5b52906020016115fe565b6000806122cd613360565b505090508261230d57612308816009546122e79190613eea565b6122f2906001613eea565b600554612300906001613eea565b869190613732565b611d4d565b611d4d8160095461231e9190613eea565b612329906001613eea565b600554612337906001613eea565b869190613750565b6000336001600160a01b037f000000000000000000000000000000000000000000000000000000000000000016810361084b57604051630c281d0f60e11b8152600060048201527f00000000000000000000000000000000000000000000000000000000000000006001600160a01b0316906318503a1e906024016040805180830381865afa1580156123d6573d6000803e3d6000fd5b505050506040513d601f19601f820116820180604052508101906123fa9190613f73565b5092915050565b60008061240c613360565b50509050826124405761230860055460016124279190613eea565b826009546124359190613eea565b612300906001613eea565b611d4d60055460016124529190613eea565b826009546124609190613eea565b612337906001613eea565b6040516352692e8f60e11b81526001600160a01b0382811660048301526060917f00000000000000000000000000000000000000000000000000000000000000009091169063a4d25d1e90602401600060405180830381865afa1580156124d6573d6000803e3d6000fd5b505050506040513d6000823e601f3d908101601f191682016040526108489190810190613fa8565b600080600061250c866135bb565b9250821580156125195750835b1561252c57506000915081905080612753565b82156125d457601554601454604051632b9a19db60e21b8152600481018690526001600160a01b037f000000000000000000000000000000000000000000000000000000000000000081166024830152918216604482015291169063ae68676c90606401602060405180830381865afa1580156125ad573d6000803e3d6000fd5b505050506040513d601f19601f820116820180604052508101906125d1919061405a565b91505b60005b85518110156127515760008682815181106125f4576125f4614073565b6020908102919091018101516001600160a01b03811660009081526012909252604090912054909150801561273e576040516370a0823160e01b81526001600160a01b038a81166004830152600091908416906370a0823190602401602060405180830381865afa15801561266d573d6000803e3d6000fd5b505050506040513d601f19601f82011682018060405250810190612691919061405a565b9050801561273c57601554601454604051632b9a19db60e21b8152600481018490526001600160a01b03868116602483015291821660448201526064928592169063ae68676c908401602060405180830381865afa1580156126f7573d6000803e3d6000fd5b505050506040513d601f19601f8201168201806040525081019061271b919061405a565b6127259190614089565b61272f91906140a0565b6127399086613eea565b94505b505b50508061274a906140c2565b90506125d7565b505b93509350939050565b6001805461276990613d5e565b90506000036127895761277a613776565b6001906127879082614129565b505b565b6001600160a01b038116612811577f00000000000000000000000000000000000000000000000000000000000000006001600160a01b031663a37d54af6040518163ffffffff1660e01b8152600401600060405180830381600087803b1580156127f457600080fd5b505af1158015612808573d6000803e3d6000fd5b50505050612787565b6040516330f3166760e01b81526001600160a01b0382811660048301527f000000000000000000000000000000000000000000000000000000000000000016906330f31667906024015b600060405180830381600087803b15801561287557600080fd5b505af1158015612889573d6000803e3d6000fd5b5050505050565b600033816001600160a01b037f000000000000000000000000000000000000000000000000000000000000000016820361295557604051630c281d0f60e11b81523060048201527f00000000000000000000000000000000000000000000000000000000000000006001600160a01b0316906318503a1e906024016040805180830381865afa158015612927573d6000803e3d6000fd5b505050506040513d601f19601f8201168201806040525081019061294b9190613f73565b90925090506129e8565b6040516311f3f6b160e21b81526001600160a01b0383811660048301523060248301527f000000000000000000000000000000000000000000000000000000000000000016906347cfdac490604401602060405180830381865afa1580156129c1573d6000803e3d6000fd5b505050506040513d601f19601f820116820180604052508101906129e59190613f0d565b90505b80612a06576040516359cf0f3760e11b815260040160405180910390fd5b50919050565b6040516342e5349960e01b81526001600160a01b0382811660048301526000917f0000000000000000000000000000000000000000000000000000000000000000909116906342e53499906024015b602060405180830381865afa158015612a78573d6000803e3d6000fd5b505050506040513d601f19601f820116820180604052508101906108489190613f0d565b6040516311f3f6b160e21b81526001600160a01b03838116600483015282811660248301526000917f0000000000000000000000000000000000000000000000000000000000000000909116906347cfdac4906044015b602060405180830381865afa158015612b10573d6000803e3d6000fd5b505050506040513d601f19601f82011682018060405250810190610b019190613f0d565b6001600160a01b038216600090815260126020526040812054808203612b6d576040516301716b7360e11b815260040160405180910390fd5b6000806000612b8688612b7f8a61246b565b60016124fe565b92509250925082861115612bad57604051636c5b519160e01b815260040160405180910390fd5b818110612bcd5760405163689b2cf360e11b815260040160405180910390fd5b600082612bdb836064614089565b612be591906140a0565b612bf0906064613da8565b90506014811115612bff575060145b60006064612c0d8382613eea565b612c179088614089565b612c2191906140a0565b612c2c90607d613da8565b612c37846064614089565b612c4286607d614089565b612c4c9190613da8565b612c5691906140a0565b601554601454604051632b9a19db60e21b8152600481018c90526001600160a01b037f000000000000000000000000000000000000000000000000000000000000000081166024830152918216604482015292935060009291169063ae68676c90606401602060405180830381865afa158015612cd7573d6000803e3d6000fd5b505050506040513d601f19601f82011682018060405250810190612cfb919061405a565b90508181118015612d155750612d126002866140a0565b82105b15612d3357604051636c5b519160e01b815260040160405180910390fd5b60006064612d418582613eea565b612d4b9084614089565b612d5591906140a0565b905060008b6001600160a01b031663313ce5676040518163ffffffff1660e01b8152600401602060405180830381865afa158015612d97573d6000803e3d6000fd5b505050506040513d601f19601f82011682018060405250810190612dbb91906141e9565b612dc690600a6142ea565b90506000601560009054906101000a90046001600160a01b03166001600160a01b031663ae68676c838f601460009054906101000a90046001600160a01b03166040518463ffffffff1660e01b8152600401612e3e939291909283526001600160a01b03918216602084015216604082015260600190565b602060405180830381865afa158015612e5b573d6000803e3d6000fd5b505050506040513d601f19601f82011682018060405250810190612e7f919061405a565b612e898385614089565b612e9391906140a0565b905080600003612eb65760405163270bbe6f60e11b815260040160405180910390fd5b9d9c50505050505050505050505050565b612ed182826137b8565b506010546001600160a01b03909116600090815260116020526040902055565b612ed18282613809565b6040516313ce2dab60e31b81526001600160a01b03838116600483015282811660248301526000917f000000000000000000000000000000000000000000000000000000000000000090911690639e716d5890604401612af3565b60007f00000000000000000000000000000000000000000000000000000000000000006001600160a01b031663b9b70ff5868660008787604051602401612fb29291906001600160a01b03929092168252602082015260400190565b60408051601f198184030181529181526020820180516001600160e01b031663a9059cbb60e01b1790525160e086901b6001600160e01b0319168152612ffe94939291906004016142f9565b6000604051808303816000875af115801561301d573d6000803e3d6000fd5b505050506040513d6000823e601f3d908101601f191682016040526130459190810190613e56565b90508051600014806130665750808060200190518101906130669190613f0d565b61288957604051631aa7c25160e21b815260040160405180910390fd5b604051630214ea3360e31b81526001600160a01b0382811660048301527f000000000000000000000000000000000000000000000000000000000000000016906310a751989060240161285b565b60007f8b73c3c69bb8fe3d512ecc4cf759cc79239f7b179b0ffacaa9a75d522b39400f60036040516131039190614336565b6040805191829003822060208301939093528101919091527fc89efdaa54c0f20c7adf612882df0950f5a951637e0307cdcb4c672f298b8bc660608201524660808201523060a082015260c00160405160208183030381529060405280519060200120905090565b805160000361318d576040516332e17beb60e21b815260040160405180910390fd5b613195613854565b600080828060200190518101906131ac91906143ac565b600954600c54600a5493955091935091158015906131d45750600a546131d28284613eea565b115b80156131f157506131e58385613eea565b6131ef8284613eea565b115b1561320f57604051637ac7b99d60e11b815260040160405180910390fd5b600b54158015906132215750600b5481115b801561322c57508281115b1561288957604051633bd3544b60e11b815260040160405180910390fd5b60405163110ac5cb60e21b81526001600160a01b0382811660048301526000917f00000000000000000000000000000000000000000000000000000000000000009091169063442b172c90602401602060405180830381865afa9250505080156132d1575060408051601f3d908101601f191682019092526132ce918101906143d0565b60015b610848575090565b600060405163a9059cbb60e01b81526001600160a01b0384166004820152826024820152602060006044836000895af13d15601f3d116001600051141617169150508061335a5760405162461bcd60e51b815260206004820152600f60248201526e1514905394d1915497d19052531151608a1b6044820152606401611030565b50505050565b600080600080600f54426133749190613da8565b600c5460105491925090600083900361339557909590945060009350915050565b600e546000906b033b2e3c9fd0803ce80000009083906133d6906133c39084906001600160601b0316613eea565b876b033b2e3c9fd0803ce800000061395a565b6133e09190614089565b6133ea91906140a0565b905060006133f9848385613750565b989197506001965090945050505050565b6040516319bb1d4f60e31b81526001600160a01b0382811660048301526000917f00000000000000000000000000000000000000000000000000000000000000009091169063cdd8ea7890602401612a5b565b60006040516323b872dd60e01b81526001600160a01b03851660048201526001600160a01b03841660248201528260448201526020600060648360008a5af13d15601f3d11600160005114161716915050806128895760405162461bcd60e51b81526020600482015260146024820152731514905394d1915497d19493d357d1905253115160621b6044820152606401611030565b80600560008282546135049190613eea565b90915550506001600160a01b03821660008181526006602090815260408083208054860190555184815260008051602061441783398151915291015b60405180910390a35050565b7f00000000000000000000000000000000000000000000000000000000000000006001600160a01b031663a37d54af6040518163ffffffff1660e01b8152600401600060405180830381600087803b1580156135a757600080fd5b505af115801561335a573d6000803e3d6000fd5b6001600160a01b0381166000908152600d60205260408120548082036135e45750600092915050565b60006135ee613360565b506001600160a01b038616600090815260116020526040902054909250611d4d915083908390613750565b604051630f4fc35760e41b81526001600160a01b0382811660048301527f0000000000000000000000000000000000000000000000000000000000000000169063f4fc35709060240161285b565b6000806136aa85858580806020026020016040519081016040528093929190818152602001838360200280828437600092019190915250600192506124fe915050565b925092505080821115612889576040516302fb7a9160e31b815260040160405180910390fd5b6001600160a01b038216600090815260066020526040812080548392906136f8908490613da8565b90915550506005805482900390556040518181526000906001600160a01b0384169060008051602061441783398151915290602001613540565b600082600019048411830215820261374957600080fd5b5091020490565b600082600019048411830215820261376757600080fd5b50910281810615159190040190565b60606000613782613a18565b509050600954816040516020016137a3929190918252602082015260400190565b60405160208183030381529060405291505090565b806137c2836135bb565b6137cc9190613da8565b6001600160a01b0383166000908152600d6020526040902055600c54818110156137f7576000613801565b6138018282613da8565b600c55505050565b80613813836135bb565b61381d9190613eea565b6001600160a01b0383166000908152600d6020526040812091909155600c805483929061384b908490613eea565b90915550505050565b600c54600954600090613868908390613eea565b90506000811561388e578161388163ffffffff85614089565b61388b91906140a0565b90505b60135460405163279690b360e11b81523060048201526001600160a01b037f00000000000000000000000000000000000000000000000000000000000000008116602483015263ffffffff8416604483015290911690634f2d2166906064016020604051808303816000875af115801561390c573d6000803e3d6000fd5b505050506040513d601f19601f8201168201806040525081019061393091906143ed565b600e80546bffffffffffffffffffffffff19166001600160601b0392909216919091179055505050565b60008380156139fa5760018416801561397557859250613979565b8392505b508260011c8460011c94505b84156139f4578560801c1561399957600080fd5b858602818101818110156139ac57600080fd5b85900496505060018516156139e95785830283878204146139d25786156139d257600080fd5b818101818110156139e257600080fd5b8590049350505b8460011c9450613985565b50613a10565b838015613a0a5760009250613a0e565b8392505b505b509392505050565b6000806000806000613a28613360565b9250925092508015613a4357600c839055601082905542600f555b5090939092509050565b508054613a5990613d5e565b6000825580601f10613a69575050565b601f01602090049060005260206000209081019061278791905b80821115613a975760008155600101613a83565b5090565b60005b83811015613ab6578181015183820152602001613a9e565b50506000910152565b60008151808452613ad7816020860160208601613a9b565b601f01601f19169290920160200192915050565b602081526000610b016020830184613abf565b600060208284031215613b1057600080fd5b5035919050565b6001600160a01b038116811461278757600080fd5b60008060408385031215613b3f57600080fd5b8235613b4a81613b17565b946020939093013593505050565b600060208284031215613b6a57600080fd5b8135610b0181613b17565b600080600060608486031215613b8a57600080fd5b8335613b9581613b17565b92506020840135613ba581613b17565b929592945050506040919091013590565b60008060408385031215613bc957600080fd5b823591506020830135613bdb81613b17565b809150509250929050565b600080600060408486031215613bfb57600080fd5b8335613c0681613b17565b9250602084013567ffffffffffffffff80821115613c2357600080fd5b818601915086601f830112613c3757600080fd5b813581811115613c4657600080fd5b8760208260051b8501011115613c5b57600080fd5b6020830194508093505050509250925092565b600080600060608486031215613c8357600080fd5b833592506020840135613c9581613b17565b91506040840135613ca581613b17565b809150509250925092565b60ff8116811461278757600080fd5b600080600080600080600060e0888a031215613cda57600080fd5b8735613ce581613b17565b96506020880135613cf581613b17565b955060408801359450606088013593506080880135613d1381613cb0565b9699959850939692959460a0840135945060c09093013592915050565b60008060408385031215613d4357600080fd5b8235613d4e81613b17565b91506020830135613bdb81613b17565b600181811c90821680613d7257607f821691505b602082108103612a0657634e487b7160e01b600052602260045260246000fd5b634e487b7160e01b600052601160045260246000fd5b818103818111156108c4576108c4613d92565b6001600160a01b038681168252851660208201526040810184905260806060820181905281018290526000828460a0840137600060a0848401015260a0601f19601f85011683010190509695505050505050565b634e487b7160e01b600052604160045260246000fd5b604051601f8201601f1916810167ffffffffffffffff81118282101715613e4e57613e4e613e0f565b604052919050565b600060208284031215613e6857600080fd5b815167ffffffffffffffff80821115613e8057600080fd5b818401915084601f830112613e9457600080fd5b815181811115613ea657613ea6613e0f565b613eb9601f8201601f1916602001613e25565b9150808252856020828501011115613ed057600080fd5b613ee1816020840160208601613a9b565b50949350505050565b808201808211156108c4576108c4613d92565b8051801515811461084b57600080fd5b600060208284031215613f1f57600080fd5b610b0182613efd565b6020808252600b908201526a5a45524f5f41535345545360a81b604082015260600190565b6020808252600c908201526b15539055551213d49256915160a21b604082015260600190565b60008060408385031215613f8657600080fd5b8251613f9181613b17565b9150613f9f60208401613efd565b90509250929050565b60006020808385031215613fbb57600080fd5b825167ffffffffffffffff80821115613fd357600080fd5b818501915085601f830112613fe757600080fd5b815181811115613ff957613ff9613e0f565b8060051b915061400a848301613e25565b818152918301840191848101908884111561402457600080fd5b938501935b8385101561404e578451925061403e83613b17565b8282529385019390850190614029565b98975050505050505050565b60006020828403121561406c57600080fd5b5051919050565b634e487b7160e01b600052603260045260246000fd5b80820281158282048414176108c4576108c4613d92565b6000826140bd57634e487b7160e01b600052601260045260246000fd5b500490565b6000600182016140d4576140d4613d92565b5060010190565b601f821115610dc257600081815260208120601f850160051c810160208610156141025750805b601f850160051c820191505b818110156141215782815560010161410e565b505050505050565b815167ffffffffffffffff81111561414357614143613e0f565b614157816141518454613d5e565b846140db565b602080601f83116001811461418c57600084156141745750858301515b600019600386901b1c1916600185901b178555614121565b600085815260208120601f198616915b828110156141bb5788860151825594840194600190910190840161419c565b50858210156141d95787850151600019600388901b60f8161c191681555b5050505050600190811b01905550565b6000602082840312156141fb57600080fd5b8151610b0181613cb0565b600181815b8085111561424157816000190482111561422757614227613d92565b8085161561423457918102915b93841c939080029061420b565b509250929050565b600082614258575060016108c4565b81614265575060006108c4565b816001811461427b5760028114614285576142a1565b60019150506108c4565b60ff84111561429657614296613d92565b50506001821b6108c4565b5060208310610133831016604e8410600b84101617156142c4575081810a6108c4565b6142ce8383614206565b80600019048211156142e2576142e2613d92565b029392505050565b6000610b0160ff841683614249565b6001600160a01b038581168252841660208201526040810183905260806060820181905260009061432c90830184613abf565b9695505050505050565b600080835461434481613d5e565b6001828116801561435c5760018114614371576143a0565b60ff19841687528215158302870194506143a0565b8760005260208060002060005b858110156143975781548a82015290840190820161437e565b50505082870194505b50929695505050505050565b600080604083850312156143bf57600080fd5b505080516020909101519092909150565b6000602082840312156143e257600080fd5b8151610b0181613b17565b6000602082840312156143ff57600080fd5b81516001600160601b0381168114610b0157600080fdfeddf252ad1be2c89b69c2b068fc378daa952ba7f163c4a11628f55a4df523b3efa264697066735822122035fa13390a90db2522a8d33b23cfb57cf0bd0170fbc07f51844bd7f96bb8f87c64736f6c63430008140033","linkReferences":{}},"methodIdentifiers":{"DOMAIN_SEPARATOR()":"3644e515","allowance(address,address)":"dd62ed3e","approve(address,uint256)":"095ea7b3","asset()":"38d52e0f","balanceOf(address)":"70a08231","borrow(uint256,address)":"4b3fd148","borrowCap()":"44d9dca6","checkAccountStatus(address,address[])":"b168c58f","checkVaultStatus()":"4b3d1223","convertToAssets(uint256)":"07a2d13a","convertToShares(uint256)":"c6e6f592","debtOf(address)":"d283e75f","decimals()":"313ce567","deposit(uint256,address)":"6e553f65","disableController()":"869e50c7","getAccountLiabilityStatus(address)":"1e610d68","getCollateralFactor(address)":"23617585","getInterestRate()":"5257b566","irm()":"28e8fe7d","liquidate(address,address,uint256)":"26c01303","maxDeposit(address)":"402d267d","maxMint(address)":"c63d75b6","maxRedeem(address)":"d905777e","maxWithdraw(address)":"ce96cb77","mint(uint256,address)":"94bf804d","name()":"06fdde03","nonces(address)":"7ecebe00","oracle()":"7dc0d1d0","owner()":"8da5cb5b","permit(address,address,uint256,uint256,uint8,bytes32,bytes32)":"d505accf","previewDeposit(uint256)":"ef8b30f7","previewMint(uint256)":"b3d7f6b9","previewRedeem(uint256)":"4cdad506","previewWithdraw(uint256)":"0a28a477","pullDebt(address,uint256)":"f6145f20","redeem(uint256,address,address)":"ba087652","referenceAsset()":"d5c05833","repay(uint256,address)":"acb70815","setBorrowCap(uint256)":"717186d1","setCollateralFactor(address,uint256)":"c04f31ff","setIRM(address)":"d4bb0c73","setOracle(address)":"7adbf973","setReferenceAsset(address)":"d9fd31e6","setSupplyCap(uint256)":"b6a3f59a","supplyCap()":"8f770ad0","symbol()":"95d89b41","totalAssets()":"01e1d114","totalBorrowed()":"4c19386c","totalSupply()":"18160ddd","transfer(address,uint256)":"a9059cbb","transferFrom(address,address,uint256)":"23b872dd","transferOwnership(address)":"f2fde38b","withdraw(uint256,address,address)":"b460af94"},"id":83}