{"abi":[{"type":"constructor","inputs":[{"name":"_evc","type":"address","internalType":"contract IEVC"}],"stateMutability":"nonpayable"},{"type":"function","name":"evc","inputs":[],"outputs":[{"name":"","type":"address","internalType":"contract IEVC"}],"stateMutability":"view"},{"type":"function","name":"withdrawOnBehalf","inputs":[{"name":"vault","type":"address","internalType":"address"},{"name":"onBehalfOfAccount","type":"address","internalType":"address"}],"outputs":[],"stateMutability":"nonpayable"}],"bytecode":{"object":"0x60a060405234801561001057600080fd5b506040516106b63803806106b683398101604081905261002f91610040565b6001600160a01b0316608052610070565b60006020828403121561005257600080fd5b81516001600160a01b038116811461006957600080fd5b9392505050565b60805161061e610098600039600081816040015281816101d5015261029d015261061e6000f3fe608060405234801561001057600080fd5b50600436106100365760003560e01c80630fb411e81461003b578063eb5435331461007e575b600080fd5b6100627f000000000000000000000000000000000000000000000000000000000000000081565b6040516001600160a01b03909116815260200160405180910390f35b61009161008c366004610415565b610093565b005b6000826001600160a01b03166338d52e0f6040518163ffffffff1660e01b8152600401602060405180830381865afa1580156100d3573d6000803e3d6000fd5b505050506040513d601f19601f820116820180604052508101906100f7919061044e565b60405163ce96cb7760e01b81526001600160a01b03848116600483015291925060009185169063ce96cb7790602401602060405180830381865afa158015610143573d6000803e3d6000fd5b505050506040513d601f19601f820116820180604052508101906101679190610472565b9050806000036101775750505050565b60408051602481018390523060448201526001600160a01b0385811660648084019190915283518084039091018152608490920183526020820180516001600160e01b0316632d182be560e21b1790529151631f8b521560e01b81527f000000000000000000000000000000000000000000000000000000000000000090921691631f8b5215916102129188918891600091906004016104af565b6000604051808303816000875af1158015610231573d6000803e3d6000fd5b505050506040513d6000823e601f3d908101601f191682016040526102599190810190610519565b5061027a336102696064846105c6565b6001600160a01b0385169190610378565b60405163110ac5cb60e21b81526001600160a01b038481166004830152610372917f00000000000000000000000000000000000000000000000000000000000000009091169063442b172c90602401602060405180830381865afa1580156102e6573d6000803e3d6000fd5b505050506040513d601f19601f8201168201806040525081019061030a919061044e565b6040516370a0823160e01b81523060048201526001600160a01b038516906370a0823190602401602060405180830381865afa15801561034e573d6000803e3d6000fd5b505050506040513d601f19601f820116820180604052508101906102699190610472565b50505050565b600060405163a9059cbb60e01b81526001600160a01b0384166004820152826024820152602060006044836000895af13d15601f3d11600160005114161716915050806103725760405162461bcd60e51b815260206004820152600f60248201526e1514905394d1915497d19052531151608a1b604482015260640160405180910390fd5b6001600160a01b038116811461041257600080fd5b50565b6000806040838503121561042857600080fd5b8235610433816103fd565b91506020830135610443816103fd565b809150509250929050565b60006020828403121561046057600080fd5b815161046b816103fd565b9392505050565b60006020828403121561048457600080fd5b5051919050565b60005b838110156104a657818101518382015260200161048e565b50506000910152565b600060018060a01b0380871683528086166020840152508360408301526080606083015282518060808401526104ec8160a085016020870161048b565b601f01601f19169190910160a00195945050505050565b634e487b7160e01b600052604160045260246000fd5b60006020828403121561052b57600080fd5b815167ffffffffffffffff8082111561054357600080fd5b818401915084601f83011261055757600080fd5b81518181111561056957610569610503565b604051601f8201601f19908116603f0116810190838211818310171561059157610591610503565b816040528281528760208487010111156105aa57600080fd5b6105bb83602083016020880161048b565b979650505050505050565b6000826105e357634e487b7160e01b600052601260045260246000fd5b50049056fea26469706673582212205463e5576dace2c6fa4f5ee0dfab5b2f31c2df8557b49f77fd978f880ec8e40364736f6c63430008140033","linkReferences":{}},"methodIdentifiers":{"evc()":"0fb411e8","withdrawOnBehalf(address,address)":"eb543533"},"id":75}