{"abi":[{"type":"constructor","inputs":[{"name":"_evc","type":"address","internalType":"contract IEVC"}],"stateMutability":"nonpayable"},{"type":"function","name":"evc","inputs":[],"outputs":[{"name":"","type":"address","internalType":"contract IEVC"}],"stateMutability":"view"},{"type":"function","name":"getEVCUserInfo","inputs":[{"name":"account","type":"address","internalType":"address"}],"outputs":[{"name":"","type":"tuple","internalType":"struct EVCUserInfo","components":[{"name":"account","type":"address","internalType":"address"},{"name":"addressPrefix","type":"bytes19","internalType":"bytes19"},{"name":"owner","type":"address","internalType":"address"},{"name":"enabledControllers","type":"address[]","internalType":"address[]"},{"name":"enabledCollaterals","type":"address[]","internalType":"address[]"}]}],"stateMutability":"view"},{"type":"function","name":"getVaultInfo","inputs":[{"name":"vault","type":"address","internalType":"address"}],"outputs":[{"name":"","type":"tuple","internalType":"struct VaultInfo","components":[{"name":"vault","type":"address","internalType":"address"},{"name":"vaultName","type":"string","internalType":"string"},{"name":"vaultSymbol","type":"string","internalType":"string"},{"name":"vaultDecimals","type":"uint8","internalType":"uint8"},{"name":"asset","type":"address","internalType":"address"},{"name":"assetName","type":"string","internalType":"string"},{"name":"assetSymbol","type":"string","internalType":"string"},{"name":"assetDecimals","type":"uint8","internalType":"uint8"},{"name":"totalShares","type":"uint256","internalType":"uint256"},{"name":"totalAssets","type":"uint256","internalType":"uint256"},{"name":"totalBorrowed","type":"uint256","internalType":"uint256"},{"name":"interestRateSPY","type":"uint256","internalType":"uint256"},{"name":"interestRateAPY","type":"uint256","internalType":"uint256"},{"name":"irm","type":"address","internalType":"address"},{"name":"oracle","type":"address","internalType":"address"}]}],"stateMutability":"view"},{"type":"function","name":"getVaultUserInfo","inputs":[{"name":"account","type":"address","internalType":"address"},{"name":"vault","type":"address","internalType":"address"}],"outputs":[{"name":"","type":"tuple","internalType":"struct VaultUserInfo","components":[{"name":"account","type":"address","internalType":"address"},{"name":"vault","type":"address","internalType":"address"},{"name":"shares","type":"uint256","internalType":"uint256"},{"name":"assets","type":"uint256","internalType":"uint256"},{"name":"borrowed","type":"uint256","internalType":"uint256"},{"name":"liabilityValue","type":"uint256","internalType":"uint256"},{"name":"collateralValue","type":"uint256","internalType":"uint256"},{"name":"isController","type":"bool","internalType":"bool"},{"name":"isCollateral","type":"bool","internalType":"bool"}]}],"stateMutability":"view"}],"bytecode":{"object":"0x60a060405234801561001057600080fd5b5060405161150338038061150383398101604081905261002f91610040565b6001600160a01b0316608052610070565b60006020828403121561005257600080fd5b81516001600160a01b038116811461006957600080fd5b9392505050565b60805161144f6100b46000396000818160560152818161013f015281816101e50152818161028d0152818161032501528181610b590152610bf5015261144f6000f3fe608060405234801561001057600080fd5b506004361061004c5760003560e01c80630fb411e8146100515780632836cf141461009557806390229af7146100b5578063da9a3bed146100d5575b600080fd5b6100787f000000000000000000000000000000000000000000000000000000000000000081565b6040516001600160a01b0390911681526020015b60405180910390f35b6100a86100a3366004610e3b565b6100f5565b60405161008c9190610ea3565b6100c86100c3366004610e3b565b61039d565b60405161008c9190610f66565b6100e86100e33660046110b2565b6108c3565b60405161008c91906110eb565b6040805160a08101825260008082526020820181905281830181905260608083018190526080830152915163110ac5cb60e21b81526001600160a01b0384811660048301529192917f0000000000000000000000000000000000000000000000000000000000000000169063442b172c90602401602060405180830381865afa9250505080156101a2575060408051601f3d908101601f1916820190925261019f91810190611165565b60015b6101ad5750816101b0565b90505b6040805160a0810182526001600160a01b038086168083529251632836c64960e11b81526004810193909352909160208301917f0000000000000000000000000000000000000000000000000000000000000000169063506d8c9290602401602060405180830381865afa15801561022c573d6000803e3d6000fd5b505050506040513d601f19601f820116820180604052508101906102509190611182565b6cffffffffffffffffffffffffff191681526001600160a01b0380841660208301526040805163fd6046d760e01b815287831660048201529201917f00000000000000000000000000000000000000000000000000000000000000009091169063fd6046d790602401600060405180830381865afa1580156102d6573d6000803e3d6000fd5b505050506040513d6000823e601f3d908101601f191682016040526102fe91908101906111f9565b81526040516352692e8f60e11b81526001600160a01b0386811660048301526020909201917f0000000000000000000000000000000000000000000000000000000000000000169063a4d25d1e90602401600060405180830381865afa15801561036c573d6000803e3d6000fd5b505050506040513d6000823e601f3d908101601f1916820160405261039491908101906111f9565b90529392505050565b610440604051806101e0016040528060006001600160a01b031681526020016060815260200160608152602001600060ff16815260200160006001600160a01b031681526020016060815260200160608152602001600060ff168152602001600081526020016000815260200160008152602001600081526020016000815260200160006001600160a01b0316815260200160006001600160a01b031681525090565b6000826001600160a01b03166338d52e0f6040518163ffffffff1660e01b8152600401602060405180830381865afa158015610480573d6000803e3d6000fd5b505050506040513d601f19601f820116820180604052508101906104a49190611165565b90506000836001600160a01b0316635257b5666040518163ffffffff1660e01b8152600401602060405180830381865afa1580156104e6573d6000803e3d6000fd5b505050506040513d601f19601f8201168201806040525081019061050a91906112ab565b9050604051806101e00160405280856001600160a01b03168152602001610538866306fdde0360e01b610c70565b815260200161054e866395d89b4160e01b610c70565b8152602001856001600160a01b031663313ce5676040518163ffffffff1660e01b8152600401602060405180830381865afa158015610591573d6000803e3d6000fd5b505050506040513d601f19601f820116820180604052508101906105b591906112c4565b60ff1681526001600160a01b03841660208201526040016105dd846306fdde0360e01b610c70565b81526020016105f3846395d89b4160e01b610c70565b8152602001836001600160a01b031663313ce5676040518163ffffffff1660e01b8152600401602060405180830381865afa158015610636573d6000803e3d6000fd5b505050506040513d601f19601f8201168201806040525081019061065a91906112c4565b60ff168152602001856001600160a01b03166318160ddd6040518163ffffffff1660e01b8152600401602060405180830381865afa1580156106a0573d6000803e3d6000fd5b505050506040513d601f19601f820116820180604052508101906106c491906112ab565b8152602001856001600160a01b03166301e1d1146040518163ffffffff1660e01b8152600401602060405180830381865afa158015610707573d6000803e3d6000fd5b505050506040513d601f19601f8201168201806040525081019061072b91906112ab565b8152602001856001600160a01b0316634c19386c6040518163ffffffff1660e01b8152600401602060405180830381865afa15801561076e573d6000803e3d6000fd5b505050506040513d601f19601f8201168201806040525081019061079291906112ab565b8152602081018390526040016b033b2e3c9fd0803ce80000006107cf6107b885836112fd565b6301e185586b033b2e3c9fd0803ce8000000610d65565b6107d99190611310565b8152602001856001600160a01b03166328e8fe7d6040518163ffffffff1660e01b8152600401602060405180830381865afa15801561081c573d6000803e3d6000fd5b505050506040513d601f19601f820116820180604052508101906108409190611165565b6001600160a01b03168152602001856001600160a01b0316637dc0d1d06040518163ffffffff1660e01b8152600401602060405180830381865afa15801561088c573d6000803e3d6000fd5b505050506040513d601f19601f820116820180604052508101906108b09190611165565b6001600160a01b03169052949350505050565b61092860405180610120016040528060006001600160a01b0316815260200160006001600160a01b0316815260200160008152602001600081526020016000815260200160008152602001600081526020016000151581526020016000151581525090565b6040516370a0823160e01b81526001600160a01b038481166004830152600091908416906370a0823190602401602060405180830381865afa158015610972573d6000803e3d6000fd5b505050506040513d601f19601f8201168201806040525081019061099691906112ab565b6040516303cc21ad60e31b81526001600160a01b038681166004830152919250600091829190861690631e610d68906024016040805180830381865afa1580156109e4573d6000803e3d6000fd5b505050506040513d601f19601f82011682018060405250810190610a089190611323565b91509150604051806101200160405280876001600160a01b03168152602001866001600160a01b03168152602001848152602001866001600160a01b03166307a2d13a866040518263ffffffff1660e01b8152600401610a6a91815260200190565b602060405180830381865afa158015610a87573d6000803e3d6000fd5b505050506040513d601f19601f82011682018060405250810190610aab91906112ab565b815260405163d283e75f60e01b81526001600160a01b03898116600483015260209092019188169063d283e75f90602401602060405180830381865afa158015610af9573d6000803e3d6000fd5b505050506040513d601f19601f82011682018060405250810190610b1d91906112ab565b8152602081018490526040808201849052516311f3f6b160e21b81526001600160a01b03898116600483015288811660248301526060909201917f000000000000000000000000000000000000000000000000000000000000000016906347cfdac490604401602060405180830381865afa158015610ba0573d6000803e3d6000fd5b505050506040513d601f19601f82011682018060405250810190610bc49190611347565b151581526040516313ce2dab60e31b81526001600160a01b03898116600483015288811660248301526020909201917f00000000000000000000000000000000000000000000000000000000000000001690639e716d5890604401602060405180830381865afa158015610c3c573d6000803e3d6000fd5b505050506040513d601f19601f82011682018060405250810190610c609190611347565b1515905293505050505b92915050565b60408051600481526024810182526020810180516001600160e01b03166001600160e01b03198516179052905160609160009182916001600160a01b03871691610cba9190611369565b600060405180830381855afa9150503d8060008114610cf5576040519150601f19603f3d011682016040523d82523d6000602084013e610cfa565b606091505b509150915081610d195760405180602001604052806000815250610d5c565b8051602014610d3b5780806020019051810190610d369190611385565b610d5c565b80604051602001610d4c9190611369565b6040516020818303038152906040525b95945050505050565b6000838015610e0557600184168015610d8057859250610d84565b8392505b508260011c8460011c94505b8415610dff578560801c15610da457600080fd5b85860281810181811015610db757600080fd5b8590049650506001851615610df4578583028387820414610ddd578615610ddd57600080fd5b81810181811015610ded57600080fd5b8590049350505b8460011c9450610d90565b50610e1b565b838015610e155760009250610e19565b8392505b505b509392505050565b6001600160a01b0381168114610e3857600080fd5b50565b600060208284031215610e4d57600080fd5b8135610e5881610e23565b9392505050565b600081518084526020808501945080840160005b83811015610e985781516001600160a01b031687529582019590820190600101610e73565b509495945050505050565b60208152600060018060a01b038084511660208401526cffffffffffffffffffffffffff19602085015116604084015280604085015116606084015250606083015160a06080840152610ef960c0840182610e5f565b90506080840151601f198483030160a0850152610d5c8282610e5f565b60005b83811015610f31578181015183820152602001610f19565b50506000910152565b60008151808452610f52816020860160208601610f16565b601f01601f19169290920160200192915050565b60208152610f806020820183516001600160a01b03169052565b600060208301516101e0806040850152610f9e610200850183610f3a565b91506040850151601f1980868503016060870152610fbc8483610f3a565b935060608701519150610fd4608087018360ff169052565b60808701516001600160a01b03811660a0880152915060a08701519150808685030160c08701526110058483610f3a565b935060c08701519150808685030160e0870152506110238382610f3a565b92505060e085015161010061103c8187018360ff169052565b860151610120868101919091528601516101408087019190915286015161016080870191909152860151610180808701919091528601516101a08087019190915286015190506101c0611099818701836001600160a01b03169052565b909501516001600160a01b031693019290925250919050565b600080604083850312156110c557600080fd5b82356110d081610e23565b915060208301356110e081610e23565b809150509250929050565b60006101208201905060018060a01b038084511683528060208501511660208401525060408301516040830152606083015160608301526080830151608083015260a083015160a083015260c083015160c083015260e083015161115360e084018215159052565b50610100928301511515919092015290565b60006020828403121561117757600080fd5b8151610e5881610e23565b60006020828403121561119457600080fd5b81516cffffffffffffffffffffffffff1981168114610e5857600080fd5b634e487b7160e01b600052604160045260246000fd5b604051601f8201601f1916810167ffffffffffffffff811182821017156111f1576111f16111b2565b604052919050565b6000602080838503121561120c57600080fd5b825167ffffffffffffffff8082111561122457600080fd5b818501915085601f83011261123857600080fd5b81518181111561124a5761124a6111b2565b8060051b915061125b8483016111c8565b818152918301840191848101908884111561127557600080fd5b938501935b8385101561129f578451925061128f83610e23565b828252938501939085019061127a565b98975050505050505050565b6000602082840312156112bd57600080fd5b5051919050565b6000602082840312156112d657600080fd5b815160ff81168114610e5857600080fd5b634e487b7160e01b600052601160045260246000fd5b80820180821115610c6a57610c6a6112e7565b81810381811115610c6a57610c6a6112e7565b6000806040838503121561133657600080fd5b505080516020909101519092909150565b60006020828403121561135957600080fd5b81518015158114610e5857600080fd5b6000825161137b818460208701610f16565b9190910192915050565b60006020828403121561139757600080fd5b815167ffffffffffffffff808211156113af57600080fd5b818401915084601f8301126113c357600080fd5b8151818111156113d5576113d56111b2565b6113e8601f8201601f19166020016111c8565b91508082528560208285010111156113ff57600080fd5b611410816020840160208601610f16565b5094935050505056fea26469706673582212208b6fda3db1a9da33e866abdabcd0cd0589aafb7a659aa08d3623b793e75c9c7464736f6c63430008140033","linkReferences":{}},"methodIdentifiers":{"evc()":"0fb411e8","getEVCUserInfo(address)":"2836cf14","getVaultInfo(address)":"90229af7","getVaultUserInfo(address,address)":"da9a3bed"},"id":86}