{"abi":[{"type":"constructor","inputs":[{"name":"_evc","type":"address","internalType":"contract IEVC"},{"name":"_asset","type":"address","internalType":"contract IERC20"},{"name":"_irm","type":"address","internalType":"contract IIRM"},{"name":"_oracle","type":"address","internalType":"contract IPriceOracle"},{"name":"_referenceAsset","type":"address","internalType":"contract ERC20"},{"name":"_name","type":"string","internalType":"string"},{"name":"_symbol","type":"string","internalType":"string"}],"stateMutability":"nonpayable"},{"type":"function","name":"allowance","inputs":[{"name":"owner","type":"address","internalType":"address"},{"name":"spender","type":"address","internalType":"address"}],"outputs":[{"name":"","type":"uint256","internalType":"uint256"}],"stateMutability":"view"},{"type":"function","name":"approve","inputs":[{"name":"spender","type":"address","internalType":"address"},{"name":"value","type":"uint256","internalType":"uint256"}],"outputs":[{"name":"","type":"bool","internalType":"bool"}],"stateMutability":"nonpayable"},{"type":"function","name":"asset","inputs":[],"outputs":[{"name":"","type":"address","internalType":"address"}],"stateMutability":"view"},{"type":"function","name":"balanceOf","inputs":[{"name":"account","type":"address","internalType":"address"}],"outputs":[{"name":"","type":"uint256","internalType":"uint256"}],"stateMutability":"view"},{"type":"function","name":"borrow","inputs":[{"name":"assets","type":"uint256","internalType":"uint256"},{"name":"receiver","type":"address","internalType":"address"}],"outputs":[],"stateMutability":"nonpayable"},{"type":"function","name":"borrowCap","inputs":[],"outputs":[{"name":"","type":"uint256","internalType":"uint256"}],"stateMutability":"view"},{"type":"function","name":"checkAccountStatus","inputs":[{"name":"account","type":"address","internalType":"address"},{"name":"collaterals","type":"address[]","internalType":"address[]"}],"outputs":[{"name":"magicValue","type":"bytes4","internalType":"bytes4"}],"stateMutability":"view"},{"type":"function","name":"checkVaultStatus","inputs":[],"outputs":[{"name":"magicValue","type":"bytes4","internalType":"bytes4"}],"stateMutability":"nonpayable"},{"type":"function","name":"convertToAssets","inputs":[{"name":"shares","type":"uint256","internalType":"uint256"}],"outputs":[{"name":"","type":"uint256","internalType":"uint256"}],"stateMutability":"view"},{"type":"function","name":"convertToShares","inputs":[{"name":"assets","type":"uint256","internalType":"uint256"}],"outputs":[{"name":"","type":"uint256","internalType":"uint256"}],"stateMutability":"view"},{"type":"function","name":"debtOf","inputs":[{"name":"account","type":"address","internalType":"address"}],"outputs":[{"name":"","type":"uint256","internalType":"uint256"}],"stateMutability":"view"},{"type":"function","name":"decimals","inputs":[],"outputs":[{"name":"","type":"uint8","internalType":"uint8"}],"stateMutability":"view"},{"type":"function","name":"deposit","inputs":[{"name":"assets","type":"uint256","internalType":"uint256"},{"name":"receiver","type":"address","internalType":"address"}],"outputs":[{"name":"shares","type":"uint256","internalType":"uint256"}],"stateMutability":"nonpayable"},{"type":"function","name":"disableController","inputs":[],"outputs":[],"stateMutability":"nonpayable"},{"type":"function","name":"getAccountLiabilityStatus","inputs":[{"name":"account","type":"address","internalType":"address"}],"outputs":[{"name":"liabilityValue","type":"uint256","internalType":"uint256"},{"name":"collateralValue","type":"uint256","internalType":"uint256"}],"stateMutability":"view"},{"type":"function","name":"getCollateralFactor","inputs":[{"name":"_asset","type":"address","internalType":"address"}],"outputs":[{"name":"","type":"uint256","internalType":"uint256"}],"stateMutability":"view"},{"type":"function","name":"getInterestRate","inputs":[],"outputs":[{"name":"","type":"uint256","internalType":"uint256"}],"stateMutability":"view"},{"type":"function","name":"irm","inputs":[],"outputs":[{"name":"","type":"address","internalType":"contract IIRM"}],"stateMutability":"view"},{"type":"function","name":"liquidate","inputs":[{"name":"violator","type":"address","internalType":"address"},{"name":"collateral","type":"address","internalType":"address"},{"name":"repayAssets","type":"uint256","internalType":"uint256"}],"outputs":[],"stateMutability":"nonpayable"},{"type":"function","name":"maxDeposit","inputs":[{"name":"","type":"address","internalType":"address"}],"outputs":[{"name":"","type":"uint256","internalType":"uint256"}],"stateMutability":"view"},{"type":"function","name":"maxMint","inputs":[{"name":"","type":"address","internalType":"address"}],"outputs":[{"name":"","type":"uint256","internalType":"uint256"}],"stateMutability":"view"},{"type":"function","name":"maxRedeem","inputs":[{"name":"owner","type":"address","internalType":"address"}],"outputs":[{"name":"","type":"uint256","internalType":"uint256"}],"stateMutability":"view"},{"type":"function","name":"maxWithdraw","inputs":[{"name":"owner","type":"address","internalType":"address"}],"outputs":[{"name":"","type":"uint256","internalType":"uint256"}],"stateMutability":"view"},{"type":"function","name":"mint","inputs":[{"name":"shares","type":"uint256","internalType":"uint256"},{"name":"receiver","type":"address","internalType":"address"}],"outputs":[{"name":"assets","type":"uint256","internalType":"uint256"}],"stateMutability":"nonpayable"},{"type":"function","name":"name","inputs":[],"outputs":[{"name":"","type":"string","internalType":"string"}],"stateMutability":"view"},{"type":"function","name":"oracle","inputs":[],"outputs":[{"name":"","type":"address","internalType":"contract IPriceOracle"}],"stateMutability":"view"},{"type":"function","name":"owner","inputs":[],"outputs":[{"name":"","type":"address","internalType":"address"}],"stateMutability":"view"},{"type":"function","name":"previewDeposit","inputs":[{"name":"assets","type":"uint256","internalType":"uint256"}],"outputs":[{"name":"","type":"uint256","internalType":"uint256"}],"stateMutability":"view"},{"type":"function","name":"previewMint","inputs":[{"name":"shares","type":"uint256","internalType":"uint256"}],"outputs":[{"name":"","type":"uint256","internalType":"uint256"}],"stateMutability":"view"},{"type":"function","name":"previewRedeem","inputs":[{"name":"shares","type":"uint256","internalType":"uint256"}],"outputs":[{"name":"","type":"uint256","internalType":"uint256"}],"stateMutability":"view"},{"type":"function","name":"previewWithdraw","inputs":[{"name":"assets","type":"uint256","internalType":"uint256"}],"outputs":[{"name":"","type":"uint256","internalType":"uint256"}],"stateMutability":"view"},{"type":"function","name":"pullDebt","inputs":[{"name":"from","type":"address","internalType":"address"},{"name":"assets","type":"uint256","internalType":"uint256"}],"outputs":[{"name":"","type":"bool","internalType":"bool"}],"stateMutability":"nonpayable"},{"type":"function","name":"redeem","inputs":[{"name":"shares","type":"uint256","internalType":"uint256"},{"name":"receiver","type":"address","internalType":"address"},{"name":"owner","type":"address","internalType":"address"}],"outputs":[{"name":"assets","type":"uint256","internalType":"uint256"}],"stateMutability":"nonpayable"},{"type":"function","name":"referenceAsset","inputs":[],"outputs":[{"name":"","type":"address","internalType":"contract ERC20"}],"stateMutability":"view"},{"type":"function","name":"renounceOwnership","inputs":[],"outputs":[],"stateMutability":"nonpayable"},{"type":"function","name":"repay","inputs":[{"name":"assets","type":"uint256","internalType":"uint256"},{"name":"receiver","type":"address","internalType":"address"}],"outputs":[],"stateMutability":"nonpayable"},{"type":"function","name":"setBorrowCap","inputs":[{"name":"newBorrowCap","type":"uint256","internalType":"uint256"}],"outputs":[],"stateMutability":"nonpayable"},{"type":"function","name":"setCollateralFactor","inputs":[{"name":"_asset","type":"address","internalType":"address"},{"name":"_collateralFactor","type":"uint256","internalType":"uint256"}],"outputs":[],"stateMutability":"nonpayable"},{"type":"function","name":"setIRM","inputs":[{"name":"_irm","type":"address","internalType":"contract IIRM"}],"outputs":[],"stateMutability":"nonpayable"},{"type":"function","name":"setOracle","inputs":[{"name":"_oracle","type":"address","internalType":"contract IPriceOracle"}],"outputs":[],"stateMutability":"nonpayable"},{"type":"function","name":"setReferenceAsset","inputs":[{"name":"_referenceAsset","type":"address","internalType":"contract ERC20"}],"outputs":[],"stateMutability":"nonpayable"},{"type":"function","name":"setSupplyCap","inputs":[{"name":"newSupplyCap","type":"uint256","internalType":"uint256"}],"outputs":[],"stateMutability":"nonpayable"},{"type":"function","name":"supplyCap","inputs":[],"outputs":[{"name":"","type":"uint256","internalType":"uint256"}],"stateMutability":"view"},{"type":"function","name":"symbol","inputs":[],"outputs":[{"name":"","type":"string","internalType":"string"}],"stateMutability":"view"},{"type":"function","name":"totalAssets","inputs":[],"outputs":[{"name":"","type":"uint256","internalType":"uint256"}],"stateMutability":"view"},{"type":"function","name":"totalBorrowed","inputs":[],"outputs":[{"name":"","type":"uint256","internalType":"uint256"}],"stateMutability":"view"},{"type":"function","name":"totalSupply","inputs":[],"outputs":[{"name":"","type":"uint256","internalType":"uint256"}],"stateMutability":"view"},{"type":"function","name":"transfer","inputs":[{"name":"to","type":"address","internalType":"address"},{"name":"amount","type":"uint256","internalType":"uint256"}],"outputs":[{"name":"","type":"bool","internalType":"bool"}],"stateMutability":"nonpayable"},{"type":"function","name":"transferFrom","inputs":[{"name":"from","type":"address","internalType":"address"},{"name":"to","type":"address","internalType":"address"},{"name":"amount","type":"uint256","internalType":"uint256"}],"outputs":[{"name":"","type":"bool","internalType":"bool"}],"stateMutability":"nonpayable"},{"type":"function","name":"transferOwnership","inputs":[{"name":"newOwner","type":"address","internalType":"address"}],"outputs":[],"stateMutability":"nonpayable"},{"type":"function","name":"withdraw","inputs":[{"name":"assets","type":"uint256","internalType":"uint256"},{"name":"receiver","type":"address","internalType":"address"},{"name":"owner","type":"address","internalType":"address"}],"outputs":[{"name":"shares","type":"uint256","internalType":"uint256"}],"stateMutability":"nonpayable"},{"type":"event","name":"Approval","inputs":[{"name":"owner","type":"address","indexed":true,"internalType":"address"},{"name":"spender","type":"address","indexed":true,"internalType":"address"},{"name":"value","type":"uint256","indexed":false,"internalType":"uint256"}],"anonymous":false},{"type":"event","name":"Borrow","inputs":[{"name":"caller","type":"address","indexed":true,"internalType":"address"},{"name":"owner","type":"address","indexed":true,"internalType":"address"},{"name":"assets","type":"uint256","indexed":false,"internalType":"uint256"}],"anonymous":false},{"type":"event","name":"BorrowCapSet","inputs":[{"name":"newBorrowCap","type":"uint256","indexed":false,"internalType":"uint256"}],"anonymous":false},{"type":"event","name":"Deposit","inputs":[{"name":"sender","type":"address","indexed":true,"internalType":"address"},{"name":"owner","type":"address","indexed":true,"internalType":"address"},{"name":"assets","type":"uint256","indexed":false,"internalType":"uint256"},{"name":"shares","type":"uint256","indexed":false,"internalType":"uint256"}],"anonymous":false},{"type":"event","name":"OwnershipTransferred","inputs":[{"name":"previousOwner","type":"address","indexed":true,"internalType":"address"},{"name":"newOwner","type":"address","indexed":true,"internalType":"address"}],"anonymous":false},{"type":"event","name":"Repay","inputs":[{"name":"caller","type":"address","indexed":true,"internalType":"address"},{"name":"receiver","type":"address","indexed":true,"internalType":"address"},{"name":"assets","type":"uint256","indexed":false,"internalType":"uint256"}],"anonymous":false},{"type":"event","name":"SupplyCapSet","inputs":[{"name":"newSupplyCap","type":"uint256","indexed":false,"internalType":"uint256"}],"anonymous":false},{"type":"event","name":"Transfer","inputs":[{"name":"from","type":"address","indexed":true,"internalType":"address"},{"name":"to","type":"address","indexed":true,"internalType":"address"},{"name":"value","type":"uint256","indexed":false,"internalType":"uint256"}],"anonymous":false},{"type":"event","name":"Withdraw","inputs":[{"name":"sender","type":"address","indexed":true,"internalType":"address"},{"name":"receiver","type":"address","indexed":true,"internalType":"address"},{"name":"owner","type":"address","indexed":true,"internalType":"address"},{"name":"assets","type":"uint256","indexed":false,"internalType":"uint256"},{"name":"shares","type":"uint256","indexed":false,"internalType":"uint256"}],"anonymous":false},{"type":"error","name":"AccountUnhealthy","inputs":[]},{"type":"error","name":"AddressEmptyCode","inputs":[{"name":"target","type":"address","internalType":"address"}]},{"type":"error","name":"AddressInsufficientBalance","inputs":[{"name":"account","type":"address","internalType":"address"}]},{"type":"error","name":"BorrowCapExceeded","inputs":[]},{"type":"error","name":"CollateralDisabled","inputs":[]},{"type":"error","name":"ControllerDisabled","inputs":[]},{"type":"error","name":"ERC20InsufficientAllowance","inputs":[{"name":"spender","type":"address","internalType":"address"},{"name":"allowance","type":"uint256","internalType":"uint256"},{"name":"needed","type":"uint256","internalType":"uint256"}]},{"type":"error","name":"ERC20InsufficientBalance","inputs":[{"name":"sender","type":"address","internalType":"address"},{"name":"balance","type":"uint256","internalType":"uint256"},{"name":"needed","type":"uint256","internalType":"uint256"}]},{"type":"error","name":"ERC20InvalidApprover","inputs":[{"name":"approver","type":"address","internalType":"address"}]},{"type":"error","name":"ERC20InvalidReceiver","inputs":[{"name":"receiver","type":"address","internalType":"address"}]},{"type":"error","name":"ERC20InvalidSender","inputs":[{"name":"sender","type":"address","internalType":"address"}]},{"type":"error","name":"ERC20InvalidSpender","inputs":[{"name":"spender","type":"address","internalType":"address"}]},{"type":"error","name":"ERC4626ExceededMaxDeposit","inputs":[{"name":"receiver","type":"address","internalType":"address"},{"name":"assets","type":"uint256","internalType":"uint256"},{"name":"max","type":"uint256","internalType":"uint256"}]},{"type":"error","name":"ERC4626ExceededMaxMint","inputs":[{"name":"receiver","type":"address","internalType":"address"},{"name":"shares","type":"uint256","internalType":"uint256"},{"name":"max","type":"uint256","internalType":"uint256"}]},{"type":"error","name":"ERC4626ExceededMaxRedeem","inputs":[{"name":"owner","type":"address","internalType":"address"},{"name":"shares","type":"uint256","internalType":"uint256"},{"name":"max","type":"uint256","internalType":"uint256"}]},{"type":"error","name":"ERC4626ExceededMaxWithdraw","inputs":[{"name":"owner","type":"address","internalType":"address"},{"name":"assets","type":"uint256","internalType":"uint256"},{"name":"max","type":"uint256","internalType":"uint256"}]},{"type":"error","name":"FailedInnerCall","inputs":[]},{"type":"error","name":"InvalidCollateralFactor","inputs":[]},{"type":"error","name":"NoLiquidationOpportunity","inputs":[]},{"type":"error","name":"NotAuthorized","inputs":[]},{"type":"error","name":"OutstandingDebt","inputs":[]},{"type":"error","name":"OwnableInvalidOwner","inputs":[{"name":"owner","type":"address","internalType":"address"}]},{"type":"error","name":"OwnableUnauthorizedAccount","inputs":[{"name":"account","type":"address","internalType":"address"}]},{"type":"error","name":"Reentrancy","inputs":[]},{"type":"error","name":"RepayAssetsExceeded","inputs":[]},{"type":"error","name":"RepayAssetsInsufficient","inputs":[]},{"type":"error","name":"SafeERC20FailedOperation","inputs":[{"name":"token","type":"address","internalType":"address"}]},{"type":"error","name":"SelfLiquidation","inputs":[]},{"type":"error","name":"SharesSeizureFailed","inputs":[]},{"type":"error","name":"SnapshotNotTaken","inputs":[]},{"type":"error","name":"SupplyCapExceeded","inputs":[]},{"type":"error","name":"VaultStatusCheckDeferred","inputs":[]},{"type":"error","name":"ViolatorStatusCheckDeferred","inputs":[]}],"bytecode":{"object":"0x60e06040523480156200001157600080fd5b50604051620047df380380620047df833981016040819052620000349162000358565b6001600160a01b03871660805260016000558686838382828233806200007457604051631e4fbdf760e01b81526000600482015260240160405180910390fd5b6200007f816200013b565b5060066200008e8382620004bd565b5060076200009d8282620004bd565b505050600080620000b4836200018d60201b60201c565b9150915081620000c6576012620000c8565b805b60ff1660c05250506001600160a01b0390811660a052601280549a82166001600160a01b03199b8c1617905560148054998216998b1699909917909855505060138054959096169490961693909317909355505042600d5550506b033b2e3c9fd0803ce8000000600e5550620005c19050565b600280546001600160a01b038381166001600160a01b0319831681179093556040519116919082907f8be0079c531659141344cd1fd0a4f28419497f9722a3daafe3b4186f6b6457e090600090a35050565b60408051600481526024810182526020810180516001600160e01b031663313ce56760e01b17905290516000918291829182916001600160a01b03871691620001d69162000589565b600060405180830381855afa9150503d806000811462000213576040519150601f19603f3d011682016040523d82523d6000602084013e62000218565b606091505b50915091508180156200022d57506020815110155b1562000265576000818060200190518101906200024b9190620005a7565b905060ff811162000263576001969095509350505050565b505b5060009485945092505050565b6001600160a01b03811681146200028857600080fd5b50565b634e487b7160e01b600052604160045260246000fd5b60005b83811015620002be578181015183820152602001620002a4565b50506000910152565b600082601f830112620002d957600080fd5b81516001600160401b0380821115620002f657620002f66200028b565b604051601f8301601f19908116603f011681019082821181831017156200032157620003216200028b565b816040528381528660208588010111156200033b57600080fd5b6200034e846020830160208901620002a1565b9695505050505050565b600080600080600080600060e0888a0312156200037457600080fd5b8751620003818162000272565b6020890151909750620003948162000272565b6040890151909650620003a78162000272565b6060890151909550620003ba8162000272565b6080890151909450620003cd8162000272565b60a08901519093506001600160401b0380821115620003eb57600080fd5b620003f98b838c01620002c7565b935060c08a01519150808211156200041057600080fd5b506200041f8a828b01620002c7565b91505092959891949750929550565b600181811c908216806200044357607f821691505b6020821081036200046457634e487b7160e01b600052602260045260246000fd5b50919050565b601f821115620004b857600081815260208120601f850160051c81016020861015620004935750805b601f850160051c820191505b81811015620004b4578281556001016200049f565b5050505b505050565b81516001600160401b03811115620004d957620004d96200028b565b620004f181620004ea84546200042e565b846200046a565b602080601f831160018114620005295760008415620005105750858301515b600019600386901b1c1916600185901b178555620004b4565b600085815260208120601f198616915b828110156200055a5788860151825594840194600190910190840162000539565b5085821015620005795787850151600019600388901b60f8161c191681555b5050505050600190811b01905550565b600082516200059d818460208701620002a1565b9190910192915050565b600060208284031215620005ba57600080fd5b5051919050565b60805160a05160c0516140e4620006fb6000396000610ba101526000818161043301528181610e620152818161128f01528181611a570152818161219b0152818161319401528181613380015261343201526000818161083c015281816108d10152818161097001528181610bd701528181610c0101528181610d5601528181610f1d015281816110aa01528181611139015281816111c30152818161133c015281816113660152818161143a01528181611507015281816117390152818161199e01528181611ce301528181611d7601528181611dc901528181611e0401528181611ea501528181611f5901528181611ff1015281816125000152818161264c01528181612794015281816128c401528181612aa801528181612b0001528181612ca201528181612e720152612eae01526140e46000f3fe608060405234801561001057600080fd5b50600436106102f15760003560e01c80637dc0d1d01161019d578063c04f31ff116100e9578063d5c05833116100a2578063dd62ed3e1161007c578063dd62ed3e146106a3578063ef8b30f7146106dc578063f2fde38b146106ef578063f6145f201461070257600080fd5b8063d5c058331461066a578063d905777e1461067d578063d9fd31e61461069057600080fd5b8063c04f31ff1461060b578063c63d75b614610457578063c6e6f5921461061e578063ce96cb7714610631578063d283e75f14610644578063d4bb0c731461065757600080fd5b8063a9059cbb11610156578063b3d7f6b911610130578063b3d7f6b9146105bf578063b460af94146105d2578063b6a3f59a146105e5578063ba087652146105f857600080fd5b8063a9059cbb14610586578063acb7081514610599578063b168c58f146105ac57600080fd5b80637dc0d1d014610536578063869e50c7146105495780638da5cb5b146105515780638f770ad01461056257806394bf804d1461056b57806395d89b411461057e57600080fd5b806338d52e0f1161025c5780634cdad5061161021557806370a08231116101ef57806370a08231146104df578063715018a614610508578063717186d1146105105780637adbf9731461052357600080fd5b80634cdad506146104b15780635257b566146104c45780636e553f65146104cc57600080fd5b806338d52e0f14610431578063402d267d1461045757806344d9dca61461046c5780634b3d1223146104755780634b3fd148146104965780634c19386c146104a957600080fd5b80631e610d68116102ae5780631e610d6814610373578063236175851461039b57806323b872dd146103c457806326c01303146103d757806328e8fe7d146103ec578063313ce5671461041757600080fd5b806301e1d114146102f657806306fdde031461030d57806307a2d13a14610322578063095ea7b3146103355780630a28a4771461035857806318160ddd1461036b575b600080fd5b6008545b6040519081526020015b60405180910390f35b610315610715565b6040516103049190613832565b6102fa610330366004613845565b6107a7565b610348610343366004613873565b6107dd565b6040519015158152602001610304565b6102fa610366366004613845565b610801565b6005546102fa565b61038661038136600461389f565b61080e565b60408051928352602083019190915201610304565b6102fa6103a936600461389f565b6001600160a01b031660009081526011602052604090205490565b6103486103d23660046138bc565b610830565b6103ea6103e53660046138bc565b610966565b005b6012546103ff906001600160a01b031681565b6040516001600160a01b039091168152602001610304565b61041f610b99565b60405160ff9091168152602001610304565b7f00000000000000000000000000000000000000000000000000000000000000006103ff565b6102fa61046536600461389f565b5060001990565b6102fa600a5481565b61047d610bca565b6040516001600160e01b03199091168152602001610304565b6103ea6104a43660046138fd565b610d4c565b6102fa610eb7565b6102fa6104bf366004613845565b610ecb565b6102fa610ed8565b6102fa6104da3660046138fd565b610f11565b6102fa6104ed36600461389f565b6001600160a01b031660009081526003602052604090205490565b6103ea610fa9565b6103ea61051e366004613845565b610fbd565b6103ea61053136600461389f565b611001565b6014546103ff906001600160a01b031681565b6103ea61102b565b6002546001600160a01b03166103ff565b6102fa60095481565b6102fa6105793660046138fd565b61109e565b61031561111e565b610348610594366004613873565b61112d565b6103ea6105a73660046138fd565b6111b9565b61047d6105ba36600461392d565b61132f565b6102fa6105cd366004613845565b611421565b6102fa6105e03660046139b5565b61142e565b6103ea6105f3366004613845565b6114be565b6102fa6106063660046139b5565b6114fb565b6103ea610619366004613873565b61157c565b6102fa61062c366004613845565b6115c2565b6102fa61063f36600461389f565b6115f0565b6102fa61065236600461389f565b611639565b6103ea61066536600461389f565b611644565b6013546103ff906001600160a01b031681565b6102fa61068b36600461389f565b61166e565b6103ea61069e36600461389f565b6116b8565b6102fa6106b13660046139f7565b6001600160a01b03918216600090815260046020908152604080832093909416825291909152205490565b6102fa6106ea366004613845565b6116e2565b6103ea6106fd36600461389f565b6116ef565b610348610710366004613873565b61172d565b60606006805461072490613a25565b80601f016020809104026020016040519081016040528092919081815260200182805461075090613a25565b801561079d5780601f106107725761010080835404028352916020019161079d565b820191906000526020600020905b81548152906001019060200180831161078057829003601f168201915b5050505050905090565b60006001600054146107cc5760405163558a1e0360e11b815260040160405180910390fd5b6107d582610ecb565b90505b919050565b6000806107e861190b565b90506107f5818585611915565b60019150505b92915050565b60006107d5826001611922565b6000806108258361081e8561197c565b6000611a0f565b909590945092505050565b60006001600160a01b037f00000000000000000000000000000000000000000000000000000000000000001633036108b7576001600054146108855760405163558a1e0360e11b815260040160405180910390fd5b6002600055610892611c7a565b600061089f858585611ca5565b90506108aa85611cd3565b90505b600160005561095f565b604051631f8b521560e01b81526000906001600160a01b037f00000000000000000000000000000000000000000000000000000000000000001690631f8b52159061090e9030903390869081903690600401613a59565b6000604051808303816000875af115801561092d573d6000803e3d6000fd5b505050506040513d6000823e601f3d908101601f191682016040526109559190810190613af4565b9050805181602001f35b9392505050565b6001600160a01b037f00000000000000000000000000000000000000000000000000000000000000001633036108b7576001600054146109b95760405163558a1e0360e11b815260040160405180910390fd5b600260009081556109c8611dbb565b9050836001600160a01b0316816001600160a01b0316036109fc576040516344511af160e01b815260040160405180910390fd5b81600003610a1d5760405163270bbe6f60e11b815260040160405180910390fd5b610a2684611f37565b15610a445760405163c9286d5760e01b815260040160405180910390fd5b610a4e8430611fc7565b610a6b576040516359cf0f3760e11b815260040160405180910390fd5b610a73611c7a565b6000610a8085858561205f565b9050610a8c85846123ff565b610a96828461246c565b846001600160a01b0316826001600160a01b03167f05f2eeda0e08e4b437f487c8d7d29b14537d15e3488170dc3de5dbdf8dac468485604051610adb91815260200190565b60405180910390a36040518381526001600160a01b0383169081907f312a5e5e1079f5dda4e95dbbd0b908b291fd5b992ef22073643ab691572c5b529060200160405180910390a3306001600160a01b03851603610b6a57610b3d85856124d6565b610b5a576040516301716b7360e11b815260040160405180910390fd5b610b65858383612531565b610b7f565b610b7684868484612648565b610b7f85612775565b610b8882611cd3565b50506001600055505050565b505050565b6000610bc5817f0000000000000000000000000000000000000000000000000000000000000000613b9e565b905090565b6000336001600160a01b037f000000000000000000000000000000000000000000000000000000000000000016141580610c8357507f00000000000000000000000000000000000000000000000000000000000000006001600160a01b031663e21e537c6040518163ffffffff1660e01b8152600401602060405180830381865afa158015610c5d573d6000803e3d6000fd5b505050506040513d601f19601f82011682018060405250810190610c819190613bc7565b155b15610ca15760405163ea8e4eb560e01b815260040160405180910390fd5b610d3460018054610cb190613a25565b80601f0160208091040260200160405190810160405280929190818152602001828054610cdd90613a25565b8015610d2a5780601f10610cff57610100808354040283529160200191610d2a565b820191906000526020600020905b815481529060010190602001808311610d0d57829003601f168201915b50505050506127c3565b610d4060016000613794565b50634b3d122360e01b90565b6001600160a01b037f00000000000000000000000000000000000000000000000000000000000000001633036108b757600160005414610d9f5760405163558a1e0360e11b815260040160405180910390fd5b60026000908155610dae611dbb565b9050610db8611c7a565b82600003610dfb5760405162461bcd60e51b815260206004820152600b60248201526a5a45524f5f41535345545360a81b60448201526064015b60405180910390fd5b610e04826128a2565b9150610e10818461246c565b816001600160a01b0316816001600160a01b03167f312a5e5e1079f5dda4e95dbbd0b908b291fd5b992ef22073643ab691572c5b5285604051610e5591815260200190565b60405180910390a3610e887f00000000000000000000000000000000000000000000000000000000000000008385612931565b8260086000828254610e9a9190613be2565b90915550610ea9905081611cd3565b5060016000555050565b5050565b600080610ec2612990565b50909392505050565b60006107d5826000612a3c565b6000610ee330612a86565b15610f0157604051634c3c2ae160e01b815260040160405180910390fd5b50600c546001600160601b031690565b60006001600160a01b037f00000000000000000000000000000000000000000000000000000000000000001633036108b757600160005414610f665760405163558a1e0360e11b815260040160405180910390fd5b6002600055610f73611c7a565b610f7d8383612ad9565b90508260086000828254610f919190613bf5565b90915550610f9f9050612afe565b60016000556107fb565b610fb1612b73565b610fbb6000612bd1565b565b610fc5612b73565b600a8190556040518181527fb250c0149b70b55fb6f80e2b07b256904f2efb28f4bbd4e226049db128ec8a63906020015b60405180910390a150565b611009612b73565b601480546001600160a01b0319166001600160a01b0392909216919091179055565b60016000541461104e5760405163558a1e0360e11b815260040160405180910390fd5b6002600090815561105d61190b565b905061106881612c23565b60000361107d5761107881612c83565b611096565b604051631d2197fd60e31b815260040160405180910390fd5b506001600055565b60006001600160a01b037f00000000000000000000000000000000000000000000000000000000000000001633036108b7576001600054146110f35760405163558a1e0360e11b815260040160405180910390fd5b6002600055611100611c7a565b61110a8383612cd1565b90508060086000828254610f919190613bf5565b60606007805461072490613a25565b60006001600160a01b037f00000000000000000000000000000000000000000000000000000000000000001633036108b7576001600054146111825760405163558a1e0360e11b815260040160405180910390fd5b600260005561118f611c7a565b600061119b8484612cf6565b90506111ad6111a861190b565b611cd3565b905060016000556107fb565b6001600160a01b037f00000000000000000000000000000000000000000000000000000000000000001633036108b75760016000541461120c5760405163558a1e0360e11b815260040160405180910390fd5b6002600090815561121b61190b565b90506112278230611fc7565b611244576040516359cf0f3760e11b815260040160405180910390fd5b61124c611c7a565b8260000361128a5760405162461bcd60e51b815260206004820152600b60248201526a5a45524f5f41535345545360a81b6044820152606401610df2565b6112b67f0000000000000000000000000000000000000000000000000000000000000000823086612d0e565b82600860008282546112c89190613bf5565b909155506112d8905082846123ff565b816001600160a01b0316816001600160a01b03167f05f2eeda0e08e4b437f487c8d7d29b14537d15e3488170dc3de5dbdf8dac46848560405161131d91815260200190565b60405180910390a3610ea96000611cd3565b6000336001600160a01b037f0000000000000000000000000000000000000000000000000000000000000000161415806113e857507f00000000000000000000000000000000000000000000000000000000000000006001600160a01b031663e21e537c6040518163ffffffff1660e01b8152600401602060405180830381865afa1580156113c2573d6000803e3d6000fd5b505050506040513d601f19601f820116820180604052508101906113e69190613bc7565b155b156114065760405163ea8e4eb560e01b815260040160405180910390fd5b611411848484612d47565b5063b168c58f60e01b9392505050565b60006107d5826001612a3c565b60006001600160a01b037f00000000000000000000000000000000000000000000000000000000000000001633036108b7576001600054146114835760405163558a1e0360e11b815260040160405180910390fd5b6002600055611490611c7a565b61149b848484612db0565b905083600860008282546114af9190613be2565b909155506108ad905082611cd3565b6114c6612b73565b60098190556040518181527fbc585eed6f54aa16ec292be93276937803d5a047ba4eded0c87779270bbfdfe690602001610ff6565b60006001600160a01b037f00000000000000000000000000000000000000000000000000000000000000001633036108b7576001600054146115505760405163558a1e0360e11b815260040160405180910390fd5b600260005561155d611c7a565b611568848484612e0f565b905080600860008282546114af9190613be2565b611584612b73565b60648111156115a6576040516302f22cad60e61b815260040160405180910390fd5b6001600160a01b03909116600090815260116020526040902055565b60006001600054146115e75760405163558a1e0360e11b815260040160405180910390fd5b6107d5826116e2565b60085460009081611620611619856001600160a01b031660009081526003602052604090205490565b6000612a3c565b905081811161162f5780611631565b815b949350505050565b60006107d582612c23565b61164c612b73565b601280546001600160a01b0319166001600160a01b0392909216919091179055565b60085460009081611694846001600160a01b031660009081526003602052604090205490565b9050816116a2826000612a3c565b116116ad5780611631565b611631826000611922565b6116c0612b73565b601380546001600160a01b0319166001600160a01b0392909216919091179055565b60006107d5826000611922565b6116f7612b73565b6001600160a01b03811661172157604051631e4fbdf760e01b815260006004820152602401610df2565b61172a81612bd1565b50565b60006001600160a01b037f00000000000000000000000000000000000000000000000000000000000000001633036108b7576001600054146117825760405163558a1e0360e11b815260040160405180910390fd5b60026000908155611791611dbb565b905061179d8430611fc7565b6117ba576040516359cf0f3760e11b815260040160405180910390fd5b6117c2611c7a565b826000036118005760405162461bcd60e51b815260206004820152600b60248201526a16915493d7d05353d5539560aa1b6044820152606401610df2565b836001600160a01b0316816001600160a01b0316036118525760405162461bcd60e51b815260206004820152600e60248201526d14d1531197d111509517d415531360921b6044820152606401610df2565b61185c84846123ff565b611866818461246c565b836001600160a01b0316816001600160a01b03167f05f2eeda0e08e4b437f487c8d7d29b14537d15e3488170dc3de5dbdf8dac4684856040516118ab91815260200190565b60405180910390a36040518381526001600160a01b0382169081907f312a5e5e1079f5dda4e95dbbd0b908b291fd5b992ef22073643ab691572c5b529060200160405180910390a36118fc81611cd3565b600191505060016000556107fb565b6000610bc5612e65565b610b948383836001612f27565b60008061192d612990565b5050905061163161193c600090565b61194790600a613cec565b6005546119549190613bf5565b8261195e60085490565b6119689190613bf5565b611973906001613bf5565b86919086612ffc565b6040516352692e8f60e11b81526001600160a01b0382811660048301526060917f00000000000000000000000000000000000000000000000000000000000000009091169063a4d25d1e90602401600060405180830381865afa1580156119e7573d6000803e3d6000fd5b505050506040513d6000823e601f3d908101601f191682016040526107d59190810190613cfb565b6000806000611a1d86612c23565b925082158015611a2a5750835b15611a3d57506000915081905080611c71565b8215611af2576014546001600160a01b031663ae68676c847f000000000000000000000000000000000000000000000000000000000000000060135460405160e085901b6001600160e01b031916815260048101939093526001600160a01b039182166024840152166044820152606401602060405180830381865afa158015611acb573d6000803e3d6000fd5b505050506040513d601f19601f82011682018060405250810190611aef9190613dad565b91505b60005b8551811015611c6f576000868281518110611b1257611b12613dc6565b6020908102919091018101516001600160a01b038116600090815260119092526040909120549091508015611c5c576040516370a0823160e01b81526001600160a01b038a81166004830152600091908416906370a0823190602401602060405180830381865afa158015611b8b573d6000803e3d6000fd5b505050506040513d601f19601f82011682018060405250810190611baf9190613dad565b90508015611c5a57601454601354604051632b9a19db60e21b8152600481018490526001600160a01b03868116602483015291821660448201526064928592169063ae68676c908401602060405180830381865afa158015611c15573d6000803e3d6000fd5b505050506040513d601f19601f82011682018060405250810190611c399190613dad565b611c439190613ddc565b611c4d9190613e09565b611c579086613bf5565b94505b505b505080611c6890613e1d565b9050611af5565b505b93509350939050565b60018054611c8790613a25565b9050600003610fbb57611c98613040565b60019061172a9082613e84565b600080611cb061190b565b9050611cbd858285613082565b611cc88585856130e7565b506001949350505050565b6001600160a01b038116611d57577f00000000000000000000000000000000000000000000000000000000000000006001600160a01b031663a37d54af6040518163ffffffff1660e01b8152600401600060405180830381600087803b158015611d3c57600080fd5b505af1158015611d50573d6000803e3d6000fd5b5050505050565b6040516330f3166760e01b81526001600160a01b0382811660048301527f000000000000000000000000000000000000000000000000000000000000000016906330f31667906024015b600060405180830381600087803b158015611d3c57600080fd5b600033816001600160a01b037f0000000000000000000000000000000000000000000000000000000000000000168203611e8057604051630c281d0f60e11b81523060048201527f00000000000000000000000000000000000000000000000000000000000000006001600160a01b0316906318503a1e906024016040805180830381865afa158015611e52573d6000803e3d6000fd5b505050506040513d601f19601f82011682018060405250810190611e769190613f44565b9092509050611f13565b6040516311f3f6b160e21b81526001600160a01b0383811660048301523060248301527f000000000000000000000000000000000000000000000000000000000000000016906347cfdac490604401602060405180830381865afa158015611eec573d6000803e3d6000fd5b505050506040513d601f19601f82011682018060405250810190611f109190613bc7565b90505b80611f31576040516359cf0f3760e11b815260040160405180910390fd5b50919050565b6040516342e5349960e01b81526001600160a01b0382811660048301526000917f0000000000000000000000000000000000000000000000000000000000000000909116906342e53499906024015b602060405180830381865afa158015611fa3573d6000803e3d6000fd5b505050506040513d601f19601f820116820180604052508101906107d59190613bc7565b6040516311f3f6b160e21b81526001600160a01b03838116600483015282811660248301526000917f0000000000000000000000000000000000000000000000000000000000000000909116906347cfdac4906044015b602060405180830381865afa15801561203b573d6000803e3d6000fd5b505050506040513d601f19601f8201168201806040525081019061095f9190613bc7565b6001600160a01b038216600090815260116020526040812054808203612098576040516301716b7360e11b815260040160405180910390fd5b60008060006120b1886120aa8a61197c565b6001611a0f565b925092509250828611156120d857604051636c5b519160e01b815260040160405180910390fd5b8181106120f85760405163689b2cf360e11b815260040160405180910390fd5b600082612106836064613ddc565b6121109190613e09565b61211b906064613be2565b9050601481111561212a575060145b600060646121388382613bf5565b6121429088613ddc565b61214c9190613e09565b61215790607d613be2565b612162846064613ddc565b61216d86607d613ddc565b6121779190613be2565b6121819190613e09565b6014549091506000906001600160a01b031663ae68676c8a7f000000000000000000000000000000000000000000000000000000000000000060135460405160e085901b6001600160e01b031916815260048101939093526001600160a01b039182166024840152166044820152606401602060405180830381865afa15801561220f573d6000803e3d6000fd5b505050506040513d601f19601f820116820180604052508101906122339190613dad565b9050818111801561224d575061224a600286613e09565b82105b1561226b57604051636c5b519160e01b815260040160405180910390fd5b600060646122798582613bf5565b6122839084613ddc565b61228d9190613e09565b905060008b6001600160a01b031663313ce5676040518163ffffffff1660e01b8152600401602060405180830381865afa1580156122cf573d6000803e3d6000fd5b505050506040513d601f19601f820116820180604052508101906122f39190613f79565b6122fe90600a613cec565b90506000601460009054906101000a90046001600160a01b03166001600160a01b031663ae68676c838f601360009054906101000a90046001600160a01b03166040518463ffffffff1660e01b8152600401612376939291909283526001600160a01b03918216602084015216604082015260600190565b602060405180830381865afa158015612393573d6000803e3d6000fd5b505050506040513d601f19601f820116820180604052508101906123b79190613dad565b6123c18385613ddc565b6123cb9190613e09565b9050806000036123ee5760405163270bbe6f60e11b815260040160405180910390fd5b9d9c50505050505050505050505050565b8061240983612c23565b6124139190613be2565b6001600160a01b0383166000908152600f6020526040902055600b548181101561243e576000612448565b6124488282613be2565b600b555050600e546001600160a01b03909116600090815260106020526040902055565b8061247683612c23565b6124809190613bf5565b6001600160a01b0383166000908152600f6020526040812091909155600b80548392906124ae908490613bf5565b9091555050600e546001600160a01b0390921660009081526010602052604090209190915550565b6040516313ce2dab60e31b81526001600160a01b03838116600483015282811660248301526000917f000000000000000000000000000000000000000000000000000000000000000090911690639e716d589060440161201e565b6001600160a01b03831661255c5780600560008282546125519190613bf5565b909155506125bb9050565b6001600160a01b0383166000908152600360205260409020548181101561259c5783818360405163391434e360e21b8152600401610df293929190613f9c565b6001600160a01b03841660009081526003602052604090209082900390555b6001600160a01b0382166125d7576005805482900390556125f6565b6001600160a01b03821660009081526003602052604090208054820190555b816001600160a01b0316836001600160a01b03167fddf252ad1be2c89b69c2b068fc378daa952ba7f163c4a11628f55a4df523b3ef8360405161263b91815260200190565b60405180910390a3505050565b60007f00000000000000000000000000000000000000000000000000000000000000006001600160a01b031663b9b70ff58686600087876040516024016126a49291906001600160a01b03929092168252602082015260400190565b60408051601f198184030181529181526020820180516001600160e01b031663a9059cbb60e01b1790525160e086901b6001600160e01b03191681526126f09493929190600401613fbd565b6000604051808303816000875af115801561270f573d6000803e3d6000fd5b505050506040513d6000823e601f3d908101601f191682016040526127379190810190613af4565b90508051600014806127585750808060200190518101906127589190613bc7565b611d5057604051631aa7c25160e21b815260040160405180910390fd5b604051630214ea3360e31b81526001600160a01b0382811660048301527f000000000000000000000000000000000000000000000000000000000000000016906310a7519890602401611da1565b80516000036127e5576040516332e17beb60e21b815260040160405180910390fd5b6127ed613146565b600080828060200190518101906128049190613ff0565b600854600b54600954939550919350911580159061282c575060095461282a8284613bf5565b115b8015612849575061283d8385613bf5565b6128478284613bf5565b115b1561286757604051637ac7b99d60e11b815260040160405180910390fd5b600a54158015906128795750600a5481115b801561288457508281115b15611d5057604051633bd3544b60e11b815260040160405180910390fd5b60405163110ac5cb60e21b81526001600160a01b0382811660048301526000917f00000000000000000000000000000000000000000000000000000000000000009091169063442b172c90602401602060405180830381865afa925050508015612929575060408051601f3d908101601f1916820190925261292691810190614014565b60015b6107d5575090565b6040516001600160a01b03838116602483015260448201839052610b9491859182169063a9059cbb906064015b604051602081830303815290604052915060e01b6020820180516001600160e01b03838183161783525050505061325a565b600080600080600d54426129a49190613be2565b600b54600e549192509060008390036129c557909590945060009350915050565b600c546000906b033b2e3c9fd0803ce8000000908390612a06906129f39084906001600160601b0316613bf5565b876b033b2e3c9fd0803ce80000006132bd565b612a109190613ddc565b612a1a9190613e09565b90506000612a2b8483856001612ffc565b989197506001965090945050505050565b600080612a47612990565b5050905061163181612a5860085490565b612a629190613bf5565b612a6d906001613bf5565b612a796000600a613cec565b6005546119739190613bf5565b6040516319bb1d4f60e31b81526001600160a01b0382811660048301526000917f00000000000000000000000000000000000000000000000000000000000000009091169063cdd8ea7890602401611f86565b60006000196000612ae9856116e2565b9050611631612af661190b565b85878461337b565b7f00000000000000000000000000000000000000000000000000000000000000006001600160a01b031663a37d54af6040518163ffffffff1660e01b8152600401600060405180830381600087803b158015612b5957600080fd5b505af1158015612b6d573d6000803e3d6000fd5b50505050565b612b7b61190b565b6001600160a01b0316612b966002546001600160a01b031690565b6001600160a01b031614610fbb57612bac61190b565b60405163118cdaa760e01b81526001600160a01b039091166004820152602401610df2565b600280546001600160a01b038381166001600160a01b0319831681179093556040519116919082907f8be0079c531659141344cd1fd0a4f28419497f9722a3daafe3b4186f6b6457e090600090a35050565b6001600160a01b0381166000908152600f6020526040812054808203612c4c5750600092915050565b6000612c56612990565b506001600160a01b0386166000908152601060205260409020549092506116319150839083906001612ffc565b604051630f4fc35760e41b81526001600160a01b0382811660048301527f0000000000000000000000000000000000000000000000000000000000000000169063f4fc357090602401611da1565b60006000196000612ce185611421565b9050611631612cee61190b565b85838861337b565b600080612d0161190b565b90506107f58185856130e7565b6040516001600160a01b038481166024830152838116604483015260648201839052612b6d9186918216906323b872dd9060840161295e565b600080612d8a8585858080602002602001604051908101604052809392919081815260200183836020028082843760009201919091525060019250611a0f915050565b925092505080821115611d50576040516302fb7a9160e31b815260040160405180910390fd5b600080612dbc836115f0565b905080851115612de557828582604051633fa733bb60e21b8152600401610df293929190613f9c565b6000612df086610801565b9050612e06612dfd61190b565b868689856133ff565b95945050505050565b600080612e1b8361166e565b905080851115612e4457828582604051632e52afbb60e21b8152600401610df293929190613f9c565b6000612e4f86610ecb565b9050612e06612e5c61190b565b8686848a6133ff565b6000336001600160a01b037f00000000000000000000000000000000000000000000000000000000000000001681036107d857604051630c281d0f60e11b8152600060048201527f00000000000000000000000000000000000000000000000000000000000000006001600160a01b0316906318503a1e906024016040805180830381865afa158015612efc573d6000803e3d6000fd5b505050506040513d601f19601f82011682018060405250810190612f209190613f44565b5092915050565b6001600160a01b038416612f515760405163e602df0560e01b815260006004820152602401610df2565b6001600160a01b038316612f7b57604051634a1406b160e11b815260006004820152602401610df2565b6001600160a01b0380851660009081526004602090815260408083209387168352929052208290558015612b6d57826001600160a01b0316846001600160a01b03167f8c5be1e5ebec7d5bd14f71427d1e84f3dd0314c0f7b2291e5b200ac8c7c3b92584604051612fee91815260200190565b60405180910390a350505050565b600061302b61300a836134bf565b801561302657506000848061302157613021613df3565b868809115b151590565b6130368686866134ec565b612e069190613bf5565b6060600061304c6135ae565b5090506008548160405160200161306d929190918252602082015260400190565b60405160208183030381529060405291505090565b6001600160a01b038381166000908152600460209081526040808320938616835292905220546000198114612b6d57818110156130d857828183604051637dc7a0d960e11b8152600401610df293929190613f9c565b612b6d84848484036000612f27565b6001600160a01b03831661311157604051634b637e8f60e11b815260006004820152602401610df2565b6001600160a01b03821661313b5760405163ec442f0560e01b815260006004820152602401610df2565b610b94838383612531565b600b5460085460009061315a908390613bf5565b905060008115613180578161317363ffffffff85613ddc565b61317d9190613e09565b90505b6012546001600160a01b0316634f2d2166307f00000000000000000000000000000000000000000000000000000000000000006040516001600160e01b031960e085901b1681526001600160a01b0392831660048201529116602482015263ffffffff841660448201526064016020604051808303816000875af115801561320c573d6000803e3d6000fd5b505050506040513d601f19601f820116820180604052508101906132309190614031565b600c80546bffffffffffffffffffffffff19166001600160601b0392909216919091179055505050565b600061326f6001600160a01b038416836135e3565b905080516000141580156132945750808060200190518101906132929190613bc7565b155b15610b9457604051635274afe760e01b81526001600160a01b0384166004820152602401610df2565b600083801561335d576001841680156132d8578592506132dc565b8392505b508260011c8460011c94505b8415613357578560801c156132fc57600080fd5b8586028181018181101561330f57600080fd5b859004965050600185161561334c57858302838782041461333557861561333557600080fd5b8181018181101561334557600080fd5b8590049350505b8460011c94506132e8565b50613373565b83801561336d5760009250613371565b8392505b505b509392505050565b6133a77f0000000000000000000000000000000000000000000000000000000000000000853085612d0e565b6133b183826135f1565b826001600160a01b0316846001600160a01b03167fdcbc1c05240f31ff3ad067ef1ee35ce4997762752e3a095284754544f4c709d78484604051612fee929190918252602082015260400190565b826001600160a01b0316856001600160a01b03161461342357613423838683613082565b61342d8382613627565b6134587f00000000000000000000000000000000000000000000000000000000000000008584612931565b826001600160a01b0316846001600160a01b0316866001600160a01b03167ffbde797d201c681b91056529119e0b02407c7bb96a4a2c75c01fc9667232c8db85856040516134b0929190918252602082015260400190565b60405180910390a45050505050565b600060028260038111156134d5576134d561405a565b6134df9190614070565b60ff166001149050919050565b60008383028160001985870982811083820303915050806000036135235783828161351957613519613df3565b049250505061095f565b80841161354157613541841561353a57601161365d565b601261365d565b6000848688096000868103871696879004966002600389028118808a02820302808a02820302808a02820302808a02820302808a02820302808a02909103029181900381900460010186841190950394909402919094039290920491909117919091029150509392505050565b60008060008060006135be612990565b92509250925080156135d957600b839055600e82905542600d555b5090939092509050565b606061095f83836000613672565b6001600160a01b03821661361b5760405163ec442f0560e01b815260006004820152602401610df2565b610eb360008383612531565b6001600160a01b03821661365157604051634b637e8f60e11b815260006004820152602401610df2565b610eb382600083612531565b634e487b7160e01b6000528060045260246000fd5b6060814710156136975760405163cd78605960e01b8152306004820152602401610df2565b600080856001600160a01b031684866040516136b39190614092565b60006040518083038185875af1925050503d80600081146136f0576040519150601f19603f3d011682016040523d82523d6000602084013e6136f5565b606091505b509150915061370586838361370f565b9695505050505050565b6060826137245761371f8261376b565b61095f565b815115801561373b57506001600160a01b0384163b155b1561376457604051639996b31560e01b81526001600160a01b0385166004820152602401610df2565b508061095f565b80511561377b5780518082602001fd5b604051630a12f52160e11b815260040160405180910390fd5b5080546137a090613a25565b6000825580601f106137b0575050565b601f01602090049060005260206000209081019061172a91905b808211156137de57600081556001016137ca565b5090565b60005b838110156137fd5781810151838201526020016137e5565b50506000910152565b6000815180845261381e8160208601602086016137e2565b601f01601f19169290920160200192915050565b60208152600061095f6020830184613806565b60006020828403121561385757600080fd5b5035919050565b6001600160a01b038116811461172a57600080fd5b6000806040838503121561388657600080fd5b82356138918161385e565b946020939093013593505050565b6000602082840312156138b157600080fd5b813561095f8161385e565b6000806000606084860312156138d157600080fd5b83356138dc8161385e565b925060208401356138ec8161385e565b929592945050506040919091013590565b6000806040838503121561391057600080fd5b8235915060208301356139228161385e565b809150509250929050565b60008060006040848603121561394257600080fd5b833561394d8161385e565b9250602084013567ffffffffffffffff8082111561396a57600080fd5b818601915086601f83011261397e57600080fd5b81358181111561398d57600080fd5b8760208260051b85010111156139a257600080fd5b6020830194508093505050509250925092565b6000806000606084860312156139ca57600080fd5b8335925060208401356139dc8161385e565b915060408401356139ec8161385e565b809150509250925092565b60008060408385031215613a0a57600080fd5b8235613a158161385e565b915060208301356139228161385e565b600181811c90821680613a3957607f821691505b602082108103611f3157634e487b7160e01b600052602260045260246000fd5b6001600160a01b038681168252851660208201526040810184905260806060820181905281018290526000828460a0840137600060a0848401015260a0601f19601f85011683010190509695505050505050565b634e487b7160e01b600052604160045260246000fd5b604051601f8201601f1916810167ffffffffffffffff81118282101715613aec57613aec613aad565b604052919050565b600060208284031215613b0657600080fd5b815167ffffffffffffffff80821115613b1e57600080fd5b818401915084601f830112613b3257600080fd5b815181811115613b4457613b44613aad565b613b57601f8201601f1916602001613ac3565b9150808252856020828501011115613b6e57600080fd5b613b7f8160208401602086016137e2565b50949350505050565b634e487b7160e01b600052601160045260246000fd5b60ff81811683821601908111156107fb576107fb613b88565b805180151581146107d857600080fd5b600060208284031215613bd957600080fd5b61095f82613bb7565b818103818111156107fb576107fb613b88565b808201808211156107fb576107fb613b88565b600181815b80851115613c43578160001904821115613c2957613c29613b88565b80851615613c3657918102915b93841c9390800290613c0d565b509250929050565b600082613c5a575060016107fb565b81613c67575060006107fb565b8160018114613c7d5760028114613c8757613ca3565b60019150506107fb565b60ff841115613c9857613c98613b88565b50506001821b6107fb565b5060208310610133831016604e8410600b8410161715613cc6575081810a6107fb565b613cd08383613c08565b8060001904821115613ce457613ce4613b88565b029392505050565b600061095f60ff841683613c4b565b60006020808385031215613d0e57600080fd5b825167ffffffffffffffff80821115613d2657600080fd5b818501915085601f830112613d3a57600080fd5b815181811115613d4c57613d4c613aad565b8060051b9150613d5d848301613ac3565b8181529183018401918481019088841115613d7757600080fd5b938501935b83851015613da15784519250613d918361385e565b8282529385019390850190613d7c565b98975050505050505050565b600060208284031215613dbf57600080fd5b5051919050565b634e487b7160e01b600052603260045260246000fd5b80820281158282048414176107fb576107fb613b88565b634e487b7160e01b600052601260045260246000fd5b600082613e1857613e18613df3565b500490565b600060018201613e2f57613e2f613b88565b5060010190565b601f821115610b9457600081815260208120601f850160051c81016020861015613e5d5750805b601f850160051c820191505b81811015613e7c57828155600101613e69565b505050505050565b815167ffffffffffffffff811115613e9e57613e9e613aad565b613eb281613eac8454613a25565b84613e36565b602080601f831160018114613ee75760008415613ecf5750858301515b600019600386901b1c1916600185901b178555613e7c565b600085815260208120601f198616915b82811015613f1657888601518255948401946001909101908401613ef7565b5085821015613f345787850151600019600388901b60f8161c191681555b5050505050600190811b01905550565b60008060408385031215613f5757600080fd5b8251613f628161385e565b9150613f7060208401613bb7565b90509250929050565b600060208284031215613f8b57600080fd5b815160ff8116811461095f57600080fd5b6001600160a01b039390931683526020830191909152604082015260600190565b6001600160a01b038581168252841660208201526040810183905260806060820181905260009061370590830184613806565b6000806040838503121561400357600080fd5b505080516020909101519092909150565b60006020828403121561402657600080fd5b815161095f8161385e565b60006020828403121561404357600080fd5b81516001600160601b038116811461095f57600080fd5b634e487b7160e01b600052602160045260246000fd5b600060ff83168061408357614083613df3565b8060ff84160691505092915050565b600082516140a48184602087016137e2565b919091019291505056fea2646970667358221220fcdaa429465ed7e5f987f5a1987f1385a2abe0dd86e8f2fa2a0d6f3165a7aba764736f6c63430008140033","linkReferences":{}},"methodIdentifiers":{"allowance(address,address)":"dd62ed3e","approve(address,uint256)":"095ea7b3","asset()":"38d52e0f","balanceOf(address)":"70a08231","borrow(uint256,address)":"4b3fd148","borrowCap()":"44d9dca6","checkAccountStatus(address,address[])":"b168c58f","checkVaultStatus()":"4b3d1223","convertToAssets(uint256)":"07a2d13a","convertToShares(uint256)":"c6e6f592","debtOf(address)":"d283e75f","decimals()":"313ce567","deposit(uint256,address)":"6e553f65","disableController()":"869e50c7","getAccountLiabilityStatus(address)":"1e610d68","getCollateralFactor(address)":"23617585","getInterestRate()":"5257b566","irm()":"28e8fe7d","liquidate(address,address,uint256)":"26c01303","maxDeposit(address)":"402d267d","maxMint(address)":"c63d75b6","maxRedeem(address)":"d905777e","maxWithdraw(address)":"ce96cb77","mint(uint256,address)":"94bf804d","name()":"06fdde03","oracle()":"7dc0d1d0","owner()":"8da5cb5b","previewDeposit(uint256)":"ef8b30f7","previewMint(uint256)":"b3d7f6b9","previewRedeem(uint256)":"4cdad506","previewWithdraw(uint256)":"0a28a477","pullDebt(address,uint256)":"f6145f20","redeem(uint256,address,address)":"ba087652","referenceAsset()":"d5c05833","renounceOwnership()":"715018a6","repay(uint256,address)":"acb70815","setBorrowCap(uint256)":"717186d1","setCollateralFactor(address,uint256)":"c04f31ff","setIRM(address)":"d4bb0c73","setOracle(address)":"7adbf973","setReferenceAsset(address)":"d9fd31e6","setSupplyCap(uint256)":"b6a3f59a","supplyCap()":"8f770ad0","symbol()":"95d89b41","totalAssets()":"01e1d114","totalBorrowed()":"4c19386c","totalSupply()":"18160ddd","transfer(address,uint256)":"a9059cbb","transferFrom(address,address,uint256)":"23b872dd","transferOwnership(address)":"f2fde38b","withdraw(uint256,address,address)":"b460af94"},"id":84}